:0400000085EF00F098
:10000800F513F513F513F513F513F513F513F513A8
:10001800F513F513F513F513F513F513F513F51398
:10002800F513F513F513F513F513F513F513F51388
:10003800F513F513F513F513F513F513F513F51378
:10004800F513F513F513F513F513F513F513F51368
:10005800F513F513F513F513F513F513F513F51358
:10006800F513F513F513F513F513F513F513F51348
:10007800F513F513F513F5134200F513F513F513FE
:10008800F513F513F513F513F513F513F513F51328
:10009800F513F513F513F5134200F513F513F513DE
:1000A800F513F513F513F513F513F513F513F51308
:1000B800F513F513F513F513F513F513F513F513F8
:1000C800F513F513F513F513F513F513F513F513E8
:1000D800F513F513F513F513F513F513F513F513D8
:1000E8004200F513F513F513F513F513F513F5138E
:1000F800F513F513F513F513F513F513F513F513B8
:10010800FF00F8EF17F096EC2DF00A0E081809100A
:10011800D8B491EF00F093EF00F0BEEF00F096EC4A
:100128002DF0320E08180910D8B49DEF00F09FEF9B
:1001380000F0BEEF00F096EC2DF05A0E08180910EA
:10014800D8B4A9EF00F0ABEF00F0BEEF00F0D20E8C
:100158000501CE6FE50ECF6F900ED06FF70ED16F01
:10016800030ED36F150ED26F3A0ED46FF00ED56F03
:1001780015EC2BF096EC2DF0E3C5D9F4E4C5DAF4D0
:1001880008C5DEF409C5DDF496EC2DF05A0E081802
:100198000910D8A4D2EF00F0D4EF00F0D6EF00F0A9
:1001A8004CEF01F096EC2DF00A0E08180910D8A4AF
:1001B800E0EF00F0E2EF00F026EF01F0000E0B6E2A
:1001C800010E0A6E10EC2CF0000E1A6E000E1B6E5B
:1001D800000E1C6E000E1D6E1A0E1E6EE50E1F6EB2
:1001E800000E216E0A0E206E4CEC21F002D808EFAA
:1001F80001F00500FA6E0801D151FD6ED251FE6E74
:10020800D351FF6EFA501200000E086E000E096EF0
:10021800000E0A6E000E0B6E02D81EEF01F00500EC
:10022800FA6E0701E651FD6EE751FE6EE851FF6E6A
:10023800FA501200000E0501D66F000ED76FAD0EF2
:10024800C1ECB4F0000E0B6E010E0A6E10EC2CF02F
:10025800ACEC2DF0000E0501D66F000ED76FAB0E7B
:10026800C1ECB4F077EC2DF0000E0501D66F000E4E
:10027800D76FAC0EC1ECB4F0000E07014C6F500EF6
:100288004B6F28EC24F0000E07014C6F5A0E4B6F91
:1002980012008EC6D9F48FC6DAF4DEC492F6DDC435
:1002A80093F68EC650F68FC651F6000E0601526FB1
:1002B800000E536F000E546F000E556F84ECD5F08E
:1002C8000601956F9551D8B46CEF01F06EEF01F00F
:1002D80072EF01F0060195510EEF02F092C62BF66F
:1002E80093C62CF620EE16F08E51D9268F51DA22BD
:1002F800DEC42DF6DEC42EF6DEC42FF6DEC430F6DC
:10030800C4EC18F00601956F9551D8B48EEF01F042
:1003180090EF01F092EF01F06EEF01F020EE1AF08D
:100328008E51D9268F51DA22DEC490F6DDC491F6BB
:1003380090C6D9F491C6DAF4DF50946F9451D8A4DA
:10034800A8EF01F0AAEF01F0AEEF01F0040E956FEF
:100358006EEF01F020EE04F08E51D9268F51DA228B
:1003680010EE1AF08E51E1268F51E22200EE0BF0CA
:10037800E650E926E550EA22EF503F0BDF6E20EE0B
:100388001AF08E51D9268F51DA2210EE0BF0DE507A
:10039800E126DD50E222E7B6D4EF01F0D6EF01F016
:1003A800F7EF01F020EE1AF08E51D9268F51DA229C
:1003B800DEC408F5DDC409F51C0E8E250A6E000E94
:1003C8008F210B6E000E0D6E0B0E0C6E2AEC17F0C3
:1003D80008500910D8A4F3EF01F0F5EF01F0F7EF9A
:1003E80001F06EEF01F08EC674F68FC675F6000E3A
:1003F8000601776F000E766FF3ECC9F00601956F72
:100408009551D8B40AEF02F00CEF02F072EF01F048
:100418006EEF01F01200000E136E000E126E0DC585
:10042800D9F40EC5DAF4DEC40FF5DDC410F50FC536
:10043800D9F410C5DAF4300EDE18D8A426EF02F08D
:1004480028EF02F043EF02F00DC5D9F40EC5DAF437
:1004580010EE01F0DE50E126DD50E222780EE618BB
:10046800D8A439EF02F03BEF02F043EF02F0020E9E
:100478000DC5D9F40EC5DAF4DE26000EDD220DC551
:10048800D9F40EC5DAF4DEC40FF5DDC410F50FC5D6
:10049800D9F410C5DAF4DF50146E600E146457EF07
:1004A80002F059EF02F063EF02F0670E14605FEF9D
:1004B80002F061EF02F063EF02F0200E145E2F0EDF
:1004C800146469EF02F06BEF02F073EF02F0390E7B
:1004D800146471EF02F073EF02F085EF02F0400E42
:1004E800146479EF02F07BEF02F090EF02F0460E11
:1004F800146481EF02F083EF02F085EF02F090EFD1
:1005080002F0124A132A0DC5D9F40EC5DAF4DE2A10
:10051800000EDD2243EF02F00DC5D9F40EC5DAF462
:10052800DEC40FF5DDC410F50FC5D9F410C5DAF433
:10053800680EDE18D8B4A3EF02F0A5EF02F0BAEF08
:1005480002F00DC5D9F40EC5DAF4DEC40FF5DDC42A
:1005580010F50FC5D9F410C5DAF4480EDE18D8A482
:10056800B8EF02F0BAEF02F0C1EF02F00DC5D9F40E
:100578000EC5DAF4DE2A000EDD220DC508F50EC51B
:1005880009F52EEC2AF012C50DF513C50EF512006B
:10059800FBC7B8F6B4C6D9F4B5C6DAF4DE50DE1037
:1005A800D8B4D9EF02F0DBEF02F060EF03F0B4C685
:1005B800D9F4B5C6DAF4DEC4B6F6DDC4B7F6B6C605
:1005C800D9F4B7C6DAF4DF50D8B4EDEF02F0EFEFA4
:1005D80002F060EF03F007015451D8B4F6EF02F0CF
:1005E800F8EF02F00EEF03F0E5C633F6E6C634F690
:1005F800E7C635F6E8C636F67F0E0601376F070EF2
:10060800386F000E3A6F010E396F1FECF8F0000ECC
:100618000701546FB4C6D9F4B5C6DAF4DEC438F5A8
:10062800DDC439F53EECECF038C5E5F639C5E6F63B
:100638003AC5E7F63BC5E8F64D0E0501B46FF10E75
:10064800B56FE5C6B6F5E6C6B7F5E7C6B8F5E8C6C8
:10065800B9F5FCEC2BF0E5C633F6E6C634F6E7C68A
:1006680035F6E8C636F67F0E0601376F070E386F87
:10067800000E3A6F010E396FECECF8F0E5C633F670
:10068800E6C634F6E7C635F6E8C636F6B80E06010D
:10069800376F060E386F000E3A6F010E396F1FEC78
:1006A800F8F0010E0701546FEBC622F5ECC623F5EE
:1006B8001EEC29F081EF03F007015451D8B467EF1D
:1006C80003F069EF03F07AEF03F0060E0501B46F4B
:1006D800F30EB56FE5C6B6F5E6C6B7F5E7C6B8F5E5
:1006E800E8C6B9F5FCEC2BF081EF03F0790E0501B3
:1006F800B46FF20EB56FFCEC2BF0000E0601B36F71
:10070800000EB26F120008C512F509C513F50C509A
:100718000D10D8A492EF03F094EF03F096EF03F0D6
:1007280041EF04F012C5D9F413C5DAF40AC5DFF4B1
:100738000C5012240E6E0D5013200F6EFF0E0E2457
:10074800D96EFF0E0F20DA6E0AC5DFF40D5007E1EF
:10075800030E0C5CD8B0B3EF03F0B5EF03F0B7EFBE
:1007680003F041EF04F020EE01F01250D9261350A7
:10077800DA220AC5DFF420EE02F01250D92613500F
:10078800DA220AC5DFF40C5012240E6E0D50132025
:100798000F6EFE0E0E24D96EFF0E0F20DA6E0AC5FC
:1007A800DFF40C5012240E6E0D5013200F6EFD0E48
:1007B8000E24D96EFF0E0F20DA6E0AC5DFF40D5035
:1007C80007E1070E0C5CD8B0ECEF03F0EEEF03F096
:1007D800F0EF03F041EF04F020EE03F01250D926B9
:1007E8001350DA220AC5DFF40C5012240E6E0D5095
:1007F80013200F6EFC0E0E24D96EFF0E0F20DA6E3A
:100808000AC5DFF40D5007E1090E0C5CD8B00FEFF4
:1008180004F011EF04F013EF04F041EF04F012C5F7
:100828000EF513C50FF50E1E0F1E0E4A0F2A030EE6
:100838000E14106E116A1050122611501322105007
:100848000C5E11500D5AFC0E0C16FF0E0D1638EFEB
:1008580004F012C5D9F413C5DAF40AC5DFF40C069E
:10086800D8A00D06124A132A0C500D10D8A43FEF39
:1008780004F041EF04F02DEF04F01200D4C5EBF5BD
:10088800D5C5ECF50F0E0501D625D86F000ED7217A
:10089800D96FF00ED815D66FFF0ED915D76F000E89
:1008A800EE6F000EED6FF0EF04F00F0EED15D86F40
:1008B800000EEE15D96FD851D911D8A466EF04F0FF
:1008C80068EF04F07EEF04F05F0EB46FFA0EB56FB8
:1008D800CEC5B6F5CFC5B7F5ED51D025B86FEE51F9
:1008E800D121B96F000ED221BA6F000ED321BB6F90
:1008F800FCEC2BF04C0E0501B46FFE0EB56FED51FC
:10090800EB25D96EEE51EC21DA6EDF50D86FD85155
:10091800B66FB76BFCEC2BF00501ED51EB25D96EEA
:10092800EE51EC21DA6E1F0EDF649DEF04F09FEFAD
:1009380004F0C3EF04F0ED51EB25D96EEE51EC2134
:10094800DA6E7F0EDF60ABEF04F0ADEF04F0C3EFBB
:1009580004F0ED51EB25D96EEE51EC21DA6E0F0E55
:10096800ED15D86F000EEE15D96FDA0ED825E16EA9
:10097800050ED921E26EDFC4E7F4D1EF04F00F0EC3
:10098800ED15D86F000EEE15D96FDA0ED825D96E91
:10099800050ED921DA6E2E0EDF6E0F0EED15D86F0B
:1009A800000EEE15D96F0F0ED819D911D8A4DFEFA4
:1009B80004F0E1EF04F0EDEF04F0000EEA6F3B0EF7
:1009C800B46FF80EB56FDA0EB66F050EB76FFCECA4
:1009D8002BF00501ED4BEE2BD651ED5DD751EE59BD
:1009E800D8A0F9EF04F0FBEF04F059EF04F012007F
:1009F80002D80BEF05F00500FA6E0701CE51FD6E27
:100A0800CF51FE6ED051FF6EFA50000E1200000E4C
:100A1800296E000E286EA9EF05F028C508F529C52E
:100A280009F5000E0B6E060E0A6E23EC2CF008502A
:100A38001A24206E09501B20216E020E2024D96E24
:100A4800000E2120DA6EDEC422F5DDC423F51E5027
:100A5800246E1F50256E266A276A25C527F524C5EA
:100A680026F5256A246A225024240E6E2350252058
:100A78000F6E000E2620106E000E2720116E02D871
:100A880051EF05F00500FA6E0701E351FD6EE451E0
:100A9800FE6EE551FF6EFA50120028C508F529C50B
:100AA80009F5000E0B6E060E0A6E23EC2CF00850AA
:100AB8001A24206E09501B20216E020E2024D96EA4
:100AC800000E2120DA6EDEC40EF5DDC40FF528C550
:100AD80008F529C509F5000E0B6E060E0A6E23EC03
:100AE8002CF008501A24D96E09501B20DA6EDEC487
:100AF80010F5DDC411F528C508F529C509F5000E5E
:100B08000B6E060E0A6E23EC2CF008501A24226E87
:100B180009501B20236E040E2224D96E000E2320B8
:100B2800DA6EDEC412F5DDC413F502D8A7EF05F0BE
:100B38000500FA6E0701E051FD6EE151FE6EE251CB
:100B4800FF6EFA501200284A292A1C50285C1D50B2
:100B58002958D8A0B2EF05F0B4EF05F011EF05F071
:100B6800120002D8C4EF05F00500FA6E0701CE5155
:100B7800FD6ECF51FE6ED051FF6EFA50FF0E12007F
:100B8800000E296E000E286E62EF06F028C508F5E3
:100B980029C509F5000E0B6E060E0A6E23EC2CF023
:100BA80008501A24206E09501B20216E020E2024A2
:100BB800D96E000E2120DA6EDEC422F5DDC423F5DD
:100BC8001E50246E1F50256E266A276A25C527F5F4
:100BD80024C526F5256A246A225024240E6E235043
:100BE80025200F6E000E2620106E000E2720116E95
:100BF80002D80AEF06F00500FA6E0701E351FD6E10
:100C0800E451FE6EE551FF6EFA50120028C508F552
:100C180029C509F5000E0B6E060E0A6E23EC2CF0A2
:100C280008501A24206E09501B20216E020E202421
:100C3800D96E000E2120DA6EDEC40EF5DDC40FF584
:100C480028C508F529C509F5000E0B6E060E0A6EB3
:100C580023EC2CF008501A24D96E09501B20DA6EA8
:100C6800DEC410F5DDC411F528C508F529C509F558
:100C7800000E0B6E060E0A6E23EC2CF008501A2498
:100C8800226E09501B20236E040E2224D96E000EFA
:100C98002320DA6EDEC412F5DDC413F502D860EF46
:100CA80006F00500FA6E0701DD51FD6EDE51FE6E9D
:100CB800DF51FF6EFA501200284A292A1C50285C7E
:100CC8001D502958D8A06BEF06F06DEF06F0CAEF5B
:100CD80005F0120015C7B8F616C7B9F617C7BAF661
:100CE80018C7BBF6B4C6D9F4B5C6DAF4DE50DE10C0
:100CF800D8B481EF06F083EF06F0A9EF06F0B4C68A
:100D0800D9F4B5C6DAF4DEC4B6F6DDC4B7F6B6C6AD
:100D1800D9F4B7C6DAF4DF50D8B495EF06F097EFF8
:100D280006F0A9EF06F0B4C6D9F4B5C6DAF4DEC405
:100D380038F5DDC439F53EECECF038C5B8F639C500
:100D4800B9F63AC5BAF63BC5BBF6060120EE02F085
:100D5800B451D926B551DA22DE50DE10D8B4B7EF37
:100D680006F0B9EF06F0CFEF06F020EE02F0B4512E
:100D7800D926B551DA22DEC4B6F6DDC4B7F6B6C652
:100D8800D9F4B7C6DAF4DF50D8A4CDEF06F0CFEF28
:100D980006F0DDEF06F0530E0501B46FF40EB56FE3
:100DA800FCEC2BF0000E0601B36F000EB26F23EFC0
:100DB80007F020EE02F0B451D926B551DA22DEC48C
:100DC80038F5DDC439F53EECECF038500601BC6F5F
:100DD800B8C633F6B9C634F6BAC635F6BBC636F663
:100DE800BC0E0601376F060E386F000E3A6F010E03
:100DF800396F1FECF8F0010E0601B827000EB92371
:100E0800BA23BB23000E086E000E096EBC0E0A6ED4
:100E1800060E0B6E19ECEEF008500910D8A417EF67
:100E280007F019EF07F0ECEF06F0B8C615F7B9C6EA
:100E380016F7BAC617F7BBC618F7D6EF06F01200B2
:100E48006A0E086EFF0E096E63EC28F008C5BBF742
:100E580009C5BCF7800E0701BB25B36F070EBC217F
:100E6800B46F800E0501B46F070EB56FC60EB66F6E
:100E7800FF0EB76F6A0EB86FFF0EB96F13EC28F04C
:100E8800800E0501CE6F070ECF6F000ED16F300EAA
:100E9800D06FBBC7D2F5BCC7D3F5BBC7D4F5BCC7A9
:100EA800D5F59CECC5F09C0E0501B46FE70EB56F47
:100EB800FCEC2BF0B3C7CEF5B4C7CFF5B90E0501DE
:100EC800D06F070ED16FBD0ED26F070ED36FDFEC58
:100ED800AEF0CEC5B5F7CFC5B6F70701B6BF79EF07
:100EE80007F077EF07F087EF07F03F0E0501B46FC3
:100EF800E80EB56FFCEC2BF0000E0601C96F000E72
:100F0800C86FD8EF07F0B9C708F5BAC709F5000EDA
:100F18000B6E0C0E0A6E23EC2CF0030E0826000E46
:100F28000922CB0E0824F66EE30E0920F76EF86A44
:100F3800000EF8220900F5C4B0F70900F5C4B1F7AE
:100F48000A00F5C4B2F7B5C7B2F6B6C7B3F6BD0E18
:100F58000601B46F070EB56F02D8BEEF07F00500A3
:100F6800FA6E0701B051FD6EB151FE6EB251FF6EBF
:100F7800FA501200B2C6B7F7B3C6B8F70701B729D7
:100F880006E1B829D8A4CBEF07F0CDEF07F0D4EFEE
:100F980007F01A0E0501B46FFB0EB56FFCEC2BF0D1
:100FA800B7C7C8F6B8C7C9F61200D0C5E7F5D1C5A6
:100FB800E8F50F0E0501D225D46F000ED321D56FA9
:100FC800F00ED415D26FFF0ED515D36F000EEA6F51
:100FD800000EE96F7FEF08F00F0EE915D46F000ED1
:100FE800EA15D56FD451D511D8A4FDEF07F0FFEF5E
:100FF80007F00DEF08F00A0EB46FFB0EB56FCEC503
:10100800B6F5CFC5B7F5E9C5B8F5EAC5B9F5FCEC4D
:101018002BF04C0E0501B46FFE0EB56FE951E725B4
:10102800D96EEA51E821DA6EDF50D46FD451B66F29
:10103800B76BFCEC2BF00501E951E725D96EEA51B5
:10104800E821DA6E1F0EDF642CEF08F02EEF08F0AF
:1010580052EF08F0E951E725D96EEA51E821DA6E36
:101068007F0EDF603AEF08F03CEF08F052EF08F02F
:10107800E951E725D96EEA51E821DA6E0F0EE91534
:10108800D46F000EEA15D56FD60ED425E16E050E85
:10109800D521E26EDFC4E7F460EF08F00F0EE91522
:1010A800D46F000EEA15D56FD60ED425D96E050E6D
:1010B800D521DA6E2E0EDF6E0F0EE915D46F000EF5
:1010C800EA15D56F0F0ED419D511D8A46EEF08F014
:1010D80070EF08F07CEF08F0000EE66F3B0EB46F7F
:1010E800F80EB56FD60EB66F050EB76FFCEC2BF089
:1010F8000501E94BEA2BD251E95DD351EA59D8A051
:1011080088EF08F08AEF08F0F0EF07F0120055BEFC
:1011180090EF08F092EF08F093EF08F0589255BE60
:101128009AEF08F098EF08F0A0EF08F0000E2D6E87
:10113800010E2C6EA4EF08F054C52CF555C52DF5FD
:1011480052C52EF553C52FF5000E316E4F0E306E79
:10115800000E0901CF6FEFEF08F03006D8A0310676
:10116800800E3024D96E090E3120DA6E28C508F5B4
:1011780029C509F52AC50AF52BC50BF50A0E0C6E0B
:10118800000E0D6E000E0E6E000E0F6E3DEC1FF081
:101198000850300FDF6E2C06D8A02D062E06D8A0DA
:1011A8002F0628C508F529C509F52AC50AF52BC54E
:1011B8000BF50A0E0C6E000E0D6E000E0E6E000E74
:1011C8000F6E2AEC1DF008C528F509C529F50AC5D2
:1011D8002AF50BC52BF530503110D8B4F6EF08F0CE
:1011E800F8EF08F024EF09F0285029102A102B10E6
:1011F800D8A401EF09F003EF09F0B1EF08F02DBE14
:1012080010EF09F02D5006E12C04D8B00EEF09F0CC
:1012180010EF09F0B1EF08F02FBE1BEF09F02F50C7
:1012280008E12E04D8A01BEF09F01DEF09F024EF08
:1012380009F058B222EF09F024EF09F0B1EF08F0F5
:1012480026C51BF527C51CF5800E30241D6E090E1A
:1012580031201E6E2EC51FF52FC520F552EC1AF051
:101268001BC526F51CC527F512002BC619F62CC67A
:101278001AF683ECF6F00009D8B445EF09F047EF09
:1012880009F04AEF09F0010EE0EF09F02BC614F55A
:101298002CC615F52DC616F52EC617F52FC618F54A
:1012A80030C619F55EEC18F014C535F615C536F6D6
:1012B80016C537F617C538F6060120EE2CF02B5167
:1012C800D9262C51DA2235C6DEF436C6DEF437C606
:1012D800DEF438C6DEF4300E2B25086E000E2C2105
:1012E800096E000E0B6E000E0A6E020E0D6E000ED9
:1012F8000C6E87EC03F0300E06012B25336F000EC1
:101308002C21346F000E3A6F010E396F000E3C6FBE
:10131800000E3B6F95EF09F0060139513B273A5112
:101328003C2320EE0AF02B51D9262C51DA22DE502C
:101338003B5DDE503C59D8B0A4EF09F0A6EF09F0A8
:10134800CBEF09F033C60DF634C60EF63B51352502
:101358000F6F3C513621106F000E3721116F000EB0
:101368003821126F39C613F63AC614F620EE01F08A
:101378002B51D9262C51DA22DF50E8ECFCF0000979
:10138800D8B4C9EF09F0CBEF09F090EF09F00601E6
:1013980020EE0AF02B51D9262C51DA223B51DE18C7
:1013A80007E13C51DE18D8A4DCEF09F0DFEF09F0C3
:1013B800010EE0EF09F0000E12008EC6D9F48FC6B8
:1013C800DAF4DEC495F6DDC496F68EC650F68FC6FE
:1013D80051F6000E0601526F000E536F000E546F47
:1013E800000E556F84ECD5F00601996F9951D8A479
:1013F80000EF0AF002EF0AF07BEF0AF0000E986F98
:10140800000E976F95C62BF696C62CF620EE16F0B2
:101418008E51D9268F51DA22DEC42DF6DEC42EF67F
:10142800DEC42FF6DEC430F6C4EC18F00601996F5E
:101438009951D8B422EF0AF024EF0AF026EF0AF007
:101448007BEF0AF020EE1AF08E51D9268F51DA225E
:10145800DEC492F6DDC493F692C6D9F493C6DAF4E4
:10146800E50EDE18D8B43BEF0AF03DEF0AF053EF73
:101478000AF020EE1AF08E51D9268F51DA22DEC4F6
:1014880092F6DDC493F692C6D9F493C6DAF4DF5027
:10149800D8A451EF0AF053EF0AF063EF0AF0974B24
:1014A800982B9051971907E191519819D8A45FEF9B
:1014B8000AF061EF0AF067EF0AF07BEF0AF0000E1E
:1014C800986F000E976F8EC674F68FC675F6000E6D
:1014D800776F010E766FF3ECC9F00601996F995199
:1014E800D8B479EF0AF07BEF0AF006EF0AF0040EA1
:1014F8009919D8A482EF0AF084EF0AF086EF0AF06F
:10150800070E996F99511200000184838481000E9F
:10151800886F000E8B6F8599868386810501D205B9
:10152800D8A499EF0AF09BEF0AF09FEF0AF00001A8
:101538008495A1EF0AF0000184850501D351D8A450
:10154800A8EF0AF0AAEF0AF0B0EF0AF00001859FB1
:10155800858D859BBFEF0AF0770EB46FED0EB56FE2
:10156800690EB66FF50EB76FD3C5B8F5B96BFCEC5D
:101578002BF0BDEF0AF0000E8C6FF8EF0AF0020EA8
:1015880000018C6F020E896F23EF0BF00F0E000124
:10159800896F23EF0BF0070E0001896F23EF0BF023
:1015A800050E0001896F23EF0BF0040E0001896F0F
:1015B80023EF0BF0030E0001896F23EF0BF0020EEF
:1015C8000001896F23EF0BF05B0EB46FEA0EB56F65
:1015D800690EB66FF50EB76FD0C5B8F5D1C5B9F5B8
:1015E800FCEC2BF023EF0BF0D0C5D4F5D1C5D5F525
:1015F8000501D551000AD8B404EF0BF0E8EF0AF062
:10160800D451000AD8B4C3EF0AF0010AD8B4CAEF1B
:101618000AF0030AD8B4CFEF0AF0010AD8B4D4EF1D
:101628000AF0070AD8B4D9EF0AF0010AD8B4DEEFF5
:101638000AF0030AD8B4E3EF0AF0E8EF0AF0120060
:1016480021EE0FF2110EDE6AE806FDE2FE0E06013B
:101658000F6FE40E106F000E126F000E116F000E68
:10166800146F1C0E136F0A0E156F060E166F000E00
:10167800186F040E176F000E1A6F050E196F060506
:10168800010E0759D8A04BEF0BF04DEF0BF060EFB0
:101698000BF0990E0501CE6FF80ECF6F1E0ED06FAE
:1016A800F60ED16F000ED36F8F0ED26FC50ED46FAA
:1016B800F40ED56F15EC2BF002C60AF603C60BF62E
:1016C80000C60CF601C60DF606C60EF61C0E06017F
:1016D80002190311D8A473EF0BF075EF0BF09AEF12
:1016E8000BF004C61BF605C61CF602C61DF603C69B
:1016F8001EF606C61FF607C620F60F0E0501E36F95
:10170800060EE46F000EE66F030EE56F000EE76F3E
:10171800000EE86F000EEA6F000EE96F08C6EBF5E1
:1017280009C6ECF530ECEDF0BDEF0BF004C61BF686
:1017380005C61CF600C61DF601C61EF606C61FF62F
:1017480007C620F60F0E0501E36F060EE46F000EC4
:10175800E66F020EE56F1B0EE76F060EE86F000ED0
:10176800EA6F010EE96F08C6EBF509C6ECF530EC37
:10177800EDF0120008C50FF509C510F50AC511F5F9
:101788000BC512F50C06D8A00D060C2806E10D288D
:10179800D8A4D1EF0BF0D3EF0BF0E0EF0BF0000E75
:1017A800096E000E086E53EF0CF00F4A102A114A0A
:1017B800122A0C06D8A00D060FC5F6F410C5F7F4CA
:1017C800000EF86E3F0EF76403D00800F55005D000
:1017D800F6C4E9F4F7C4EAF4EF500009D8B4F7EF17
:1017E8000BF0F9EF0BF034EF0CF011C5F6F412C55D
:1017F800F7F4000EF86E0800F5500009D8B407EFAA
:101808000CF009EF0CF034EF0CF00C500D10D8B4BC
:1018180010EF0CF012EF0CF034EF0CF011C5F6F4E9
:1018280012C5F7F4000EF86E0800F5C40EF50FC5E2
:10183800F6F410C5F7F4000EF86E3F0EF76403D007
:101848000800F55005D0F6C4E9F4F7C4EAF4EF50FF
:101858000E18D8B432EF0CF034EF0CF0D9EF0BF0CF
:101868000FC5F6F410C5F7F4000EF86E3F0EF764D6
:1018780003D00800F55005D0F6C4E9F4F7C4EAF43B
:10188800EF500E6E11C5F6F412C5F7F4000EF86E9F
:101898000800F5500E5C086E096AD8A00906120007
:1018A800000E1A6E000E196E12C5D9F413C5DAF4BB
:1018B800DEC414F5DDC415F514C5D9F415C5DAF47C
:1018C800270EDE18D8A46BEF0CF06DEF0CF0A5EF27
:1018D8000CF012C5D9F413C5DAF4DE2A000EDD22A5
:1018E800DEC417F5DDC418F512C508F513C509F5EA
:1018F800000E0A6E000E0B6E19ECEEF0085009107F
:10190800D8A489EF0CF08BEF0CF078EF0CF012C52F
:10191800D9F413C5DAF4DEC414F5DDC415F517508F
:10192800145C196E185015581A6E12C508F513C5AF
:1019380009F56FEC27F019C512F51AC513F5E3EF91
:101948000CF012C5D9F413C5DAF4DEC414F5DDC4FD
:1019580015F514C5D9F415C5DAF4DF501B6E200E41
:101968001B18D8B4BAEF0CF0BCEF0CF099EF0CF0E0
:101978002C0E1B18D8B4C3EF0CF0C5EF0CF099EF80
:101988000CF03D0E1B18D8B4CCEF0CF0CEEF0CF0D9
:1019980099EF0CF01B50D8A4D4EF0CF0D6EF0CF054
:1019A800D8EF0CF099EF0CF0194A1A2A12C5D9F49D
:1019B80013C5DAF4DE2A000EDD22A5EF0CF01200C2
:1019C8000601EB510701F71909E10601EC5107017E
:1019D800F819D8A4F2EF0CF0F4EF0CF04AEF0DF080
:1019E80035513611D8B4FBEF0CF0FDEF0CF04AEF8F
:1019F8000DF06A516B11D8A404EF0DF006EF0DF04D
:101A08004AEF0DF00601EB51346EEC51356E366A33
:101A1800376A35C537F534C536F5356A346A34C59D
:101A28001AF535C51BF536C51CF537C51DF5BF0EAE
:101A38001E6EE40E1F6E000E216E290E206E4CECF9
:101A480021F00601EB51346EEC51356E366A376A77
:101A580035C537F534C536F5356A346A290E342468
:101A68001A6E000E35201B6E000E36201C6E000EFE
:101A780037201D6E580E1E6E070E1F6E000E216E4B
:101A8800160E206E4CEC21F073EF0DF0EBC62EF520
:101A9800ECC62FF588EC22F00601EB51346EEC51C0
:101AA800356E366A376A35C537F534C536F5356A61
:101AB800346AA10E34241A6E000E35201B6E000EF7
:101AC80036201C6E000E37201D6E580E1E6E070E37
:101AD8001F6E000E216E160E206E4CEC21F01200C7
:101AE8000501D451D511D8B47CEF0DF07EEF0DF07F
:101AF8008AEF0DF0D4C5D9F4D5C5DAF4EF0EDE6E51
:101B0800BE0EDE6EAD0EDE6EDE0EDD6ECF5107E16F
:101B1800100ECE5DD8B093EF0DF095EF0DF0B2EF4B
:101B28000DF0790ED66F080ED76F020ED627000E6D
:101B3800D723D890CE35D96ECF35DA6ED890D9362E
:101B4800DA36D651D926D751DA22DE50DE10D8A49B
:101B5800B0EF0DF0B2EF0DF0C1EF0DF0D80EB46F8D
:101B6800F40EB56FCEC5B6F5CFC5B7F5FCEC2BF0C6
:101B78000501CE69CF6901EF0EF0D451D511D8B463
:101B8800C8EF0DF0CAEF0DF0FDEF0DF0790ED66F2E
:101B9800080ED76FD890CE35D96ECF35DA6ED8907B
:101BA800D936DA36D651D926D751DA22DEC408F525
:101BB800DDC409F5D0C50AF5D1C50BF523EC2CF029
:101BC8000501D2510826D3510922FF0E0824D86FE7
:101BD800FF0E0920D96FDA6BDB6BD4C5D9F4D5C5F4
:101BE800DAF4D8C5DEF4D9C5DEF4DAC5DEF4DBC52F
:101BF800DEF4000ECF6F000ECE6F12000501CE513D
:101C08000601EB1909E10501CF510601EC19D8A429
:101C180010EF0EF012EF0EF014EF0EF08CEF0EF046
:101C2800070139510501CE5DCF51800AD06F0701F8
:101C38003A51800A0501D059D8A025EF0EF027EFB8
:101C48000EF042EF0EF00701FC51D8B42EEF0EF063
:101C580030EF0EF042EF0EF0000EFC6F960E05010D
:101C6800B46FEE0EB56FCEC5B6F5CFC5B7F5FCECC3
:101C78002BF0000E0701526F010E516F0701205122
:101C880021112211D8B44BEF0EF04DEF0EF062EF98
:101C98000EF0EBC628F5ECC629F5CEC52AF5CFC55A
:101CA8002BF502D862EF0EF00500FA6E2051FD6E9A
:101CB8002151FE6E2251FF6EFA501200CEC5EBF68E
:101CC800CFC5ECF60601EB510501D06F0601EC51CA
:101CD8000501D16FD26BD36BD1C5D3F5D0C5D2F581
:101CE800D16BD06BD0C508F5D1C509F5D2C50AF5B9
:101CF800D3C50BF502D88CEF0EF00500FA6E07017C
:101D0800E651FD6EE751FE6EE851FF6EFA50120083
:101D18001200000E116E0FBE96EF0EF094EF0EF04B
:101D2800A0EF0EF00F1E0E1E0D1E0C6C000E0D22E5
:101D38000E220F22010E116E0BBEA7EF0EF0A5EFBB
:101D48000EF0B1EF0EF00B1E0A1E091E086C000EF5
:101D580009220A220B22010E111A000E126E000E21
:101D6800136E000E146E000E156E0C500D100E1032
:101D78000F10D8B4C2EF0EF0C4EF0EF0FAEF0EF069
:101D8800010E106ECEEF0EF0D8900C360D360E36D2
:101D98000F36102A0FAED3EF0EF0D5EF0EF0C8EFC6
:101DA8000EF0D89012361336143615360C50085CDF
:101DB8000D5009580E500A580F500B58D8A0E7EF8D
:101DC8000EF0E9EF0EF0F2EF0EF00C50085E0D5039
:101DD800095A0E500A5A0F500B5A1280D8900F32D7
:101DE8000E320D320C32102ED5EF0EF01150D8B441
:101DF80000EF0FF002EF0FF00AEF0FF0151E141EA0
:101E0800131E126C000E13221422152212C508F597
:101E180013C509F514C50AF515C50BF512000A34E2
:101E28000B34116E1150D8A41CEF0FF01EEF0FF0F9
:101E380028EF0FF0000E086E000E096E000E0A6EF5
:101E4800000E0B6E95EF0FF008C50CF509C50DF5E2
:101E58000AC50EF50BC50FF5200E38EF0FF0D89018
:101E68000F320E320D320C32E82E33EF0FF00C50D9
:101E7800106E0A8EFF0E0816FF0E0916FF0E0A16C0
:101E8800000E0B16960E115E11BE4FEF0FF04DEFC0
:101E98000FF065EF0FF01150800A970FD8B057EF89
:101EA8000FF059EF0FF05BEF0FF01EEF0FF0D89027
:101EB8000B320A3209320832113E5BEF0FF07DEF28
:101EC8000FF01F0E11646BEF0FF06DEF0FF075EF51
:101ED8000FF01EEF0FF0D890083609360A360B3689
:101EE80011061150D8A47BEF0FF07DEF0FF06FEFC4
:101EF8000FF01050D8B483EF0FF085EF0FF08DEF8F
:101F08000FF00B1E0A1E091E086C000E09220A2279
:101F18000B2208C508F509C509F50AC50AF50BC558
:101F28000BF51200000E2114296E000E22142A6EE1
:101F3800800E23142B6E7F0E24142C6E29502A1029
:101F48002B102C10D8A4ABEF0FF0ADEF0FF0B5EFBE
:101F58000FF0000E216E000E226E000E236E000E92
:101F6800246E000E2514296E000E26142A6E800E8B
:101F780027142B6E7F0E28142C6E29502A102B1034
:101F88002C10D8A4CAEF0FF0CCEF0FF0D4EF0FF05D
:101F9800000E256E000E266E000E276E000E286EAF
:101FA80024AED9EF0FF0DBEF0FF0E4EF0FF0216C68
:101FB800221ED8B0222A231ED8B0232A800E2456E7
:101FC80028AEE9EF0FF0EBEF0FF0F4EF0FF0256C10
:101FD800261ED8B0262A271ED8B0272A800E2856B3
:101FE800000E211A000E221A000E231A800E241A3F
:101FF800000E251A000E261A000E271A800E281A1F
:102008002550215C26502258275023582850245800
:10201800D8B011EF10F013EF10F016EF10F0D890C1
:1020280017EF10F0D8801200E3C5D9F4E4C5DAF44C
:102038005A0EDE18DE10D8B424EF10F026EF10F098
:1020480098EF10F0E3C5D9F4E4C5DAF4DE50DE10F9
:10205800D8A431EF10F033EF10F035EF10F098EF0F
:1020680010F096EC2DF05A0E08180910D8B43FEF6E
:1020780010F041EF10F054EF10F0160E0501CE6F7E
:10208800E60ECF6F900ED06FF70ED16F030ED36FA1
:10209800630ED26FE20ED46FEF0ED56F15EC2BF0F6
:1020A8008BEC28F0000E07014C6F460E4B6F000EAC
:1020B8000501D66F000ED76FAA0EC1ECB4F0F8EC8C
:1020C80014F0000E07014C6F320E4B6FE3C5D9F4C4
:1020D800E4C5DAF40A0EDE18DE10D8A476EF10F0A4
:1020E80078EF10F092EF10F002D887EF10F00500AB
:1020F800FA6E0801B951FD6EBA51FE6EBB51FF6E02
:10210800FA50000E1200000E0B6E010E0A6E10EC53
:102118002CF0000E07014C6F0A0E4B6FE3C5D9F483
:10212800E4C5DAF4DE6ADD6A1200090E0501D86F2B
:10213800CE51CF11D8B4A3EF10F0A5EF10F0FAEFFD
:1021480010F0CEC5D9F4CFC5DAF4DE50DE10D8B41D
:10215800B0EF10F0B2EF10F0FAEF10F0CEC5D9F4EE
:10216800CFC5DAF4DEC4D2F5DDC4D3F5D2C5D9F4CF
:10217800D3C5DAF4DF50D8B4C4EF10F0C6EF10F0CE
:10218800FAEF10F0CEC5D9F4CFC5DAF410EE06F0A8
:10219800DE50E126DD50E22220EE02F0CE51D926B3
:1021A800CF51DA22E650DE1807E1E650DE18D8A44F
:1021B800E0EF10F0E2EF10F0FAEF10F0CEC5D9F42E
:1021C800CFC5DAF410EE01F0DE50E126DD50E22250
:1021D800E750CBEC20F00501D26FD2B1F6EF10F04A
:1021E800F8EF10F0FAEF10F0000ED86FD851D8B40D
:1021F80000EF11F002EF11F008EF11F0000ED66FAA
:10220800000ED76F10EF11F0CEC5D9F4CFC5DAF4B0
:10221800DEC4D6F5DDC4D7F5D0C5D9F4D1C5DAF416
:10222800D6C5DEF4D7C5DDF4D8511200000E096E0C
:10223800000E086EAAEC2CF008C50CF509C50DF5C2
:102248000CC508F50DC509F5AAEC2CF00CB02FEF5C
:1022580011F032EF11F0010E33EF11F0000E08010A
:10226800626F0CB23AEF11F03DEF11F0010E3EEF44
:1022780011F0000E636F0CB444EF11F047EF11F04A
:10228800010E48EF11F0000E646F0CB64EEF11F01E
:1022980051EF11F0010E52EF11F0000E656F000EB4
:1022A800096E000E086EB7EC2CF008C50CF509C5D0
:1022B8000DF50CC508F50DC509F5B7EC2CF00CB0FB
:1022C80068EF11F06BEF11F0010E6CEF11F0000EDA
:1022D8000801666F0CB273EF11F076EF11F0010E82
:1022E80077EF11F0000E676F0CB47DEF11F080EFFF
:1022F80011F0010E81EF11F0000E686F0CB687EF38
:1023080011F08AEF11F0010E8BEF11F0000E696FDA
:102318000401435108016A6F0401445108016B6FBD
:102328000401455108016C6F6D6B120009C712F565
:102338000AC713F50BC714F50CC715F508C512F530
:1023480009C513F50AC514F50BC515F512C50CF525
:1023580013C50DF514C50EF515C50FF5180EBAEF12
:1023680011F0D8900F320E320D320C32E82EB5EF44
:1023780011F00C50106E116A10501110D8A4C7EF4C
:1023880011F0C9EF11F0E9EF11F0D89012340C6E8A
:1023980013340D6E14340E6E15340F6E0C500D1070
:1023A8000E100F10D8A4DBEF11F0DDEF11F0E3EF02
:1023B80011F0000E096E020E086E18EF12F0000EF2
:1023C800096E030E086E18EF12F010281110D8A429
:1023D800F0EF11F0F2EF11F014EF12F012C50CF556
:1023E80013C50DF514C50EF515C50FF5090ED890D2
:1023F8000C360D360E360F36E82EFBEF11F00C506A
:102408000D100E100F10D8B40CEF12F00FEF12F0E1
:10241800010E10EF12F0000E086E096A18EF12F0A4
:10242800000E096E040E086E120007015151521178
:10243800D8A421EF12F023EF12F025EF12F096EF57
:1024480012F002D832EF12F00500FA6EDA51FD6E82
:10245800DB51FE6EDC51FF6EFA501200D8A037EF48
:1024680012F039EF12F03BEF12F096EF12F002D8AB
:102478004AEF12F00500FA6E0701C851FD6EC95106
:10248800FE6ECA51FF6EFA50000E12006A0EE82E58
:10249800FED700D002D85CEF12F00500FA6E0701F3
:1024A800DA51FD6EDB51FE6EDC51FF6EFA50120000
:1024B800D8A061EF12F063EF12F074EF12F002D8B7
:1024C80072EF12F00500FA6E0701C851FD6EC9518E
:1024D800FE6ECA51FF6EFA50010E120096EF12F00E
:1024E800000E0701526F000E516F000E0B6E010EA9
:1024F8000A6E10EC2CF0ACEC2DF0000E0B6E000EFA
:102508000A6E10EC2CF002D896EF12F00500FA6E65
:102518000701C851FD6EC951FE6ECA51FF6EFA50CF
:10252800010E12001200CCEC21F0000EC16E400E1C
:10253800C96EC294CA94BE82C692000E0201026F8E
:10254800BE86C696000E046FBE88C698000E056F3C
:10255800C18E000E206F040113911393139546EC5E
:1025680027F0000E086E000E096E000E0A6E000EAF
:102578000B6E02D8CBEF12F00500FA6E0701E65198
:10258800FD6EE751FE6EE851FF6EFA501200000E24
:102598000701286F000E276F28BFDCEF12F02851C3
:1025A80009E1140E275DD8A0DCEF12F0DEEF12F07F
:1025B800E7EF12F05B0E0501B46FF60EB56FFCEC99
:1025C8002BF0E5EF12F0000E0501D76F000ED66F65
:1025D800000ED96F010ED86F000EDB6F640EDA6F34
:1025E800BCECBEF00501D651D711D8A4FEEF12F00D
:1025F80000EF13F002EF13F013EF13F0110E0501C3
:10260800D16F3C0ED06FCB0EE82EFED7D02FFCD763
:10261800D12FFAD70701274B282BD0EF12F0120041
:10262800C4C6C8F6C5C6C9F6C80E086E060E096E39
:10263800B4ECF5F008C5CCF609C5CDF60601CDBF5A
:102648002AEF13F028EF13F02DEF13F00B0E90EF95
:1026580013F0D890CC35D96ECD35DA6E2B0ED9263D
:10266800070EDA22DEC4CAF6DDC4CBF6CA51CB1196
:10267800D8B441EF13F043EF13F053EF13F0D890B1
:10268800CC35D96ECD35DA6E2B0ED926070EDA2267
:10269800DE6ADD6ACAC6D9F4CBC6DAF4DF6AC2518B
:1026A800C311D8B45AEF13F05CEF13F076EF13F0C0
:1026B80020EE01F0C251D926C351DA22CCC6DFF48C
:1026C800C2C6D9F4C3C6DAF4DF6AD890CC35D96E5D
:1026D800CD35DA6E2B0ED926070EDA22C2C6DEF405
:1026E800C3C6DDF4C651D8A47CEF13F07EEF13F017
:1026F80081EF13F0000E90EF13F0C40E946F060EE6
:10270800956FC20E966F060E976F000E986F03ECCA
:1027180096F00601C76FC7511200000E0D6E000E2D
:102728000C6E08016251D8A49CEF13F09FEF13F0D0
:10273800010EA0EF13F0000E0C126351D8A4A7EFFE
:1027480013F0A9EF13F0ABEF13F0ACEF13F00C821A
:102758006451D8A4B2EF13F0B4EF13F0B6EF13F04E
:10276800B7EF13F00C846551D8A4BDEF13F0BFEF99
:1027780013F0C1EF13F0C2EF13F00C860CC508F587
:102788000DC509F5AAEC2CF0000E0D6E000E0C6EAE
:1027980008016651D8A4D3EF13F0D6EF13F0010E59
:1027A800D7EF13F0000E0C126751D8A4DEEF13F028
:1027B800E0EF13F0E2EF13F0E3EF13F00C8268514F
:1027C800D8A4E9EF13F0EBEF13F0EDEF13F0EEEF11
:1027D80013F00C846951D8A4F4EF13F0F6EF13F05A
:1027E800F8EF13F0F9EF13F00C860CC508F50DC5DA
:1027F80009F5B7EC2CF06AC843F46BC844F46CC80C
:1028080045F46AC843F46BC844F46CC845F4120034
:10281800980E0801D76F430ED86F000ED96F0E0EB1
:10282800D16F530ED26F000ED36F9E0ECE6F5A0E1D
:10283800CF6F000ED06F400ECB6F5B0ECC6F000ECB
:10284800CD6FDA0E0701E06F360EE16F000EE26F12
:10285800660EDD6F350EDE6F000EDF6F2E0ED46F45
:10286800E30ED56F010ED66F6E0E0801C56F5B0EB5
:10287800C66F000EC76F000EC26F000EC36F000E4A
:10288800C46F6A0EBF6F5B0EC06F000EC16F480E3B
:102898000701D16F5B0ED26F000ED36F500ECE6F53
:1028A8005B0ECF6F000ED06FEC0ECB6F590ECC6F56
:1028B800000ECD6F000E0801BC6F000EBD6F000E3C
:1028C800BE6FD40E0601EF6F590EF06F000EF16F58
:1028D800760E0701C86F5A0EC96F000ECA6F4A0EEE
:1028E8000801B96F5A0EBA6F000EBB6F600E070170
:1028F800C56F5A0EC66F000EC76F1200000E116E1C
:102908000BBE8BEF14F089EF14F095EF14F00B1E4B
:102918000A1E091E086C000E09220A220B22010E4B
:10292800116E0FBE9CEF14F09AEF14F0A4EF14F0A0
:102938000F1E0E1E0D1E0C6C000E0D220E220F22F5
:102948000C500D100E100F10D8B4ADEF14F0AFEFFF
:1029580014F0DFEF14F0010E106EB9EF14F0D890F8
:102968000C360D360E360F36102A0FAEBEEF14F0A9
:10297800C0EF14F0B3EF14F00C50085C0D50095878
:102988000E500A580F500B58D8A0CDEF14F0CFEFC7
:1029980014F0D7EF14F00C50085E0D50095A0E5081
:1029A8000A5A0F500B5AD8900F320E320D320C3291
:1029B800102EC0EF14F01150D8B4E5EF14F0E7EF83
:1029C80014F0EFEF14F00B1E0A1E091E086C000E1F
:1029D80009220A220B2208C508F509C509F50AC506
:1029E8000AF50BC50BF51200FDEC24F0CAEC24F037
:1029F80007016A516B11D8A404EF15F006EF15F022
:102A08005DEF15F0EBC622F5ECC623F51EEC29F0B8
:102A180007016C51D8B413EF15F015EF15F03AEF24
:102A280015F00601EB51286EEC51296E2A6A2B6AC3
:102A380029C52BF528C52AF5296A286A0B0E2824EA
:102A48001A6E000E29201B6E000E2A201C6E000E26
:102A58002B201D6E240E1E6EE50E1F6E000E216EBD
:102A6800030E206E4CEC21F05DEF15F00601EB51E2
:102A7800286EEC51296E2A6A2B6A29C52BF528C5C0
:102A88002AF5296A286A0B0E28241A6E000E2920B6
:102A98001B6E000E2A201C6E000E2B201D6E270EAA
:102AA8001E6EE50E1F6E000E216E030E206E4CEC9E
:102AB80021F007014F515011D8B465EF15F067EFB9
:102AC80015F06BEF15F0000E526F010E516F1200EA
:102AD8009BC6CEF59CC6CFF59F0E0501D06F060E9E
:102AE800D16F99EC10F00601A16FA151D8A47FEF26
:102AF80015F081EF15F0DDEF15F09D519E11D8A46A
:102B080088EF15F08AEF15F09CEF15F09BC650F68C
:102B18009CC651F6000E526F000E536F000E546F94
:102B2800000E556F84ECD5F00601A16FDDEF15F0AE
:102B38009BC68EF69CC68FF6000E916F000E906FA6
:102B48006FECF2F00601A16F040EA119D8A4AFEF43
:102B580015F0B1EF15F0B3EF15F0000EA16FA1510C
:102B6800D8A4B9EF15F0BBEF15F0DDEF15F09BC653
:102B780015F59CC616F59DC617F59EC618F548ECC2
:102B8800EAF09BC674F69CC675F6000E0601776FD0
:102B9800000E766FF3ECC9F00601A16F040EA119BF
:102BA800D8A4D9EF15F0DBEF15F0DDEF15F0000E26
:102BB800A16FA15112009AC6D9F49BC6DAF4DEC4FB
:102BC8009CF6DDC49DF69AC68EF69BC68FF6000E5F
:102BD8000601916F010E906FE1EC09F006019E6FFE
:102BE8009E51D8A4FAEF15F0FCEF15F04EEF16F051
:102BF8009CC62BF69DC62CF620EE16F09A51D926C7
:102C08009B51DA22DEC42DF6DEC42EF6DEC42FF682
:102C1800DEC430F6C4EC18F006019E6F9E51D8A4AD
:102C280018EF16F01AEF16F04EEF16F020EE1AF025
:102C38009A51D9269B51DA22DEC408F5DDC409F57C
:102C4800000E0B6E000E0A6E000E0D6E200E0C6E3E
:102C580087EC03F0060120EE1AF09A51D9269B5111
:102C6800DA22DEC408F5DDC409F51C0E9A250A6EC1
:102C7800000E9B210B6E000E0D6E0B0E0C6E3BECC6
:102C880028F0060120EE04F09C51D9269D51DA2245
:102C9800010EDF6E9E5112000A6E590EF66EDD0EA1
:102CA800F76E000EF86E0900F5500A5CD8A05FEFC9
:102CB80016F061EF16F0BBEF16F05A0EF66EDD0E49
:102CC800F76E000EF86E0A500900F55CD8A06FEF99
:102CD80016F071EF16F077EF16F0000E096E010E80
:102CE800086EBFEF16F05B0EF66EDD0EF76E000E87
:102CF800F86E0900F5500A5CD8A085EF16F087EF4A
:102D080016F099EF16F05C0EF66EDD0EF76E000EFB
:102D1800F86E0A500900F55CD8A095EF16F097EF09
:102D280016F099EF16F071EF16F05D0EF66EDD0EE7
:102D3800F76E000EF86E0900F5500A5CD8A0A7EFF0
:102D480016F0A9EF16F0BBEF16F05E0EF66EDD0E6C
:102D5800F76E000EF86E0A500900F55CD8A0B7EFC0
:102D680016F0B9EF16F0BBEF16F071EF16F0000E83
:102D7800096E000E086E120052505310D8A4C7EF07
:102D880016F0C9EF16F0CFEF16F052C51AF553C575
:102D98001BF5D5EF16F0FF0E52241A6EFF0E5320C6
:102DA8001B6E58A0DAEF16F0DCEF16F0E5EF16F020
:102DB80016C50BF50C6A14C50DF515C50EF52AECEC
:102DC80019F01BBEEAEF16F0ECEF16F0EEEF16F076
:102DD800F2EF16F0000E1B6E000E1A6E000E196E42
:102DE800000E186E04EF17F0000E0C6E200E0B6E1E
:102DF80014C50DF515C50EF52AEC19F0184A192A4F
:102E08001A50185C1950800A176E1B50800A175800
:102E1800D8A011EF17F013EF17F0F8EF16F058B02D
:102E280018EF17F01AEF17F023EF17F016C50BF588
:102E38000C6A14C50DF515C50EF52AEC19F0010E2E
:102E48001824146E000E1920156E120008C510F50E
:102E580009C511F50AC512F50BC513F53BEF17F0B7
:102E68000C06D8A00D06104A112A124A132A0C5033
:102E78000D10D8B442EF17F044EF17F063EF17F0D6
:102E880010C5D9F411C5DAF4DF500E6E12C5F6F488
:102E980013C5F7F4000EF86E3F0EF76403D0080070
:102EA800F55005D0F6C4E9F4F7C4EAF4EF500E186B
:102EB800D8B461EF17F063EF17F034EF17F00C5048
:102EC8000D10D8A46AEF17F06CEF17F072EF17F037
:102ED800000E096E000E086E90EF17F010C5D9F4B9
:102EE80011C5DAF4DF500E6E12C5F6F413C5F7F407
:102EF800000EF86E3F0EF76403D00800F55005D0B9
:102F0800F6C4E9F4F7C4EAF4EF500F6E0F500E5C04
:102F1800086E096AD8A009061200000E166E000E87
:102F2800156E0EC5D9F40FC5DAF4DEC4F6F4DDC4A7
:102F3800F7F4000EF86E0800F5502A0AD8A4A7EF97
:102F480017F0A9EF17F0DDEF17F00EC5D9F40FC58C
:102F5800DAF4DE2A000EDD2210C5D9F411C5DAF440
:102F6800DFC412F5020EDE26DFC413F5000EDD22E3
:102F780012C5D9F413C5DAF4DEC415F5DDC416F5A7
:102F8800F3EF17F015C508F516C509F5000E0B6E19
:102F98000A0E0A6E23EC2CF014500824156E000E4D
:102FA8000920166E0EC5D9F40FC5DAF4DE2A000E14
:102FB800DD220EC5D9F40FC5DAF4DEC4F6F4DDC49B
:102FC800F7F4000EF86E0800F550D00F146E090ED5
:102FD8001464F1EF17F0F3EF17F0C6EF17F015C50B
:102FE8000EF516C50FF51200AE0EF66E510EF76E01
:102FF800000EF86E02EE72F010EE47F00900F5C40C
:10300800EEF4E550E150FAE1340EF66E5A0EF76E22
:10301800000EF86E01EEE9F310EE16F00900F5C4A3
:10302800EEF4E550E150FAE103EE00F014EEFCF0A6
:10303800EE6AE550E150FCE1E250FAE102EE00F3FD
:1030480010EE00F1EE6AE550E150FCE1E250FAE1E1
:1030580002EE00F210EE00F1EE6AE550E150FCE1FC
:10306800E250FAE102EE00F1D00EEE6AE806FDE168
:1030780002EE00F0720EEE6AE806FDE101EE00F3E2
:10308800800EEE6AE806FDE101EEE5F20A0EEE6A50
:10309800E806FDE101EE52F1070EEE6AE806FDE1F1
:1030A8000401080E5D6F000E5E6F000E5F6F000179
:1030B8007AEFFEF0020E165E000E175A185A195AC9
:1030C80020EE14F01450D9261550DA22FE0EDE2414
:1030D8001A6EFF0EDE201B6EFF0EDE201C6EFF0E2A
:1030E800DE201D6E1A50165C1B5017581C501858BD
:1030F8001D501958D8A083EF18F085EF18F08FEFFE
:1031080018F0000E146E000E156E000E166E000EEE
:10311800176EC3EF18F020EE28F01450D92615507A
:10312800DA22DEC41AF5DEC41BF5DEC41CF5DEC4E3
:103138001DF520EE0AF01450D9261550DA22DEC407
:103148001EF5DDC41FF51EC508F51FC509F50A6A79
:103158000B6A16C50CF517C50DF518C50EF519C57A
:103168000FF595EC24F01A500824146E1B50092012
:10317800156E1C500A20166E1D500B20176E12007B
:10318800000E0601356F20EE2CF02B51D9262C515C
:10319800DA222D51DE180FE12E51DE180CE12F51E5
:1031A800DE1809E13051DE18D8B4DDEF18F0DFEF92
:1031B80018F028EF19F02BC619F62CC61AF683EC6E
:1031C800F6F00601356F3551D8A4EDEF18F0EFEFA2
:1031D80018F028EF19F0300E2B250F6F000E2C2158
:1031E800106F2DC611F62EC612F62FC613F630C66E
:1031F80014F6000E166F010E156F20EE01F02B511C
:10320800D9262C51DA22DF50B1ECFDF00009D8B4F0
:1032180010EF19F012EF19F019EF19F006012D69E6
:103228002E692F693069010E356F060120EE2CF0EA
:103238002B51D9262C51DA222DC6DEF42EC6DEF407
:103248002FC6DEF430C6DEF4355112000D500E10D4
:10325800D8B431EF19F033EF19F03CEF19F00D50F5
:103268000E10D8A43AEF19F03CEF19F041EF19F01D
:103278000B50D1EC2CF08EEF19F020EE0AF00D5027
:10328800D9260E50DA22DE50DE10D8B44EEF19F0EF
:1032980050EF19F06BEF19F020EE0AF00D50D92617
:1032A8000E50DA2210EE03F00D50E1260E50E22205
:1032B800DE50E65CE650800A136EDE50800A135832
:1032C800D8B069EF19F06BEF19F08EEF19F020EE16
:1032D80003F00D50D9260E50DA22DEC40FF5DDC4F6
:1032E80010F50DC5D9F40EC5DAF4DEC411F5DDC448
:1032F80012F50F501124D96E10501220DA6E0BC53A
:10330800DFF420EE03F00D50D9260E50DA22DE2A23
:10331800000EDD2212000AC513F50BC514F50C507A
:103328001324116E0D501420126EE1EF19F008509D
:1033380009C50EF50F6E0E50086E0FC509F513C5B9
:10334800D9F414C5DAF4DF500E6E0E50081A134A79
:10335800142A08C50EF509C50FF5040E106ED8908D
:103368000F320E32102EB3EF19F00F0E0E16000E9C
:103378000F160E50081A0F50091A08C50EF509C580
:103388000FF50C0ED8900E360F36E82EC6EF19F052
:103398000E50081A0F50091AFF0E08140E6E000E70
:1033A80009140F6E050ED8900E360F36E82ED7EF9B
:1033B80019F00E50081A0F50091A1150135C1250C8
:1033C8001458D8A0EAEF19F0ECEF19F09BEF19F0B8
:1033D80008C508F509C509F51200010E0201616F5B
:1033E80087EC29F0000E0201626F1E0E636F050E56
:1033F800656F0E0E676F010E056F020E046F030EE8
:10340800206F000E0001D56F000ED86F020ED96F25
:10341800040EDA6F7F0EDB6F010EDC6F080EDD6FB6
:10342800100EDE6F400EDF6F800ED76F820ED66FE4
:10343800010ED56F000ED86F020ED96F040EDA6F29
:103448007F0EDB6F010EDC6F080EDD6F200EDE6F66
:10345800400EDF6F800ED76F820ED66F020ED56FCB
:10346800010ED86F060ED96F7F0EDA6F7F0EDB6FF5
:10347800010EDC6F080EDD6F000EDE6F000EDF6FD1
:10348800800ED76F8C0ED66F000ED46FB59AA59AA2
:1034980004012185CA84C280C282120058A057EF55
:1034A8001AF059EF1AF063EF1AF01DC514F51EC58E
:1034B80015F51BC516F51CC517F5CBEC29F020BE74
:1034C80068EF1AF06AEF1AF070EF1AF01FC524F5CA
:1034D80020C525F574EF1AF0000E256E000E246E37
:1034E800000E236E000E226E86EF1AF0000E0C6E90
:1034F800200E0B6E1BC50DF51CC50EF52AEC19F038
:10350800224A232A2450225C2350800A216E255007
:10351800800A2158D8A093EF1AF095EF1AF07AEFA5
:103528001AF058B09AEF1AF09CEF1AF0A6EF1AF0BA
:103538001DC514F51EC515F51BC516F51CC517F5D3
:10354800CBEC29F01DC508F51EC509F563EC28F07C
:10355800245008241B6E255009201C6E12000EC52D
:1035680018F50FC519F519503F0BC16E19ACBFEF0F
:103578001AF0C1EF1AF0C4EF1AF0C284C5EF1AF0BE
:10358800C29418C5BFF4000E176E000E166E04EF35
:103598001BF0BE9816501024146E17501120156E8B
:1035A80014C5F6F415C5F7F4000EF86E3F0EF7646F
:1035B80004D0D0C4F5F40C0006D0F6C4E9F4F7C47E
:1035C800EAF4D0C4EFF4BE88182A18C5BFF418501E
:1035D800D8A4F1EF1AF0F3EF1AF002EF1BF0192A52
:1035E80019503F0BC16E19ACFCEF1AF0FEEF1AF040
:1035F80001EF1BF0C28402EF1BF0C294164A172A8F
:103608001250165C13501758D8A00DEF1BF00FEF8F
:103618001BF0CDEF1AF012000501D36F010E050162
:10362800D46F29EF1BF0000ED46F4AEF1BF0E20EA7
:10363800B46FEA0EB56FD3C5B6F5B76BCEC5B8F59E
:10364800B96BFCEC2BF04AEF1BF0CE51D16FD26B6B
:10365800D251000AD8B433EF1BF01BEF1BF0D15145
:10366800000AD8B417EF1BF0010AD8B41BEF1BF0FF
:10367800030AD8B41BEF1BF0010AD8B41BEF1BF0E8
:10368800070AD8B41BEF1BF01BEF1BF00601E9512A
:10369800EA11D8B452EF1BF054EF1BF06AEF1BF09D
:1036A8003C0E0501B46FE90EB56FD3C5B6F5B76B1F
:1036B800CEC5B8F5B96BCFC5BAF5D0C5BBF5BC6BEF
:1036C800BD6BD4C5BEF5BF6BFCEC2BF00501D45126
:1036D80012000EC518F50FC519F519503F0BC16E2C
:1036E80019AC79EF1BF07BEF1BF07EEF1BF0C28467
:1036F8007FEF1BF0C29418C5BFF4000E176E000EC2
:10370800166EBDEF1BF0BE9616501024146E17509F
:103718001120156E14C5F6F415C5F7F4000EF86EF1
:103728003F0EF76403D00800F55005D0F6C4E9F45D
:10373800F7C4EAF4EF50C06EBE86182A18C5BFF465
:103748001850D8A4AAEF1BF0ACEF1BF0BBEF1BF08E
:10375800192A19503F0BC16E19ACB5EF1BF0B7EF22
:103768001BF0BAEF1BF0C284BBEF1BF0C294164AE1
:10377800172A1250165C13501758D8A0C6EF1BF022
:10378800C8EF1BF087EF1BF0120020EE03F0085083
:10379800D9260950DA22DF500C6E0C50116E126ACD
:1037A800136A146A20EE02F00850D9260950DA226A
:1037B800DF500C6E0C5011C50EF512C50FF513C570
:1037C80010F50D6A0D10116E0E50126E0F50136E1B
:1037D8001050146E20EE01F00850D9260950DA2254
:1037E800DF500C6E0C5011C50EF512C50FF513C540
:1037F80010F50D6A0D10116E0E50126E0F50136EEB
:103808001050146E08C5D9F409C5DAF4DF500C6EEF
:103818000C5011C50EF512C50FF513C510F50D6A3C
:103828000D10116E0E50126E0F50136E1050146E54
:1038380011C508F512C509F513C50AF514C50BF528
:103848001200256E00C72DF501C72EF52550400939
:10385800266E22C527F521C528F520C529F51FC5DF
:103868002AF5260E086E050E096E000E0B6E050E63
:103878000A6E48EC20F001092B6E2DC50CF52EC5FB
:103888000DF56AEC2CF02DC512F52EC513F5000EBA
:10389800156E010E146EC0EC26F02DC508F52EC568
:1038A80009F5260E0A6E050E0B6E000E0D6E060E3D
:1038B8000C6EAEEC1EF002C719F503C71AF5FF0E21
:1038C80064EC29F02C6E23C5D9F424C5DAF42CC590
:1038D800DFF42C28D8A473EF1CF075EF1CF07BEFF5
:1038E8001CF0000E206E010E1F6E7FEF1CF0000E04
:1038F800206E000E1F6E12000701F529F611D8B4CC
:1039080088EF1CF08AEF1CF08CEF1CF0CAEC24F056
:103918002650286E2750296E2A6A2B6A29C52BF54E
:1039280028C52AF5296A286A660E28241A6E000E08
:1039380029201B6E000E2A201C6E000E2B201D6EE7
:10394800760E1E6E070E1F6E000E216E030E206E81
:103958008CEC21F02650286E2750296E2A6A2B6A93
:1039680029C52BF528C52AF5296A286A660E282450
:103978001A6E000E29201B6E000E2A201C6E000EE7
:103988002B201D6E7F0E1E6EE40E1F6E000E216E24
:10399800030E206E4CEC21F026C5F5F727C5F6F787
:1039A8001200000E0814106E000E0914116E800E1D
:1039B8000A14126E7F0E0B14136E10501110121091
:1039C8001310D8A4EAEF1CF0ECEF1CF0F4EF1CF095
:1039D800000E086E000E096E000E0A6E000E0B6EC9
:1039E800000E0C14106E000E0D14116E800E0E14C5
:1039F800126E7F0E0F14136E105011101210131048
:103A0800D8A409EF1DF00BEF1DF013EF1DF0000E09
:103A18000C6E000E0D6E000E0E6E000E0F6E0C502A
:103A280008180FE10D5009180CE10E500A1809E1A9
:103A38000F500B18D8B423EF1DF025EF1DF028EF19
:103A48001DF0D89029EF1DF0D8801200000E106EDE
:103A5800000E116E000E126E000E136E0C500D103B
:103A68000E100F10D8B43BEF1DF03DEF1DF073EFB3
:103A78001DF0010E146E47EF1DF0D8900C360D3670
:103A88000E360F36142A0FAE4CEF1DF04EEF1DF018
:103A980041EF1DF0D89010361136123613360C50FF
:103AA800085C0D5009580E500A580F500B58D8A0F2
:103AB80060EF1DF062EF1DF06BEF1DF00C50085E1B
:103AC8000D50095A0E500A5A0F500B5A1080D890B0
:103AD8000F320E320D320C32142E4EEF1DF010C57F
:103AE80008F511C509F512C50AF513C50BF512003D
:103AF8000701F729F811D8A484EF1DF086EF1DF00F
:103B080099EF1DF0650E0501CE6FEC0ECF6F9C0E80
:103B1800D06FF50ED16F000ED36FC00ED26F880E26
:103B2800D46FF30ED56F15EC2BF0F7C72AF5F8C74D
:103B38002BF5000E2D6EB70E2C6E4DEC2AF00701FA
:103B4800F7510501D66F0701F8510501D76FD86BFA
:103B5800D96BD7C5D9F5D6C5D8F5D76BD66BD6C529
:103B68001AF5D7C51BF5D8C51CF5D9C51DF5140E12
:103B78001E6EE30E1F6E000E216EB70E206E4CEC0B
:103B880021F0000E0701366F000E356F12000A6E25
:103B9800550EF66EDD0EF76E000EF86E0900F55044
:103BA8000A5CD8A0DAEF1DF0DCEF1DF014EF1EF070
:103BB800560EF66EDD0EF76E000EF86E0A5009000E
:103BC800F55CD8A0EAEF1DF0ECEF1DF0F2EF1DF068
:103BD800000E096E010E086E18EF1EF0570EF66EF5
:103BE800DD0EF76E000EF86E0900F5500A5CD8A0DD
:103BF80000EF1EF002EF1EF014EF1EF0580EF66EE6
:103C0800DD0EF76E000EF86E0A500900F55CD8A0BC
:103C180010EF1EF012EF1EF014EF1EF0ECEF1DF087
:103C2800000E096E000E086E120015C7B8F616C70A
:103C3800B9F617C7BAF618C7BBF6B4C6D9F4B5C6ED
:103C4800DAF4DE50DE10D8B42CEF1EF02EEF1EF0A2
:103C580054EF1EF0B4C6D9F4B5C6DAF4DEC4B6F62D
:103C6800DDC4B7F6B6C6D9F4B7C6DAF4DF50D8B4AF
:103C780040EF1EF042EF1EF054EF1EF0B4C6D9F428
:103C8800B5C6DAF4DEC438F5DDC439F53EECECF03F
:103C980038C5B8F639C5B9F63AC5BAF63BC5BBF664
:103CA800BAC6CEF5BBC6CFF502EC0EF0B8C666F7BD
:103CB800B9C667F7000E0601B36F010EB26F1200A6
:103CC800516E0701FE51D8B46CEF1EF06EEF1EF076
:103CD80079EF1EF0AA0E5118D8B475EF1EF077EFE1
:103CE8001EF079EF1EF0ADEF1EF0AA0E5118D8A401
:103CF80080EF1EF082EF1EF086EF1EF0000EFE6FC2
:103D0800ADEF1EF051AC8BEF1EF08DEF1EF099EF6A
:103D18001EF0180E0501B46FF10EB56F000EB76FE7
:103D2800A00EB66FFCEC2BF0FF0051AE9EEF1EF01C
:103D3800A0EF1EF0ADEF1EF0670E0501B46FF10E97
:103D4800B56F000EB76FA00EB66FFCEC2BF0ABEFA3
:103D58001EF012000AC510F50BC511F50C500D1018
:103D6800D8A4B9EF1EF0BBEF1EF0BDEF1EF0F7EFC1
:103D78001EF00D500001836F0CC582F010C5D9F4F8
:103D880011C5DAF4DF50816F104A112A000E0F6E48
:103D9800010E0E6EE3EF1EF010C5D9F411C5DAF46A
:103DA800DF50816F104A112AB1A0DDEF1EF0DFEF5E
:103DB8001EF0D8EF1EF0000180510E4A0F2A0C5059
:103DC8000E5C0D500F58D8A0ECEF1EF0EEEF1EF071
:103DD800D0EF1EF0B1A0F3EF1EF0F5EF1EF0EEEFFE
:103DE8001EF0000180511200D69E070149514A1168
:103DF800D8B401EF1FF003EF1FF024EF1FF0B00E4F
:103E08004725D96E0A0E4821DA6EDF500E6E010E74
:103E18004725086E000E4821096E000E0B6E500EE5
:103E28000A6EFAEC25F008C547F709C548F70701F7
:103E38004907D8A04A07A780D68E0E503CEF1FF03E
:103E480051515211D8B42BEF1FF02DEF1FF031EF65
:103E58001FF0D68E000E3CEF1FF0D68E150E0D6E9D
:103E6800C60EE82EFED70D2EFCD700D0F8EF1EF0B8
:103E780012000C500D100E100F10D8B446EF1FF0A2
:103E880048EF1FF078EF1FF0010E106E52EF1FF091
:103E9800D8900C360D360E360F36102A0FAE57EF67
:103EA8001FF059EF1FF04CEF1FF00C50085C0D503D
:103EB80009580E500A580F500B58D8A066EF1FF03B
:103EC80068EF1FF070EF1FF00C50085E0D50095A94
:103ED8000E500A5A0F500B5AD8900F320E320D322C
:103EE8000C32102E59EF1FF008C508F509C509F561
:103EF8000AC50AF50BC50BF512000CEC14F0360ECA
:103F08000801DA6F5B0EDB6F000EDC6F2E0ED76FC9
:103F1800250ED86F000ED96F300ED46F4F0ED56FA7
:103F2800000ED66FE20ED16F330ED26F000ED36F34
:103F3800FE0E0701E66FFF0EE76F010EE86FF40E45
:103F4800E36F560EE46F000EE56F040EDA6F5A0E3B
:103F5800DB6F000EDC6F6C0E0801C86F580EC96F5E
:103F6800000ECA6F720E0701D76F5B0ED86F000E76
:103F7800D96F880EC56F590EC66F000EC76F120035
:103F8800EBC5CEF5ECC5CFF5EDC5D0F5EEC5D1F551
:103F9800EFC5D2F5F0C5D3F5D9EC07F0000E050151
:103FA800F56FEDC5F1F5EEC5F2F5000EF46F000EF4
:103FB800F36FE9EF1FF0F1C5D9F4F2C5DAF4DF5079
:103FC800F527F14BF22BF34BF42BEF51F35DF05146
:103FD800F459D8A0F2EF1FF0F4EF1FF0DFEF1FF055
:103FE800490EB46FF20EB56FEBC5B6F5ECC5B7F573
:103FF8001E0EB86FEF0EB96FF5C5BAF5BB6BFCECCA
:104008002BF012000701F729F811D8B40EEF20F0B1
:1040180010EF20F012EF20F0FDEC24F02EC52AF569
:104028002FC52BF5000E2D6EA60E2C6E4DEC2AF02A
:104038002E50306E2F50316E326A336A31C533F5E7
:1040480030C532F5316A306A660E30241A6E000EB9
:1040580031201B6E000E32201C6E000E33201D6EA8
:104068007F0E1E6EE40E1F6E000E216E2A0E206E4D
:104078004CEC21F02EC5F7F72FC5F8F7000E070115
:10408800366F010E356F1200000E106E08C511F55F
:1040980009C512F50A5011240C6E0B5012200D6E32
:1040A8007DEF20F011C5D9F412C5DAF4DF50101AEB
:1040B800114A122A000E0F6E000E0E6E10AE67EF38
:1040C80020F069EF20F06BEF20F0890E101AD890DD
:1040D80010360E4A0F2A0FBE7BEF20F00F5009E171
:1040E800080E0E5CD8A07BEF20F07DEF20F062EF89
:1040F80020F00C50115C0D501258D8A086EF20F01B
:1041080088EF20F056EF20F01050120007015451AC
:10411800D8B491EF20F093EF20F0CAEF20F02AC531
:104128002CF5010E2D6E000E2E6E2C2A9FEF20F01E
:10413800D8902D362E362C2E9CEF20F007013151C9
:104148002D1632512E162D502E10D8A4AEEF20F079
:10415800B0EF20F0CAEF20F02AC522F52BC523F5D1
:104168001EEC29F02AC52CF5010E2D6E000E2E6EC0
:104178002C2AC2EF20F0D8902D362E362C2EBFEFE9
:1041880020F02D50070131132E5032131200516EBA
:104198005150D8B4D2EF20F0D4EF20F0E8EF20F05F
:1041A8000601E951EA11D8B4DCEF20F0DEEF20F087
:1041B800E5EF20F0C10E0501B46FF20EB56FFCEC0F
:1041C8002BF0020E0BEF21F00701E9290AE1EA2999
:1041D80008E1EB2906E1EC29D8A4F5EF20F0F7EF88
:1041E80020F00AEF21F00601E951EA11D8B4FFEFF7
:1041F80020F001EF21F0E5EF20F0FD0E0501B46F8E
:10420800F40EB56FFCEC2BF0E5EF20F0000E120079
:104218001A0E1124086E000E1220096EA5EC2AF061
:1042280008C517F509C518F5196A1A6A0FC5D9F42A
:1042380010C5DAF4030EDE18D8A425EF21F027EF15
:1042480021F043EF21F0140E1124086E000E122005
:10425800096EA5EC2AF00850136E0950146E156A01
:10426800166A14C516F513C515F5146A136A1350A2
:104278001712145018121550191216501A1217C581
:104288000FF518C510F519C511F51AC512F5120064
:104298001AC50EF51BC50FF51CC510F51DC511F582
:1042A80002D862EF21F00500FA6E0701E351FD6EB6
:1042B800E451FE6EE551FF6EFA50120002D871EF1C
:1042C80021F00500FA6E0701CE51FD6ECF51FE6E4A
:1042D800D051FF6EFA50000E12001AC50EF51BC51C
:1042E8000FF51EC510F51FC511F520C512F521C51E
:1042F80013F502D88BEF21F00500FA6E0701E051A3
:10430800FD6EE151FE6EE251FF6EFA50120012008E
:104318001AC50EF51BC50FF51CC510F51DC511F501
:1043280002D8A2EF21F00500FA6E0701E351FD6EF5
:10433800E451FE6EE551FF6EFA50120002D8B1EF5B
:1043480021F00500FA6E0701CE51FD6ECF51FE6EC9
:10435800D051FF6EFA50FF0E12001AC50EF51BC59C
:104368000FF51EC510F51FC511F520C512F521C59D
:1043780013F502D8CBEF21F00500FA6E0701DD51E5
:10438800FD6EDE51FE6EDF51FF6EFA501200120014
:10439800080E0001B16F000E0401006F000E086FD7
:1043A800000E106F000E186F209120932095000EBC
:1043B800086F000E106F000E186FC292CA92010E9D
:1043C8000201D56FA00ED46FD189D18BC68E070E8E
:1043D800766FBE8CC69C260E076FD28FC290CA908D
:1043E800000EBF6E000EC76E000EC06E000EC86EC7
:1043F8003F0E036FC694540E0401436F550E446F6D
:10440800050E456F000E476F4691468F120010C586
:10441800F6F411C5F7F4000EF86E0800F5500C6EAE
:104428000D6AC1EC2AF00CC517F50DC518F5104A30
:10443800112A12C5D9F413C5DAF4DF50146E1450DA
:104448000C6E0D6AC1EC2AF00CC515F50DC516F5F4
:10445800124A132A1550171807E116501818D8A42D
:1044680038EF22F03AEF22F043EF22F017501810FD
:10447800D8A441EF22F043EF22F00BEF22F01550C1
:10448800175C106E16501858116E1200376E00C760
:1044980038F501C739F533C53CF534C53DF52FC5A9
:1044A8001FF530C520F531C521F532C522F53CC5CB
:1044B80023F53DC524F5375025EC1CF01FC53AF50A
:1044C80020C53BF53A503B10D8B46DEF22F06FEFA2
:1044D80022F073EF22F0D3EC2BF087EF22F038C5EF
:1044E80008F539C509F5010E3C240A6E000E3D2079
:1044F8000B6EFF0E35240C6EFF0E36200D6E49EC48
:10450800D7F0D3EC2BF012000701F729F811D8B433
:1045180090EF22F092EF22F094EF22F0FDEC24F0DD
:104528002EC52AF52FC52BF5000E2D6EB70E2C6E55
:104538004DEC2AF02E50306E2F50316E326A336AAD
:1045480031C533F530C532F5316A306A30C51AF5F0
:1045580031C51BF532C51CF533C51DF5140E1E6E8D
:10456800E30E1F6E000E216EB70E206E4CEC21F08C
:104578002EC5F7F72FC5F8F7000E0701366F000EA6
:10458800356F120007015451D8B4CDEF22F0CFEFA8
:1045980022F0F6EF22F08F0E0501B46FF00EB56F22
:1045A800E5C6B6F5E6C6B7F5E7C6B8F5E8C6B9F59F
:1045B800FCEC2BF0E5C633F6E6C634F6E7C635F66E
:1045C800E8C636F67F0E0601376F070E386F000E05
:1045D8003A6F010E396F1FECF8F0000E0701546FA7
:1045E800FDEF22F0790E0501B46FF20EB56FFCEC09
:1045F8002BF0000E0601B36F000EB26F120009EF28
:1046080023F0084A092A0A4A0B2A08C5D9F409C519
:10461800DAF4DF500C6E0AC5F6F40BC5F7F4000E99
:10462800F86E0800F5500C18D8A41DEF23F01FEF02
:1046380023F02BEF23F008C5D9F409C5DAF4DF50CD
:10464800D8A429EF23F02BEF23F005EF23F008C5BA
:10465800D9F409C5DAF4DF500C6E0AC5F6F40BC5B7
:10466800F7F4000EF86E0800F5500C5C086E096A45
:10467800D8A009061200B4C6D9F4B5C6DAF4DE50DB
:10468800DE10D8B44AEF23F04CEF23F070EF23F09C
:10469800B4C6D9F4B5C6DAF4DEC4B6F6DDC4B7F6E6
:1046A800B6C6D9F4B7C6DAF4DF50D8B45EEF23F053
:1046B80060EF23F070EF23F0B4C6D9F4B5C6DAF48E
:1046C800DEC438F5DDC439F53EECECF038C54FF7FB
:1046D80039C550F775EF23F0000E0701506F010E32
:1046E8004F6F000E0601B36F000EB26F1200060185
:1046F800EB510501DA6F0601EC510501DB6FDC6B4C
:10470800DD6BDBC5DDF5DAC5DCF5DB6BDA6B900E4E
:10471800DA251A6E000EDB211B6E000EDC211C6EE2
:10472800000EDD211D6E580E1E6E070E1F6E000E48
:10473800216E160E206E8CEC21F007016705D8B0AB
:10474800A8EF23F0AAEF23F0B2EF23F0020E6B6F6D
:10475800000E6A6F7CEC1DF0B6EF23F0000E6B6F55
:10476800000E6A6F120024500701375D2550385932
:10477800D8A0C1EF23F0C3EF23F0C5EF23F0EFEF8C
:1047880023F02250266E2350276E286A296A27C5EF
:1047980029F526C528F5276A266A375126241A6E70
:1047A800385127201B6E000E28201C6E000E292071
:1047B8001D6E000E37251E6E0B0E38211F6E3751E9
:1047C800245C206E38512558216E8CEC21F024C5CC
:1047D80037F725C538F71200AEC5B2F5AFC5B3F542
:1047E800000E0701266F000E256F12EF24F0ACC5EE
:1047F80093F5ADC594F5B20E0501956F050E966F4C
:10480800B0C597F5B1C598F592EC89F005019351BB
:10481800070125270501945107012623B2C5F6F49F
:10482800B3C5F7F4000EF86E0800F5500009D8A4D7
:1048380020EF24F022EF24F0FBEF23F0000E050117
:10484800AD6F000EAC6F12000601EB51226EEC51F9
:10485800236E246A256A23C525F522C524F5236A13
:10486800226AA10E22241A6E000E23201B6E000E4F
:1048780024201C6E000E25201D6E580E1E6E070E7D
:104888001F6E000E216E160E206E8CEC21F00701B3
:104898006705D8B052EF24F054EF24F05AEF24F013
:1048A800020E6B6F000E6A6F5EEF24F0000E6B6FE6
:1048B800000E6A6F120008C5D9F409C5DAF40AC5F2
:1048C800DFF4084A092A0BC50AF50CC50BF50DC516
:1048D8000CF50D6A08C5D9F409C5DAF40AC5DFF480
:1048E800084A092A0BC50AF50CC50BF50DC50CF5C8
:1048F8000D6A08C5D9F409C5DAF40AC5DFF4084A0F
:10490800092A0BC50AF50CC50BF50DC50CF50D6A82
:1049180008C5D9F409C5DAF40AC5DFF4084A092A32
:104928001200000E106E000E116E000E126E000EB8
:10493800136E08A0A2EF24F0A4EF24F0ACEF24F04B
:104948000C5010260D5011220E5012220F50132217
:10495800D8900C360D360E360F36D8900B320A32F8
:1049680009320832085009100A100B10D8A4BFEFFA
:1049780024F0C1EF24F09DEF24F010C508F511C50F
:1049880009F512C50AF513C50BF512000701F5293B
:10499800F611D8A4D2EF24F0D4EF24F0D6EF24F007
:1049A800FCEF24F0F551226EF651236E246A256A35
:1049B80023C525F522C524F5236A226A660E22241A
:1049C8001A6E000E23201B6E000E24201C6E000E93
:1049D80025201D6E760E1E6E070E1F6E000E216EB0
:1049E800030E206E4CEC21F0000E0701F66FF569FE
:1049F80012000701F729F811D8A405EF25F007EFF1
:104A080025F009EF25F02FEF25F0F751226EF85128
:104A1800236E246A256A23C525F522C524F5236A51
:104A2800226A22C51AF523C51BF524C51CF525C520
:104A38001DF5000E1E6E0B0E1F6E37C720F538C70A
:104A480021F54CEC21F0000E0701F86FF769000E14
:104A5800386F000E376F12000BBE3FEF25F00B507A
:104A68000A10091006E10804D8B03DEF25F03FEF21
:104A780025F05AEF25F008C50CF509C50DF50AC54E
:104A88000EF50BC50FF50C1E0D1E0E1E0F1E0C2A63
:104A9800000E0D220E220F220CC508F50DC509F5D2
:104AA8000EC50AF50FC50BF562EF25F008C508F528
:104AB80009C509F50AC50AF50BC50BF51200066EFE
:104AC800D69E07014A5107E1500E495DD8B06FEFF5
:104AD80025F071EF25F088EF25F049514725016E43
:104AE8004A514821026E000E046E500E036E5EECB1
:104AF80026F0B00E0124D96E0A0E0220DA6E06C521
:104B0800DFF40701494B4A2B4A5109E1400E495D40
:104B1800D8A091EF25F093EF25F094EF25F0A7901A
:104B2800D68E12000D6ED69E0701465109E1500E31
:104B3800455DD8A0A2EF25F0A4EF25F0ADEF25F054
:104B4800B7A2A9EF25F0ABEF25F0A4EF25F0C8EC4C
:104B580025F0070145514325086E46514421096E49
:104B6800000E0B6E500E0A6EFAEC25F0600E08244B
:104B7800D96E0A0E0920DA6E0DC5DFF40701454B20
:104B8800462BA782D68E1200E8EF25F0600E43254B
:104B9800D96E0A0E4421DA6EDF500201C96F010E88
:104BA80007014325086E000E4421096E000E0B6EA6
:104BB800500E0A6EFAEC25F008C543F709C544F70C
:104BC80007014507D8A04607070145514611D8B443
:104BD800F0EF25F0F2EF25F0F9EF25F0B7B2F7EF97
:104BE80025F0F9EF25F0CAEF25F012000A500B1056
:104BF800D8B401EF26F003EF26F027EF26F0010ED8
:104C08000C6E0BEF26F0D8900A360B360C2A0BAE3A
:104C180010EF26F012EF26F007EF26F00A50085C96
:104C28000B500958D8A01BEF26F01DEF26F021EFF6
:104C380026F00A50085E0B50095AD8900B320A32F7
:104C48000C2E12EF26F008C508F509C509F5120063
:104C58004CEF26F0600E4325D96E0A0E4421DA6E19
:104C6800DF500201C96F010E07014325016E000ED6
:104C78004421026E000E046E500E036E5EEC26F0A8
:104C880001C543F702C544F707014507D8A0460701
:104C9800070145514611D8B454EF26F056EF26F0D7
:104CA8005DEF26F0B7B25BEF26F05DEF26F02EEF52
:104CB80026F0120003500410D8B465EF26F067EF11
:104CC80026F08BEF26F0010E056E6FEF26F0D890D8
:104CD80003360436052A04AE74EF26F076EF26F084
:104CE8006BEF26F00350015C04500258D8A07FEF08
:104CF80026F081EF26F085EF26F00350015E045080
:104D0800025AD89004320332052E76EF26F001C5F8
:104D180001F502C502F51200010E146E200E0E10E8
:104D2800106E000E0F10116E9F0E1024126EFF0EE3
:104D38001120136E135009E11A0E125CD8A0A7EFC8
:104D480026F0A9EF26F0BCEF26F0D00E0E24106E48
:104D5800FF0E0F20116E115009E10A0E105CD8A049
:104D6800B8EF26F0BAEF26F0BCEF26F0000E146E6E
:104D780014C50EF50F6A1200186812C508F513C598
:104D880009F51CEC27F0000E176E000E166EDDEF0D
:104D980026F012C508F513C509F5180E0A6E050E9A
:104DA8000B6E000E0D6E010E0C6EAEEC1EF0164A68
:104DB800172A1450165C15501758D8A0E6EF26F09D
:104DC800E8EF26F0CDEF26F012C508F513C509F572
:104DD800EDEC29F0120008C5F6F409C5F7F4000E49
:104DE800F86E0800F5500A18D8A4FDEF26F0FFEF7A
:104DF80026F005EF27F008C508F509C509F51BEFEA
:104E080027F008C5F6F409C5F7F4084A092A000E80
:104E1800F86E0800F5500009D8A415EF27F017EF31
:104E280027F0EFEF26F0000E086E000E096E120054
:104E380008C50AF509C50BF520EE02F00A50D92677
:104E48000B50DA22DF50D8A42CEF27F02EEF27F0F2
:104E58003EEF27F0310E0201126F320E116F20EE75
:104E680003F00A50D9260B50DA22C8C4DFF4C890E0
:104E7800C892C88420EE02F00A50D9260B50DA22D4
:104E8800DF2A12009C0E0501B46FE70EB56FFCEC2B
:104E98002BF0CC0E0501B46FF10EB56FFCEC2BF0C6
:104EA800110E0501CF6F3C0ECE6FCB0EE82EFED74C
:104EB800CE2FFCD7CF2FFAD7B30E0501B46FF10E62
:104EC800B56FFCEC2BF09C0E0501B46FE70EB56FC7
:104ED800FCEC2BF0120082EF27F008C5D9F409C5C5
:104EE800DAF4DFC40AF5010EDE26DFC40BF5000E86
:104EF800DD220AC5D9F40BC5DAF4DF6A08C5D9F48E
:104F080009C5DAF4DEC40AF5DDC40BF50AC5D9F41F
:104F18000BC5DAF4200EDE18D8B495EF27F097EF1A
:104F280027F071EF27F0120008500910D8B49FEF4E
:104F380027F0A1EF27F0B4EF27F0000E0201056F6C
:104F4800000E046FBE88BE86000EC76E400EC96E86
:104F5800CA94000EC86EC69ABE82C692C0EF27F0E9
:104F6800C7687F0EC96ECA84C868C68AC682010E21
:104F78000201056F020E046F1200CC0E0601C26F0B
:104F8800180EC36F650EC46FFF0EC56F010EC66F96
:104F980014EC13F00009D8B4D4EF27F0D6EF27F0BB
:104FA800E4EF27F0FD0E0501B46FF00EB56FFCECD1
:104FB8002BF0FF0E0601CF6FFE0ECE6FE9EF27F044
:104FC800000E0601CF6F000ECE6F1200B7A0EFEFF4
:104FD80027F0F1EF27F005EF28F0C7C207F50750D3
:104FE800D8B4F9EF27F0FBEF27F000EF28F00750CF
:104FF80063EC25F005EF28F0000E0701526F010E53
:10500800516F2CEC26F0070145514611D8A40FEF3B
:1050180028F011EF28F012EF28F0A7921100B80E2F
:105028000501C86F050EC96FB4C5BCF5B5C5BDF59A
:10503800000EC06F000EBF6F000EC76F000EC66F68
:10504800BC0EAC6F050EAD6FB6C5AEF5B7C5AFF506
:10505800C80EB06F050EB16FF0EC23F00501BF511B
:10506800B425D96EC051B521DA6EDF6A12000AC5BF
:1050780011F50BC512F508C50FF509C510F555EF63
:1050880028F011C5D9F412C5DAF4DF500E6E114AB2
:10509800122A0FC5D9F410C5DAF40EC5DFF40F4A89
:1050A800102A0C06D8A00D060C2806E10D28D8A455
:1050B80060EF28F062EF28F045EF28F0120008C5ED
:1050C8000AF509C50BF56BEF28F0084A092A08C547
:1050D800F6F409C5F7F4000EF86E3F0EF76403D036
:1050E8000800F55005D0F6C4E9F4F7C4EAF4EF5027
:1050F8000009D8A482EF28F084EF28F069EF28F09F
:105108000A50085C086E0B500958096E1200E4EC4E
:105118000CF00601EB51386EEC51396E3A6A3B6A75
:1051280039C53BF538C53AF5396A386A38C508F5DE
:1051380039C509F53AC50AF53BC50BF502D8B0EFF4
:1051480028F00500FA6E0701E651FD6EE751FE6E84
:10515800E851FF6EFA50120012001A0E0E24086E63
:10516800000E0F20096E10C50AF511C50BF5E8EC05
:105178002BF00CC5D9F40DC5DAF4030EDE18D8A44B
:10518800C8EF28F0CAEF28F0D6EF28F0140E0E2446
:10519800086E000E0F20096E12C50AF513C50BF52F
:1051A800E8EC2BF01200286E756C6C29001A0000D0
:1051B800001A0000001A0000001A00000000000099
:1051C8000000000000000000000000000080000057
:1051D8000080000000800000008000000000000047
:0D51E8000000000000000000006440000016
:1051F600010E0C6E200E08180910D8B405EF29F020
:1052060007EF29F01AEF29F0F70E08240A6EFF0EB1
:1052160009200B6E0B5009E1050E0A5CD8A016EFAB
:1052260029F018EF29F01AEF29F0000E0C6E0CC5C4
:1052360008F5096A12002250246E2350256E266A4C
:10524600276A25C527F524C526F5256A246A080E8A
:1052560024241A6E000E25201B6E000E26201C6EBE
:10526600000E27201D6E1C0E1E6EE30E1F6E000E16
:10527600216E060E206E4CEC21F01200000E251A4F
:10528600000E261A000E271A800E281A21C508F5C8
:1052960022C509F523C50AF524C50BF525C50CF568
:1052A60026C50DF527C50EF528C50FF55CECBCF037
:1052B60008C521F509C522F50AC523F50BC524F550
:1052C60012001B6E00C71CF501C71DF51CC516F59F
:1052D6001DC517F559EC2CF01E6E1B501E18D8A4D0
:1052E60077EF29F079EF29F085EF29F01906D8A094
:1052F6001A0619501A10D8A483EF29F085EF29F061
:1053060069EF29F01E50120004011969C96809697C
:10531600C7681169C8680181C6800183C682018B8E
:10532600C68A198DC98CC18EC99E550E596FAA0E93
:10533600596F5991080E5D6F000E5E6F000E5F6F1C
:10534600550E596FAA0E596F598112000AC50CF5F0
:105356000BC50DF508C50EF509C50FF50CC5F6F418
:105366000DC5F7F40C4A0D2A000EF86E0EC5D9F4D9
:105376000FC5DAF40E4A0F2A0800F5C4DFF4DF5031
:10538600D8A4C8EF29F0CAEF29F0B1EF29F012002E
:10539600000E1A6E000E196EDCEF29F018C50BF51B
:1053A6000C6A16C50DF517C50EF52AEC19F0194A43
:1053B6001A2A19501424D96E1A501520DA6EDF50A5
:1053C600186E1850D8A4EAEF29F0ECEF29F0D1EFC7
:1053D60029F0120008C50AF509C50BF520EE02F002
:1053E6000A50D9260B50DA22DF06DF50D8A4FEEF8A
:1053F60029F000EF2AF00DEF2AF0000E0201126FDD
:10540600000E116F20EE03F00A50D9260B50DA2257
:10541600DF50C86E120013BE1BEF2AF0135006E1D0
:105426001204D8B019EF2AF01BEF2AF029EF2AF060
:1054360012C514F513C515F5141E151E144A152AA2
:1054460014C512F515C513F52DEF2AF012C512F580
:1054560013C513F5120037EF2AF008C5D9F409C5AC
:10546600DAF4DE2A000EDD2208C5D9F409C5DAF41D
:10547600DEC40AF5DDC40BF50AC5D9F40BC5DAF4AA
:10548600200EDE18D8B44AEF2AF04CEF2AF030EF9F
:105496002AF012002A500701F71909E12B50F819D2
:1054A600D8B458EF2AF05AEF2AF05CEF2AF0FDEC58
:1054B60024F02AC522F52BC523F52CC524F52DC5C8
:1054C60025F5B7EC23F0000E0701366F010E356F98
:1054D60012000501CE510701395D3A51800A516E1D
:1054E6000501CF51800A5158D8B07CEF2AF07EEFE3
:1054F6002AF088EF2AF0D60EB46FE70EB56FCEC548
:10550600B6F5CFC5B7F5FCEC2BF01200D9C5CEF534
:10551600DAC5CFF5DB0E0501D06F050ED16F99EC1C
:1055260010F00501DD6FDD51D8A49CEF2AF09EEF47
:105536002AF0A4EF2AF0D9C5D9F4DAC5DAF4DE6A7E
:10554600DD6A120020EE01F00850D9260950DA2251
:10555600DF500A6E0A500D6E0E6A08C5D9F409C5E9
:10556600DAF4DF500A6E0D500B6E0A500D6E0BC545
:105576000EF50DC508F50EC509F512009F0E0C2493
:105586000E6EFF0E0D200F6E0F5007E11A0E0E5C09
:10559600D8B0D0EF2AF0D2EF2AF0D8EF2AF05F0E7B
:1055A6000C140C6E0D6ADCEF2AF00CC50CF50DC55B
:1055B6000DF51200200E08100A6E000E09100B6E73
:1055C6009F0E0A240C6EFF0E0B200D6E0D500AE185
:1055D6001A0E0C5CD8A0F2EF2AF0F5EF2AF0010EB5
:1055E600F6EF2AF0000E086E096A1200085009103C
:1055F6000A100B10D8B402EF2BF004EF2BF00CEFCF
:105606002BF0000E081A000E091A000E0A1A800E58
:105616000B1A08C508F509C509F50AC50AF50BC52B
:105626000BF512002D0E0501B46FEE0EB56FCEC54B
:10563600B6F5CFC5B7F5D0C5B8F5D1C5B9F5D4C55A
:10564600BAF5D5C5BBF5D2C5BCF5D3C5BDF5FCECE1
:105656002BF090EC2DF0120008C50AF509C50BF5E4
:1056660020EE02F00A50D9260B50DA22DF6A000E2D
:105676000001846F000E856F110E02016A6F120E13
:105686006B6FC6920001848F120032C515F533C5C3
:1056960016F534C517F535C518F536C519F537C5E8
:1056A6001AF5000E1B6E1AECC1F015C532F516C5BB
:1056B60033F517C534F518C535F512006FEF2BF025
:1056C600050E096E0F0E086EF10EE82EFED7082E97
:1056D600FCD7092EFAD700F0070145514611D8A488
:1056E60077EF2BF079EF2BF063EF2BF012000EC55E
:1056F60008F50FC509F510C50AF511C50BF502D851
:1057060090EF2BF00500FA6E0701E651FD6EE751AA
:10571600FE6EE851FF6EFA5012001200D00E0824F9
:105726000A6EFF0E09200B6E0B500AE10A0E0A5C88
:10573600D8A0A0EF2BF0A3EF2BF0010EA4EF2BF0D7
:10574600000E086E096A12009F0E08240A6EFF0EEC
:1057560009200B6E0B500AE11A0E0A5CD8A0B6EFB0
:105766002BF0B9EF2BF0010EBAEF2BF0000E086EFE
:10577600096A1200BF0E08240A6EFF0E09200B6E7E
:105786000B500AE11A0E0A5CD8A0CCEF2BF0CFEF33
:105796002BF0010ED0EF2BF0000E086E096A1200F6
:1057A60000C719F501C71AF519C50CF51AC50DF587
:1057B6007BEC2CF019C512F51AC513F5000E156E03
:1057C600010E146EC0EC26F0120008C5D9F409C506
:1057D600DAF40AC5DFF4084A092A0B500A6E0B6A86
:1057E60008C5D9F409C5DAF40AC5DFF4084A092A56
:1057F6001200B60E0501CC6F050ECD6F000EAC6F14
:10580600000EAD6FB4C5AEF5B5C5AFF5CC0EB06F35
:10581600050EB16FF0EC23F012000AC508F50BC5B2
:1058260009F502D822EF2CF00500FA6E0801D451D2
:10583600FD6ED551FE6ED651FF6EFA501200120063
:1058460008500A02F3C40CF5F4C40DF508500B0217
:10585600F3500D2609500A02F3500D260CC508F523
:105866000DC509F51200B5BA3BEF2CF03DEF2CF053
:1058760047EF2CF0070151515211D8B445EF2CF0E7
:1058860047EF2CF036EF2CF0120081EC1FF002D817
:1058960058EF2CF00500FA6E0801D751FD6ED8516D
:1058A600FE6ED951FF6EFA5012001200186816C526
:1058B60008F517C509F5180E0A6E050E0B6E000ED3
:1058C6000D6E010E0C6E49ECD7F0185012000CC587
:1058D60008F50DC509F51CEC27F00CC508F50DC536
:1058E60009F5000E0B6E010E0A6E0EEC2DF012007D
:1058F6000CC508F50DC509F5000E0B6E000E0A6EF7
:105906000EEC2DF00CC508F50DC509F5EDEC29F0EA
:10591600120002D89AEF2CF00500FA6E0801D15158
:10592600FD6ED251FE6ED351FF6EFA501200120078
:105936009EEF2CF0530707015351800A7F0FD8B012
:10594600A7EF2CF0A9EF2CF09DEF2CF01200E9C682
:105956000AF5EAC60BF508C5E9F609C5EAF60AC569
:1059660008F50BC509F5120056C50AF557C50BF51E
:1059760008C556F509C557F50AC508F50BC509F555
:105986001200086E0804D8A4CBEF2CF0CDEF2CF053
:10599600D0EF2CF00001D785D79512000A6E61EC86
:1059A6002BF0B7A2D9EF2CF0DBEF2CF0D4EF2CF0D4
:1059B6000AC5C9F21200D80E0501B46FF20EB56F12
:1059C600B20EB66FF30EB76FFCEC2BF01200CEBA28
:1059D600EFEF2CF0F1EF2CF0F4EF2CF0D890F5EF80
:1059E6002CF0D8801200CEB0FBEF2CF0FDEF2CF09F
:1059F60000EF2DF0D89001EF2DF0D8801200B5BA47
:105A060007EF2DF009EF2DF00CEF2DF0D8900DEFEC
:105A16002DF0D88012000A500B10D8B415EF2DF0D7
:105A260018EF2DF0BE8219EF2DF0BE921200FFFF87
:105A3600FFFF6E0801000F006AFFFF00FF00FFFF77
:105A4600CF0101FF086E08B02BEF2DF02EEF2DF0E1
:105A5600C2822FEF2DF0C2921200086E08B036EF08
:105A66002DF039EF2DF0C18E3AEF2DF0C19E1200C8
:105A7600086E08B041EF2DF044EF2DF0C28045EFDF
:105A86002DF0C29012009BEC2CF00AC508F50BC550
:105A960009F5AFEC2DF01200000E086E800E096EAF
:105AA600FF0E0A6EFF0E0B6E1200000E086E000E41
:105AB600096E210E0A6E000E0B6E1200140E0701FF
:105AC600206F410E216F000E226F1200FF00000EA4
:105AD6000601B36F000EB26F1200EBC62EF5ECC6D0
