:0400000085EF00F098
:10000800C813C813C813C813C813C813C813C81310
:10001800C813C813C813C813C813C813C813C81300
:10002800C813C813C813C813C813C813C813C813F0
:10003800C813C813C813C813C813C813C813C813E0
:10004800C813C813C813C813C813C813C813C813D0
:10005800C813C813C813C813C813C813C813C813C0
:10006800C813C813C813C813C813C813C813C813B0
:10007800C813C813C813C8134200C813C813C81339
:10008800C813C813C813C813C813C813C813C81390
:10009800C813C813C813C8134200C813C813C81319
:1000A800C813C813C813C813C813C813C813C81370
:1000B800C813C813C813C813C813C813C813C81360
:1000C800C813C813C813C813C813C813C813C81350
:1000D800C813C813C813C813C813C813C813C81340
:1000E8004200C813C813C813C813C813C813C813C9
:1000F800C813C813C813C813C813C813C813C81320
:10010800FF00FAEF17F080EC2DF00A0E081809101E
:10011800D8B491EF00F093EF00F0BEEF00F080EC60
:100128002DF0320E08180910D8B49DEF00F09FEF9B
:1001380000F0BEEF00F080EC2DF05A0E0818091000
:10014800D8B4A9EF00F0ABEF00F0BEEF00F0D20E8C
:100158000501CE6FE50ECF6F900ED06FF70ED16F01
:10016800030ED36F150ED26F3A0ED46FF00ED56F03
:10017800FFEC2AF080EC2DF0E3C5D9F4E4C5DAF4FD
:1001880008C5DEF409C5DDF480EC2DF05A0E081818
:100198000910D8A4D2EF00F0D4EF00F0D6EF00F0A9
:1001A8004CEF01F080EC2DF00A0E08180910D8A4C5
:1001B800E0EF00F0E2EF00F026EF01F0000E0B6E2A
:1001C800010E0A6EFAEC2BF0000E1A6E000E1B6E72
:1001D800000E1C6E000E1D6E1A0E1E6EE50E1F6EB2
:1001E800000E216E0A0E206E1AEC21F002D808EFDC
:1001F80001F00500FA6E0801D151FD6ED251FE6E74
:10020800D351FF6EFA501200000E086E000E096EF0
:10021800000E0A6E000E0B6E02D81EEF01F00500EC
:10022800FA6E0701E651FD6EE751FE6EE851FF6E6A
:10023800FA501200000E0501D66F000ED76FAD0EF2
:10024800C1ECB4F0000E0B6E010E0A6EFAEC2BF046
:1002580096EC2DF0000E0501D66F000ED76FAB0E91
:10026800C1ECB4F061EC2DF0000E0501D66F000E64
:10027800D76FAC0EC1ECB4F0000E07014C6F500EF6
:100288004B6FF6EC23F0000E07014C6F5A0E4B6FC4
:1002980012008EC6D9F48FC6DAF4DEC492F6DDC435
:1002A80093F68EC650F68FC651F6000E0601526FB1
:1002B800000E536F000E546F000E556F84ECD5F08E
:1002C8000601956F9551D8B46CEF01F06EEF01F00F
:1002D80072EF01F0060195510EEF02F092C62BF66F
:1002E80093C62CF620EE16F08E51D9268F51DA22BD
:1002F800DEC42DF6DEC42EF6DEC42FF6DEC430F6DC
:10030800C6EC18F00601956F9551D8B48EEF01F040
:1003180090EF01F092EF01F06EEF01F020EE1AF08D
:100328008E51D9268F51DA22DEC490F6DDC491F6BB
:1003380090C6D9F491C6DAF4DF50946F9451D8A4DA
:10034800A8EF01F0AAEF01F0AEEF01F0040E956FEF
:100358006EEF01F020EE04F08E51D9268F51DA228B
:1003680010EE1AF08E51E1268F51E22200EE0BF0CA
:10037800E650E926E550EA22EF503F0BDF6E20EE0B
:100388001AF08E51D9268F51DA2210EE0BF0DE507A
:10039800E126DD50E222E7B6D4EF01F0D6EF01F016
:1003A800F7EF01F020EE1AF08E51D9268F51DA229C
:1003B800DEC408F5DDC409F51C0E8E250A6E000E94
:1003C8008F210B6E000E0D6E0B0E0C6E2CEC17F0C1
:1003D80008500910D8A4F3EF01F0F5EF01F0F7EF9A
:1003E80001F06EEF01F08EC674F68FC675F6000E3A
:1003F8000601776F000E766FF3ECC9F00601956F72
:100408009551D8B40AEF02F00CEF02F072EF01F048
:100418006EEF01F01200000E136E000E126E0DC585
:10042800D9F40EC5DAF4DEC40FF5DDC410F50FC536
:10043800D9F410C5DAF4300EDE18D8A426EF02F08D
:1004480028EF02F043EF02F00DC5D9F40EC5DAF437
:1004580010EE01F0DE50E126DD50E222780EE618BB
:10046800D8A439EF02F03BEF02F043EF02F0020E9E
:100478000DC5D9F40EC5DAF4DE26000EDD220DC551
:10048800D9F40EC5DAF4DEC40FF5DDC410F50FC5D6
:10049800D9F410C5DAF4DF50146E600E146457EF07
:1004A80002F059EF02F063EF02F0670E14605FEF9D
:1004B80002F061EF02F063EF02F0200E145E2F0EDF
:1004C800146469EF02F06BEF02F073EF02F0390E7B
:1004D800146471EF02F073EF02F085EF02F0400E42
:1004E800146479EF02F07BEF02F090EF02F0460E11
:1004F800146481EF02F083EF02F085EF02F090EFD1
:1005080002F0124A132A0DC5D9F40EC5DAF4DE2A10
:10051800000EDD2243EF02F00DC5D9F40EC5DAF462
:10052800DEC40FF5DDC410F50FC5D9F410C5DAF433
:10053800680EDE18D8B4A3EF02F0A5EF02F0BAEF08
:1005480002F00DC5D9F40EC5DAF4DEC40FF5DDC42A
:1005580010F50FC5D9F410C5DAF4480EDE18D8A482
:10056800B8EF02F0BAEF02F0C1EF02F00DC5D9F40E
:100578000EC5DAF4DE2A000EDD220DC508F50EC51B
:1005880009F5FBEC29F012C50DF513C50EF512009F
:10059800FBC7B8F6B4C6D9F4B5C6DAF4DE50DE1037
:1005A800D8B4D9EF02F0DBEF02F060EF03F0B4C685
:1005B800D9F4B5C6DAF4DEC4B6F6DDC4B7F6B6C605
:1005C800D9F4B7C6DAF4DF50D8B4EDEF02F0EFEFA4
:1005D80002F060EF03F007015451D8B4F6EF02F0CF
:1005E800F8EF02F00EEF03F0E5C633F6E6C634F690
:1005F800E7C635F6E8C636F67F0E0601376F070EF2
:10060800386F000E3A6F010E396F1FECF8F0000ECC
:100618000701546FB4C6D9F4B5C6DAF4DEC438F5A8
:10062800DDC439F53EECECF038C5E5F639C5E6F63B
:100638003AC5E7F63BC5E8F64D0E0501B46FF10E75
:10064800B56FE5C6B6F5E6C6B7F5E7C6B8F5E8C6C8
:10065800B9F5E6EC2BF0E5C633F6E6C634F6E7C6A0
:1006680035F6E8C636F67F0E0601376F070E386F87
:10067800000E3A6F010E396FECECF8F0E5C633F670
:10068800E6C634F6E7C635F6E8C636F6B80E06010D
:10069800376F060E386F000E3A6F010E396F1FEC78
:1006A800F8F0010E0701546FEBC622F5ECC623F5EE
:1006B800EBEC28F081EF03F007015451D8B467EF51
:1006C80003F069EF03F07AEF03F0060E0501B46F4B
:1006D800F30EB56FE5C6B6F5E6C6B7F5E7C6B8F5E5
:1006E800E8C6B9F5E6EC2BF081EF03F0790E0501C9
:1006F800B46FF20EB56FE6EC2BF0000E0601B36F87
:10070800000EB26F120008C512F509C513F50C509A
:100718000D10D8A492EF03F094EF03F096EF03F0D6
:1007280041EF04F012C5D9F413C5DAF40AC5DFF4B1
:100738000C5012240E6E0D5013200F6EFF0E0E2457
:10074800D96EFF0E0F20DA6E0AC5DFF40D5007E1EF
:10075800030E0C5CD8B0B3EF03F0B5EF03F0B7EFBE
:1007680003F041EF04F020EE01F01250D9261350A7
:10077800DA220AC5DFF420EE02F01250D92613500F
:10078800DA220AC5DFF40C5012240E6E0D50132025
:100798000F6EFE0E0E24D96EFF0E0F20DA6E0AC5FC
:1007A800DFF40C5012240E6E0D5013200F6EFD0E48
:1007B8000E24D96EFF0E0F20DA6E0AC5DFF40D5035
:1007C80007E1070E0C5CD8B0ECEF03F0EEEF03F096
:1007D800F0EF03F041EF04F020EE03F01250D926B9
:1007E8001350DA220AC5DFF40C5012240E6E0D5095
:1007F80013200F6EFC0E0E24D96EFF0E0F20DA6E3A
:100808000AC5DFF40D5007E1090E0C5CD8B00FEFF4
:1008180004F011EF04F013EF04F041EF04F012C5F7
:100828000EF513C50FF50E1E0F1E0E4A0F2A030EE6
:100838000E14106E116A1050122611501322105007
:100848000C5E11500D5AFC0E0C16FF0E0D1638EFEB
:1008580004F012C5D9F413C5DAF40AC5DFF40C069E
:10086800D8A00D06124A132A0C500D10D8A43FEF39
:1008780004F041EF04F02DEF04F01200D4C5EBF5BD
:10088800D5C5ECF50F0E0501D625D86F000ED7217A
:10089800D96FF00ED815D66FFF0ED915D76F000E89
:1008A800EE6F000EED6FF0EF04F00F0EED15D86F40
:1008B800000EEE15D96FD851D911D8A466EF04F0FF
:1008C80068EF04F07EEF04F05F0EB46FFA0EB56FB8
:1008D800CEC5B6F5CFC5B7F5ED51D025B86FEE51F9
:1008E800D121B96F000ED221BA6F000ED321BB6F90
:1008F800E6EC2BF04C0E0501B46FFE0EB56FED5112
:10090800EB25D96EEE51EC21DA6EDF50D86FD85155
:10091800B66FB76BE6EC2BF00501ED51EB25D96E00
:10092800EE51EC21DA6E1F0EDF649DEF04F09FEFAD
:1009380004F0C3EF04F0ED51EB25D96EEE51EC2134
:10094800DA6E7F0EDF60ABEF04F0ADEF04F0C3EFBB
:1009580004F0ED51EB25D96EEE51EC21DA6E0F0E55
:10096800ED15D86F000EEE15D96FDA0ED825E16EA9
:10097800050ED921E26EDFC4E7F4D1EF04F00F0EC3
:10098800ED15D86F000EEE15D96FDA0ED825D96E91
:10099800050ED921DA6E2E0EDF6E0F0EED15D86F0B
:1009A800000EEE15D96F0F0ED819D911D8A4DFEFA4
:1009B80004F0E1EF04F0EDEF04F0000EEA6F3B0EF7
:1009C800B46FF80EB56FDA0EB66F050EB76FE6ECBA
:1009D8002BF00501ED4BEE2BD651ED5DD751EE59BD
:1009E800D8A0F9EF04F0FBEF04F059EF04F012007F
:1009F80002D80BEF05F00500FA6E0701CE51FD6E27
:100A0800CF51FE6ED051FF6EFA50000E1200000E4C
:100A1800296E000E286EA9EF05F028C508F529C52E
:100A280009F5000E0B6E060E0A6E0DEC2CF0085040
:100A38001A24206E09501B20216E020E2024D96E24
:100A4800000E2120DA6EDEC422F5DDC423F51E5027
:100A5800246E1F50256E266A276A25C527F524C5EA
:100A680026F5256A246A22502424106E2350252056
:100A7800116E000E2620126E000E2720136E02D86B
:100A880051EF05F00500FA6E0701E351FD6EE451E0
:100A9800FE6EE551FF6EFA50120028C508F529C50B
:100AA80009F5000E0B6E060E0A6E0DEC2CF00850C0
:100AB8001A24206E09501B20216E020E2024D96EA4
:100AC800000E2120DA6EDEC40EF5DDC40FF528C550
:100AD80008F529C509F5000E0B6E060E0A6E0DEC19
:100AE8002CF008501A24D96E09501B20DA6EDEC487
:100AF80010F5DDC411F528C508F529C509F5000E5E
:100B08000B6E060E0A6E0DEC2CF008501A24226E9D
:100B180009501B20236E040E2224D96E000E2320B8
:100B2800DA6EDEC412F5DDC413F502D8A7EF05F0BE
:100B38000500FA6E0701E051FD6EE151FE6EE251CB
:100B4800FF6EFA501200284A292A1C50285C1D50B2
:100B58002958D8A0B2EF05F0B4EF05F011EF05F071
:100B6800120002D8C4EF05F00500FA6E0701CE5155
:100B7800FD6ECF51FE6ED051FF6EFA50FF0E12007F
:100B8800000E296E000E286E62EF06F028C508F5E3
:100B980029C509F5000E0B6E060E0A6E0DEC2CF039
:100BA80008501A24206E09501B20216E020E2024A2
:100BB800D96E000E2120DA6EDEC422F5DDC423F5DD
:100BC8001E50246E1F50256E266A276A25C527F5F4
:100BD80024C526F5256A246A22502424106E235041
:100BE8002520116E000E2620126E000E2720136E8F
:100BF80002D80AEF06F00500FA6E0701E351FD6E10
:100C0800E451FE6EE551FF6EFA50120028C508F552
:100C180029C509F5000E0B6E060E0A6E0DEC2CF0B8
:100C280008501A24206E09501B20216E020E202421
:100C3800D96E000E2120DA6EDEC40EF5DDC40FF584
:100C480028C508F529C509F5000E0B6E060E0A6EB3
:100C58000DEC2CF008501A24D96E09501B20DA6EBE
:100C6800DEC410F5DDC411F528C508F529C509F558
:100C7800000E0B6E060E0A6E0DEC2CF008501A24AE
:100C8800226E09501B20236E040E2224D96E000EFA
:100C98002320DA6EDEC412F5DDC413F502D860EF46
:100CA80006F00500FA6E0701DD51FD6EDE51FE6E9D
:100CB800DF51FF6EFA501200284A292A1C50285C7E
:100CC8001D502958D8A06BEF06F06DEF06F0CAEF5B
:100CD80005F0120015C7B8F616C7B9F617C7BAF661
:100CE80018C7BBF6B4C6D9F4B5C6DAF4DE50DE10C0
:100CF800D8B481EF06F083EF06F0A9EF06F0B4C68A
:100D0800D9F4B5C6DAF4DEC4B6F6DDC4B7F6B6C6AD
:100D1800D9F4B7C6DAF4DF50D8B495EF06F097EFF8
:100D280006F0A9EF06F0B4C6D9F4B5C6DAF4DEC405
:100D380038F5DDC439F53EECECF038C5B8F639C500
:100D4800B9F63AC5BAF63BC5BBF6060120EE02F085
:100D5800B451D926B551DA22DE50DE10D8B4B7EF37
:100D680006F0B9EF06F0CFEF06F020EE02F0B4512E
:100D7800D926B551DA22DEC4B6F6DDC4B7F6B6C652
:100D8800D9F4B7C6DAF4DF50D8A4CDEF06F0CFEF28
:100D980006F0DDEF06F0530E0501B46FF40EB56FE3
:100DA800E6EC2BF0000E0601B36F000EB26F23EFD6
:100DB80007F020EE02F0B451D926B551DA22DEC48C
:100DC80038F5DDC439F53EECECF038500601BC6F5F
:100DD800B8C633F6B9C634F6BAC635F6BBC636F663
:100DE800BC0E0601376F060E386F000E3A6F010E03
:100DF800396F1FECF8F0010E0601B827000EB92371
:100E0800BA23BB23000E086E000E096EBC0E0A6ED4
:100E1800060E0B6E19ECEEF008500910D8A417EF67
:100E280007F019EF07F0ECEF06F0B8C615F7B9C6EA
:100E380016F7BAC617F7BBC618F7D6EF06F01200B2
:100E48006A0E086EFF0E096E09EC28F008C5BBF79C
:100E580009C5BCF7800E0701BB25B36F070EBC217F
:100E6800B46F800E0501B46F070EB56FC60EB66F6E
:100E7800FF0EB76F6A0EB86FFF0EB96FB9EC27F0A7
:100E8800800E0501CE6F070ECF6F000ED16F300EAA
:100E9800D06FBBC7D2F5BCC7D3F5BBC7D4F5BCC7A9
:100EA800D5F59CECC5F09C0E0501B46FE70EB56F47
:100EB800E6EC2BF0B3C7CEF5B4C7CFF5B90E0501F4
:100EC800D06F070ED16FBD0ED26F070ED36FDFEC58
:100ED800AEF0CEC5B5F7CFC5B6F70701B6BF79EF07
:100EE80007F077EF07F087EF07F03F0E0501B46FC3
:100EF800E80EB56FE6EC2BF0000E0601C96F000E88
:100F0800C86FD8EF07F0B9C708F5BAC709F5000EDA
:100F18000B6E0C0E0A6E0DEC2CF0030E0826000E5C
:100F28000922CB0E0824F66EE30E0920F76EF86A44
:100F3800000EF8220900F5C4B0F70900F5C4B1F7AE
:100F48000A00F5C4B2F7B5C7B2F6B6C7B3F6BD0E18
:100F58000601B46F070EB56F02D8BEEF07F00500A3
:100F6800FA6E0701B051FD6EB151FE6EB251FF6EBF
:100F7800FA501200B2C6B7F7B3C6B8F70701B729D7
:100F880006E1B829D8A4CBEF07F0CDEF07F0D4EFEE
:100F980007F01A0E0501B46FFB0EB56FE6EC2BF0E7
:100FA800B7C7C8F6B8C7C9F61200D0C5E7F5D1C5A6
:100FB800E8F50F0E0501D225D46F000ED321D56FA9
:100FC800F00ED415D26FFF0ED515D36F000EEA6F51
:100FD800000EE96F7FEF08F00F0EE915D46F000ED1
:100FE800EA15D56FD451D511D8A4FDEF07F0FFEF5E
:100FF80007F00DEF08F00A0EB46FFB0EB56FCEC503
:10100800B6F5CFC5B7F5E9C5B8F5EAC5B9F5E6EC63
:101018002BF04C0E0501B46FFE0EB56FE951E725B4
:10102800D96EEA51E821DA6EDF50D46FD451B66F29
:10103800B76BE6EC2BF00501E951E725D96EEA51CB
:10104800E821DA6E1F0EDF642CEF08F02EEF08F0AF
:1010580052EF08F0E951E725D96EEA51E821DA6E36
:101068007F0EDF603AEF08F03CEF08F052EF08F02F
:10107800E951E725D96EEA51E821DA6E0F0EE91534
:10108800D46F000EEA15D56FD60ED425E16E050E85
:10109800D521E26EDFC4E7F460EF08F00F0EE91522
:1010A800D46F000EEA15D56FD60ED425D96E050E6D
:1010B800D521DA6E2E0EDF6E0F0EE915D46F000EF5
:1010C800EA15D56F0F0ED419D511D8A46EEF08F014
:1010D80070EF08F07CEF08F0000EE66F3B0EB46F7F
:1010E800F80EB56FD60EB66F050EB76FE6EC2BF09F
:1010F8000501E94BEA2BD251E95DD351EA59D8A051
:1011080088EF08F08AEF08F0F0EF07F0120055BEFC
:1011180090EF08F092EF08F093EF08F0589255BE60
:101128009AEF08F098EF08F0A0EF08F0000E2D6E87
:10113800010E2C6EA4EF08F054C52CF555C52DF5FD
:1011480052C52EF553C52FF5000E316E4F0E306E79
:10115800000E0901CF6FEFEF08F03006D8A0310676
:10116800800E3024D96E090E3120DA6E28C508F5B4
:1011780029C509F52AC50AF52BC50BF50A0E0C6E0B
:10118800000E0D6E000E0E6E000E0F6E0BEC1FF0B3
:101198000850300FDF6E2C06D8A02D062E06D8A0DA
:1011A8002F0628C508F529C509F52AC50AF52BC54E
:1011B8000BF50A0E0C6E000E0D6E000E0E6E000E74
:1011C8000F6E6FEC1CF008C528F509C529F50AC58E
:1011D8002AF50BC52BF530503110D8B4F6EF08F0CE
:1011E800F8EF08F024EF09F0285029102A102B10E6
:1011F800D8A401EF09F003EF09F0B1EF08F02DBE14
:1012080010EF09F02D5006E12C04D8B00EEF09F0CC
:1012180010EF09F0B1EF08F02FBE1BEF09F02F50C7
:1012280008E12E04D8A01BEF09F01DEF09F024EF08
:1012380009F058B222EF09F024EF09F0B1EF08F0F5
:1012480026C51BF527C51CF5800E30241D6E090E1A
:1012580031201E6E2EC51FF52FC520F5F3EC19F0B1
:101268001BC526F51CC527F512002BC619F62CC67A
:101278001AF683ECF6F00009D8B445EF09F047EF09
:1012880009F04AEF09F0010EE0EF09F02BC614F55A
:101298002CC615F52DC616F52EC617F52FC618F54A
:1012A80030C619F560EC18F014C535F615C536F6D4
:1012B80016C537F617C538F6060120EE2CF02B5167
:1012C800D9262C51DA2235C6DEF436C6DEF437C606
:1012D800DEF438C6DEF4300E2B25086E000E2C2105
:1012E800096E000E0B6E000E0A6E020E0D6E000ED9
:1012F8000C6E87EC03F0300E06012B25336F000EC1
:101308002C21346F000E3A6F010E396F000E3C6FBE
:10131800000E3B6F95EF09F0060139513B273A5112
:101328003C2320EE0AF02B51D9262C51DA22DE502C
:101338003B5DDE503C59D8B0A4EF09F0A6EF09F0A8
:10134800CBEF09F033C60DF634C60EF63B51352502
:101358000F6F3C513621106F000E3721116F000EB0
:101368003821126F39C613F63AC614F620EE01F08A
:101378002B51D9262C51DA22DF50E8ECFCF0000979
:10138800D8B4C9EF09F0CBEF09F090EF09F00601E6
:1013980020EE0AF02B51D9262C51DA223B51DE18C7
:1013A80007E13C51DE18D8A4DCEF09F0DFEF09F0C3
:1013B800010EE0EF09F0000E12008EC6D9F48FC6B8
:1013C800DAF4DEC495F6DDC496F68EC650F68FC6FE
:1013D80051F6000E0601526F000E536F000E546F47
:1013E800000E556F84ECD5F00601996F9951D8A479
:1013F80000EF0AF002EF0AF07BEF0AF0000E986F98
:10140800000E976F95C62BF696C62CF620EE16F0B2
:101418008E51D9268F51DA22DEC42DF6DEC42EF67F
:10142800DEC42FF6DEC430F6C6EC18F00601996F5C
:101438009951D8B422EF0AF024EF0AF026EF0AF007
:101448007BEF0AF020EE1AF08E51D9268F51DA225E
:10145800DEC492F6DDC493F692C6D9F493C6DAF4E4
:10146800E50EDE18D8B43BEF0AF03DEF0AF053EF73
:101478000AF020EE1AF08E51D9268F51DA22DEC4F6
:1014880092F6DDC493F692C6D9F493C6DAF4DF5027
:10149800D8A451EF0AF053EF0AF063EF0AF0974B24
:1014A800982B9051971907E191519819D8A45FEF9B
:1014B8000AF061EF0AF067EF0AF07BEF0AF0000E1E
:1014C800986F000E976F8EC674F68FC675F6000E6D
:1014D800776F010E766FF3ECC9F00601996F995199
:1014E800D8B479EF0AF07BEF0AF006EF0AF0040EA1
:1014F8009919D8A482EF0AF084EF0AF086EF0AF06F
:10150800070E996F99511200000184838481000E9F
:10151800886F000E8B6F8599868386810501D205B9
:10152800D8A499EF0AF09BEF0AF09FEF0AF00001A8
:101538008495A1EF0AF0000184850501D351D8A450
:10154800A8EF0AF0AAEF0AF0B0EF0AF00001859FB1
:10155800858D859BBFEF0AF0770EB46FED0EB56FE2
:10156800690EB66FF50EB76FD3C5B8F5B96BE6EC73
:101578002BF0BDEF0AF0000E8C6FF8EF0AF0020EA8
:1015880000018C6F020E896F23EF0BF00F0E000124
:10159800896F23EF0BF0070E0001896F23EF0BF023
:1015A800050E0001896F23EF0BF0040E0001896F0F
:1015B80023EF0BF0030E0001896F23EF0BF0020EEF
:1015C8000001896F23EF0BF05B0EB46FEA0EB56F65
:1015D800690EB66FF50EB76FD0C5B8F5D1C5B9F5B8
:1015E800E6EC2BF023EF0BF0D0C5D4F5D1C5D5F53B
:1015F8000501D551000AD8B404EF0BF0E8EF0AF062
:10160800D451000AD8B4C3EF0AF0010AD8B4CAEF1B
:101618000AF0030AD8B4CFEF0AF0010AD8B4D4EF1D
:101628000AF0070AD8B4D9EF0AF0010AD8B4DEEFF5
:101638000AF0030AD8B4E3EF0AF0E8EF0AF0120060
:1016480021EE0FF2110EDE6AE806FDE2FE0E06013B
:101658000F6FE40E106F000E126F000E116F000E68
:10166800146F1C0E136F0A0E156F060E166F000E00
:10167800186F040E176F000E1A6F050E196F060506
:10168800010E0759D8A04BEF0BF04DEF0BF060EFB0
:101698000BF0990E0501CE6FF80ECF6F1E0ED06FAE
:1016A800F60ED16F000ED36F8F0ED26FC50ED46FAA
:1016B800F40ED56FFFEC2AF002C60AF603C60BF645
:1016C80000C60CF601C60DF606C60EF61C0E06017F
:1016D80002190311D8A473EF0BF075EF0BF09AEF12
:1016E8000BF004C61BF605C61CF602C61DF603C69B
:1016F8001EF606C61FF607C620F60F0E0501E36F95
:10170800060EE46F000EE66F030EE56F000EE76F3E
:10171800000EE86F000EEA6F000EE96F08C6EBF5E1
:1017280009C6ECF530ECEDF0BDEF0BF004C61BF686
:1017380005C61CF600C61DF601C61EF606C61FF62F
:1017480007C620F60F0E0501E36F060EE46F000EC4
:10175800E66F020EE56F1B0EE76F060EE86F000ED0
:10176800EA6F010EE96F08C6EBF509C6ECF530EC37
:10177800EDF0120008C50FF509C510F50AC511F5F9
:101788000BC512F50C06D8A00D060C2806E10D288D
:10179800D8A4D1EF0BF0D3EF0BF0E0EF0BF0000E75
:1017A800096E000E086E53EF0CF00F4A102A114A0A
:1017B800122A0C06D8A00D060FC5F6F410C5F7F4CA
:1017C800000EF86E3F0EF76403D00800F55005D000
:1017D800F6C4E9F4F7C4EAF4EF500009D8B4F7EF17
:1017E8000BF0F9EF0BF034EF0CF011C5F6F412C55D
:1017F800F7F4000EF86E0800F5500009D8B407EFAA
:101808000CF009EF0CF034EF0CF00C500D10D8B4BC
:1018180010EF0CF012EF0CF034EF0CF011C5F6F4E9
:1018280012C5F7F4000EF86E0800F5C40EF50FC5E2
:10183800F6F410C5F7F4000EF86E3F0EF76403D007
:101848000800F55005D0F6C4E9F4F7C4EAF4EF50FF
:101858000E18D8B432EF0CF034EF0CF0D9EF0BF0CF
:101868000FC5F6F410C5F7F4000EF86E3F0EF764D6
:1018780003D00800F55005D0F6C4E9F4F7C4EAF43B
:10188800EF500E6E11C5F6F412C5F7F4000EF86E9F
:101898000800F5500E5C086E096AD8A00906120007
:1018A800000E1A6E000E196E12C5D9F413C5DAF4BB
:1018B800DEC414F5DDC415F514C5D9F415C5DAF47C
:1018C800270EDE18D8A46BEF0CF06DEF0CF0A5EF27
:1018D8000CF012C5D9F413C5DAF4DE2A000EDD22A5
:1018E800DEC417F5DDC418F512C508F513C509F5EA
:1018F800000E0A6E000E0B6E19ECEEF0085009107F
:10190800D8A489EF0CF08BEF0CF078EF0CF012C52F
:10191800D9F413C5DAF4DEC414F5DDC415F517508F
:10192800145C196E185015581A6E12C508F513C5AF
:1019380009F53DEC27F019C512F51AC513F5E3EFC3
:101948000CF012C5D9F413C5DAF4DEC414F5DDC4FD
:1019580015F514C5D9F415C5DAF4DF501B6E200E41
:101968001B18D8B4BAEF0CF0BCEF0CF099EF0CF0E0
:101978002C0E1B18D8B4C3EF0CF0C5EF0CF099EF80
:101988000CF03D0E1B18D8B4CCEF0CF0CEEF0CF0D9
:1019980099EF0CF01B50D8A4D4EF0CF0D6EF0CF054
:1019A800D8EF0CF099EF0CF0194A1A2A12C5D9F49D
:1019B80013C5DAF4DE2A000EDD22A5EF0CF01200C2
:1019C8000601EB510701F71909E10601EC5107017E
:1019D800F819D8A4F2EF0CF0F4EF0CF04AEF0DF080
:1019E80035513611D8B4FBEF0CF0FDEF0CF04AEF8F
:1019F8000DF06A516B11D8A404EF0DF006EF0DF04D
:101A08004AEF0DF00601EB51346EEC51356E366A33
:101A1800376A35C537F534C536F5356A346A34C59D
:101A28001AF535C51BF536C51CF537C51DF5BF0EAE
:101A38001E6EE40E1F6E000E216E290E206E1AEC2B
:101A480021F00601EB51346EEC51356E366A376A77
:101A580035C537F534C536F5356A346A290E342468
:101A68001A6E000E35201B6E000E36201C6E000EFE
:101A780037201D6E580E1E6E070E1F6E000E216E4B
:101A8800160E206E1AEC21F073EF0DF0EBC62EF552
:101A9800ECC62FF556EC22F00601EB51346EEC51F2
:101AA800356E366A376A35C537F534C536F5356A61
:101AB800346AA10E34241A6E000E35201B6E000EF7
:101AC80036201C6E000E37201D6E580E1E6E070E37
:101AD8001F6E000E216E160E206E1AEC21F01200F9
:101AE8000501D451D511D8B47CEF0DF07EEF0DF07F
:101AF8008AEF0DF0D4C5D9F4D5C5DAF4EF0EDE6E51
:101B0800BE0EDE6EAD0EDE6EDE0EDD6ECF5107E16F
:101B1800100ECE5DD8B093EF0DF095EF0DF0B2EF4B
:101B28000DF0790ED66F080ED76F020ED627000E6D
:101B3800D723D890CE35D96ECF35DA6ED890D9362E
:101B4800DA36D651D926D751DA22DE50DE10D8A49B
:101B5800B0EF0DF0B2EF0DF0C1EF0DF0D80EB46F8D
:101B6800F40EB56FCEC5B6F5CFC5B7F5E6EC2BF0DC
:101B78000501CE69CF6901EF0EF0D451D511D8B463
:101B8800C8EF0DF0CAEF0DF0FDEF0DF0790ED66F2E
:101B9800080ED76FD890CE35D96ECF35DA6ED8907B
:101BA800D936DA36D651D926D751DA22DEC408F525
:101BB800DDC409F5D0C50AF5D1C50BF50DEC2CF03F
:101BC8000501D2510826D3510922FF0E0824D86FE7
:101BD800FF0E0920D96FDA6BDB6BD4C5D9F4D5C5F4
:101BE800DAF4D8C5DEF4D9C5DEF4DAC5DEF4DBC52F
:101BF800DEF4000ECF6F000ECE6F12000501CE513D
:101C08000601EB1909E10501CF510601EC19D8A429
:101C180010EF0EF012EF0EF014EF0EF08CEF0EF046
:101C2800070139510501CE5DCF51800AD06F0701F8
:101C38003A51800A0501D059D8A025EF0EF027EFB8
:101C48000EF042EF0EF00701FC51D8B42EEF0EF063
:101C580030EF0EF042EF0EF0000EFC6F960E05010D
:101C6800B46FEE0EB56FCEC5B6F5CFC5B7F5E6ECD9
:101C78002BF0000E0701526F010E516F0701205122
:101C880021112211D8B44BEF0EF04DEF0EF062EF98
:101C98000EF0EBC628F5ECC629F5CEC52AF5CFC55A
:101CA8002BF502D862EF0EF00500FA6E2051FD6E9A
:101CB8002151FE6E2251FF6EFA501200CEC5EBF68E
:101CC800CFC5ECF60601EB510501D06F0601EC51CA
:101CD8000501D16FD26BD36BD1C5D3F5D0C5D2F581
:101CE800D16BD06BD0C508F5D1C509F5D2C50AF5B9
:101CF800D3C50BF502D88CEF0EF00500FA6E07017C
:101D0800E651FD6EE751FE6EE851FF6EFA50120083
:101D18001200000E116E0FBE96EF0EF094EF0EF04B
:101D2800A0EF0EF00F1E0E1E0D1E0C6C000E0D22E5
:101D38000E220F22010E116E0BBEA7EF0EF0A5EFBB
:101D48000EF0B1EF0EF00B1E0A1E091E086C000EF5
:101D580009220A220B22010E111A000E126E000E21
:101D6800136E000E146E000E156E0C500D100E1032
:101D78000F10D8B4C2EF0EF0C4EF0EF0FAEF0EF069
:101D8800010E106ECEEF0EF0D8900C360D360E36D2
:101D98000F36102A0FAED3EF0EF0D5EF0EF0C8EFC6
:101DA8000EF0D89012361336143615360C50085CDF
:101DB8000D5009580E500A580F500B58D8A0E7EF8D
:101DC8000EF0E9EF0EF0F2EF0EF00C50085E0D5039
:101DD800095A0E500A5A0F500B5A1280D8900F32D7
:101DE8000E320D320C32102ED5EF0EF01150D8B441
:101DF80000EF0FF002EF0FF00AEF0FF0151E141EA0
:101E0800131E126C000E13221422152212C508F597
:101E180013C509F514C50AF515C50BF512000A34E2
:101E28000B34116E1150D8A41CEF0FF01EEF0FF0F9
:101E380028EF0FF0000E086E000E096E000E0A6EF5
:101E4800000E0B6E95EF0FF008C50CF509C50DF5E2
:101E58000AC50EF50BC50FF5200E38EF0FF0D89018
:101E68000F320E320D320C32E82E33EF0FF00C50D9
:101E7800106E0A8EFF0E0816FF0E0916FF0E0A16C0
:101E8800000E0B16960E115E11BE4FEF0FF04DEFC0
:101E98000FF065EF0FF01150800A970FD8B057EF89
:101EA8000FF059EF0FF05BEF0FF01EEF0FF0D89027
:101EB8000B320A3209320832113E5BEF0FF07DEF28
:101EC8000FF01F0E11646BEF0FF06DEF0FF075EF51
:101ED8000FF01EEF0FF0D890083609360A360B3689
:101EE80011061150D8A47BEF0FF07DEF0FF06FEFC4
:101EF8000FF01050D8B483EF0FF085EF0FF08DEF8F
:101F08000FF00B1E0A1E091E086C000E09220A2279
:101F18000B2208C508F509C509F50AC50AF50BC558
:101F28000BF51200000E2114296E000E22142A6EE1
:101F3800800E23142B6E7F0E24142C6E29502A1029
:101F48002B102C10D8A4ABEF0FF0ADEF0FF0B5EFBE
:101F58000FF0000E216E000E226E000E236E000E92
:101F6800246E000E2514296E000E26142A6E800E8B
:101F780027142B6E7F0E28142C6E29502A102B1034
:101F88002C10D8A4CAEF0FF0CCEF0FF0D4EF0FF05D
:101F9800000E256E000E266E000E276E000E286EAF
:101FA80024AED9EF0FF0DBEF0FF0E4EF0FF0216C68
:101FB800221ED8B0222A231ED8B0232A800E2456E7
:101FC80028AEE9EF0FF0EBEF0FF0F4EF0FF0256C10
:101FD800261ED8B0262A271ED8B0272A800E2856B3
:101FE800000E211A000E221A000E231A800E241A3F
:101FF800000E251A000E261A000E271A800E281A1F
:102008002550215C26502258275023582850245800
:10201800D8B011EF10F013EF10F016EF10F0D890C1
:1020280017EF10F0D8801200E3C5D9F4E4C5DAF44C
:102038005A0EDE18DE10D8B424EF10F026EF10F098
:1020480098EF10F0E3C5D9F4E4C5DAF4DE50DE10F9
:10205800D8A431EF10F033EF10F035EF10F098EF0F
:1020680010F080EC2DF05A0E08180910D8B43FEF84
:1020780010F041EF10F054EF10F0160E0501CE6F7E
:10208800E60ECF6F900ED06FF70ED16F030ED36FA1
:10209800630ED26FE20ED46FEF0ED56FFFEC2AF00D
:1020A80058EC28F0000E07014C6F460E4B6F000EDF
:1020B8000501D66F000ED76FAA0EC1ECB4F0FAEC8A
:1020C80014F0000E07014C6F320E4B6FE3C5D9F4C4
:1020D800E4C5DAF40A0EDE18DE10D8A476EF10F0A4
:1020E80078EF10F092EF10F002D887EF10F00500AB
:1020F800FA6E0801B951FD6EBA51FE6EBB51FF6E02
:10210800FA50000E1200000E0B6E010E0A6EFAEC69
:102118002BF0000E07014C6F0A0E4B6FE3C5D9F484
:10212800E4C5DAF4DE6ADD6A1200090E0501D86F2B
:10213800CE51CF11D8B4A3EF10F0A5EF10F0FAEFFD
:1021480010F0CEC5D9F4CFC5DAF4DE50DE10D8B41D
:10215800B0EF10F0B2EF10F0FAEF10F0CEC5D9F4EE
:10216800CFC5DAF4DEC4D2F5DDC4D3F5D2C5D9F4CF
:10217800D3C5DAF4DF50D8B4C4EF10F0C6EF10F0CE
:10218800FAEF10F0CEC5D9F4CFC5DAF410EE06F0A8
:10219800DE50E126DD50E22220EE02F0CE51D926B3
:1021A800CF51DA22E650DE1807E1E650DE18D8A44F
:1021B800E0EF10F0E2EF10F0FAEF10F0CEC5D9F42E
:1021C800CFC5DAF410EE01F0DE50E126DD50E22250
:1021D800E75099EC20F00501D26FD2B1F6EF10F07C
:1021E800F8EF10F0FAEF10F0000ED86FD851D8B40D
:1021F80000EF11F002EF11F008EF11F0000ED66FAA
:10220800000ED76F10EF11F0CEC5D9F4CFC5DAF4B0
:10221800DEC4D6F5DDC4D7F5D0C5D9F4D1C5DAF416
:10222800D6C5DEF4D7C5DDF4D8511200000E096E0C
:10223800000E086E94EC2CF008C50CF509C50DF5D8
:102248000CC508F50DC509F594EC2CF00CB02FEF72
:1022580011F032EF11F0010E33EF11F0000E08010A
:10226800626F0CB23AEF11F03DEF11F0010E3EEF44
:1022780011F0000E636F0CB444EF11F047EF11F04A
:10228800010E48EF11F0000E646F0CB64EEF11F01E
:1022980051EF11F0010E52EF11F0000E656F000EB4
:1022A800096E000E086EA1EC2CF008C50CF509C5E6
:1022B8000DF50CC508F50DC509F5A1EC2CF00CB011
:1022C80068EF11F06BEF11F0010E6CEF11F0000EDA
:1022D8000801666F0CB273EF11F076EF11F0010E82
:1022E80077EF11F0000E676F0CB47DEF11F080EFFF
:1022F80011F0010E81EF11F0000E686F0CB687EF38
:1023080011F08AEF11F0010E8BEF11F0000E696FDA
:102318000401435108016A6F0401445108016B6FBD
:102328000401455108016C6F6D6B12009AEC21F0A5
:10233800000EC16E400EC96EC294CA94C08EC89E6B
:10234800BE82C692000E0201026FBE86C696000EBD
:10235800046FBE88C698000E056FC18E000E206FF0
:10236800040113911393139514EC27F0000E086ED3
:10237800000E096E000E0A6E000E0B6E02D8D0EF2A
:1023880011F00500FA6E0701E651FD6EE751FE6E89
:10239800E851FF6EFA501200000E0701286F000E78
:1023A800276F28BFE1EF11F0285109E1140E275DCE
:1023B800D8A0E1EF11F0E3EF11F0ECEF11F05B0EB4
:1023C8000501B46FF60EB56FE6EC2BF0EAEF11F0ED
:1023D800000E0501D76F000ED66F000ED96F010EE3
:1023E800D86F000EDB6F640EDA6FBCECBEF005012F
:1023F800D651D711D8A403EF12F005EF12F007EF6A
:1024080012F018EF12F0110E0501D16F3C0ED06FCB
:10241800CB0EE82EFED7D02FFCD7D12FFAD7070145
:10242800274B282BD5EF11F0120009C712F50AC760
:1024380013F50BC714F50CC715F508C512F509C532
:1024480013F50AC514F50BC515F512C50CF513C51A
:102458000DF514C50EF515C50FF5180E39EF12F068
:10246800D8900F320E320D320C32E82E34EF12F0C3
:102478000C50106E116A10501110D8A446EF12F0CB
:1024880048EF12F068EF12F0D89012340C6E133443
:102498000D6E14340E6E15340F6E0C500D100E1098
:1024A8000F10D8A45AEF12F05CEF12F062EF12F09E
:1024B800000E096E020E086E97EF12F0000E096EFC
:1024C800030E086E97EF12F010281110D8A46FEFC2
:1024D80012F071EF12F093EF12F012C50CF513C55C
:1024E8000DF514C50EF515C50FF5090ED8900C3667
:1024F8000D360E360F36E82E7AEF12F00C500D100E
:102508000E100F10D8B48BEF12F08EEF12F0010EF0
:102518008FEF12F0000E086E096A97EF12F0000EA6
:10252800096E040E086E1200070151515211D8A409
:10253800A0EF12F0A2EF12F0A4EF12F015EF13F0D3
:1025480002D8B1EF12F00500FA6EDA51FD6EDB51D8
:10255800FE6EDC51FF6EFA501200D8A0B6EF12F0F2
:10256800B8EF12F0BAEF12F015EF13F002D8C9EF76
:1025780012F00500FA6E0701C851FD6EC951FE6ED2
:10258800CA51FF6EFA50000E12006A0EE82EFED7EE
:1025980000D002D8DBEF12F00500FA6E0701DA511D
:1025A800FD6EDB51FE6EDC51FF6EFA501200D8A0B2
:1025B800E0EF12F0E2EF12F0F3EF12F002D8F1EFD1
:1025C80012F00500FA6E0701C851FD6EC951FE6E82
:1025D800CA51FF6EFA50010E120015EF13F0000EEB
:1025E8000701526F000E516F000E0B6E010E0A6E3E
:1025F800FAEC2BF096EC2DF0000E0B6E000E0A6E26
:10260800FAEC2BF002D815EF13F00500FA6E07016B
:10261800C851FD6EC951FE6ECA51FF6EFA50010EC7
:1026280012001200C4C6C8F6C5C6C9F6C80E086EA0
:10263800060E096EB4ECF5F008C5CCF609C5CDF662
:102648000601CDBF2CEF13F02AEF13F02FEF13F094
:102658000B0E92EF13F0D890CC35D96ECD35DA6EDB
:102668002B0ED926070EDA22DEC4CAF6DDC4CBF655
:10267800CA51CB11D8B443EF13F045EF13F055EF1F
:1026880013F0D890CC35D96ECD35DA6E2B0ED9260D
:10269800070EDA22DE6ADD6ACAC6D9F4CBC6DAF4D6
:1026A800DF6AC251C311D8B45CEF13F05EEF13F0C8
:1026B80078EF13F020EE01F0C251D926C351DA2287
:1026C800CCC6DFF4C2C6D9F4C3C6DAF4DF6AD89040
:1026D800CC35D96ECD35DA6E2B0ED926070EDA2217
:1026E800C2C6DEF4C3C6DDF4C651D8A47EEF13F02B
:1026F80080EF13F083EF13F0000E92EF13F0C40E87
:10270800946F060E956FC20E966F060E976F000EA9
:10271800986F03EC96F00601C76FC7511200000EC0
:102728000D6E000E0C6E08016251D8A49EEF13F0D6
:10273800A1EF13F0010EA2EF13F0000E0C1263517B
:10274800D8A4A9EF13F0ABEF13F0ADEF13F0AEEF91
:1027580013F00C826451D8A4B4EF13F0B6EF13F061
:10276800B8EF13F0B9EF13F00C846551D8A4BFEF9C
:1027780013F0C1EF13F0C3EF13F0C4EF13F00C869E
:102788000CC508F50DC509F594EC2CF0000E0D6E7E
:10279800000E0C6E08016651D8A4D5EF13F0D8EFDF
:1027A80013F0010ED9EF13F0000E0C126751D8A4E4
:1027B800E0EF13F0E2EF13F0E4EF13F0E5EF13F0BE
:1027C8000C826851D8A4EBEF13F0EDEF13F0EFEFA4
:1027D80013F0F0EF13F00C846951D8A4F6EF13F05E
:1027E800F8EF13F0FAEF13F0FBEF13F00C860CC5BB
:1027F80008F50DC509F5A1EC2CF06AC843F46BC8BF
:1028080044F46CC845F46AC843F46BC844F46CC813
:1028180045F41200340E0801D76F430ED86F000E2E
:10282800D96FA80ED16F520ED26F000ED36F720EF1
:10283800CE6F5A0ECF6F000ED06F140ECB6F5B0E9B
:10284800CC6F000ECD6F8E0E0701E06F3D0EE16F6D
:10285800000EE26F7A0EDD6F3C0EDE6F000EDF6F4A
:102868002E0ED46FE30ED56F010ED66F420E0801FF
:10287800C56F5B0EC66F000EC76F000EC26F000EED
:10288800C36F000EC46F3E0EBF6F5B0EC06F000EAD
:10289800C16F1C0E0701D16F5B0ED26F000ED36F94
:1028A800240ECE6F5B0ECF6F000ED06FC00ECB6FB5
:1028B800590ECC6F000ECD6F000E0801BC6F000ED4
:1028C800BD6F000EBE6FA80E0601EF6F590EF06FB8
:1028D800000EF16F4A0E0701C86F5A0EC96F000E3D
:1028E800CA6F1E0E0801B96F5A0EBA6F000EBB6F81
:1028F800340E0701C56F5A0EC66F000EC76F12005F
:10290800000E116E0BBE8DEF14F08BEF14F097EFE5
:1029180014F00B1E0A1E091E086C000E09220A225A
:102928000B22010E116E0FBE9EEF14F09CEF14F0F7
:10293800A6EF14F00F1E0E1E0D1E0C6C000E0D22BD
:102948000E220F220C500D100E100F10D8B4AFEF3E
:1029580014F0B1EF14F0E1EF14F0010E106EBBEFBC
:1029680014F0D8900C360D360E360F36102A0FAEEE
:10297800C0EF14F0C2EF14F0B5EF14F00C50085C7F
:102988000D5009580E500A580F500B58D8A0CFEFC9
:1029980014F0D1EF14F0D9EF14F00C50085E0D507C
:1029A800095A0E500A5A0F500B5AD8900F320E324D
:1029B8000D320C32102EC2EF14F01150D8B4E7EFDC
:1029C80014F0E9EF14F0F1EF14F00B1E0A1E091EC3
:1029D800086C000E09220A220B2208C508F509C551
:1029E80009F50AC50AF50BC50BF51200CBEC24F066
:1029F80098EC24F007016A516B11D8A406EF15F082
:102A080008EF15F05FEF15F0EBC622F5ECC623F5DD
:102A1800EBEC28F007016C51D8B415EF15F017EF5F
:102A280015F03CEF15F00601EB51286EEC51296EBC
:102A38002A6A2B6A29C52BF528C52AF5296A286A26
:102A48000B0E28241A6E000E29201B6E000E2A2059
:102A58001C6E000E2B201D6E240E1E6EE50E1F6EC2
:102A6800000E216E030E206E1AEC21F05FEF15F0B8
:102A78000601EB51286EEC51296E2A6A2B6A29C58A
:102A88002BF528C52AF5296A286A0B0E28241A6E00
:102A9800000E29201B6E000E2A201C6E000E2B2013
:102AA8001D6E270E1E6EE50E1F6E000E216E030EA4
:102AB800206E1AEC21F007014F515011D8B467EF7E
:102AC80015F069EF15F06DEF15F0000E526F010E5D
:102AD800516F12009BC6CEF59CC6CFF59F0E05011F
:102AE800D06F060ED16F99EC10F00601A16FA151BD
:102AF800D8A481EF15F083EF15F0DFEF15F09D51A5
:102B08009E11D8A48AEF15F08CEF15F09EEF15F002
:102B18009BC650F69CC651F6000E526F000E536FBE
:102B2800000E546F000E556F84ECD5F00601A16FAE
:102B3800DFEF15F09BC68EF69CC68FF6000E916FE0
:102B4800000E906F6FECF2F00601A16F040EA11950
:102B5800D8A4B1EF15F0B3EF15F0B5EF15F0000EEE
:102B6800A16FA151D8A4BBEF15F0BDEF15F0DFEFB1
:102B780015F09BC615F59CC616F59DC617F59EC69D
:102B880018F548ECEAF09BC674F69CC675F6000E7C
:102B98000601776F000E766FF3ECC9F00601A16F9E
:102BA800040EA119D8A4DBEF15F0DDEF15F0DFEF67
:102BB80015F0000EA16FA15112009AC6D9F49BC658
:102BC800DAF4DEC49CF6DDC49DF69AC68EF69BC682
:102BD8008FF6000E0601916F010E906FE1EC09F07F
:102BE80006019E6F9E51D8A4FCEF15F0FEEF15F07C
:102BF80050EF16F09CC62BF69DC62CF620EE16F06C
:102C08009A51D9269B51DA22DEC42DF6DEC42EF65F
:102C1800DEC42FF6DEC430F6C6EC18F006019E6F4F
:102C28009E51D8A41AEF16F01CEF16F050EF16F0CC
:102C380020EE1AF09A51D9269B51DA22DEC408F503
:102C4800DDC409F5000E0B6E000E0A6E000E0D6E47
:102C5800200E0C6E87EC03F0060120EE1AF09A5154
:102C6800D9269B51DA22DEC408F5DDC409F51C0E0D
:102C78009A250A6E000E9B210B6E000E0D6E0B0E30
:102C88000C6EE1EC27F0060120EE04F09C51D926E9
:102C98009D51DA22010EDF6E9E5112000A6E590E06
:102CA800F66EDD0EF76E000EF86E0900F5500A5C40
:102CB800D8A061EF16F063EF16F0BDEF16F05A0ECC
:102CC800F66EDD0EF76E000EF86E0A500900F55C20
:102CD800D8A071EF16F073EF16F079EF16F0000E2A
:102CE800096E010E086EC1EF16F05B0EF66EDD0E72
:102CF800F76E000EF86E0900F5500A5CD8A087EF51
:102D080016F089EF16F09BEF16F05C0EF66EDD0EEE
:102D1800F76E000EF86E0A500900F55CD8A097EF20
:102D280016F099EF16F09BEF16F073EF16F05D0EA4
:102D3800F66EDD0EF76E000EF86E0900F5500A5CAF
:102D4800D8A0A9EF16F0ABEF16F0BDEF16F05E0EA7
:102D5800F66EDD0EF76E000EF86E0A500900F55C8F
:102D6800D8A0B9EF16F0BBEF16F0BDEF16F073EF71
:102D780016F0000E096E000E086E12005250531025
:102D8800D8A4C9EF16F0CBEF16F0D1EF16F052C564
:102D98001AF553C51BF5D7EF16F0FF0E52241A6E1D
:102DA800FF0E53201B6E58A0DCEF16F0DEEF16F076
:102DB800E7EF16F016C50BF50C6A14C50DF515C529
:102DC8000EF52CEC19F01BBEECEF16F0EEEF16F03A
:102DD800F0EF16F0F4EF16F0000E1B6E000E1A6EF0
:102DE800000E196E000E186E06EF17F0000E0C6E2E
:102DF800200E0B6E14C50DF515C50EF52CEC19F04B
:102E0800184A192A1A50185C1950800A176E1B5054
:102E1800800A1758D8A013EF17F015EF17F0FAEF3C
:102E280016F058B01AEF17F01CEF17F025EF17F04F
:102E380016C50BF50C6A14C50DF515C50EF52CEC69
:102E480019F0010E1824146E000E1920156E1200C8
:102E580008C510F509C511F50AC512F50BC513F516
:102E68003DEF17F00C06D8A00D06104A112A124A99
:102E7800132A0C500D10D8B444EF17F046EF17F092
:102E880065EF17F010C5D9F411C5DAF4DF500E6EEE
:102E980012C5F6F413C5F7F4000EF86E3F0EF7648A
:102EA80003D00800F55005D0F6C4E9F4F7C4EAF4F5
:102EB800EF500E18D8B463EF17F065EF17F036EF40
:102EC80017F00C500D10D8A46CEF17F06EEF17F038
:102ED80074EF17F0000E096E000E086E92EF17F0EF
:102EE80010C5D9F411C5DAF4DF500E6E12C5F6F428
:102EF80013C5F7F4000EF86E3F0EF76403D0080010
:102F0800F55005D0F6C4E9F4F7C4EAF4EF500F6EB3
:102F18000F500E5C086E096AD8A009061200000E50
:102F2800166E000E156E0EC5D9F40FC5DAF4DEC4A0
:102F3800F6F4DDC4F7F4000EF86E0800F5502A0A1E
:102F4800D8A4A9EF17F0ABEF17F0DFEF17F00EC515
:102F5800D9F40FC5DAF4DE2A000EDD2210C5D9F443
:102F680011C5DAF4DFC412F5020EDE26DFC413F54C
:102F7800000EDD2212C5D9F413C5DAF4DEC415F546
:102F8800DDC416F5F5EF17F015C508F516C509F5F2
:102F9800000E0B6E0A0E0A6E0DEC2CF0145008246D
:102FA800156E000E0920166E0EC5D9F40FC5DAF499
:102FB800DE2A000EDD220EC5D9F40FC5DAF4DEC410
:102FC800F6F4DDC4F7F4000EF86E0800F550D00FE3
:102FD800146E090E1464F3EF17F0F5EF17F0C8EF4D
:102FE80017F015C50EF516C50FF51200480EF66E4A
:102FF800510EF76E000EF86E02EE72F010EE47F00A
:103008000900F5C4EEF4E550E150FAE1080EF66E59
:103018005A0EF76E000EF86E01EEE9F310EE16F098
:103028000900F5C4EEF4E550E150FAE103EE00F0D2
:1030380014EEFCF0EE6AE550E150FCE1E250FAE1F2
:1030480002EE00F310EE00F1EE6AE550E150FCE10B
:10305800E250FAE102EE00F210EE00F1EE6AE550FD
:10306800E150FCE1E250FAE102EE00F1D00EEE6A26
:10307800E806FDE102EE00F0720EEE6AE806FDE1F8
:1030880001EE00F3800EEE6AE806FDE101EEE5F2DE
:103098000A0EEE6AE806FDE101EE52F1070EEE6A4D
:1030A800E806FDE10401080E5D6F000E5E6F000E7C
:1030B8005F6F00017AEFFEF0020E165E000E175ADF
:1030C800185A195A20EE14F01450D9261550DA223D
:1030D800FE0EDE241A6EFF0EDE201B6EFF0EDE20B3
:1030E8001C6EFF0EDE201D6E1A50165C1B50175802
:1030F8001C5018581D501958D8A085EF18F087EFA4
:1031080018F091EF18F0000E146E000E156E000EF8
:10311800166E000E176EC5EF18F020EE28F014504A
:10312800D9261550DA22DEC41AF5DEC41BF5DEC432
:103138001CF5DEC41DF520EE0AF01450D9261550F2
:10314800DA22DEC41EF5DDC41FF51EC508F51FC54D
:1031580009F50A6A0B6A16C50CF517C50DF518C5E9
:103168000EF519C50FF563EC24F01A500824146EF7
:103178001B500920156E1C500A20166E1D500B207E
:10318800176E1200000E0601356F20EE2CF02B5141
:10319800D9262C51DA222D51DE180FE12E51DE18D6
:1031A8000CE12F51DE1809E13051DE18D8B4DFEFF9
:1031B80018F0E1EF18F02AEF19F02BC619F62CC613
:1031C8001AF683ECF6F00601356F3551D8A4EFEF07
:1031D80018F0F1EF18F02AEF19F0300E2B250F6FC9
:1031E800000E2C21106F2DC611F62EC612F62FC612
:1031F80013F630C614F6000E166F010E156F20EE8A
:1032080001F02B51D9262C51DA22DF50B1ECFDF018
:103218000009D8B412EF19F014EF19F01BEF19F0E8
:1032280006012D692E692F693069010E356F060177
:1032380020EE2CF02B51D9262C51DA222DC6DEF4A3
:103248002EC6DEF42FC6DEF430C6DEF43551120089
:103258000D500E10D8B433EF19F035EF19F03EEFDA
:1032680019F00D500E10D8A43CEF19F03EEF19F0EC
:1032780043EF19F00B50BBEC2CF090EF19F020EE57
:103288000AF00D50D9260E50DA22DE50DE10D8B4DE
:1032980050EF19F052EF19F06DEF19F020EE0AF027
:1032A8000D50D9260E50DA2210EE03F00D50E1260B
:1032B8000E50E222DE50E65CE650800A136EDE50C5
:1032C800800A1358D8B06BEF19F06DEF19F090EF32
:1032D80019F020EE03F00D50D9260E50DA22DEC484
:1032E8000FF5DDC410F50DC5D9F40EC5DAF4DEC44A
:1032F80011F5DDC412F50F501124D96E10501220AB
:10330800DA6E0BC5DFF420EE03F00D50D9260E500F
:10331800DA22DE2A000EDD2212000AC513F50BC5DB
:1033280014F50C501324116E0D501420126EE3EF97
:1033380019F0085009C50EF50F6E0E50086E0FC52E
:1033480009F513C5D9F414C5DAF4DF500E6E0E5022
:10335800081A134A142A08C50EF509C50FF5040EF4
:10336800106ED8900F320E32102EB5EF19F00F0EE6
:103378000E16000E0F160E50081A0F50091A08C51F
:103388000EF509C50FF50C0ED8900E360F36E82E3F
:10339800C8EF19F00E50081A0F50091AFF0E08143A
:1033A8000E6E000E09140F6E050ED8900E360F36ED
:1033B800E82ED9EF19F00E50081A0F50091A1150BB
:1033C800135C12501458D8A0ECEF19F0EEEF19F076
:1033D8009DEF19F008C508F509C509F5120058A0B0
:1033E800F8EF19F0FAEF19F004EF1AF01DC514F50B
:1033F8001EC515F51BC516F51CC517F598EC29F063
:1034080020BE09EF1AF00BEF1AF011EF1AF01FC5E2
:1034180024F520C525F515EF1AF0000E256E000ECF
:10342800246E000E236E000E226E27EF1AF0000E97
:103438000C6E200E0B6E1BC50DF51CC50EF52CEC85
:1034480019F0224A232A2450225C2350800A216E34
:103458002550800A2158D8A034EF1AF036EF1AF018
:103468001BEF1AF058B03BEF1AF03DEF1AF047EF98
:103478001AF01DC514F51EC515F51BC516F51CC596
:1034880017F598EC29F01DC508F51EC509F509ECD6
:1034980028F0245008241B6E255009201C6E1200A9
:1034A80054EC29F0010E0201616F000E626F1E0ECE
:1034B800636F050E656F0E0E676F010E056F020EC6
:1034C800046F030E206F000E0001D56F000ED86F39
:1034D800020ED96F040EDA6F7F0EDB6F010EDC6F00
:1034E800080EDD6F100EDE6F400EDF6F800ED76F97
:1034F800820ED66F010ED56F000ED86F020ED96FEF
:10350800040EDA6F7F0EDB6F010EDC6F080EDD6FC5
:10351800200EDE6F400EDF6F800ED76F820ED66FE3
:10352800020ED56F010ED86F060ED96F7F0EDA6FB7
:103538007F0EDB6F010EDC6F080EDD6F000EDE6F95
:10354800000EDF6F800ED76F8C0ED66F000ED46F13
:10355800B59AA59AC280C28212000501D36F010EE6
:103568000501D46FCAEF1AF0000ED46FEBEF1AF012
:10357800E20EB46FEA0EB56FD3C5B6F5B76BCEC51C
:10358800B8F5B96BE6EC2BF0EBEF1AF0CE51D16F32
:10359800D26BD251000AD8B4D4EF1AF0BCEF1AF0AB
:1035A800D151000AD8B4B8EF1AF0010AD8B4BCEF68
:1035B8001AF0030AD8B4BCEF1AF0010AD8B4BCEF69
:1035C8001AF0070AD8B4BCEF1AF0BCEF1AF00601DB
:1035D800E951EA11D8B4F3EF1AF0F5EF1AF00BEF4E
:1035E8001BF03C0E0501B46FE90EB56FD3C5B6F5F7
:1035F800B76BCEC5B8F5B96BCFC5BAF5D0C5BBF5B5
:10360800BC6BBD6BD4C5BEF5BF6BE6EC2BF00501FA
:10361800D451120020EE03F00850D9260950DA22BE
:10362800DF500C6E0C50116E126A136A146A20EE89
:1036380002F00850D9260950DA22DF500C6E0C50DF
:1036480011C50EF512C50FF513C510F50D6A0D104D
:10365800116E0E50126E0F50136E1050146E20EE35
:1036680001F00850D9260950DA22DF500C6E0C50B0
:1036780011C50EF512C50FF513C510F50D6A0D101D
:10368800116E0E50126E0F50136E1050146E08C546
:10369800D9F409C5DAF4DF500C6E0C5011C50EF5DB
:1036A80012C50FF513C510F50D6A0D10116E0E50E9
:1036B800126E0F50136E1050146E11C508F512C516
:1036C80009F513C50AF514C50BF51200256E00C7D8
:1036D8002DF501C72EF525504009266E22C527F580
:1036E80021C528F520C529F51FC52AF5260E086E1F
:1036F800050E096E000E0B6E050E0A6E16EC20F014
:1037080001092B6E2DC50CF52EC50DF554EC2CF0CA
:103718002DC512F52EC513F5000E156E010E146E8B
:103728008EEC26F02DC508F52EC509F5260E0A6E75
:10373800050E0B6E000E0D6E060E0C6EF3EC1DF0F2
:1037480002C719F503C71AF5FF0E31EC29F02C6EE4
:1037580023C5D9F424C5DAF42CC5DFF42C28D8A461
:10376800B8EF1BF0BAEF1BF0C0EF1BF0000E206E95
:10377800010E1F6EC4EF1BF0000E206E000E1F6EB0
:1037880012000701F529F611D8B4CDEF1BF0CFEFE1
:103798001BF0D1EF1BF098EC24F02650286E275030
:1037A800296E2A6A2B6A29C52BF528C52AF5296AA4
:1037B800286A660E28241A6E000E29201B6E000E39
:1037C8002A201C6E000E2B201D6E760E1E6E070E14
:1037D8001F6E000E216E030E206E5AEC21F026504B
:1037E800286E2750296E2A6A2B6A29C52BF528C509
:1037F8002AF5296A286A660E28241A6E000E2920DE
:103808001B6E000E2A201C6E000E2B201D6E7F0ED4
:103818001E6EE40E1F6E000E216E030E206E1AEC53
:1038280021F026C5F5F727C5F6F71200000E081493
:10383800106E000E0914116E800E0A14126E7F0E9F
:103848000B14136E1050111012101310D8A42FEF70
:103858001CF031EF1CF039EF1CF0000E086E000E62
:10386800096E000E0A6E000E0B6E000E0C14106E20
:10387800000E0D14116E800E0E14126E7F0E0F14B2
:10388800136E1050111012101310D8A44EEF1CF024
:1038980050EF1CF058EF1CF0000E0C6E000E0D6E71
:1038A800000E0E6E000E0F6E0C5008180FE10D5032
:1038B80009180CE10E500A1809E10F500B18D8B47A
:1038C80068EF1CF06AEF1CF06DEF1CF0D8906EEFFB
:1038D8001CF0D8801200000E106E000E116E000E43
:1038E800126E000E136E0C500D100E100F10D8B47F
:1038F80080EF1CF082EF1CF0B8EF1CF0010E146E84
:103908008CEF1CF0D8900C360D360E360F36142A74
:103918000FAE91EF1CF093EF1CF086EF1CF0D890DF
:1039280010361136123613360C50085C0D500958F3
:103938000E500A580F500B58D8A0A5EF1CF0A7EF4F
:103948001CF0B0EF1CF00C50085E0D50095A0E50D8
:103958000A5A0F500B5A1080D8900F320E320D327F
:103968000C32142E93EF1CF010C508F511C509F59B
:1039780012C50AF513C50BF512000701F729F8114E
:10398800D8A4C9EF1CF0CBEF1CF0DEEF1CF0650EDD
:103998000501CE6FEC0ECF6F9C0ED06FF50ED16F78
:1039A800000ED36FC00ED26F880ED46FF30ED56F92
:1039B800FFEC2AF0F7C72AF5F8C72BF5000E2D6E95
:1039C800B70E2C6E1AEC2AF00701F7510501D66FD5
:1039D8000701F8510501D76FD86BD96BD7C5D9F551
:1039E800D6C5D8F5D76BD66BD6C51AF5D7C51BF58E
:1039F800D8C51CF5D9C51DF5140E1E6EE30E1F6E35
:103A0800000E216EB70E206E1AEC21F0000E070191
:103A1800366F000E356F12000A6E550EF66EDD0E0B
:103A2800F76E000EF86E0900F5500A5CD8A01FEF7B
:103A38001DF021EF1DF059EF1DF0560EF66EDD0E4C
:103A4800F76E000EF86E0A500900F55CD8A02FEF4B
:103A58001DF031EF1DF037EF1DF0000E096E010E5D
:103A6800086E5DEF1DF0570EF66EDD0EF76E000E58
:103A7800F86E0900F5500A5CD8A045EF1DF047EF35
:103A88001DF059EF1DF0580EF66EDD0EF76E000EA4
:103A9800F86E0A500900F55CD8A055EF1DF057EFF5
:103AA8001DF059EF1DF031EF1DF0000E096E000EEC
:103AB800086E120015C7B8F616C7B9F617C7BAF6D2
:103AC80018C7BBF6B4C6D9F4B5C6DAF4DE50DE10B2
:103AD800D8B471EF1DF073EF1DF099EF1DF0B4C667
:103AE800D9F4B5C6DAF4DEC4B6F6DDC4B7F6B6C6A0
:103AF800D9F4B7C6DAF4DF50D8B485EF1DF087EFF4
:103B08001DF099EF1DF0B4C6D9F4B5C6DAF4DEC4D9
:103B180038F5DDC439F53EECECF038C5B8F639C5F2
:103B2800B9F63AC5BAF63BC5BBF6BAC6CEF5BBC6BA
:103B3800CFF502EC0EF0B8C666F7B9C667F7000E07
:103B48000601B36F010EB26F1200516E0701FE51EC
:103B5800D8B4B1EF1DF0B3EF1DF0BEEF1DF0AA0E03
:103B68005118D8B4BAEF1DF0BCEF1DF0BEEF1DF030
:103B7800F2EF1DF0AA0E5118D8A4C5EF1DF0C7EF3B
:103B88001DF0CBEF1DF0000EFE6FF2EF1DF051ACF3
:103B9800D0EF1DF0D2EF1DF0DEEF1DF0180E05017D
:103BA800B46FF10EB56F000EB76FA00EB66FE6ECEE
:103BB8002BF0FF0051AEE3EF1DF0E5EF1DF0F2EF43
:103BC8001DF0670E0501B46FF10EB56F000EB76FEB
:103BD800A00EB66FE6EC2BF0F0EF1DF012000AC550
:103BE80010F50BC511F50C500D10D8A4FEEF1DF003
:103BF80000EF1EF002EF1EF03CEF1EF00D5000012A
:103C0800836F0CC582F010C5D9F411C5DAF4DF5002
:103C1800816F104A112A000E0F6E010E0E6E28EFEA
:103C28001EF010C5D9F411C5DAF4DF50816F104ABF
:103C3800112AB1A022EF1EF024EF1EF01DEF1EF096
:103C4800000180510E4A0F2A0C500E5C0D500F587F
:103C5800D8A031EF1EF033EF1EF015EF1EF0B1A023
:103C680038EF1EF03AEF1EF033EF1EF000018051DE
:103C780012000EC518F50FC519F519C5C1F418C5F8
:103C8800BFF4000E176E000E166E76EF1EF0BE988B
:103C980016501024146E17501120156E14C5F6F422
:103CA80015C5F7F4000EF86E3F0EF76404D0D0C4C3
:103CB800F5F40C0006D0F6C4E9F4F7C4EAF4D0C46D
:103CC800EFF4BE88182A18C5BFF41850D8A46FEFAF
:103CD8001EF071EF1EF074EF1EF0192A19C5C1F419
:103CE800164A172A1250165C13501758D8A07FEF9F
:103CF8001EF081EF1EF04BEF1EF01200D69E07015A
:103D080049514A11D8B48BEF1EF08DEF1EF0AEEF7B
:103D18001EF0B00E4725D96E0A0E4821DA6EDF5024
:103D28000E6E010E4725086E000E4821096E000E22
:103D38000B6E500E0A6EC8EC25F008C547F709C58A
:103D480048F707014907D8A04A07A780D68E0E5022
:103D5800C6EF1EF051515211D8B4B5EF1EF0B7EFAF
:103D68001EF0BBEF1EF0D68E000EC6EF1EF0D68EEC
:103D7800150E0D6EC60EE82EFED70D2EFCD700D000
:103D880082EF1EF012000EC518F50FC519F519C5FA
:103D9800C1F418C5BFF4000E176E000E166EFFEFC3
:103DA8001EF0BE9616501024146E17501120156E72
:103DB80014C5F6F415C5F7F4000EF86E3F0EF76457
:103DC80003D00800F55005D0F6C4E9F4F7C4EAF4C6
:103DD800EF50C06EBE86182A18C5BFF41850D8A474
:103DE800F8EF1EF0FAEF1EF0FDEF1EF0192A19C5C4
:103DF800C1F4164A172A1250165C13501758D8A047
:103E080008EF1FF00AEF1FF0D5EF1EF012000C505C
:103E18000D100E100F10D8B414EF1FF016EF1FF08E
:103E280046EF1FF0010E106E20EF1FF0D8900C36F1
:103E38000D360E360F36102A0FAE25EF1FF027EF7E
:103E48001FF01AEF1FF00C50085C0D5009580E5067
:103E58000A580F500B58D8A034EF1FF036EF1FF058
:103E68003EEF1FF00C50085E0D50095A0E500A5ACA
:103E78000F500B5AD8900F320E320D320C32102ED2
:103E880027EF1FF008C508F509C509F50AC50AF5A1
:103E98000BC50BF512000EEC14F00A0E0801DA6FD0
:103EA8005B0EDB6F000EDC6F340ED76F230ED86FFE
:103EB800000ED96F620ED46F500ED56F000ED66FFC
:103EC800A80ED16F340ED26F000ED36F720E070199
:103ED800E66F540EE76F000EE86FC80EE36F560EDC
:103EE800E46F000EE56FD80EDA6F590EDB6F000E27
:103EF800DC6F400E0801C86F580EC96F000ECA6FFC
:103F0800460E0701D76F5B0ED86F000ED96F5C0E97
:103F1800C56F590EC66F000EC76F1200EBC5CEF500
:103F2800ECC5CFF5EDC5D0F5EEC5D1F5EFC5D2F5A9
:103F3800F0C5D3F5D9EC07F0000E0501F56FEDC516
:103F4800F1F5EEC5F2F5000EF46F000EF36FB7EF62
:103F58001FF0F1C5D9F4F2C5DAF4DF50F527F14BBB
:103F6800F22BF34BF42BEF51F35DF051F459D8A039
:103F7800C0EF1FF0C2EF1FF0ADEF1FF0490EB46F96
:103F8800F20EB56FEBC5B6F5ECC5B7F51E0EB86FFA
:103F9800EF0EB96FF5C5BAF5BB6BE6EC2BF0120066
:103FA8000701F729F811D8B4DCEF1FF0DEEF1FF096
:103FB800E0EF1FF0CBEC24F02EC52AF52FC52BF52A
:103FC800000E2D6EA60E2C6E1AEC2AF02E50306EB6
:103FD8002F50316E326A336A31C533F530C532F548
:103FE800316A306A660E30241A6E000E31201B6E5C
:103FF800000E32201C6E000E33201D6E7F0E1E6ECA
:10400800E40E1F6E000E216E2A0E206E1AEC21F0AF
:104018002EC5F7F72FC5F8F7000E0701366F010E0A
:10402800356F1200000E106E08C511F509C512F59E
:104038000A5011240C6E0B5012200D6E4BEF20F01D
:1040480011C5D9F412C5DAF4DF50101A114A122A30
:10405800000E0F6E000E0E6E10AE35EF20F037EF2B
:1040680020F039EF20F0890E101AD89010360E4A39
:104078000F2A0FBE49EF20F00F5009E1080E0E5C21
:10408800D8A049EF20F04BEF20F030EF20F00C5093
:10409800115C0D501258D8A054EF20F056EF20F0C4
:1040A80024EF20F01050120007015451D8B45FEFEC
:1040B80020F061EF20F098EF20F02AC52CF5010ED2
:1040C8002D6E000E2E6E2C2A6DEF20F0D8902D3616
:1040D8002E362C2E6AEF20F0070131512D16325161
:1040E8002E162D502E10D8A47CEF20F07EEF20F055
:1040F80098EF20F02AC522F52BC523F5EBEC28F024
:104108002AC52CF5010E2D6E000E2E6E2C2A90EF6E
:1041180020F0D8902D362E362C2E8DEF20F02D50F5
:10412800070131132E5032131200516E5150D8B47A
:10413800A0EF20F0A2EF20F0B6EF20F00601E95141
:10414800EA11D8B4AAEF20F0ACEF20F0B3EF20F0DA
:10415800C10E0501B46FF20EB56FE6EC2BF0020E3E
:10416800D9EF20F00701E9290AE1EA2908E1EB295A
:1041780006E1EC29D8A4C3EF20F0C5EF20F0D8EF72
:1041880020F00601E951EA11D8B4CDEF20F0CFEFC5
:1041980020F0B3EF20F0FD0E0501B46FF40EB56FFB
:1041A800E6EC2BF0B3EF20F0000E12001A0E1124EB
:1041B800086E000E1220096E8FEC2AF008C517F55C
:1041C80009C518F5196A1A6A0FC5D9F410C5DAF4C1
:1041D800030EDE18D8A4F3EF20F0F5EF20F011EF6E
:1041E80021F0140E1124086E000E1220096E8FECB7
:1041F8002AF00850136E0950146E156A166A14C511
:1042080016F513C515F5146A136A135017121450CE
:1042180018121550191216501A1217C50FF518C58D
:1042280010F519C511F51AC512F512001AC510F5C1
:104238001BC511F51CC512F51DC513F502D830EFC5
:1042480021F00500FA6E0701E351FD6EE451FE6EA0
:10425800E551FF6EFA50120002D83FEF21F0050039
:10426800FA6E0701CE51FD6ECF51FE6ED051FF6E32
:10427800FA50000E12001AC50EF51BC50FF51EC523
:1042880010F51FC511F520C512F521C513F502D883
:1042980059EF21F00500FA6E0701E051FD6EE1517A
:1042A800FE6EE251FF6EFA50120012001AC510F5A8
:1042B8001BC511F51CC512F51DC513F502D870EF05
:1042C80021F00500FA6E0701E351FD6EE451FE6E20
:1042D800E551FF6EFA50120002D87FEF21F0050079
:1042E800FA6E0701CE51FD6ECF51FE6ED051FF6EB2
:1042F800FA50FF0E12001AC50EF51BC50FF51EC5A4
:1043080010F51FC511F520C512F521C513F502D802
:1043180099EF21F00500FA6E0701DD51FD6EDE51BF
:10432800FE6EDF51FF6EFA5012001200080E0001F7
:10433800B16F000E0401006F000E086F000E106FC1
:10434800000E186F209120932095000E086F000E24
:10435800106F000E186FC292CA92010E0201D56F3B
:10436800A00ED46FD189D18BC68E070E766FBE8C06
:10437800C69C260E076FD28FC290CA90000EBF6EE1
:10438800000EC76E000EC06E000EC86E3F0E036FA3
:10439800C694540E0401436F550E446F050E456FC5
:1043A800000E476F4691468F120010C5F6F411C5EE
:1043B800F7F4000EF86E0800F5500C6E0D6AABECC1
:1043C8002AF00CC517F50DC518F5104A112A12C5A3
:1043D800D9F413C5DAF4DF50146E14500C6E0D6A5C
:1043E800ABEC2AF00CC515F50DC516F5124A132AC3
:1043F8001550171807E116501818D8A406EF22F020
:1044080008EF22F011EF22F017501810D8A40FEF80
:1044180022F011EF22F0D9EF21F01550175C106E41
:1044280016501858116E1200376E00C738F501C7BC
:1044380039F533C53CF534C53DF52FC51FF530C5F5
:1044480020F531C521F532C522F53CC523F53DC51A
:1044580024F537506AEC1BF01FC53AF520C53BF52B
:104468003A503B10D8B43BEF22F03DEF22F041EF39
:1044780022F0BDEC2BF055EF22F038C508F539C510
:1044880009F5010E3C240A6E000E3D200B6EFF0E4E
:1044980035240C6EFF0E36200D6E49ECD7F0BDECBE
:1044A8002BF012000701F729F811D8B45EEF22F0BB
:1044B80060EF22F062EF22F0CBEC24F02EC52AF553
:1044C8002FC52BF5000E2D6EB70E2C6E1AEC2AF0A8
:1044D8002E50306E2F50316E326A336A31C533F543
:1044E80030C532F5316A306A30C51AF531C51BF569
:1044F80032C51CF533C51DF5140E1E6EE30E1F6E76
:10450800000E216EB70E206E1AEC21F02EC5F7F7BB
:104518002FC5F8F7000E0701366F000E356F120031
:1045280007015451D8B49BEF22F09DEF22F0C4EF5D
:1045380022F08F0E0501B46FF00EB56FE5C6B6F523
:10454800E6C6B7F5E7C6B8F5E8C6B9F5E6EC2BF068
:10455800E5C633F6E6C634F6E7C635F6E8C636F6F7
:104568007F0E0601376F070E386F000E3A6F010E87
:10457800396F1FECF8F0000E0701546FCBEF22F0F3
:10458800790E0501B46FF20EB56FE6EC2BF0000E54
:104598000601B36F000EB26F1200D7EF22F0084A7F
:1045A800092A0A4A0B2A08C5D9F409C5DAF4DF50E2
:1045B8000C6E0AC5F6F40BC5F7F4000EF86E080089
:1045C800F5500C18D8A4EBEF22F0EDEF22F0F9EF3C
:1045D80022F008C5D9F409C5DAF4DF50D8A4F7EFFA
:1045E80022F0F9EF22F0D3EF22F008C5D9F409C57B
:1045F800DAF4DF500C6E0AC5F6F40BC5F7F4000EBA
:10460800F86E0800F5500C5C086E096AD8A0090617
:104618001200B4C6D9F4B5C6DAF4DE50DE10D8B448
:1046280018EF23F01AEF23F03EEF23F0B4C6D9F4C5
:10463800B5C6DAF4DEC4B6F6DDC4B7F6B6C6D9F444
:10464800B7C6DAF4DF50D8B42CEF23F02EEF23F0FE
:104658003EEF23F0B4C6D9F4B5C6DAF4DEC438F5B3
:10466800DDC439F53EECECF038C54FF739C550F7E5
:1046780043EF23F0000E0701506F010E4F6F000E3D
:104688000601B36F000EB26F12000601EB5105016F
:10469800DA6F0601EC510501DB6FDC6BDD6BDBC506
:1046A800DDF5DAC5DCF5DB6BDA6B900EDA251A6E10
:1046B800000EDB211B6E000EDC211C6E000EDD21BE
:1046C8001D6E580E1E6E070E1F6E000E216E160E02
:1046D800206E5AEC21F007016705D8B076EF23F079
:1046E80078EF23F080EF23F0020E6B6F000E6A6FF5
:1046F800C1EC1CF084EF23F0000E6B6F000E6A6FA4
:10470800120024500701375D25503859D8A08FEF83
:1047180023F091EF23F093EF23F0BDEF23F0225025
:10472800266E2350276E286A296A27C529F526C5CB
:1047380028F5276A266A375126241A6E3851272009
:104748001B6E000E28201C6E000E29201D6E000E08
:1047580037251E6E0B0E38211F6E3751245C206ED4
:1047680038512558216E5AEC21F024C537F725C554
:1047780038F71200AEC5B2F5AFC5B3F5000E0701A4
:10478800266F000E256FE0EF23F0ACC593F5ADC59D
:1047980094F5B20E0501956F050E966FB0C597F5A5
:1047A800B1C598F592EC89F00501935107012527C9
:1047B8000501945107012623B2C5F6F4B3C5F7F4F1
:1047C800000EF86E0800F5500009D8A4EEEF23F0AB
:1047D800F0EF23F0C9EF23F0000E0501AD6F000ED6
:1047E800AC6F12000601EB51226EEC51236E246A65
:1047F800256A23C525F522C524F5236A226AA10E58
:1048080022241A6E000E23201B6E000E24201C6E1C
:10481800000E25201D6E580E1E6E070E1F6E000E10
:10482800216E160E206E5AEC21F007016705D8B0EC
:1048380020EF24F022EF24F028EF24F0020E6B6F13
:10484800000E6A6F2CEF24F0000E6B6F000E6A6F7B
:10485800120008C5D9F409C5DAF40AC5DFF4084A14
:10486800092A0BC50AF50CC50BF50DC50CF50D6A23
:1048780008C5D9F409C5DAF40AC5DFF4084A092AD3
:104888000BC50AF50CC50BF50DC50CF50D6A08C569
:10489800D9F409C5DAF40AC5DFF4084A092A0BC5B0
:1048A8000AF50CC50BF50DC50CF50D6A08C5D9F44C
:1048B80009C5DAF40AC5DFF4084A092A1200000E0D
:1048C800106E000E116E000E126E000E136E08A010
:1048D80070EF24F072EF24F07AEF24F00C501026D9
:1048E8000D5011220E5012220F501322D8900C3660
:1048F8000D360E360F36D8900B320A32093208328E
:10490800085009100A100B10D8A48DEF24F08FEF6F
:1049180024F06BEF24F010C508F511C509F512C590
:104928000AF513C50BF512000701F529F611D8A4ED
:10493800A0EF24F0A2EF24F0A4EF24F0CAEF24F0B3
:10494800F551226EF651236E246A256A23C525F592
:1049580022C524F5236A226A660E22241A6E000EE6
:1049680023201B6E000E24201C6E000E25201D6EB9
:10497800760E1E6E070E1F6E000E216E030E206E41
:104988001AEC21F0000E0701F66FF5691200070115
:10499800F729F811D8A4D3EF24F0D5EF24F0D7EFF6
:1049A80024F0FDEF24F0F751226EF851236E246AAB
:1049B800256A23C525F522C524F5236A226A22C55E
:1049C8001AF523C51BF524C51CF525C51DF5000ED4
:1049D8001E6E0B0E1F6E37C720F538C721F51AEC6F
:1049E80021F0000E0701F86FF769000E386F000E0E
:1049F800376F12000BBE0DEF25F00B500A1009108F
:104A080006E10804D8B00BEF25F00DEF25F028EFEC
:104A180025F008C50CF509C50DF50AC50EF50BC539
:104A28000FF50C1E0D1E0E1E0F1E0C2A000E0D2259
:104A38000E220F220CC508F50DC509F50EC50AF59D
:104A48000FC50BF530EF25F008C508F509C509F5C0
:104A58000AC50AF50BC50BF51200066ED69E0701AE
:104A68004A5107E1500E495DD8B03DEF25F03FEFC0
:104A780025F056EF25F049514725016E4A51482146
:104A8800026E000E046E500E036E2CEC26F0B00E73
:104A98000124D96E0A0E0220DA6E06C5DFF407017A
:104AA800494B4A2B4A5109E1400E495DD8A05FEFB6
:104AB80025F061EF25F062EF25F0A790D68E120061
:104AC8000D6ED69E0701465109E1500E455DD8A0EE
:104AD80070EF25F072EF25F07BEF25F0B7A277EFA6
:104AE80025F079EF25F072EF25F096EC25F0070117
:104AF80045514325086E46514421096E000E0B6E40
:104B0800500E0A6EC8EC25F0600E0824D96E0A0E05
:104B18000920DA6E0DC5DFF40701454B462BA78245
:104B2800D68E1200B6EF25F0600E4325D96E0A0E18
:104B38004421DA6EDF500201C96F010E07014325D7
:104B4800086E000E4421096E000E0B6E500E0A6EA0
:104B5800C8EC25F008C543F709C544F70701450720
:104B6800D8A04607070145514611D8B4BEEF25F035
:104B7800C0EF25F0C7EF25F0B7B2C5EF25F0C7EFB6
:104B880025F098EF25F012000A500B10D8B4CFEF9B
:104B980025F0D1EF25F0F5EF25F0010E0C6ED9EFD9
:104BA80025F0D8900A360B360C2A0BAEDEEF25F02E
:104BB800E0EF25F0D5EF25F00A50085C0B500958B6
:104BC800D8A0E9EF25F0EBEF25F0EFEF25F00A503C
:104BD800085E0B50095AD8900B320A320C2EE0EFBF
:104BE80025F008C508F509C509F512001AEF26F0E1
:104BF800600E4325D96E0A0E4421DA6EDF50020199
:104C0800C96F010E07014325016E000E4421026E93
:104C1800000E046E500E036E2CEC26F001C543F70F
:104C280002C544F707014507D8A0460707014551C3
:104C38004611D8B422EF26F024EF26F02BEF26F009
:104C4800B7B229EF26F02BEF26F0FCEF25F0120083
:104C580003500410D8B433EF26F035EF26F059EF9F
:104C680026F0010E056E3DEF26F0D8900336043687
:104C7800052A04AE42EF26F044EF26F039EF26F07D
:104C88000350015C04500258D8A04DEF26F04FEFB6
:104C980026F053EF26F00350015E0450025AD890D4
:104CA80004320332052E44EF26F001C501F502C592
:104CB80002F51200010E146E200E0E10106E000E7A
:104CC8000F10116E9F0E1024126EFF0E1120136E1E
:104CD800135009E11A0E125CD8A075EF26F077EF91
:104CE80026F08AEF26F0D00E0E24106EFF0E0F204D
:104CF800116E115009E10A0E105CD8A086EF26F05B
:104D080088EF26F08AEF26F0000E146E14C50EF513
:104D18000F6A1200186812C508F513C509F5EAEC00
:104D280026F0000E176E000E166EABEF26F012C5B9
:104D380008F513C509F5180E0A6E050E0B6E000E60
:104D48000D6E010E0C6EF3EC1DF0164A172A145066
:104D5800165C15501758D8A0B4EF26F0B6EF26F019
:104D68009BEF26F012C508F513C509F5BAEC29F032
:104D7800120008C5F6F409C5F7F4000EF86E08002D
:104D8800F5500A18D8A4CBEF26F0CDEF26F0D3EFD4
:104D980026F008C508F509C509F5E9EF26F008C5A4
:104DA800F6F409C5F7F4084A092A000EF86E080057
:104DB800F5500009D8A4E3EF26F0E5EF26F0BDEFA3
:104DC80026F0000E086E000E096E120008C50AF5DE
:104DD80009C50BF520EE02F00A50D9260B50DA224D
:104DE800DF50D8A4FAEF26F0FCEF26F00CEF27F0FE
:104DF800310E0201126F320E116F20EE03F00A50CD
:104E0800D9260B50DA22C8C4DFF4C890C892C884E7
:104E180020EE02F00A50D9260B50DA22DF2A1200BF
:104E28009C0E0501B46FE70EB56FE6EC2BF0CC0EC7
:104E38000501B46FF10EB56FE6EC2BF0110E05010C
:104E4800CF6F3C0ECE6FCB0EE82EFED7CE2FFCD701
:104E5800CF2FFAD7B30E0501B46FF10EB56FE6EC9C
:104E68002BF09C0E0501B46FE70EB56FE6EC2BF046
:104E7800120050EF27F008C5D9F409C5DAF4DFC4E9
:104E88000AF5010EDE26DFC40BF5000EDD220AC589
:104E9800D9F40BC5DAF4DF6A08C5D9F409C5DAF420
:104EA800DEC40AF5DDC40BF50AC5D9F40BC5DAF47E
:104EB800200EDE18D8B463EF27F065EF27F03FEF38
:104EC80027F01200CC0E0601C26F180EC36F650ED4
:104ED800C46FFF0EC56F010EC66F16EC13F0000904
:104EE800D8B479EF27F07BEF27F089EF27F0FD0E94
:104EF8000501B46FF00EB56FE6EC2BF0FF0E06015E
:104F0800CF6FFE0ECE6F8EEF27F0000E0601CF6F2B
:064F1800000ECE6F120036
:104F2000B7A095EF27F097EF27F0ABEF27F0C7C2B8
:104F300007F50750D8B49FEF27F0A1EF27F0A6EFB1
:104F400027F0075031EC25F0ABEF27F0000E0701FA
:104F5000526F010E516FFAEC25F0070145514611D1
:104F6000D8A4B5EF27F0B7EF27F0B8EF27F0A79256
:104F70001100B80E0501C86F050EC96FB4C5BCF5A8
:104F8000B5C5BDF5000EC06F000EBF6F000EC76F38
:104F9000000EC66FBC0EAC6F050EAD6FB6C5AEF59C
:104FA000B7C5AFF5C80EB06F050EB16FBEEC23F0FC
:104FB0000501BF51B425D96EC051B521DA6EDF6A43
:104FC00012000AC511F50BC512F508C50FF509C584
:104FD00010F5FBEF27F011C5D9F412C5DAF4DF5054
:104FE0000E6E114A122A0FC5D9F410C5DAF40EC597
:104FF000DFF40F4A102A0C06D8A00D060C2806E193
:105000000D28D8A406EF28F008EF28F0EBEF27F0E2
:10501000120008C50AF509C50BF511EF28F0084A7A
:10502000092A08C5F6F409C5F7F4000EF86E3F0E1C
:10503000F76403D00800F55005D0F6C4E9F4F7C4CE
:10504000EAF4EF500009D8A428EF28F02AEF28F05E
:105050000FEF28F00A50085C086E0B500958096ED3
:10506000120008500910D8B438EF28F03AEF28F0B1
:105070004BEF28F0000E0201056F000E046FBE8892
:10508000BE86000EC76E400EC96ECA94C69ABE8216
:10509000C69257EF28F0C7687F0EC96ECA84C868E9
:1050A000C68AC682010E0201056F020E046F12004D
:1050B000E4EC0CF00601EB51386EEC51396E3A6AB3
:1050C0003B6A39C53BF538C53AF5396A386A38C59F
:1050D00008F539C509F53AC50AF53BC50BF502D8FF
:1050E0007DEF28F00500FA6E0701E651FD6EE751ED
:1050F000FE6EE851FF6EFA50120012001A0E0E24D6
:10510000086E000E0F20096E10C50AF511C50BF5CB
:10511000D2EC2BF00CC5D9F40DC5DAF4030EDE1871
:10512000D8A495EF28F097EF28F0A3EF28F0140EFD
:105130000E24086E000E0F20096E12C50AF513C565
:105140000BF5D2EC2BF01200286E756C6C29001A4E
:105150000000001A0000001A0000001A0000000001
:1051600000000000000000000000000000000080BF
:1051700000000080000000800000008000000000AF
:0F5180000000000000000000000000644000007C
:10519000010E0C6E200E08180910D8B4D2EF28F0BA
:1051A000D4EF28F0E7EF28F0F70E08240A6EFF0E80
:1051B00009200B6E0B5009E1050E0A5CD8A0E3EF45
:1051C00028F0E5EF28F0E7EF28F0000E0C6E0CC594
:1051D00008F5096A12002250246E2350256E266AB3
:1051E000276A25C527F524C526F5256A246A080EF1
:1051F00024241A6E000E25201B6E000E26201C6E25
:10520000000E27201D6E1C0E1E6EE30E1F6E000E7C
:10521000216E060E206E1AEC21F01200000E251AE7
:10522000000E261A000E271A800E281A21C508F52E
:1052300022C509F523C50AF524C50BF525C50CF5CE
:1052400026C50DF527C50EF528C50FF55CECBCF09D
:1052500008C521F509C522F50AC523F50BC524F5B6
:1052600012001B6E00C71CF501C71DF51CC516F505
:105270001DC517F543EC2CF01E6E1B501E18D8A44C
:1052800044EF29F046EF29F052EF29F01906D8A093
:105290001A0619501A10D8A450EF29F052EF29F02D
:1052A00036EF29F01E50120004011969C968096916
:1052B000C7681169C8680181C6800183C682018BF5
:1052C000C68A198DC98CC18EC99E550E596FAA0EFA
:1052D000596F5991080E5D6F000E5E6F000E5F6F83
:1052E000550E596FAA0E596F598112000AC50CF557
:1052F0000BC50DF508C50EF509C50FF50CC5F6F47F
:105300000DC5F7F40C4A0D2A000EF86E0EC5D9F43F
:105310000FC5DAF40E4A0F2A0800F5C4DFF4DF5097
:10532000D8A495EF29F097EF29F07EEF29F012002D
:10533000000E1A6E000E196EA9EF29F018C50BF5B4
:105340000C6A16C50DF517C50EF52CEC19F0194AA7
:105350001A2A19501424D96E1A501520DA6EDF500B
:10536000186E1850D8A4B7EF29F0B9EF29F09EEFC6
:1053700029F0120008C50AF509C50BF520EE02F068
:105380000A50D9260B50DA22DF06DF50D8A4CBEF23
:1053900029F0CDEF29F0DAEF29F0000E0201126FAB
:1053A000000E116F20EE03F00A50D9260B50DA22BE
:1053B000DF50C86E120013BEE8EF29F0135006E16B
:1053C0001204D8B0E6EF29F0E8EF29F0F6EF29F063
:1053D00012C514F513C515F5141E151E144A152A09
:1053E00014C512F515C513F5FAEF29F012C512F51B
:1053F00013C513F5120004EF2AF008C5D9F409C546
:10540000DAF4DE2A000EDD2208C5D9F409C5DAF483
:10541000DEC40AF5DDC40BF50AC5D9F40BC5DAF410
:10542000200EDE18D8B417EF2AF019EF2AF0FDEF9E
:1054300029F012002A500701F71909E12B50F81939
:10544000D8B425EF2AF027EF2AF029EF2AF0CBEC89
:1054500024F02AC522F52BC523F52CC524F52DC52E
:1054600025F585EC23F0000E0701366F010E356F30
:105470001200FF0E08140C6E7F0E09140D6E000E44
:105480000A140E6E000E0B140F6E0F500E1009E171
:10549000400E0D5CD8A04FEF2AF051EF2AF054EFE8
:1054A0002AF0C28455EF2AF0C29412000501CE51B1
:1054B0000701395D3A51800A516E0501CF51800ACA
:1054C0005158D8B066EF2AF068EF2AF072EF2AF050
:1054D000D60EB46FE70EB56FCEC5B6F5CFC5B7F52E
:1054E000E6EC2BF01200D9C5CEF5DAC5CFF5DB0E10
:1054F0000501D06F050ED16F99EC10F00501DD6F3D
:10550000DD51D8A486EF2AF088EF2AF08EEF2AF03A
:10551000D9C5D9F4DAC5DAF4DE6ADD6A120020EE04
:1055200001F00850D9260950DA22DF500A6E0A50DD
:105530000D6E0E6A08C5D9F409C5DAF4DF500A6E9B
:105540000D500B6E0A500D6E0BC50EF50DC508F50E
:105550000EC509F512009F0E0C240E6EFF0E0D20D5
:105560000F6E0F5007E11A0E0E5CD8B0BAEF2AF09A
:10557000BCEF2AF0C2EF2AF05F0E0C140C6E0D6A1D
:10558000C6EF2AF00CC50CF50DC50DF51200200E66
:1055900008100A6E000E09100B6E9F0E0A240C6E86
:1055A000FF0E0B200D6E0D500AE11A0E0C5CD8A0F8
:1055B000DCEF2AF0DFEF2AF0010EE0EF2AF0000E18
:1055C000086E096A1200085009100A100B10D8B4AE
:1055D000ECEF2AF0EEEF2AF0F6EF2AF0000E081AB0
:1055E000000E091A000E0A1A800E0B1A08C508F5DB
:1055F00009C509F50AC50AF50BC50BF512002D0EF4
:105600000501B46FEE0EB56FCEC5B6F5CFC5B7F5D3
:10561000D0C5B8F5D1C5B9F5D4C5BAF5D5C5BBF572
:10562000D2C5BCF5D3C5BDF5E6EC2BF07AEC2DF078
:10563000120008C50AF509C50BF520EE02F00A5064
:10564000D9260B50DA22DF6A000E0001846F000EAB
:10565000856F110E02016A6F120E6B6FC692000108
:10566000848F120032C515F533C516F534C517F50C
:1056700035C518F536C519F537C51AF5000E1B6E78
:105680001AECC1F015C532F516C533F517C534F55A
:1056900018C535F5120059EF2BF0050E096E0F0EE7
:1056A000086EF10EE82EFED7082EFCD7092EFAD789
:1056B00000F0070145514611D8A461EF2BF063EFCC
:1056C0002BF04DEF2BF0120010C508F511C509F5B0
:1056D00012C50AF513C50BF502D87AEF2BF00500B9
:1056E000FA6E0701E651FD6EE751FE6EE851FF6E5E
:1056F000FA5012001200D00E08240A6EFF0E092084
:105700000B6E0B500AE10A0E0A5CD8A08AEF2BF050
:105710008DEF2BF0010E8EEF2BF0000E086E096A54
:1057200012009F0E08240A6EFF0E09200B6E0B500C
:105730000AE11A0E0A5CD8A0A0EF2BF0A3EF2BF021
:10574000010EA4EF2BF0000E086E096A1200BF0EC6
:1057500008240A6EFF0E09200B6E0B500AE11A0E88
:105760000A5CD8A0B6EF2BF0B9EF2BF0010EBAEF20
:105770002BF0000E086E096A120000C719F501C768
:105780001AF519C50CF51AC50DF565EC2CF019C5FF
:1057900012F51AC513F5000E156E010E146E8EEC7F
:1057A00026F0120008C5D9F409C5DAF40AC5DFF4F9
:1057B000084A092A0B500A6E0B6A08C5D9F409C5B4
:1057C000DAF40AC5DFF4084A092A1200B60E050108
:1057D000CC6F050ECD6F000EAC6F000EAD6FB4C573
:1057E000AEF5B5C5AFF5CC0EB06F050EB16FBEEC22
:1057F00023F012000AC508F50BC509F502D80CEF15
:105800002CF00500FA6E0801D451FD6ED551FE6EE4
:10581000D651FF6EFA501200120008500A02F3C46B
:105820000CF5F4C40DF508500B02F3500D26095089
:105830000A02F3500D260CC508F50DC509F5120036
:10584000B5BA25EF2CF027EF2CF031EF2CF0070143
:1058500051515211D8B42FEF2CF031EF2CF020EF32
:105860002CF012004FEC1FF002D842EF2CF0050094
:10587000FA6E0801D751FD6ED851FE6ED951FF6EF8
:10588000FA5012001200186816C508F517C509F578
:10589000180E0A6E050E0B6E000E0D6E010E0C6ECC
:1058A00049ECD7F0185012000CC508F50DC509F5E4
:1058B000EAEC26F00CC508F50DC509F5000E0B6ED7
:1058C000010E0A6EF8EC2CF012000CC508F50DC59F
:1058D00009F5000E0B6E000E0A6EF8EC2CF00CC5EC
:1058E00008F50DC509F5BAEC29F0120002D884EFCD
:1058F0002CF00500FA6E0801D151FD6ED251FE6EFA
:10590000D351FF6EFA501200120088EF2CF05307AB
:1059100007015351800A7F0FD8B091EF2CF093EF1D
:105920002CF087EF2CF01200E9C60AF5EAC60BF559
:1059300008C5E9F609C5EAF60AC508F50BC509F573
:10594000120056C50AF557C50BF508C556F509C529
:1059500057F50AC508F50BC509F51200086E0804CD
:10596000D8A4B5EF2CF0B7EF2CF0BAEF2CF0000173
:10597000D785D79512000A6E4BEC2BF0B7A2C3EF78
:105980002CF0C5EF2CF0BEEF2CF00AC5C9F21200C6
:10599000D80E0501B46FF20EB56FB20EB66FF30EEE
:1059A000B76FE6EC2BF01200CEBAD9EF2CF0DBEF9C
:1059B0002CF0DEEF2CF0D890DFEF2CF0D880120026
:1059C000CEB0E5EF2CF0E7EF2CF0EAEF2CF0D8901A
:1059D000EBEF2CF0D8801200B5BAF1EF2CF0F3EF1A
:1059E0002CF0F6EF2CF0D890F7EF2CF0D8801200C6
:1059F0000A500B10D8B4FFEF2CF002EF2DF0BE824E
:105A000003EF2DF0BE921200FFFFFFFF6E080100B2
:105A10000F006AFFFF00FF00FFFFCF0101FF086ECC
:105A200008B015EF2DF018EF2DF0C28219EF2DF010
:105A3000C2921200086E08B020EF2DF023EF2DF077
:105A4000C18E24EF2DF0C19E1200086E08B02BEF1E
:105A50002DF02EEF2DF0C2802FEF2DF0C29012000E
:105A600085EC2CF00AC508F50BC509F599EC2DF06D
:105A70001200000E086E800E096EFF0E0A6EFF0EF9
:105A80000B6E1200000E086E000E096E210E0A6EDB
:105A9000000E0B6E1200B00E0701206F400E216F3A
:105AA000000E226F1200FF00000E0601B36F000E01
:105AB000B26F1200EBC62EF5ECC62FF5D4EC1FF03A
:105AC0001200EBC62EF5ECC62FF556EC22F01200B4
:105AD000000E07014C6F0A0E4B6F1200000E0601FC
