:0400000081EF00F09C
:10000800C613C613C613C6134000C6134000C61352
:10001800C613C613C613C613C613C613C613C61310
:10002800C613400040004000C613C613C613C613CB
:10003800C613C613C613C613C613C613C613C613F0
:10004800C613C613C613C61340004000C613C61312
:10005800C613C613C6134000C613C613C613C61369
:10006800C613C613C613C613C613C613C613C613C0
:10007800C613C613C613C6134000C613C613C61349
:10008800C613C613C613C613C613C613C613C613A0
:10009800C613C613C613C6134000C613400040005B
:1000A800C613C613C613C613C613C613C613C61380
:1000B800C613C613C613C613C613C613C613C61370
:1000C800C613C613C613C613C613C613C613C61360
:1000D800C613C613C613C613C613C613C613C61350
:1000E8004000C613C613C61340004000400040003D
:1000F800C613C613C613C613FF00F6EF17F07CEC41
:100108002DF00A0E08180910D8B48DEF00F08FEF03
:1001180000F0BAEF00F07CEC2DF0320E0818091050
:10012800D8B499EF00F09BEF00F0BAEF00F07CEC48
:100138002DF05A0E08180910D8B4A5EF00F0A7EF53
:1001480000F0BAEF00F0D20E0501CE6FE50ECF6FCA
:10015800900ED06FF70ED16F030ED36F150ED26FBE
:100168003A0ED46FF00ED56FFBEC2AF07CEC2DF034
:10017800E3C5D9F4E4C5DAF408C5DEF409C5DDF44D
:100188007CEC2DF05A0E08180910D8A4CEEF00F018
:10019800D0EF00F0D2EF00F048EF01F07CEC2DF04A
:1001A8000A0E08180910D8A4DCEF00F0DEEF00F002
:1001B80022EF01F0000E0B6E010E0A6EF6EC2BF02A
:1001C800000E1A6E000E1B6E000E1C6E000E1D6EC9
:1001D8001A0E1E6EE50E1F6E000E216E0A0E206EA0
:1001E80016EC21F002D804EF01F00500FA6E0801C0
:1001F800D751FD6ED851FE6ED951FF6EFA501200DC
:10020800000E086E000E096E000E0A6E000E0B6ED0
:1002180002D81AEF01F00500FA6E0701CE51FD6E03
:10022800CF51FE6ED051FF6EFA501200000E05013C
:10023800D66F000ED76FAD0EC1ECB4F0000E0B6E8A
:10024800010E0A6EF6EC2BF092EC2DF0000E050173
:10025800D66F000ED76FAB0EC1ECB4F05DEC2DF08D
:10026800000E0501D66F000ED76FAC0EC1ECB4F0CE
:10027800000E0701466F500E456FF2EC23F0000E9A
:100288000701466F5A0E456F12008EC6D9F48FC605
:10029800DAF4DEC492F6DDC493F68EC650F68FC645
:1002A80051F6000E0601526F000E536F000E546F88
:1002B800000E556F84ECD5F00601956F9551D8B4B2
:1002C80068EF01F06AEF01F06EEF01F00601955159
:1002D8000AEF02F092C62BF693C62CF620EE16F023
:1002E8008E51D9268F51DA22DEC42DF6DEC42EF6C1
:1002F800DEC42FF6DEC430F6C2EC18F00601956FA6
:100308009551D8B48AEF01F08CEF01F08EEF01F02F
:100318006AEF01F020EE1AF08E51D9268F51DA22B9
:10032800DEC490F6DDC491F690C6D9F491C6DAF42D
:10033800DF50946F9451D8A4A4EF01F0A6EF01F018
:10034800AAEF01F0040E956F6AEF01F020EE04F0B9
:100358008E51D9268F51DA2210EE1AF08E51E126ED
:100368008F51E22200EE0BF0E650E926E550EA2232
:10037800EF503F0BDF6E20EE1AF08E51D9268F51C9
:10038800DA2210EE0BF0DE50E126DD50E222E7B66D
:10039800D0EF01F0D2EF01F0F3EF01F020EE1AF008
:1003A8008E51D9268F51DA22DEC408F5DDC409F54D
:1003B8001C0E8E250A6E000E8F210B6E000E0D6E20
:1003C8000B0E0C6E28EC17F008500910D8A4EFEFAC
:1003D80001F0F1EF01F0F3EF01F06AEF01F08EC6E2
:1003E80074F68FC675F6000E0601776F000E766FED
:1003F800F3ECC9F00601956F9551D8B406EF02F0F9
:1004080008EF02F06EEF01F06AEF01F01200000E43
:10041800136E000E126E0DC5D9F40EC5DAF4DEC4E3
:100428000FF5DDC410F50FC5D9F410C5DAF4300E98
:10043800DE18D8A422EF02F024EF02F03FEF02F01A
:100448000DC5D9F40EC5DAF410EE01F0DE50E12640
:10045800DD50E222780EE618D8A435EF02F037EF27
:1004680002F03FEF02F0020E0DC5D9F40EC5DAF422
:10047800DE26000EDD220DC5D9F40EC5DAF4DEC481
:100488000FF5DDC410F50FC5D9F410C5DAF4DF5047
:10049800146E600E146453EF02F055EF02F05FEF34
:1004A80002F0670E14605BEF02F05DEF02F05FEFA1
:1004B80002F0200E145E2F0E146465EF02F067EF51
:1004C80002F06FEF02F0390E14646DEF02F06FEF77
:1004D80002F081EF02F0400E146475EF02F077EF3E
:1004E80002F08CEF02F0460E14647DEF02F07FEF0D
:1004F80002F081EF02F08CEF02F0124A132A0DC5C8
:10050800D9F40EC5DAF4DE2A000EDD223FEF02F040
:100518000DC5D9F40EC5DAF4DEC40FF5DDC410F547
:100528000FC5D9F410C5DAF4680EDE18D8B49FEFF9
:1005380002F0A1EF02F0B6EF02F00DC5D9F40EC536
:10054800DAF4DEC40FF5DDC410F50FC5D9F410C513
:10055800DAF4480EDE18D8A4B4EF02F0B6EF02F0D1
:10056800BDEF02F00DC5D9F40EC5DAF4DE2A000E8F
:10057800DD220DC508F50EC509F5F7EC29F012C501
:100588000DF513C50EF51200FBC7B8F6B4C6D9F4BD
:10059800B5C6DAF4DE50DE10D8B4D5EF02F0D7EFE6
:1005A80002F05CEF03F0B4C6D9F4B5C6DAF4DEC4E1
:1005B800B6F6DDC4B7F6B6C6D9F4B7C6DAF4DF5076
:1005C800D8B4E9EF02F0EBEF02F05CEF03F00701BB
:1005D8005451D8B4F2EF02F0F4EF02F00AEF03F04E
:1005E800E5C633F6E6C634F6E7C635F6E8C636F6A7
:1005F8007F0E0601376F070E386F000E3A6F010E37
:10060800396F1FECF8F0000E0701546FB4C6D9F427
:10061800B5C6DAF4DEC438F5DDC439F53EECECF0E5
:1006280038C5E5F639C5E6F63AC5E7F63BC5E8F656
:100638004D0E0501B46FF10EB56FE5C6B6F5E6C609
:10064800B7F5E7C6B8F5E8C6B9F5E2EC2BF0E5C6AC
:1006580033F6E6C634F6E7C635F6E8C636F67F0E54
:100668000601376F070E386F000E3A6F010E396FAB
:10067800ECECF8F0E5C633F6E6C634F6E7C635F630
:10068800E8C636F6B80E0601376F060E386F000E4C
:100698003A6F010E396F1FECF8F0010E0701546F25
:1006A800EBC622F5ECC623F5E7EC28F07DEF03F066
:1006B80007015451D8B463EF03F065EF03F076EF08
:1006C80003F0060E0501B46FF30EB56FE5C6B6F577
:1006D800E6C6B7F5E7C6B8F5E8C6B9F5E2EC2BF01B
:1006E8007DEF03F0790E0501B46FF20EB56FE2EC01
:1006F8002BF0000E0601B36F000EB26F120008C592
:1007080012F509C513F50C500D10D8A48EEF03F09F
:1007180090EF03F092EF03F03DEF04F012C5D9F427
:1007280013C5DAF40AC5DFF40C5012240E6E0D500E
:1007380013200F6EFF0E0E24D96EFF0E0F20DA6EF7
:100748000AC5DFF40D5007E1030E0C5CD8B0AFEF1B
:1007580003F0B1EF03F0B3EF03F03DEF04F020EE48
:1007680001F01250D9261350DA220AC5DFF420EE20
:1007780002F01250D9261350DA220AC5DFF40C50C1
:1007880012240E6E0D5013200F6EFE0E0E24D96E1D
:10079800FF0E0F20DA6E0AC5DFF40C5012240E6E1D
:1007A8000D5013200F6EFD0E0E24D96EFF0E0F2074
:1007B800DA6E0AC5DFF40D5007E1070E0C5CD8B0FD
:1007C800E8EF03F0EAEF03F0ECEF03F03DEF04F09D
:1007D80020EE03F01250D9261350DA220AC5DFF4AE
:1007E8000C5012240E6E0D5013200F6EFC0E0E24AA
:1007F800D96EFF0E0F20DA6E0AC5DFF40D5007E13F
:10080800090E0C5CD8B00BEF04F00DEF04F00FEFFD
:1008180004F03DEF04F012C50EF513C50FF50E1EDA
:100828000F1E0E4A0F2A030E0E14106E116A105076
:1008380012261150132210500C5E11500D5AFC0E46
:100848000C16FF0E0D1634EF04F012C5D9F413C5BB
:10085800DAF40AC5DFF40C06D8A00D06124A132AEA
:100868000C500D10D8A43BEF04F03DEF04F029EF35
:1008780004F01200D4C5EBF5D5C5ECF50F0E050153
:10088800D625D86F000ED721D96FF00ED815D66FA0
:10089800FF0ED915D76F000EEE6F000EED6FECEF5F
:1008A80004F00F0EED15D86F000EEE15D96FD85164
:1008B800D911D8A462EF04F064EF04F07AEF04F0E1
:1008C8005F0EB46FFA0EB56FCEC5B6F5CFC5B7F5E6
:1008D800ED51D025B86FEE51D121B96F000ED2215C
:1008E800BA6F000ED321BB6FE2EC2BF04C0E050162
:1008F800B46FFE0EB56FED51EB25D96EEE51EC21BC
:10090800DA6EDF50D86FD851B66FB76BE2EC2BF0C8
:100918000501ED51EB25D96EEE51EC21DA6E1F0E73
:10092800DF6499EF04F09BEF04F0BFEF04F0ED51A2
:10093800EB25D96EEE51EC21DA6E7F0EDF60A7EF62
:1009480004F0A9EF04F0BFEF04F0ED51EB25D96EE8
:10095800EE51EC21DA6E0F0EED15D86F000EEE1584
:10096800D96FDA0ED825E16E050ED921E26EDFC403
:10097800E7F4CDEF04F00F0EED15D86F000EEE156D
:10098800D96FDA0ED825D96E050ED921DA6E2E0E5A
:10099800DF6E0F0EED15D86F000EEE15D96F0F0E26
:1009A800D819D911D8A4DBEF04F0DDEF04F0E9EF92
:1009B80004F0000EEA6F3B0EB46FF80EB56FDA0E56
:1009C800B66F050EB76FE2EC2BF00501ED4BEE2B81
:1009D800D651ED5DD751EE59D8A0F5EF04F0F7EFF9
:1009E80004F055EF04F0120002D807EF05F00500F7
:1009F800FA6E0701DA51FD6EDB51FE6EDC51FF6EB7
:100A0800FA50000E1200000E296E000E286EA5EF97
:100A180005F028C508F529C509F5000E0B6E060E68
:100A28000A6E09EC2CF008501A24206E09501B207D
:100A3800216E020E2024D96E000E2120DA6EDEC44B
:100A480022F5DDC423F51E50246E1F50256E266A3C
:100A5800276A25C527F524C526F5256A246A225064
:100A68002424106E23502520116E000E2620126EAD
:100A7800000E2720136E02D84DEF05F00500FA6E20
:100A88000701CB51FD6ECC51FE6ECD51FF6EFA5071
:100A9800120028C508F529C509F5000E0B6E060ECB
:100AA8000A6E09EC2CF008501A24206E09501B20FD
:100AB800216E020E2024D96E000E2120DA6EDEC4CB
:100AC8000EF5DDC40FF528C508F529C509F5000E92
:100AD8000B6E060E0A6E09EC2CF008501A24D96E1B
:100AE80009501B20DA6EDEC410F5DDC411F528C5E7
:100AF80008F529C509F5000E0B6E060E0A6E09ECFD
:100B08002CF008501A24226E09501B20236E040E64
:100B18002224D96E000E2320DA6EDEC412F5DDC45D
:100B280013F502D8A3EF05F00500FA6E0701E651A8
:100B3800FD6EE751FE6EE851FF6EFA501200284A2A
:100B4800292A1C50285C1D502958D8A0AEEF05F062
:100B5800B0EF05F00DEF05F0120002D8C0EF05F078
:100B68000500FA6E0701DA51FD6EDB51FE6EDC51AD
:100B7800FF6EFA50FF0E1200000E296E000E286E4E
:100B88005EEF06F028C508F529C509F5000E0B6EBD
:100B9800060E0A6E09EC2CF008501A24206E095033
:100BA8001B20216E020E2024D96E000E2120DA6E41
:100BB800DEC422F5DDC423F51E50246E1F50256EB9
:100BC800266A276A25C527F524C526F5256A246AD5
:100BD80022502424106E23502520116E000E26204A
:100BE800126E000E2720136E02D806EF06F00500DD
:100BF800FA6E0701CB51FD6ECC51FE6ECD51FF6EE2
:100C0800FA50120028C508F529C509F5000E0B6E23
:100C1800060E0A6E09EC2CF008501A24206E0950B2
:100C28001B20216E020E2024D96E000E2120DA6EC0
:100C3800DEC40EF5DDC40FF528C508F529C509F58C
:100C4800000E0B6E060E0A6E09EC2CF008501A24E2
:100C5800D96E09501B20DA6EDEC410F5DDC411F51B
:100C680028C508F529C509F5000E0B6E060E0A6E93
:100C780009EC2CF008501A24226E09501B20236E10
:100C8800040E2224D96E000E2320DA6EDEC412F57B
:100C9800DDC413F502D85CEF06F00500FA6E070113
:100CA800E351FD6EE451FE6EE551FF6EFA501200FD
:100CB800284A292A1C50285C1D502958D8A067EFBB
:100CC80006F069EF06F0C6EF05F0120015C7B8F692
:100CD80016C7B9F617C7BAF618C7BBF6B4C6D9F41B
:100CE800B5C6DAF4DE50DE10D8B47DEF06F07FEF3B
:100CF80006F0A5EF06F0B4C6D9F4B5C6DAF4DEC43A
:100D0800B6F6DDC4B7F6B6C6D9F4B7C6DAF4DF501E
:100D1800D8B491EF06F093EF06F0A5EF06F0B4C64D
:100D2800D9F4B5C6DAF4DEC438F5DDC439F53EECDD
:100D3800ECF038C5B8F639C5B9F63AC5BAF63BC5C8
:100D4800BBF6060120EE02F0B451D926B551DA22DD
:100D5800DE50DE10D8B4B3EF06F0B5EF06F0CBEFF7
:100D680006F020EE02F0B451D926B551DA22DEC4DD
:100D7800B6F6DDC4B7F6B6C6D9F4B7C6DAF4DF50AE
:100D8800D8A4C9EF06F0CBEF06F0D9EF06F0400E75
:100D98000501B46FF40EB56FE2EC2BF0000E0601FE
:100DA800B36F000EB26F1FEF07F020EE02F0B451E0
:100DB800D926B551DA22DEC438F5DDC439F53EEC62
:100DC800ECF038500601BC6FB8C633F6B9C634F635
:100DD800BAC635F6BBC636F6BC0E0601376F060E28
:100DE800386F000E3A6F010E396F1FECF8F0010EE4
:100DF8000601B827000EB923BA23BB23000E086EDC
:100E0800000E096EBC0E0A6E060E0B6E19ECEEF0A3
:100E180008500910D8A413EF07F015EF07F0E8EF12
:100E280006F0B8C615F7B9C616F7BAC617F7BBC69F
:100E380018F7D2EF06F01200650E086EFF0E096E65
:100E480005EC28F008C5BBF709C5BCF7800E0701FB
:100E5800BB25B36F070EBC21B46F800E0501B46FBC
:100E6800070EB56FC60EB66FFF0EB76F650EB86F7B
:100E7800FF0EB96FB5EC27F0800E0501CE6F070E97
:100E8800CF6F000ED16F300ED06FBBC7D2F5BCC785
:100E9800D3F5BBC7D4F5BCC7D5F59CECC5F09C0E03
:100EA8000501B46FE70EB56FE2EC2BF0B3C7CEF5D2
:100EB800B4C7CFF5B90E0501D06F070ED16FBD0EBF
:100EC800D26F070ED36FDFECAEF0CEC5B5F7CFC546
:100ED800B6F70701B6BF75EF07F073EF07F083EFBA
:100EE80007F03F0E0501B46FE80EB56FE2EC2BF08A
:100EF800000E0601C96F000EC86FD4EF07F0B9C71E
:100F080008F5BAC709F5000E0B6E0C0E0A6E09EC4F
:100F18002CF0030E0826000E0922CB0E0824F66ECC
:100F2800E30E0920F76EF86A000EF8220900F5C4EE
:100F3800B0F70900F5C4B1F70A00F5C4B2F7B5C7B0
:100F4800B2F6B6C7B3F6BD0E0601B46F070EB56F9D
:100F580002D8BAEF07F00500FA6E0701B051FD6E2E
:100F6800B151FE6EB251FF6EFA501200B2C6B7F719
:100F7800B3C6B8F70701B72906E1B829D8A4C7EF5F
:100F880007F0C9EF07F0D0EF07F01A0E0501B46FAC
:100F9800FB0EB56FE2EC2BF0B7C7C8F6B8C7C9F6B9
:100FA8001200D0C5E7F5D1C5E8F50F0E0501D22529
:100FB800D46F000ED321D56FF00ED415D26FFF0E6B
:100FC800D515D36F000EEA6F000EE96F7BEF08F0BE
:100FD8000F0EE915D46F000EEA15D56FD451D5114F
:100FE800D8A4F9EF07F0FBEF07F009EF08F00A0EB5
:100FF800B46FFB0EB56FCEC5B6F5CFC5B7F5E9C56D
:10100800B8F5EAC5B9F5E2EC2BF04C0E0501B46F62
:10101800FE0EB56FE951E725D96EEA51E821DA6E7F
:10102800DF50D46FD451B66FB76BE2EC2BF00501EB
:10103800E951E725D96EEA51E821DA6E1F0EDF641F
:1010480028EF08F02AEF08F04EEF08F0E951E725FD
:10105800D96EEA51E821DA6E7F0EDF6036EF08F0CC
:1010680038EF08F04EEF08F0E951E725D96EEA515C
:10107800E821DA6E0F0EE915D46F000EEA15D56F68
:10108800D60ED425E16E050ED521E26EDFC4E7F455
:101098005CEF08F00F0EE915D46F000EEA15D56F56
:1010A800D60ED425D96E050ED521DA6E2E0EDF6E3A
:1010B8000F0EE915D46F000EEA15D56F0F0ED4196F
:1010C800D511D8A46AEF08F06CEF08F078EF08F0B3
:1010D800000EE66F3B0EB46FF80EB56FD60EB66F06
:1010E800050EB76FE2EC2BF00501E94BEA2BD25164
:1010F800E95DD351EA59D8A084EF08F086EF08F0EB
:10110800ECEF07F0120055BE8CEF08F08EEF08F0F8
:101118008FEF08F0589255BE96EF08F094EF08F05C
:101128009CEF08F0000E2D6E010E2C6EA0EF08F05B
:1011380054C52CF555C52DF552C52EF553C52FF5BB
:10114800000E316E4F0E306E000E0901CF6FEBEFBF
:1011580008F03006D8A03106800E3024D96E090E6A
:101168003120DA6E28C508F529C509F52AC50AF51A
:101178002BC50BF50A0E0C6E000E0D6E000E0E6ED2
:10118800000E0F6E07EC1FF00850300FDF6E2C06B4
:10119800D8A02D062E06D8A02F0628C508F529C5E3
:1011A80009F52AC50AF52BC50BF50A0E0C6E000EBB
:1011B8000D6E000E0E6E000E0F6E6BEC1CF008C567
:1011C80028F509C529F50AC52AF50BC52BF53050B0
:1011D8003110D8B4F2EF08F0F4EF08F020EF09F07E
:1011E800285029102A102B10D8A4FDEF08F0FFEF83
:1011F80008F0ADEF08F02DBE0CEF09F02D5006E118
:101208002C04D8B00AEF09F00CEF09F0ADEF08F0A4
:101218002FBE17EF09F02F5008E12E04D8A017EFC2
:1012280009F019EF09F020EF09F058B21EEF09F0A4
:1012380020EF09F0ADEF08F026C51BF527C51CF512
:10124800800E30241D6E090E31201E6E2EC51FF52E
:101258002FC520F5EFEC19F01BC526F51CC527F5A1
:1012680012002BC619F62CC61AF683ECF6F0000904
:10127800D8B441EF09F043EF09F046EF09F0010E49
:10128800DCEF09F02BC614F52CC615F52DC616F59E
:101298002EC617F52FC618F530C619F55CEC18F0F0
:1012A80014C535F615C536F616C537F617C538F61A
:1012B800060120EE2CF02B51D9262C51DA2235C606
:1012C800DEF436C6DEF437C6DEF438C6DEF4300E99
:1012D8002B25086E000E2C21096E000E0B6E000ED9
:1012E8000A6E020E0D6E000E0C6E83EC03F0300ECB
:1012F80006012B25336F000E2C21346F000E3A6F38
:10130800010E396F000E3C6F000E3B6F91EF09F034
:10131800060139513B273A513C2320EE0AF02B5164
:10132800D9262C51DA22DE503B5DDE503C59D8B02C
:10133800A0EF09F0A2EF09F0C7EF09F033C60DF6E8
:1013480034C60EF63B5135250F6F3C513621106FD0
:10135800000E3721116F000E3821126F39C613F6AF
:101368003AC614F620EE01F02B51D9262C51DA2278
:10137800DF50E8ECFCF00009D8B4C5EF09F0C7EF7E
:1013880009F08CEF09F0060120EE0AF02B51D9265E
:101398002C51DA223B51DE1807E13C51DE18D8A463
:1013A800D8EF09F0DBEF09F0010EDCEF09F0000ED1
:1013B80012008EC6D9F48FC6DAF4DEC495F6DDC401
:1013C80096F68EC650F68FC651F6000E0601526F7D
:1013D800000E536F000E546F000E556F84ECD5F05D
:1013E8000601996F9951D8A4FCEF09F0FEEF09F0B6
:1013F80077EF0AF0000E986F000E976F95C62BF6E0
:1014080096C62CF620EE16F08E51D9268F51DA2288
:10141800DEC42DF6DEC42EF6DEC42FF6DEC430F6AA
:10142800C2EC18F00601996F9951D8B41EEF0AF072
:1014380020EF0AF022EF0AF077EF0AF020EE1AF018
:101448008E51D9268F51DA22DEC492F6DDC493F686
:1014580092C6D9F493C6DAF4E50EDE18D8B437EF9D
:101468000AF039EF0AF04FEF0AF020EE1AF08E5129
:10147800D9268F51DA22DEC492F6DDC493F692C6DD
:10148800D9F493C6DAF4DF50D8A44DEF0AF04FEF41
:101498000AF05FEF0AF0974B982B9051971907E1E4
:1014A80091519819D8A45BEF0AF05DEF0AF063EF49
:1014B8000AF077EF0AF0000E986F000E976F8EC64D
:1014C80074F68FC675F6000E776F010E766FF3EC23
:1014D800C9F00601996F9951D8B475EF0AF077EF02
:1014E8000AF002EF0AF0040E9919D8A47EEF0AF068
:1014F80080EF0AF082EF0AF0070E996F99511200F7
:10150800000184838481000E886F000E8B6F85999B
:10151800868386810501D205D8A495EF0AF097EF56
:101528000AF09BEF0AF0000184959DEF0AF0000194
:1015380084850501D351D8A4A4EF0AF0A6EF0AF0D8
:10154800ACEF0AF00001859F858D859BBBEF0AF003
:10155800770EB46FED0EB56FAD0EB66FF50EB76FB3
:10156800D3C5B8F5B96BE2EC2BF0B9EF0AF0000E71
:101578008C6FF4EF0AF0020E00018C6F020E896F77
:101588001FEF0BF00F0E0001896F1FEF0BF0070E16
:101598000001896F1FEF0BF0050E0001896F1FEF27
:1015A8000BF0040E0001896F1FEF0BF0030E000112
:1015B800896F1FEF0BF0020E0001896F1FEF0BF010
:1015C800880EB46FEA0EB56FAD0EB66FF50EB76F35
:1015D800D0C5B8F5D1C5B9F5E2EC2BF01FEF0BF08B
:1015E800D0C5D4F5D1C5D5F50501D551000AD8B473
:1015F80000EF0BF0E4EF0AF0D451000AD8B4BFEFC3
:101608000AF0010AD8B4C6EF0AF0030AD8B4CBEF3F
:101618000AF0010AD8B4D0EF0AF0070AD8B4D5EF17
:101628000AF0010AD8B4DAEF0AF0030AD8B4DFEFF7
:101638000AF0E4EF0AF0120021EE0FF2110EDE6A52
:10164800E806FDE2FE0E06010F6FE40E106F000EB5
:10165800126F000E116F000E146F1C0E136F0A0E1E
:10166800156F060E166F000E186F040E176F000E1A
:101678001A6F050E196F0605010E0759D8A047EF16
:101688000BF049EF0BF05CEF0BF0990E0501CE6FF4
:10169800F80ECF6F1E0ED06FF60ED16F000ED36FFF
:1016A8008F0ED26FB20ED46FF40ED56FFBEC2AF00A
:1016B80002C60AF603C60BF600C60CF601C60DF6FE
:1016C80006C60EF61C0E060102190311D8A46FEF08
:1016D8000BF071EF0BF096EF0BF004C61BF605C686
:1016E8001CF602C61DF603C61EF606C61FF607C67A
:1016F80020F60F0E0501E36F060EE46F000EE66F8D
:10170800030EE56F000EE76F000EE86F000EEA6F3C
:10171800000EE96F08C6EBF509C6ECF530ECEDF004
:10172800B9EF0BF004C61BF605C61CF600C61DF67D
:1017380001C61EF606C61FF607C620F60F0E0501DF
:10174800E36F060EE46F000EE66F020EE56F1B0EE8
:10175800E76F060EE86F000EEA6F010EE96F08C624
:10176800EBF509C6ECF530ECEDF0120008C50FF505
:1017780009C510F50AC511F50BC512F50C06D8A058
:101788000D060C2806E10D28D8A4CDEF0BF0CFEFFD
:101798000BF0DCEF0BF0000E096E000E086E4FEF39
:1017A8000CF00F4A102A114A122A0C06D8A00D066E
:1017B8000FC5F6F410C5F7F4000EF86E250EF764A1
:1017C80003D00800F55005D0F6C4E9F4F7C4EAF4EC
:1017D800EF500009D8B4F3EF0BF0F5EF0BF030EF52
:1017E8000CF011C5F6F412C5F7F4000EF86E0800F7
:1017F800F5500009D8B403EF0CF005EF0CF030EF0A
:101808000CF00C500D10D8B40CEF0CF00EEF0CF0DF
:1018180030EF0CF011C5F6F412C5F7F4000EF86EAF
:101828000800F5C40EF50FC5F6F410C5F7F4000E60
:10183800F86E250EF76403D00800F55005D0F6C4FD
:10184800E9F4F7C4EAF4EF500E18D8B42EEF0CF010
:1018580030EF0CF0D5EF0BF00FC5F6F410C5F7F428
:10186800000EF86E250EF76403D00800F55005D079
:10187800F6C4E9F4F7C4EAF4EF500E6E11C5F6F4B5
:1018880012C5F7F4000EF86E0800F5500E5C086EED
:10189800096AD8A009061200000E1A6E000E196E09
:1018A80012C5D9F413C5DAF4DEC414F5DDC415F590
:1018B80014C5D9F415C5DAF4270EDE18D8A467EFD5
:1018C8000CF069EF0CF0A1EF0CF012C5D9F413C5B8
:1018D800DAF4DE2A000EDD22DEC417F5DDC418F5C1
:1018E80012C508F513C509F5000E0A6E000E0B6E39
:1018F80019ECEEF008500910D8A485EF0CF087EF2A
:101908000CF074EF0CF012C5D9F413C5DAF4DEC488
:1019180014F5DDC415F51750145C196E18501558D8
:101928001A6E12C508F513C509F539EC27F019C563
:1019380012F51AC513F5DFEF0CF012C5D9F413C56B
:10194800DAF4DEC414F5DDC415F514C5D9F415C5EB
:10195800DAF4DF501B6E200E1B18D8B4B6EF0CF06B
:10196800B8EF0CF095EF0CF02C0E1B18D8B4BFEFA5
:101978000CF0C1EF0CF095EF0CF03D0E1B18D8B42D
:10198800C8EF0CF0CAEF0CF095EF0CF01B50D8A480
:10199800D0EF0CF0D2EF0CF0D4EF0CF095EF0CF088
:1019A800194A1A2A12C5D9F413C5DAF4DE2A000E28
:1019B800DD22A1EF0CF012000601EB510701F3192B
:1019C80009E10601EC510701F419D8A4EEEF0CF077
:1019D800F0EF0CF046EF0DF02F513011D8B4F7EFBF
:1019E8000CF0F9EF0CF046EF0DF06A516B11D8A42A
:1019F80000EF0DF002EF0DF046EF0DF00601EB5190
:101A0800346EEC51356E366A376A35C537F534C5EC
:101A180036F5356A346A34C51AF535C51BF536C549
:101A28001CF537C51DF5BF0E1E6EE40E1F6E000EA9
:101A3800216E290E206E16EC21F00601EB51346E52
:101A4800EC51356E366A376A35C537F534C536F523
:101A5800356A346A290E34241A6E000E35201B6E3E
:101A6800000E36201C6E000E37201D6E580E1E6E9E
:101A7800070E1F6E000E216E160E206E16EC21F05A
:101A88006FEF0DF0EBC62EF5ECC62FF552EC22F0F9
:101A98000601EB51346EEC51356E366A376A35C53E
:101AA80037F534C536F5356A346AA10E34241A6E12
:101AB800000E35201B6E000E36201C6E000E3720DF
:101AC8001D6E580E1E6E070E1F6E000E216E160E2E
:101AD800206E16EC21F012000501D451D511D8B4AE
:101AE80078EF0DF07AEF0DF086EF0DF0D4C5D9F44C
:101AF800D5C5DAF4EF0EDE6EBE0EDE6EAD0EDE6E0E
:101B0800DE0EDD6ECF5107E1100ECE5DD8B08FEF3F
:101B18000DF091EF0DF0AEEF0DF0790ED66F080EC7
:101B2800D76F020ED627000ED723D890CE35D96EA0
:101B3800CF35DA6ED890D936DA36D651D926D7517C
:101B4800DA22DE50DE10D8A4ACEF0DF0AEEF0DF0C7
:101B5800BDEF0DF0C50EB46FF40EB56FCEC5B6F57A
:101B6800CFC5B7F5E2EC2BF00501CE69CF69FDEFE3
:101B78000DF0D451D511D8B4C4EF0DF0C6EF0DF067
:101B8800F9EF0DF0790ED66F080ED76FD890CE35D5
:101B9800D96ECF35DA6ED890D936DA36D651D926FD
:101BA800D751DA22DEC408F5DDC409F5D0C50AF537
:101BB800D1C50BF509EC2CF00501D2510826D351FB
:101BC8000922FF0E0824D86FFF0E0920D96FDA6B9F
:101BD800DB6BD4C5D9F4D5C5DAF4D8C5DEF4D9C5DC
:101BE800DEF4DAC5DEF4DBC5DEF4000ECF6F000EDE
:101BF800CE6F12000501CE510601EB1909E105016E
:101C0800CF510601EC19D8A40CEF0EF00EEF0EF030
:101C180010EF0EF088EF0EF0070133510501CE5D8D
:101C2800CF51800AD06F07013451800A0501D0597D
:101C3800D8A021EF0EF023EF0EF03EEF0EF00701D3
:101C4800FC51D8B42AEF0EF02CEF0EF03EEF0EF058
:101C5800000EFC6F500E0501B46FEE0EB56FCEC5C9
:101C6800B6F5CFC5B7F5E2EC2BF0000E07014E6FC5
:101C7800010E4D6F07011D511E111F11D8B447EFFA
:101C88000EF049EF0EF05EEF0EF0EBC628F5ECC64D
:101C980029F5CEC52AF5CFC52BF502D85EEF0EF093
:101CA8000500FA6E1D51FD6E1E51FE6E1F51FF6E2E
:101CB800FA501200CEC5EBF6CFC5ECF60601EB5193
:101CC8000501D06F0601EC510501D16FD26BD36BC2
:101CD800D1C5D3F5D0C5D2F5D16BD06BD0C508F539
:101CE800D1C509F5D2C50AF5D3C50BF502D888EFD9
:101CF8000EF00500FA6E0701CE51FD6ECF51FE6E53
:101D0800D051FF6EFA5012001200000E116E0FBE75
:101D180092EF0EF090EF0EF09CEF0EF00F1E0E1EDD
:101D28000D1E0C6C000E0D220E220F22010E116EDC
:101D38000BBEA3EF0EF0A1EF0EF0ADEF0EF00B1EF1
:101D48000A1E091E086C000E09220A220B22010E27
:101D5800111A000E126E000E136E000E146E000E95
:101D6800156E0C500D100E100F10D8B4BEEF0EF0FB
:101D7800C0EF0EF0F6EF0EF0010E106ECAEF0EF087
:101D8800D8900C360D360E360F36102A0FAECFEF20
:101D98000EF0D1EF0EF0C4EF0EF0D89012361336D5
:101DA800143615360C50085C0D5009580E500A5858
:101DB8000F500B58D8A0E3EF0EF0E5EF0EF0EEEF62
:101DC8000EF00C50085E0D50095A0E500A5A0F506A
:101DD8000B5A1280D8900F320E320D320C32102E60
:101DE800D1EF0EF01150D8B4FCEF0EF0FEEF0EF06C
:101DF80006EF0FF0151E141E131E126C000E132290
:101E08001422152212C508F513C509F514C50AF5DB
:101E180015C50BF512000A340B34116E1150D8A4F5
:101E280018EF0FF01AEF0FF024EF0FF0000E086E06
:101E3800000E096E000E0A6E000E0B6E91EF0FF089
:101E480008C50CF509C50DF50AC50EF50BC50FF546
:101E5800200E34EF0FF0D8900F320E320D320C32C4
:101E6800E82E2FEF0FF00C50106E0A8EFF0E08169A
:101E7800FF0E0916FF0E0A16000E0B16960E115EBF
:101E880011BE4BEF0FF049EF0FF061EF0FF011505B
:101E9800800A970FD8B053EF0FF055EF0FF057EFB8
:101EA8000FF01AEF0FF0D8900B320A3209320832CD
:101EB800113E57EF0FF079EF0FF01F0E116467EF27
:101EC8000FF069EF0FF071EF0FF01AEF0FF0D890E5
:101ED800083609360A360B3611061150D8A477EFA2
:101EE8000FF079EF0FF06BEF0FF01050D8B47FEFD1
:101EF8000FF081EF0FF089EF0FF00B1E0A1E091E7D
:101F0800086C000E09220A220B2208C508F509C52B
:101F180009F50AC50AF50BC50BF51200000E2114C8
:101F2800296E000E22142A6E800E23142B6E7F0E4B
:101F380024142C6E29502A102B102C10D8A4A7EF8B
:101F48000FF0A9EF0FF0B1EF0FF0000E216E000EA9
:101F5800226E000E236E000E246E000E2514296ECC
:101F6800000E26142A6E800E27142B6E7F0E28145E
:101F78002C6E29502A102B102C10D8A4C6EF0FF065
:101F8800C8EF0FF0D0EF0FF0000E256E000E266E92
:101F9800000E276E000E286E24AED5EF0FF0D7EF97
:101FA8000FF0E0EF0FF0216C221ED8B0222A231E7A
:101FB800D8B0232A800E245628AEE5EF0FF0E7EFBD
:101FC8000FF0F0EF0FF0256C261ED8B0262A271E3A
:101FD800D8B0272A800E2856000E211A000E221A81
:101FE800000E231A800E241A000E251A000E261A37
:101FF800000E271A800E281A2550215C26502258D8
:102008002750235828502458D8B00DEF10F00FEF60
:1020180010F012EF10F0D89013EF10F0D8801200E3
:10202800E3C5D9F4E4C5DAF45A0EDE18DE10D8B4E4
:1020380020EF10F022EF10F094EF10F0E3C5D9F480
:10204800E4C5DAF4DE50DE10D8A42DEF10F02FEF3F
:1020580010F031EF10F094EF10F07CEC2DF05A0EE8
:1020680008180910D8B43BEF10F03DEF10F050EF0E
:1020780010F0160E0501CE6FE60ECF6F900ED06FE2
:10208800F70ED16F030ED36F630ED26FE20ED46FCB
:10209800EF0ED56FFBEC2AF054EC28F0000E070188
:1020A800466F460E456F000E0501D66F000ED76FBE
:1020B800AA0EC1ECB4F0F6EC14F0000E0701466F5E
:1020C800320E456FE3C5D9F4E4C5DAF40A0EDE181A
:1020D800DE10D8A472EF10F074EF10F08EEF10F04D
:1020E80002D883EF10F00500FA6E0801C251FD6EA8
:1020F800C351FE6EC451FF6EFA50000E1200000E5E
:102108000B6E010E0A6EF6EC2BF0000E0701466FFF
:102118000A0E456FE3C5D9F4E4C5DAF4DE6ADD6A70
:102128001200090E0501D86FCE51CF11D8B49FEF18
:1021380010F0A1EF10F0F6EF10F0CEC5D9F4CFC52E
:10214800DAF4DE50DE10D8B4ACEF10F0AEEF10F0D9
:10215800F6EF10F0CEC5D9F4CFC5DAF4DEC4D2F567
:10216800DDC4D3F5D2C5D9F4D3C5DAF4DF50D8B479
:10217800C0EF10F0C2EF10F0F6EF10F0CEC5D9F4B2
:10218800CFC5DAF410EE06F0DE50E126DD50E2228B
:1021980020EE02F0CE51D926CF51DA22E650DE18D1
:1021A80007E1E650DE18D8A4DCEF10F0DEEF10F0FF
:1021B800F6EF10F0CEC5D9F4CFC5DAF410EE01F081
:1021C800DE50E126DD50E222E75095EC20F00501D3
:1021D800D26FD2B1F2EF10F0F4EF10F0F6EF10F08A
:1021E800000ED86FD851D8B4FCEF10F0FEEF10F005
:1021F80004EF11F0000ED66F000ED76F0CEF11F040
:10220800CEC5D9F4CFC5DAF4DEC4D6F5DDC4D7F52A
:10221800D0C5D9F4D1C5DAF4D6C5DEF4D7C5DDF416
:10222800D8511200000E096E000E086E90EC2CF0CA
:1022380008C50CF509C50DF50CC508F50DC509F55A
:1022480090EC2CF00CB02BEF11F02EEF11F0010EEA
:102258002FEF11F0000E0801626F0CB236EF11F08B
:1022680039EF11F0010E3AEF11F0000E636F0CB464
:1022780040EF11F043EF11F0010E44EF11F0000EA2
:10228800646F0CB64AEF11F04DEF11F0010E4EEFEE
:1022980011F0000E656F000E096E000E086E9DECC1
:1022A8002CF008C50CF509C50DF50CC508F50DC5CC
:1022B80009F59DEC2CF00CB064EF11F067EF11F00C
:1022C800010E68EF11F0000E0801666F0CB26FEF97
:1022D80011F072EF11F0010E73EF11F0000E676F3D
:1022E8000CB479EF11F07CEF11F0010E7DEF11F0D5
:1022F800000E686F0CB683EF11F086EF11F0010E37
:1023080087EF11F0000E696F0401435108016A6FED
:102318000401445108016B6F0401455108016C6FB9
:102328006D6B120096EC21F0000EC16E400EC96E66
:10233800C294CA94C08EC89EBE82C692000E020184
:10234800026FBE86C696000E046FBE88C698000E41
:10235800056FC18E000E206F04011391139313951E
:1023680010EC27F0000E086E000E096E000E0A6EC3
:10237800000E0B6E02D8CCEF11F00500FA6E0701C3
:10238800CE51FD6ECF51FE6ED051FF6EFA50120045
:10239800000E07014C6F000E4B6F4CBFDDEF11F0C4
:1023A8004C5109E1140E4B5DD8A0DDEF11F0DFEFC1
:1023B80011F0E8EF11F0F50E0501B46FF60EB56FE8
:1023C800E2EC2BF0E6EF11F0000E0501D76F000EDE
:1023D800D66F000ED96F010ED86F000EDB6F640E3A
:1023E800DA6FBCECBEF00501D651D711D8A4FFEFC7
:1023F80011F001EF12F003EF12F014EF12F0110ECA
:102408000501D16F3C0ED06FCB0EE82EFED7D02F32
:10241800FCD7D12FFAD707014B4B4C2BD1EF11F03A
:10242800120009C712F50AC713F50BC714F50CC734
:1024380015F508C512F509C513F50AC514F50BC538
:1024480015F512C50CF513C50DF514C50EF515C512
:102458000FF5180E35EF12F0D8900F320E320D32FC
:102468000C32E82E30EF12F00C50106E116A10503A
:102478001110D8A442EF12F044EF12F064EF12F0FA
:10248800D89012340C6E13340D6E14340E6E15344D
:102498000F6E0C500D100E100F10D8A456EF12F03E
:1024A80058EF12F05EEF12F0000E096E020E086E81
:1024B80093EF12F0000E096E030E086E93EF12F000
:1024C80010281110D8A46BEF12F06DEF12F08FEFF7
:1024D80012F012C50CF513C50DF514C50EF515C58A
:1024E8000FF5090ED8900C360D360E360F36E82E3D
:1024F80076EF12F00C500D100E100F10D8B487EFB5
:1025080012F08AEF12F0010E8BEF12F0000E086E37
:10251800096A93EF12F0000E096E040E086E12009D
:1025280007014D514E11D8A49CEF12F09EEF12F006
:10253800A0EF12F011EF13F002D8ADEF12F0050082
:10254800FA6EC851FD6EC951FE6ECA51FF6EFA503F
:102558001200D8A0B2EF12F0B4EF12F0B6EF12F0FA
:1025680011EF13F002D8C5EF12F00500FA6E07015B
:10257800D451FD6ED551FE6ED651FF6EFA50000E45
:1025880012006A0EE82EFED700D002D8D7EF12F05C
:102598000500FA6E0701C851FD6EC951FE6ECA5199
:1025A800FF6EFA501200D8A0DCEF12F0DEEF12F046
:1025B800EFEF12F002D8EDEF12F00500FA6E070106
:1025C800D451FD6ED551FE6ED651FF6EFA50010EF4
:1025D800120011EF13F0000E07014E6F000E4D6F41
:1025E800000E0B6E010E0A6EF6EC2BF092EC2DF03D
:1025F800000E0B6E000E0A6EF6EC2BF002D811EFEF
:1026080013F00500FA6E0701D451FD6ED551FE6E28
:10261800D651FF6EFA50010E12001200C4C6C8F659
:10262800C5C6C9F6C80E086E060E096EB4ECF5F0FC
:1026380008C5CCF609C5CDF60601CDBF28EF13F0C5
:1026480026EF13F02BEF13F00B0E8EEF13F0D8904C
:10265800CC35D96ECD35DA6E510ED926070EDA2271
:10266800DEC4CAF6DDC4CBF6CA51CB11D8B43FEFED
:1026780013F041EF13F051EF13F0D890CC35D96E29
:10268800CD35DA6E510ED926070EDA22DE6ADD6AFA
:10269800CAC6D9F4CBC6DAF4DF6AC251C311D8B4BA
:1026A80058EF13F05AEF13F074EF13F020EE01F027
:1026B800C251D926C351DA22CCC6DFF4C2C6D9F436
:1026C800C3C6DAF4DF6AD890CC35D96ECD35DA6E68
:1026D800510ED926070EDA22C2C6DEF4C3C6DDF4CF
:1026E800C651D8A47AEF13F07CEF13F07FEF13F004
:1026F800000E8EEF13F0C40E946F060E956FC20E87
:10270800966F060E976F000E986F03EC96F0060111
:10271800C76FC7511200000E0D6E000E0C6E080137
:102728006251D8A49AEF13F09DEF13F0010E9EEFBB
:1027380013F0000E0C126351D8A4A5EF13F0A7EF05
:1027480013F0A9EF13F0AAEF13F00C826451D8A488
:10275800B0EF13F0B2EF13F0B4EF13F0B5EF13F0DE
:102768000C846551D8A4BBEF13F0BDEF13F0BFEF95
:1027780013F0C0EF13F00C860CC508F50DC509F56C
:1027880090EC2CF0000E0D6E000E0C6E08016651D8
:10279800D8A4D1EF13F0D4EF13F0010ED5EF13F056
:1027A800000E0C126751D8A4DCEF13F0DEEF13F023
:1027B800E0EF13F0E1EF13F00C826851D8A4E7EFD3
:1027C80013F0E9EF13F0EBEF13F0ECEF13F00C84D8
:1027D8006951D8A4F2EF13F0F4EF13F0F6EF13F009
:1027E800F7EF13F00C860CC508F50DC509F59DEC3F
:1027F8002CF06AC843F46BC844F46CC845F46AC842
:1028080043F46BC844F46CC845F412002C0E08015C
:10281800DA6F430EDB6F000EDC6FA00ED76F520E1F
:10282800D86F000ED96F6A0ED46F5A0ED56F000E8E
:10283800D66F0C0ED16F5B0ED26F000ED36F860E63
:102848000701E66F3D0EE76F000EE86F720EE36F4B
:102858003C0EE46F000EE56F2E0EE06FE30EE16FA5
:10286800010EE26F3A0E0801CE6F5B0ECF6F000EBD
:10287800D06F000ECB6F000ECC6F000ECD6F360EF2
:10288800C86F5B0EC96F000ECA6F140E0701DD6FAB
:102898005B0EDE6F000EDF6F1C0EDA6F5B0EDB6FF8
:1028A800000EDC6FB80ED76F590ED86F000ED96FB7
:1028B800000E0801C56F000EC66F000EC76FA00E90
:1028C8000601EF6F590EF06F000EF16F420E07010F
:1028D800D46F5A0ED56F000ED66F160E0801C26F50
:1028E8005A0EC36F000EC46F2C0E0701D16F5A0E1B
:1028F800D26F000ED36F1200000E116E0BBE89EF5F
:1029080014F087EF14F093EF14F00B1E0A1E091E43
:10291800086C000E09220A220B22010E116E0FBE4E
:102928009AEF14F098EF14F0A2EF14F00F1E0E1E99
:102938000D1E0C6C000E0D220E220F220C500D10D5
:102948000E100F10D8B4ABEF14F0ADEF14F0DDEFAC
:1029580014F0010E106EB7EF14F0D8900C360D3647
:102968000E360F36102A0FAEBCEF14F0BEEF14F07F
:10297800B1EF14F00C50085C0D5009580E500A586D
:102988000F500B58D8A0CBEF14F0CDEF14F0D5EFC3
:1029980014F00C50085E0D50095A0E500A5A0F5088
:1029A8000B5AD8900F320E320D320C32102EBEEF69
:1029B80014F01150D8B4E3EF14F0E5EF14F0EDEF94
:1029C80014F00B1E0A1E091E086C000E09220A22AA
:1029D8000B2208C508F509C509F50AC50AF50BC58E
:1029E8000BF51200C7EC24F094EC24F007016A51AF
:1029F8006B11D8A402EF15F004EF15F05BEF15F09A
:102A0800EBC622F5ECC623F5E7EC28F007016C517C
:102A1800D8B411EF15F013EF15F038EF15F00601E3
:102A2800EB51286EEC51296E2A6A2B6A29C52BF5C1
:102A380028C52AF5296A286A0B0E28241A6E000E62
:102A480029201B6E000E2A201C6E000E2B201D6EE6
:102A5800240E1E6EE50E1F6E000E216E030E206EF4
:102A680016EC21F05BEF15F00601EB51286EEC51E6
:102A7800296E2A6A2B6A29C52BF528C52AF5296AE1
:102A8800286A0B0E28241A6E000E29201B6E000ED1
:102A98002A201C6E000E2B201D6E270E1E6EE50EC2
:102AA8001F6E000E216E030E206E16EC21F007013A
:102AB80049514A11D8B463EF15F065EF15F069EF85
:102AC80015F0000E4E6F010E4D6F12009BC6CEF52D
:102AD8009CC6CFF59F0E0501D06F060ED16F95EC01
:102AE80010F00601A16FA151D8A47DEF15F07FEF7A
:102AF80015F0DBEF15F09D519E11D8A486EF15F067
:102B080088EF15F09AEF15F09BC650F69CC651F663
:102B1800000E526F000E536F000E546F000E556F6B
:102B280084ECD5F00601A16FDBEF15F09BC68EF69D
:102B38009CC68FF6000E916F000E906F6FECF2F04E
:102B48000601A16F040EA119D8A4ADEF15F0AFEFDF
:102B580015F0B1EF15F0000EA16FA151D8A4B7EF91
:102B680015F0B9EF15F0DBEF15F09BC615F59CC60F
:102B780016F59DC617F59EC618F548ECEAF09BC6F3
:102B880074F69CC675F6000E0601776F000E766F18
:102B9800F3ECC9F00601A16F040EA119D8A4D7EF70
:102BA80015F0D9EF15F0DBEF15F0000EA16FA1516C
:102BB80012009AC6D9F49BC6DAF4DEC49CF6DDC4CA
:102BC8009DF69AC68EF69BC68FF6000E0601916F8B
:102BD800010E906FDDEC09F006019E6F9E51D8A49E
:102BE800F8EF15F0FAEF15F04CEF16F09CC62BF63F
:102BF8009DC62CF620EE16F09A51D9269B51DA2262
:102C0800DEC42DF6DEC42EF6DEC42FF6DEC430F6A2
:102C1800C2EC18F006019E6F9E51D8A416EF16F06C
:102C280018EF16F04CEF16F020EE1AF09A51D9264C
:102C38009B51DA22DEC408F5DDC409F5000E0B6EDF
:102C4800000E0A6E000E0D6E200E0C6E83EC03F063
:102C5800060120EE1AF09A51D9269B51DA22DEC4D9
:102C680008F5DDC409F51C0E9A250A6E000E9B2195
:102C78000B6E000E0D6E0B0E0C6EDDEC27F00601D0
:102C880020EE04F09C51D9269D51DA22010EDF6E08
:102C98009E5112000A6E590EF66EDD0EF76E000E8A
:102CA800F86E0900F5500A5CD8A05DEF16F05FEFEA
:102CB80016F0B9EF16F05A0EF66EDD0EF76E000E2E
:102CC800F86E0A500900F55CD8A06DEF16F06FEFAA
:102CD80016F075EF16F0000E096E010E086EBDEFC6
:102CE80016F05B0EF66EDD0EF76E000EF86E09003C
:102CF800F5500A5CD8A083EF16F085EF16F097EF31
:102D080016F05C0EF66EDD0EF76E000EF86E0A50C9
:102D18000900F55CD8A093EF16F095EF16F097EF41
:102D280016F06FEF16F05D0EF66EDD0EF76E000E04
:102D3800F86E0900F5500A5CD8A0A5EF16F0A7EFC9
:102D480016F0B9EF16F05E0EF66EDD0EF76E000E99
:102D5800F86E0A500900F55CD8A0B5EF16F0B7EF89
:102D680016F0B9EF16F06FEF16F0000E096E000EB0
:102D7800086E120052505310D8A4C5EF16F0C7EFD2
:102D880016F0CDEF16F052C51AF553C51BF5D3EF63
:102D980016F0FF0E52241A6EFF0E53201B6E58A019
:102DA800D8EF16F0DAEF16F0E3EF16F016C50BF5CC
:102DB8000C6A14C50DF515C50EF528EC19F01BBEE7
:102DC800E8EF16F0EAEF16F0ECEF16F0F0EF16F079
:102DD800000E1B6E000E1A6E000E196E000E186E95
:102DE80002EF17F0000E0C6E200E0B6E14C50DF5D9
:102DF80015C50EF528EC19F0184A192A1A50185C4E
:102E08001950800A176E1B50800A1758D8A00FEF68
:102E180017F011EF17F0F6EF16F058B016EF17F09D
:102E280018EF17F021EF17F016C50BF50C6A14C54B
:102E38000DF515C50EF528EC19F0010E1824146EC1
:102E4800000E1920156E120008C510F509C511F5F8
:102E58000AC512F50BC513F539EF17F00C06D8A003
:102E68000D06104A112A124A132A0C500D10D8B414
:102E780040EF17F042EF17F061EF17F010C5D9F4E3
:102E880011C5DAF4DF500E6E12C5F6F413C5F7F467
:102E9800000EF86E250EF76403D00800F55005D033
:102EA800F6C4E9F4F7C4EAF4EF500E18D8B45FEFAB
:102EB80017F061EF17F032EF17F00C500D10D8A48F
:102EC80068EF17F06AEF17F070EF17F0000E096E51
:102ED800000E086E8EEF17F010C5D9F411C5DAF49C
:102EE800DF500E6E12C5F6F413C5F7F4000EF86E37
:102EF800250EF76403D00800F55005D0F6C4E9F4B0
:102F0800F7C4EAF4EF500F6E0F500E5C086E096AB2
:102F1800D8A009061200000E166E000E156E0EC51A
:102F2800D9F40FC5DAF4DEC4F6F4DDC4F7F4000E04
:102F3800F86E0800F5502A0AD8A4A5EF17F0A7EFF5
:102F480017F0DBEF17F00EC5D9F40FC5DAF4DE2A57
:102F5800000EDD2210C5D9F411C5DAF4DFC412F56C
:102F6800020EDE26DFC413F5000EDD2212C5D9F4E9
:102F780013C5DAF4DEC415F5DDC416F5F1EF17F064
:102F880015C508F516C509F5000E0B6E0A0E0A6E72
:102F980009EC2CF014500824156E000E0920166E4A
:102FA8000EC5D9F40FC5DAF4DE2A000EDD220EC5EF
:102FB800D9F40FC5DAF4DEC4F6F4DDC4F7F4000E74
:102FC800F86E0800F550D00F146E090E1464EFEF78
:102FD80017F0F1EF17F0C4EF17F015C50EF516C589
:102FE8000FF51200400EF66E510EF76E000EF86ED9
:102FF80002EE72F010EE47F00900F5C4EEF4E55069
:10300800E150FAE1000EF66E5A0EF76E000EF86EF9
:1030180001EEE9F310EE16F00900F5C4EEF4E55000
:10302800E150FAE103EE00F014EEFCF0EE6AE55030
:10303800E150FCE1E250FAE102EE00F310EE00F19B
:10304800EE6AE550E150FCE1E250FAE102EE00F2EE
:1030580010EE00F1EE6AE550E150FCE1E250FAE1D1
:1030680002EE00F1D00EEE6AE806FDE102EE00F095
:10307800720EEE6AE806FDE101EE00F3800EEE6ADC
:10308800E806FDE101EEE5F20A0EEE6AE806FDE16A
:1030980001EE52F1070EEE6AE806FDE10401080EA2
:1030A8005D6F000E5E6F000E5F6F00017AEFFEF03D
:1030B800020E165E000E175A185A195A20EE14F00E
:1030C8001450D9261550DA22FE0EDE241A6EFF0E91
:1030D800DE201B6EFF0EDE201C6EFF0EDE201D6E36
:1030E8001A50165C1B5017581C5018581D50195868
:1030F800D8A081EF18F083EF18F08DEF18F0000ECC
:10310800146E000E156E000E166E000E176EC1EFCF
:1031180018F020EE28F01450D9261550DA22DEC413
:103128001AF5DEC41BF5DEC41CF5DEC41DF520EE61
:103138000AF01450D9261550DA22DEC41EF5DDC473
:103148001FF51EC508F51FC509F50A6A0B6A16C5DD
:103158000CF517C50DF518C50EF519C50FF55FEC7B
:1031680024F01A500824146E1B500920156E1C50A8
:103178000A20166E1D500B20176E1200000E060155
:10318800356F20EE2CF02B51D9262C51DA222D51F7
:10319800DE180FE12E51DE180CE12F51DE1809E17F
:1031A8003051DE18D8B4DBEF18F0DDEF18F026EF59
:1031B80019F02BC619F62CC61AF683ECF6F00601A0
:1031C800356F3551D8A4EBEF18F0EDEF18F026EF76
:1031D80019F0300E2B250F6F000E2C21106F2DC605
:1031E80011F62EC612F62FC613F630C614F6000EC8
:1031F800166F010E156F20EE01F02B51D9262C51B8
:10320800DA22DF50B1ECFDF00009D8B40EEF19F066
:1032180010EF19F017EF19F006012D692E692F69C3
:103228003069010E356F060120EE2CF02B51D9269E
:103238002C51DA222DC6DEF42EC6DEF42FC6DEF4BB
:1032480030C6DEF4355112000D500E10D8B42FEFF1
:1032580019F031EF19F03AEF19F00D500E10D8A40B
:1032680038EF19F03AEF19F03FEF19F00B50B7ECBF
:103278002CF08CEF19F020EE0AF00D50D9260E50E4
:10328800DA22DE50DE10D8B44CEF19F04EEF19F008
:1032980069EF19F020EE0AF00D50D9260E50DA2207
:1032A80010EE03F00D50E1260E50E222DE50E65CEF
:1032B800E650800A136EDE50800A1358D8B067EFC4
:1032C80019F069EF19F08CEF19F020EE03F00D50AA
:1032D800D9260E50DA22DEC40FF5DDC410F50DC56F
:1032E800D9F40EC5DAF4DEC411F5DDC412F50F50B9
:1032F8001124D96E10501220DA6E0BC5DFF420EEBF
:1033080003F00D50D9260E50DA22DE2A000EDD22F7
:1033180012000AC513F50BC514F50C501324116ED1
:103328000D501420126EDFEF19F0085009C50EF584
:103338000F6E0E50086E0FC509F513C5D9F414C5E4
:10334800DAF4DF500E6E0E50081A134A142A08C514
:103358000EF509C50FF5040E106ED8900F320E3217
:10336800102EB1EF19F00F0E0E16000E0F160E509C
:10337800081A0F50091A08C50EF509C50FF50C0EE5
:10338800D8900E360F36E82EC4EF19F00E50081AF2
:103398000F50091AFF0E08140E6E000E09140F6E56
:1033A800050ED8900E360F36E82ED5EF19F00E50D0
:1033B800081A0F50091A1150135C12501458D8A04B
:1033C800E8EF19F0EAEF19F099EF19F008C508F5D8
:1033D80009C509F5120058A0F4EF19F0F6EF19F035
:1033E80000EF1AF01DC514F51EC515F51BC516F519
:1033F8001CC517F594EC29F020BE05EF1AF007EF6D
:103408001AF00DEF1AF01FC524F520C525F511EFA8
:103418001AF0000E256E000E246E000E236E000EAC
:10342800226E23EF1AF0000E0C6E200E0B6E1BC5D9
:103438000DF51CC50EF528EC19F0224A232A245054
:10344800225C2350800A216E2550800A2158D8A07A
:1034580030EF1AF032EF1AF017EF1AF058B037EFD2
:103468001AF039EF1AF043EF1AF01DC514F51EC50E
:1034780015F51BC516F51CC517F594EC29F01DC5E7
:1034880008F51EC509F505EC28F0245008241B6E24
:10349800255009201C6E120050EC29F0010E020183
:1034A800616F000E626F1E0E636F050E656F0E0E64
:1034B800676F010E056F020E046F030E206F000E7A
:1034C8000001D56F000ED86F020ED96F040EDA6FA7
:1034D8007F0EDB6F010EDC6F080EDD6F100EDE6FE6
:1034E800400EDF6F800ED76F820ED66F010ED56F3C
:1034F800000ED86F020ED96F040EDA6F7F0EDB6FE5
:10350800010EDC6F080EDD6F200EDE6F400EDF6FE0
:10351800800ED76F820ED66F020ED56F010ED86F50
:10352800060ED96F7F0EDA6F7F0EDB6F010EDC6F30
:10353800080EDD6F000EDE6F000EDF6F800ED76F96
:103548008C0ED66F000ED46FB59AA59AC280C2822F
:1035580012000501D36F010E0501D46FC6EF1AF0F2
:10356800000ED46FE7EF1AF0E20EB46FEA0EB56FF3
:10357800D3C5B6F5B76BCEC5B8F5B96BE2EC2BF091
:10358800E7EF1AF0CE51D16FD26BD251000AD8B4FE
:10359800D0EF1AF0B8EF1AF0D151000AD8B4B4EF4E
:1035A8001AF0010AD8B4B8EF1AF0030AD8B4B8EF81
:1035B8001AF0010AD8B4B8EF1AF0070AD8B4B8EF6D
:1035C8001AF0B8EF1AF00601E951EA11D8B4EFEF92
:1035D8001AF0F1EF1AF007EF1BF0A60E0501B46F11
:1035E800E80EB56FD3C5B6F5B76BCEC5B8F5B96BF0
:1035F800CFC5BAF5D0C5BBF5BC6BBD6BD4C5BEF5A0
:10360800BF6BE2EC2BF00501D451120020EE03F061
:103618000850D9260950DA22DF500C6E0C50116E72
:10362800126A136A146A20EE02F00850D92609506B
:10363800DA22DF500C6E0C5011C50EF512C50FF5CD
:1036480013C510F50D6A0D10116E0E50126E0F5045
:10365800136E1050146E20EE01F00850D926095050
:10366800DA22DF500C6E0C5011C50EF512C50FF59D
:1036780013C510F50D6A0D10116E0E50126E0F5015
:10368800136E1050146E08C5D9F409C5DAF4DF506A
:103698000C6E0C5011C50EF512C50FF513C510F5BB
:1036A8000D6A0D10116E0E50126E0F50136E1050E1
:1036B800146E11C508F512C509F513C50AF514C528
:1036C8000BF51200256E00C72DF501C72EF5255004
:1036D8004009266E22C527F521C528F520C529F5FC
:1036E8001FC52AF5260E086E050E096E000E0B6E14
:1036F800050E0A6E12EC20F001092B6E2DC50CF593
:103708002EC50DF550EC2CF02DC512F52EC513F570
:10371800000E156E010E146E8AEC26F02DC508F504
:103728002EC509F5260E0A6E050E0B6E000E0D6EDF
:10373800060E0C6EEFEC1DF002C719F503C71AF55B
:10374800FF0E2DEC29F02C6E23C5D9F424C5DAF42C
:103758002CC5DFF42C28D8A4B4EF1BF0B6EF1BF06F
:10376800BCEF1BF0000E206E010E1F6EC0EF1BF0A9
:10377800000E206E000E1F6E12000701F129F211D3
:10378800D8B4C9EF1BF0CBEF1BF0CDEF1BF094ECD6
:1037980024F02650286E2750296E2A6A2B6A29C5DC
:1037A8002BF528C52AF5296A286A660E28241A6E78
:1037B800000E29201B6E000E2A201C6E000E2B20E6
:1037C8001D6E760E1E6E070E1F6E000E216E030E06
:1037D800206E56EC21F02650286E2750296E2A6A52
:1037E8002B6A29C52BF528C52AF5296A286A660E89
:1037F80028241A6E000E29201B6E000E2A201C6E2B
:10380800000E2B201D6E7F0E1E6EE40E1F6E000E26
:10381800216E030E206E16EC21F026C5F1F727C5A0
:10382800F2F71200000E0814106E000E0914116E43
:10383800800E0A14126E7F0E0B14136E10501110A6
:1038480012101310D8A42BEF1CF02DEF1CF035EF3D
:103858001CF0000E086E000E096E000E0A6E000EB7
:103868000B6E000E0C14106E000E0D14116E800EEF
:103878000E14126E7F0E0F14136E105011101210CA
:103888001310D8A44AEF1CF04CEF1CF054EF1CF0B6
:10389800000E0C6E000E0D6E000E0E6E000E0F6EFA
:1038A8000C5008180FE10D5009180CE10E500A18B9
:1038B80009E10F500B18D8B464EF1CF066EF1CF048
:1038C80069EF1CF0D8906AEF1CF0D8801200000E47
:1038D800106E000E116E000E126E000E136E0C505C
:1038E8000D100E100F10D8B47CEF1CF07EEF1CF0FA
:1038F800B4EF1CF0010E146E88EF1CF0D8900C3653
:103908000D360E360F36142A0FAE8DEF1CF08FEFE2
:103918001CF082EF1CF0D890103611361236133690
:103928000C50085C0D5009580E500A580F500B588F
:10393800D8A0A1EF1CF0A3EF1CF0ACEF1CF00C50CA
:10394800085E0D50095A0E500A5A0F500B5A108033
:10395800D8900F320E320D320C32142E8FEF1CF02D
:1039680010C508F511C509F512C50AF513C50BF5FB
:1039780012000701F329F411D8A4C5EF1CF0C7EF12
:103988001CF0DAEF1CF03C0E0501CE6FEC0ECF6F89
:103998008B0ED06FF50ED16F000ED36FC00ED26FA5
:1039A800880ED46FF30ED56FFBEC2AF0F3C72AF517
:1039B800F4C72BF5000E2D6EB70E2C6E16EC2AF000
:1039C8000701F3510501D66F0701F4510501D76FBF
:1039D800D86BD96BD7C5D9F5D6C5D8F5D76BD66B03
:1039E800D6C51AF5D7C51BF5D8C51CF5D9C51DF51B
:1039F800140E1E6EE30E1F6E000E216EB70E206EA3
:103A080016EC21F0000E0701306F000E2F6F120028
:103A18000A6E550EF66EDD0EF76E000EF86E090092
:103A2800F5500A5CD8A01BEF1DF01DEF1DF055EFF7
:103A38001DF0560EF66EDD0EF76E000EF86E0A508B
:103A48000900F55CD8A02BEF1DF02DEF1DF033EF2A
:103A58001DF0000E096E010E086E59EF1DF0570E8D
:103A6800F66EDD0EF76E000EF86E0900F5500A5C72
:103A7800D8A041EF1DF043EF1DF055EF1DF0580E93
:103A8800F66EDD0EF76E000EF86E0A500900F55C52
:103A9800D8A051EF1DF053EF1DF055EF1DF02DEF9D
:103AA8001DF0000E096E000E086E120015C7B8F65C
:103AB80016C7B9F617C7BAF618C7BBF6B4C6D9F40D
:103AC800B5C6DAF4DE50DE10D8B46DEF1DF06FEF36
:103AD8001DF095EF1DF0B4C6D9F4B5C6DAF4DEC40E
:103AE800B6F6DDC4B7F6B6C6D9F4B7C6DAF4DF5011
:103AF800D8B481EF1DF083EF1DF095EF1DF0B4C62B
:103B0800D9F4B5C6DAF4DEC438F5DDC439F53EECCF
:103B1800ECF038C5B8F639C5B9F63AC5BAF63BC5BA
:103B2800BBF6BAC6CEF5BBC6CFF5FEEC0DF0B8C6EF
:103B380066F7B9C667F7000E0601B36F010EB26FDC
:103B48001200516E0701FE51D8B4ADEF1DF0AFEF72
:103B58001DF0BAEF1DF0AA0E5118D8B4B6EF1DF03B
:103B6800B8EF1DF0BAEF1DF0EEEF1DF0AA0E5118D8
:103B7800D8A4C1EF1DF0C3EF1DF0C7EF1DF0000E74
:103B8800FE6FEEEF1DF051ACCCEF1DF0CEEF1DF047
:103B9800DAEF1DF0FD0E0501B46FF00EB56F000EE3
:103BA800B76FA00EB66FE2EC2BF0FF0051AEDFEF5F
:103BB8001DF0E1EF1DF0EEEF1DF0670E0501B46F8B
:103BC800F10EB56F000EB76FA00EB66FE2EC2BF0DA
:103BD800ECEF1DF012000AC510F50BC511F50C50DD
:103BE8000D10D8A4FAEF1DF0FCEF1DF0FEEF1DF04C
:103BF80038EF1EF00D500001836F0CC582F010C520
:103C0800D9F411C5DAF4DF50816F104A112A000E79
:103C18000F6E010E0E6E24EF1EF010C5D9F411C5FB
:103C2800DAF4DF50816F104A112AB1A01EEF1EF09E
:103C380020EF1EF019EF1EF0000180510E4A0F2AE6
:103C48000C500E5C0D500F58D8A02DEF1EF02FEF22
:103C58001EF011EF1EF0B1A034EF1EF036EF1EF08B
:103C68002FEF1EF00001805112000EC518F50FC588
:103C780019F519C5C1F418C5BFF4000E176E000E6A
:103C8800166E72EF1EF0BE9816501024146E175060
:103C98001120156E14C5F6F415C5F7F4000EF86E6C
:103CA800250EF76404D0D0C4F5F40C0006D0F6C491
:103CB800E9F4F7C4EAF4D0C4EFF4BE88182A18C5AA
:103CC800BFF41850D8A46BEF1EF06DEF1EF070EF24
:103CD8001EF0192A19C5C1F4164A172A1250165C83
:103CE80013501758D8A07BEF1EF07DEF1EF047EF5A
:103CF8001EF01200D69E070143514411D8B487EF35
:103D08001EF089EF1EF0AAEF1EF0B00E4125D96E05
:103D18000A0E4221DA6EDF500E6E010E4125086E42
:103D2800000E4221096E000E0B6E500E0A6EC4EC96
:103D380025F008C541F709C542F707014307D8A090
:103D48004407A780D68E0E50C2EF1EF04D514E117B
:103D5800D8B4B1EF1EF0B3EF1EF0B7EF1EF0D68E59
:103D6800000EC2EF1EF0D68E150E0D6EC60EE82E92
:103D7800FED70D2EFCD700D07EEF1EF012000EC528
:103D880018F50FC519F519C5C1F418C5BFF4000E0B
:103D9800176E000E166EFBEF1EF0BE96165010241E
:103DA800146E17501120156E14C5F6F415C5F7F4E6
:103DB800000EF86E250EF76403D00800F55005D004
:103DC800F6C4E9F4F7C4EAF4EF50C06EBE86182AC8
:103DD80018C5BFF41850D8A4F4EF1EF0F6EF1EF083
:103DE800F9EF1EF0192A19C5C1F4164A172A1250FC
:103DF800165C13501758D8A004EF1FF006EF1FF0F9
:103E0800D1EF1EF012000C500D100E100F10D8B488
:103E180010EF1FF012EF1FF042EF1FF0010E106EAF
:103E28001CEF1FF0D8900C360D360E360F36102AC0
:103E38000FAE21EF1FF023EF1FF016EF1FF00C500D
:103E4800085C0D5009580E500A580F500B58D8A04E
:103E580030EF1FF032EF1FF03AEF1FF00C50085E02
:103E68000D50095A0E500A5A0F500B5AD8900F325B
:103E78000E320D320C32102E23EF1FF008C508F554
:103E880009C509F50AC50AF50BC50BF512000AECB8
:103E980014F0020E0801BF6F5B0EC06F000EC16FF9
:103EA8002C0EDA6F230EDB6F000EDC6F5A0EBC6F20
:103EB800500EBD6F000EBE6FA00ED76F340ED86FB8
:103EC800000ED96F6A0E0701CE6F540ECF6F000E29
:103ED800D06FC00ECB6F560ECC6F000ECD6FD00ECC
:103EE800C86F590EC96F000ECA6F380E0801B96F36
:103EF800580EBA6F000EBB6F3E0E0701C56F5B0E02
:103F0800C66F000EC76F540ED16F590ED26F000ED8
:103F1800D36F1200EBC5CEF5ECC5CFF5EDC5D0F5E6
:103F2800EEC5D1F5EFC5D2F5F0C5D3F5D5EC07F060
:103F3800000E0501F56FEDC5F1F5EEC5F2F5000EC1
:103F4800F46F000EF36FB3EF1FF0F1C5D9F4F2C5AB
:103F5800DAF4DF50F527F14BF22BF34BF42BEF514A
:103F6800F35DF051F459D8A0BCEF1FF0BEEF1FF07D
:103F7800A9EF1FF0490EB46FF20EB56FEBC5B6F599
:103F8800ECC5B7F5FC0EB86FEE0EB96FF5C5BAF50E
:103F9800BB6BE2EC2BF012000701F329F411D8B443
:103FA800D8EF1FF0DAEF1FF0DCEF1FF0C7EC24F0BA
:103FB8002EC52AF52FC52BF5000E2D6EA60E2C6EDC
:103FC80016EC2AF02E50306E2F50316E326A336A5A
:103FD80031C533F530C532F5316A306A660E3024A2
:103FE8001A6E000E31201B6E000E32201C6E000E61
:103FF80033201D6E7F0E1E6EE40E1F6E000E216EA6
:104008002A0E206E16EC21F02EC5F3F72FC5F4F713
:10401800000E0701306F010E2F6F1200000E106E98
:1040280008C511F509C512F50A5011240C6E0B507C
:1040380012200D6E47EF20F011C5D9F412C5DAF43D
:10404800DF50101A114A122A000E0F6E000E0E6E63
:1040580010AE31EF20F033EF20F035EF20F0890E6D
:10406800101AD89010360E4A0F2A0FBE45EF20F0CE
:104078000F5009E1080E0E5CD8A045EF20F047EF7D
:1040880020F02CEF20F00C50115C0D501258D8A0E5
:1040980050EF20F052EF20F020EF20F010501200E7
:1040A80007015451D8B45BEF20F05DEF20F094EF96
:1040B80020F02AC52CF5010E2D6E000E2E6E2C2A2E
:1040C80069EF20F0D8902D362E362C2E66EF20F092
:1040D80007012B512D162C512E162D502E10D8A419
:1040E80078EF20F07AEF20F094EF20F02AC522F53F
:1040F8002BC523F5E7EC28F02AC52CF5010E2D6E0B
:10410800000E2E6E2C2A8CEF20F0D8902D362E36ED
:104118002C2E89EF20F02D5007012B132E502C1335
:104128001200516E5150D8B49CEF20F09EEF20F051
:10413800B2EF20F00601E951EA11D8B4A6EF20F059
:10414800A8EF20F0AFEF20F0C10E0501B46FF20E1A
:10415800B56FE2EC2BF0020ED5EF20F00701E9294C
:104168000AE1EA2908E1EB2906E1EC29D8A4BFEF26
:1041780020F0C1EF20F0D4EF20F00601E951EA1158
:10418800D8B4C9EF20F0CBEF20F0AFEF20F0EB0E62
:104198000501B46FF40EB56FE2EC2BF0AFEF20F031
:1041A800000E12001A0E1124086E000E1220096E5D
:1041B8008BEC2AF008C517F509C518F5196A1A6AAB
:1041C8000FC5D9F410C5DAF4030EDE18D8A4EFEF42
:1041D80020F0F1EF20F00DEF21F0140E1124086EFD
:1041E800000E1220096E8BEC2AF00850136E09504D
:1041F800146E156A166A14C516F513C515F5146AF2
:10420800136A135017121450181215501912165019
:104218001A1217C50FF518C510F519C511F51AC5E5
:1042280012F512001AC510F51BC511F51CC512F5BB
:104238001DC513F502D82CEF21F00500FA6E070111
:10424800CB51FD6ECC51FE6ECD51FF6EFA5012006F
:1042580002D83BEF21F00500FA6E0701DA51FD6E36
:10426800DB51FE6EDC51FF6EFA50000E12001AC5CB
:104278000EF51BC50FF51EC510F51FC511F520C598
:1042880012F521C513F502D855EF21F00500FA6E95
:104298000701E651FD6EE751FE6EE851FF6EFA50D8
:1042A800120012001AC510F51BC511F51CC512F530
:1042B8001DC513F502D86CEF21F00500FA6E070151
:1042C800CB51FD6ECC51FE6ECD51FF6EFA501200EF
:1042D80002D87BEF21F00500FA6E0701DA51FD6E76
:1042E800DB51FE6EDC51FF6EFA50FF0E12001AC54C
:1042F8000EF51BC50FF51EC510F51FC511F520C518
:1043080012F521C513F502D895EF21F00500FA6ED4
:104318000701E351FD6EE451FE6EE551FF6EFA5060
:1043280012001200080E0001B16F000E0401006FA8
:10433800000E086F000E106F000E186F209120936A
:104348002095000E086F000E106F000E186FC292B5
:10435800CA92010E0201D56FA00ED46FD189D18BFC
:10436800C68E070E766FBE8CC69C260E076FD28F40
:10437800C290CA90000EBF6E000EC76E000EC06ECF
:10438800000EC86E3F0E036FC694540E0401436FAF
:10439800550E446F050E456F000E476F4691468FC8
:1043A800120010C5F6F411C5F7F4000EF86E0800F7
:1043B800F5500C6E0D6AA7EC2AF00CC517F50DC563
:1043C80018F5104A112A12C5D9F413C5DAF4DF50CA
:1043D800146E14500C6E0D6AA7EC2AF00CC515F576
:1043E8000DC516F5124A132A1550171807E116506D
:1043F8001818D8A402EF22F004EF22F00DEF22F0F3
:1044080017501810D8A40BEF22F00DEF22F0D5EFBB
:1044180021F01550175C106E16501858116E1200C6
:10442800376E00C738F501C739F533C53CF534C5D3
:104438003DF52FC51FF530C520F531C521F532C52D
:1044480022F53CC523F53DC524F5375066EC1BF035
:104458001FC53AF520C53BF53A503B10D8B437EFA5
:1044680022F039EF22F03DEF22F0B9EC2BF051EFBA
:1044780022F038C508F539C509F5010E3C240A6E45
:10448800000E3D200B6EFF0E35240C6EFF0E3620FD
:104498000D6E49ECD7F0B9EC2BF012000701F329A7
:1044A800F411D8B45AEF22F05CEF22F05EEF22F05C
:1044B800C7EC24F02EC52AF52FC52BF5000E2D6E5E
:1044C800B70E2C6E16EC2AF02E50306E2F50316E2F
:1044D800326A336A31C533F530C532F5316A306A2C
:1044E80030C51AF531C51BF532C51CF533C51DF5A8
:1044F800140E1E6EE30E1F6E000E216EB70E206E98
:1045080016EC21F02EC5F3F72FC5F4F7000E0701BE
:10451800306F000E2F6F120007015451D8B497EF77
:1045280022F099EF22F0C0EF22F0730E0501B46F6C
:10453800F00EB56FE5C6B6F5E6C6B7F5E7C6B8F549
:10454800E8C6B9F5E2EC2BF0E5C633F6E6C634F674
:10455800E7C635F6E8C636F67F0E0601376F070E52
:10456800386F000E3A6F010E396F1FECF8F0000E2D
:104578000701546FC7EF22F0790E0501B46FF20EF0
:10458800B56FE2EC2BF0000E0601B36F000EB26FB0
:104598001200D3EF22F0084A092A0A4A0B2A08C552
:1045A800D9F409C5DAF4DF500C6E0AC5F6F40BC568
:1045B800F7F4000EF86E0800F5500C18D8A4E7EFD1
:1045C80022F0E9EF22F0F5EF22F008C5D9F409C589
:1045D800DAF4DF50D8A4F3EF22F0F5EF22F0CFEFB2
:1045E80022F008C5D9F409C5DAF4DF500C6E0AC503
:1045F800F6F40BC5F7F4000EF86E0800F5500C5CE5
:10460800086E096AD8A009061200B4C6D9F4B5C65E
:10461800DAF4DE50DE10D8B414EF23F016EF23F0EE
:104628003AEF23F0B4C6D9F4B5C6DAF4DEC4B6F668
:10463800DDC4B7F6B6C6D9F4B7C6DAF4DF50D8B4D5
:1046480028EF23F02AEF23F03AEF23F0B4C6D9F489
:10465800B5C6DAF4DEC438F5DDC439F53EECECF065
:1046680038C549F739C54AF73FEF23F0000E07016F
:104678004A6F010E496F000E0601B36F000EB26F4C
:1046880012000601EB510501DA6F0601EC51050134
:10469800DB6FDC6BDD6BDBC5DDF5DAC5DCF5DB6B11
:1046A800DA6B900EDA251A6E000EDB211B6E000EF7
:1046B800DC211C6E000EDD211D6E580E1E6E070ECD
:1046C8001F6E000E216E160E206E56EC21F00701AB
:1046D8006705D8B072EF23F074EF23F07CEF23F076
:1046E800020E6B6F000E6A6FBDEC1CF080EF23F0BA
:1046F800000E6B6F000E6A6F120024500701315DC7
:1047080025503259D8A08BEF23F08DEF23F08FEF8F
:1047180023F0B9EF23F02250266E2350276E286A23
:10472800296A27C529F526C528F5276A266A315139
:1047380026241A6E325127201B6E000E28201C6E6C
:10474800000E29201D6E000E31251E6E0B0E322123
:104758001F6E3151245C206E32512558216E56EC63
:1047680021F024C531F725C532F71200AEC5B2F5E0
:10477800AFC5B3F5000E0701266F000E256FDCEFFD
:1047880023F0ACC593F5ADC594F5B20E0501956F50
:10479800050E966FB0C597F5B1C598F592EC89F0FE
:1047A8000501935107012527050194510701262387
:1047B800B2C5F6F4B3C5F7F4000EF86E0800F5506C
:1047C8000009D8A4EAEF23F0ECEF23F0C5EF23F0BB
:1047D800000E0501AD6F000EAC6F12000601EB5123
:1047E800226EEC51236E246A256A23C525F522C55D
:1047F80024F5236A226AA10E22241A6E000E2320B1
:104808001B6E000E24201C6E000E25201D6E580EF7
:104818001E6E070E1F6E000E216E160E206E56ECD1
:1048280021F007016705D8B01CEF24F01EEF24F033
:1048380024EF24F0020E6B6F000E6A6F28EF24F04D
:10484800000E6B6F000E6A6F120008C5D9F409C517
:10485800DAF40AC5DFF4084A092A0BC50AF50CC5BB
:104868000BF50DC50CF50D6A08C5D9F409C5DAF4C0
:104878000AC5DFF4084A092A0BC50AF50CC50BF569
:104888000DC50CF50D6A08C5D9F409C5DAF40AC5D1
:10489800DFF4084A092A0BC50AF50CC50BF50DC546
:1048A8000CF50D6A08C5D9F409C5DAF40AC5DFF4B0
:1048B800084A092A1200000E106E000E116E000E32
:1048C800126E000E136E08A06CEF24F06EEF24F049
:1048D80076EF24F00C5010260D5011220E501222A3
:1048E8000F501322D8900C360D360E360F36D8904E
:1048F8000B320A3209320832085009100A100B101C
:10490800D8A489EF24F08BEF24F067EF24F010C5CA
:1049180008F511C509F512C50AF513C50BF51200FE
:104928000701F129F211D8A49CEF24F09EEF24F09E
:10493800A0EF24F0C6EF24F0F151226EF251236E5D
:10494800246A256A23C525F522C524F5236A226A27
:10495800660E22241A6E000E23201B6E000E2420E1
:104968001C6E000E25201D6E760E1E6E070E1F6E25
:10497800000E216E030E206E16EC21F0000E0701CA
:10498800F26FF16912000701F329F411D8A4CFEFEF
:1049980024F0D1EF24F0D3EF24F0F9EF24F0F35111
:1049A800226EF451236E246A256A23C525F522C593
:1049B80024F5236A226A22C51AF523C51BF524C5E6
:1049C8001CF525C51DF5000E1E6E0B0E1F6E31C79A
:1049D80020F532C721F516EC21F0000E0701F46F1F
:1049E800F369000E326F000E316F12000BBE09EF33
:1049F80025F00B500A10091006E10804D8B007EF9B
:104A080025F009EF25F024EF25F008C50CF509C5B8
:104A18000DF50AC50EF50BC50FF50C1E0D1E0E1E65
:104A28000F1E0C2A000E0D220E220F220CC508F5AF
:104A38000DC509F50EC50AF50FC50BF52CEF25F0C8
:104A480008C508F509C509F50AC50AF50BC50BF52A
:104A58001200066ED69E0701445107E1500E435DD1
:104A6800D8B039EF25F03BEF25F052EF25F0435150
:104A78004125016E44514221026E000E046E500E13
:104A8800036E28EC26F0B00E0124D96E0A0E02201F
:104A9800DA6E06C5DFF40701434B442B445109E1A4
:104AA800400E435DD8A05BEF25F05DEF25F05EEF8B
:104AB80025F0A790D68E12000D6ED69E07014051A4
:104AC80009E1500E3F5DD8A06CEF25F06EEF25F0A0
:104AD80077EF25F0B7A273EF25F075EF25F06EEFAD
:104AE80025F092EC25F007013F513D25086E405115
:104AF8003E21096E000E0B6E500E0A6EC4EC25F0B6
:104B0800600E0824D96E0A0E0920DA6E0DC5DFF48E
:104B180007013F4B402BA782D68E1200B2EF25F03B
:104B2800600E3D25D96E0A0E3E21DA6EDF50020175
:104B3800C96F010E07013D25086E000E3E21096E62
:104B4800000E0B6E500E0A6EC4EC25F008C53DF73A
:104B580009C53EF707013F07D8A0400707013F51A5
:104B68004011D8B4BAEF25F0BCEF25F0C3EF25F01B
:104B7800B7B2C1EF25F0C3EF25F094EF25F012008E
:104B88000A500B10D8B4CBEF25F0CDEF25F0F1EF9C
:104B980025F0010E0C6ED5EF25F0D8900A360B36AD
:104BA8000C2A0BAEDAEF25F0DCEF25F0D1EF25F07B
:104BB8000A50085C0B500958D8A0E5EF25F0E7EF3C
:104BC80025F0EBEF25F00A50085E0B50095AD890F3
:104BD8000B320A320C2EDCEF25F008C508F509C5A2
:104BE80009F5120016EF26F0600E3D25D96E0A0E63
:104BF8003E21DA6EDF500201C96F010E07013D2523
:104C0800016E000E3E21026E000E046E500E036E01
:104C180028EC26F001C53DF702C53EF707013F071E
:104C2800D8A0400707013F514011D8B41EEF26F025
:104C380020EF26F027EF26F0B7B225EF26F027EF72
:104C480026F0F8EF25F0120003500410D8B42FEF27
:104C580026F031EF26F055EF26F0010E056E39EFFC
:104C680026F0D89003360436052A04AE3EEF26F027
:104C780040EF26F035EF26F00350015C045002584F
:104C8800D8A049EF26F04BEF26F04FEF26F003505F
:104C9800015E0450025AD89004320332052E40EFC8
:104CA80026F001C501F502C502F51200010E146EC9
:104CB800200E0E10106E000E0F10116E9F0E102495
:104CC800126EFF0E1120136E135009E11A0E125CBA
:104CD800D8A071EF26F073EF26F086EF26F0D00EFD
:104CE8000E24106EFF0E0F20116E115009E10A0EEE
:104CF800105CD8A082EF26F084EF26F086EF26F02D
:104D0800000E146E14C50EF50F6A1200186812C54D
:104D180008F513C509F5E6EC26F0000E176E000E2F
:104D2800166EA7EF26F012C508F513C509F5180E7B
:104D38000A6E050E0B6E000E0D6E010E0C6EEFEC7A
:104D48001DF0164A172A1450165C15501758D8A08B
:104D5800B0EF26F0B2EF26F097EF26F012C508F56F
:104D680013C509F5B6EC29F0120008C5F6F409C513
:104D7800F7F4000EF86E0800F5500A18D8A4C7EF2B
:104D880026F0C9EF26F0CFEF26F008C508F509C5CB
:104D980009F5E5EF26F008C5F6F409C5F7F4084A61
:104DA800092A000EF86E0800F5500009D8A4DFEFB4
:104DB80026F0E1EF26F0B9EF26F0000E086E000E9F
:104DC800096E120008C50AF509C50BF520EE02F0B8
:104DD8000A50D9260B50DA22DF50D8A4F6EF26F075
:104DE800F8EF26F008EF27F0310E0201126F320EAD
:104DF800116F20EE03F00A50D9260B50DA22C8C4EE
:104E0800DFF4C890C892C88420EE02F00A50D92670
:104E18000B50DA22DF2A12009C0E0501B46FE70E50
:104E2800B56FE2EC2BF0170E0501B46FF20EB56FFB
:104E3800E2EC2BF0110E0501CF6F3C0ECE6FCB0EBE
:104E4800E82EFED7CE2FFCD7CF2FFAD7FE0E0501BE
:104E5800B46FF10EB56FE2EC2BF09C0E0501B46F48
:104E6800E70EB56FE2EC2BF012004CEF27F008C507
:104E7800D9F409C5DAF4DFC40AF5010EDE26DFC469
:104E88000BF5000EDD220AC5D9F40BC5DAF4DF6A8A
:104E980008C5D9F409C5DAF4DEC40AF5DDC40BF592
:104EA8000AC5D9F40BC5DAF4200EDE18D8B45FEFC2
:104EB80027F061EF27F03BEF27F01200CC0E060138
:104EC800C26F180EC36F600EC46FFF0EC56F010E60
:104ED800C66F12EC13F00009D8B475EF27F077EF1E
:104EE80027F085EF27F0E20E0501B46FF00EB56FDD
:104EF800E2EC2BF0FF0E0601CF6FFE0ECE6F8AEFAD
:0E4F080027F0000E0601CF6F000ECE6F1200D4
:104F1800B7A091EF27F093EF27F0A7EF27F0C7C2CC
:104F280007F50750D8B49BEF27F09DEF27F0A2EFC5
:104F380027F007502DEC25F0A7EF27F0000E07010A
:104F48004E6F010E4D6FF6EC25F007013F514011F1
:104F5800D8A4B1EF27F0B3EF27F0B4EF27F0A7926A
:104F68001100B80E0501C86F050EC96FB4C5BCF5B0
:104F7800B5C5BDF5000EC06F000EBF6F000EC76F40
:104F8800000EC66FBC0EAC6F050EAD6FB6C5AEF5A4
:104F9800B7C5AFF5C80EB06F050EB16FBAEC23F008
:104FA8000501BF51B425D96EC051B521DA6EDF6A4B
:104FB80012000AC511F50BC512F508C50FF509C58C
:104FC80010F5F7EF27F011C5D9F412C5DAF4DF5060
:104FD8000E6E114A122A0FC5D9F410C5DAF40EC59F
:104FE800DFF40F4A102A0C06D8A00D060C2806E19B
:104FF8000D28D8A402EF28F004EF28F0E7EF27F0F7
:10500800120008C50AF509C50BF50DEF28F0084A86
:10501800092A08C5F6F409C5F7F4000EF86E250E3E
:10502800F76403D00800F55005D0F6C4E9F4F7C4D6
:10503800EAF4EF500009D8A424EF28F026EF28F06E
:105048000BEF28F00A50085C086E0B500958096EDF
:10505800120008500910D8B434EF28F036EF28F0C1
:1050680047EF28F0000E0201056F000E046FBE889E
:10507800BE86000EC76E400EC96ECA94C69ABE821E
:10508800C69253EF28F0C7687F0EC96ECA84C868F5
:10509800C68AC682010E0201056F020E046F120055
:1050A800E0EC0CF00601EB51386EEC51396E3A6ABF
:1050B8003B6A39C53BF538C53AF5396A386A38C5A7
:1050C80008F539C509F53AC50AF53BC50BF502D807
:1050D80079EF28F00500FA6E0701CE51FD6ECF5129
:1050E800FE6ED051FF6EFA50120012001A0E0E24F6
:1050F800086E000E0F20096E10C50AF511C50BF5D4
:10510800CEEC2BF00CC5D9F40DC5DAF4030EDE187D
:10511800D8A491EF28F093EF28F09FEF28F0140E11
:105128000E24086E000E0F20096E12C50AF513C56D
:105138000BF5CEEC2BF01200286E756C6C29001A5A
:105148000000001A0000001A0000001A0000000009
:1051580000000000000000000000000000000080C7
:1051680000000080000000800000008000000000B7
:0F51780000000000000000000000006440000084
:10518800010E0C6E200E08180910D8B4CEEF28F0C6
:10519800D0EF28F0E3EF28F0F70E08240A6EFF0E90
:1051A80009200B6E0B5009E1050E0A5CD8A0DFEF51
:1051B80028F0E1EF28F0E3EF28F0000E0C6E0CC5A4
:1051C80008F5096A12002250246E2350256E266ABB
:1051D800276A25C527F524C526F5256A246A080EF9
:1051E80024241A6E000E25201B6E000E26201C6E2D
:1051F800000E27201D6E1C0E1E6EE30E1F6E000E85
:10520800216E060E206E16EC21F01200000E251AF3
:10521800000E261A000E271A800E281A21C508F536
:1052280022C509F523C50AF524C50BF525C50CF5D6
:1052380026C50DF527C50EF528C50FF55CECBCF0A5
:1052480008C521F509C522F50AC523F50BC524F5BE
:1052580012001B6E00C71CF501C71DF51CC516F50D
:105268001DC517F53FEC2CF01E6E1B501E18D8A458
:1052780040EF29F042EF29F04EEF29F01906D8A0A7
:105288001A0619501A10D8A44CEF29F04EEF29F03D
:1052980032EF29F01E50120004011969C968096922
:1052A800C7681169C8680181C6800183C682018BFD
:1052B800C68A198DC98CC18EC99E550E596FAA0E02
:1052C800596F5991080E5D6F000E5E6F000E5F6F8B
:1052D800550E596FAA0E596F598112000AC50CF55F
:1052E8000BC50DF508C50EF509C50FF50CC5F6F487
:1052F8000DC5F7F40C4A0D2A000EF86E0EC5D9F448
:105308000FC5DAF40E4A0F2A0800F5C4DFF4DF509F
:10531800D8A491EF29F093EF29F07AEF29F0120041
:10532800000E1A6E000E196EA5EF29F018C50BF5C0
:105338000C6A16C50DF517C50EF528EC19F0194AB3
:105348001A2A19501424D96E1A501520DA6EDF5013
:10535800186E1850D8A4B3EF29F0B5EF29F09AEFDA
:1053680029F0120008C50AF509C50BF520EE02F070
:105378000A50D9260B50DA22DF06DF50D8A4C7EF2F
:1053880029F0C9EF29F0D6EF29F0000E0201126FBB
:10539800000E116F20EE03F00A50D9260B50DA22C6
:1053A800DF50C86E120013BEE4EF29F0135006E177
:1053B8001204D8B0E2EF29F0E4EF29F0F2EF29F077
:1053C80012C514F513C515F5141E151E144A152A11
:1053D80014C512F515C513F5F6EF29F012C512F527
:1053E80013C513F5120000EF2AF008C5D9F409C552
:1053F800DAF4DE2A000EDD2208C5D9F409C5DAF48C
:10540800DEC40AF5DDC40BF50AC5D9F40BC5DAF418
:10541800200EDE18D8B413EF2AF015EF2AF0F9EFB2
:1054280029F012002A500701F31909E12B50F41949
:10543800D8B421EF2AF023EF2AF025EF2AF0C7ECA1
:1054480024F02AC522F52BC523F52CC524F52DC536
:1054580025F581EC23F0000E0701306F010E2F6F48
:105468001200FF0E08140C6E7F0E09140D6E000E4C
:105478000A140E6E000E0B140F6E0F500E1009E179
:10548800400E0D5CD8A04BEF2AF04DEF2AF050EFFC
:105498002AF0C28451EF2AF0C29412000501CE51BD
:1054A8000701335D3451800A516E0501CF51800ADE
:1054B8005158D8B062EF2AF064EF2AF06EEF2AF064
:1054C800D60EB46FE70EB56FCEC5B6F5CFC5B7F536
:1054D800E2EC2BF01200D9C5CEF5DAC5CFF5DB0E1C
:1054E8000501D06F050ED16F95EC10F00501DD6F49
:1054F800DD51D8A482EF2AF084EF2AF08AEF2AF04F
:10550800D9C5D9F4DAC5DAF4DE6ADD6A120020EE0C
:1055180001F00850D9260950DA22DF500A6E0A50E5
:105528000D6E0E6A08C5D9F409C5DAF4DF500A6EA3
:105538000D500B6E0A500D6E0BC50EF50DC508F516
:105548000EC509F512009F0E0C240E6EFF0E0D20DD
:105558000F6E0F5007E11A0E0E5CD8B0B6EF2AF0A6
:10556800B8EF2AF0BEEF2AF05F0E0C140C6E0D6A2D
:10557800C2EF2AF00CC50CF50DC50DF51200200E72
:1055880008100A6E000E09100B6E9F0E0A240C6E8E
:10559800FF0E0B200D6E0D500AE11A0E0C5CD8A000
:1055A800D8EF2AF0DBEF2AF0010EDCEF2AF0000E2C
:1055B800086E096A1200085009100A100B10D8B4B6
:1055C800E8EF2AF0EAEF2AF0F2EF2AF0000E081AC4
:1055D800000E091A000E0A1A800E0B1A08C508F5E3
:1055E80009C509F50AC50AF50BC50BF512002D0EFC
:1055F8000501B46FEE0EB56FCEC5B6F5CFC5B7F5DC
:10560800D0C5B8F5D1C5B9F5D4C5BAF5D5C5BBF57A
:10561800D2C5BCF5D3C5BDF5E2EC2BF076EC2DF088
:10562800120008C50AF509C50BF520EE02F00A506C
:10563800D9260B50DA22DF6A000E0001846F000EB3
:10564800856F110E02016A6F120E6B6FC692000110
:10565800848F120032C515F533C516F534C517F514
:1056680035C518F536C519F537C51AF5000E1B6E80
:105678001AECC1F015C532F516C533F517C534F562
:1056880018C535F5120055EF2BF0050E096E0F0EF3
:10569800086EF10EE82EFED7082EFCD7092EFAD791
:1056A80000F007013F514011D8A45DEF2BF05FEFE8
:1056B8002BF049EF2BF0120010C508F511C509F5BC
:1056C80012C50AF513C50BF502D876EF2BF00500C5
:1056D800FA6E0701CE51FD6ECF51FE6ED051FF6EAE
:1056E800FA5012001200D00E08240A6EFF0E09208C
:1056F8000B6E0B500AE10A0E0A5CD8A086EF2BF05D
:1057080089EF2BF0010E8AEF2BF0000E086E096A64
:1057180012009F0E08240A6EFF0E09200B6E0B5014
:105728000AE11A0E0A5CD8A09CEF2BF09FEF2BF031
:10573800010EA0EF2BF0000E086E096A1200BF0ED2
:1057480008240A6EFF0E09200B6E0B500AE11A0E90
:105758000A5CD8A0B2EF2BF0B5EF2BF0010EB6EF34
:105768002BF0000E086E096A120000C719F501C770
:105778001AF519C50CF51AC50DF561EC2CF019C50B
:1057880012F51AC513F5000E156E010E146E8AEC8B
:1057980026F0120008C5D9F409C5DAF40AC5DFF401
:1057A800084A092A0B500A6E0B6A08C5D9F409C5BC
:1057B800DAF40AC5DFF4084A092A1200B60E050110
:1057C800CC6F050ECD6F000EAC6F000EAD6FB4C57B
:1057D800AEF5B5C5AFF5CC0EB06F050EB16FBAEC2E
:1057E80023F012000AC508F50BC509F502D808EF21
:1057F8002CF00500FA6E0801BC51FD6EBD51FE6E1D
:10580800BE51FF6EFA501200120008500A02F3C48B
:105818000CF5F4C40DF508500B02F3500D26095091
:105828000A02F3500D260CC508F50DC509F512003E
:10583800B5BA21EF2CF023EF2CF02DEF2CF0070157
:105848004D514E11D8B42BEF2CF02DEF2CF01CEF4E
:105858002CF012004BEC1FF002D83EEF2CF00500A4
:10586800FA6E0801DA51FD6EDB51FE6EDC51FF6EF7
:10587800FA5012001200186816C508F517C509F580
:10588800180E0A6E050E0B6E000E0D6E010E0C6ED4
:1058980049ECD7F0185012000CC508F50DC509F5EC
:1058A800E6EC26F00CC508F50DC509F5000E0B6EE3
:1058B800010E0A6EF4EC2CF012000CC508F50DC5AB
:1058C80009F5000E0B6E000E0A6EF4EC2CF00CC5F8
:1058D80008F50DC509F5B6EC29F0120002D880EFDD
:1058E8002CF00500FA6E0801D751FD6ED851FE6EF6
:1058F800D951FF6EFA501200120084EF2CF05307B2
:1059080007015351800A7F0FD8B08DEF2CF08FEF2D
:105918002CF083EF2CF01200E9C60AF5EAC60BF565
:1059280008C5E9F609C5EAF60AC508F50BC509F57B
:10593800120056C50AF557C50BF508C556F509C531
:1059480057F50AC508F50BC509F51200086E0804D5
:10595800D8A4B1EF2CF0B3EF2CF0B6EF2CF0000187
:10596800D785D79512000A6E47EC2BF0B7A2BFEF88
:105978002CF0C1EF2CF0BAEF2CF00AC5C9F21200D6
:10598800D80E0501B46FF20EB56FB20EB66FF30EF6
:10599800B76FE2EC2BF01200CEBAD5EF2CF0D7EFB0
:1059A8002CF0DAEF2CF0D890DBEF2CF0D880120036
:1059B800CEB0E1EF2CF0E3EF2CF0E6EF2CF0D8902E
:1059C800E7EF2CF0D8801200B5BAEDEF2CF0EFEF2E
:1059D8002CF0F2EF2CF0D890F3EF2CF0D8801200D6
:1059E8000A500B10D8B4FBEF2CF0FEEF2CF0BE825F
:1059F800FFEF2CF0BE921200FFFFFFFF0F0065FFC4
:105A0800FF00FF00FFFF6E080100CF0101FF086ED5
:105A180008B011EF2DF014EF2DF0C28215EF2DF024
:105A2800C2921200086E08B01CEF2DF01FEF2DF087
:105A3800C18E20EF2DF0C19E1200086E08B027EF2E
:105A48002DF02AEF2DF0C2802BEF2DF0C29012001E
:105A580081EC2CF00AC508F50BC509F595EC2DF07D
:105A68001200000E086E800E096EFF0E0A6EFF0E01
:105A78000B6E1200000E086E000E096E210E0A6EE3
:105A8800000E0B6E1200A80E07011D6F400E1E6F50
:105A9800000E1F6F1200FF00000E0601B36F000E0C
:105AA800B26F1200EBC62EF5ECC62FF5D0EC1FF046
:105AB8001200EBC62EF5ECC62FF552EC22F01200C0
:105AC800000E0701466F0A0E456F1200000E060110
:105AD800B36F010EB26F1200086E08C5F5F7070123
