:0400000081EF00F09C
:10000800F313F313F313F3134000F3134000F31344
:10001800F313F313F313F313F313F313F313F313A8
:10002800F313400040004000F313F313F313F313EA
:10003800F313F313F313F313F313F313F313F31388
:10004800F313F313F313F31340004000F313F31304
:10005800F313F313F3134000F313F313F313F3132E
:10006800F313F313F313F313F313F313F313F31358
:10007800F313F313F313F3134000F313F313F3130E
:10008800F313F313F313F313F313F313F313F31338
:10009800F313F313F313F3134000F313400040007A
:1000A800F313F313F313F313F313F313F313F31318
:1000B800F313F313F313F313F313F313F313F31308
:1000C800F313F313F313F313F313F313F313F313F8
:1000D800F313F313F313F313F313F313F313F313E8
:1000E8004000F313F313F3134000400040004000B6
:1000F800F313F313F313F313FF00F4EF17F092EC79
:100108002DF00A0E08180910D8B48DEF00F08FEF03
:1001180000F0BAEF00F092EC2DF0320E081809103A
:10012800D8B499EF00F09BEF00F0BAEF00F092EC32
:100138002DF05A0E08180910D8B4A5EF00F0A7EF53
:1001480000F0BAEF00F0D20E0501CE6FE50ECF6FCA
:10015800900ED06FF70ED16F030ED36F150ED26FBE
:100168003A0ED46FF00ED56F11EC2BF092EC2DF007
:10017800E3C5D9F4E4C5DAF408C5DEF409C5DDF44D
:1001880092EC2DF05A0E08180910D8A4CEEF00F002
:10019800D0EF00F0D2EF00F048EF01F092EC2DF034
:1001A8000A0E08180910D8A4DCEF00F0DEEF00F002
:1001B80022EF01F0000E0B6E010E0A6E0CEC2CF013
:1001C800000E1A6E000E1B6E000E1C6E000E1D6EC9
:1001D8001A0E1E6EE50E1F6E000E216E0A0E206EA0
:1001E80048EC21F002D804EF01F00500FA6E08018E
:1001F800D751FD6ED851FE6ED951FF6EFA501200DC
:10020800000E086E000E096E000E0A6E000E0B6ED0
:1002180002D81AEF01F00500FA6E0701CE51FD6E03
:10022800CF51FE6ED051FF6EFA501200000E05013C
:10023800D66F000ED76FAD0EC1ECB4F0000E0B6E8A
:10024800010E0A6E0CEC2CF0A8EC2DF0000E050146
:10025800D66F000ED76FAB0EC1ECB4F073EC2DF077
:10026800000E0501D66F000ED76FAC0EC1ECB4F0CE
:10027800000E0701466F500E456F24EC24F0000E67
:100288000701466F5A0E456F12008EC6D9F48FC605
:10029800DAF4DEC492F6DDC493F68EC650F68FC645
:1002A80051F6000E0601526F000E536F000E546F88
:1002B800000E556F84ECD5F00601956F9551D8B4B2
:1002C80068EF01F06AEF01F06EEF01F00601955159
:1002D8000AEF02F092C62BF693C62CF620EE16F023
:1002E8008E51D9268F51DA22DEC42DF6DEC42EF6C1
:1002F800DEC42FF6DEC430F6C0EC18F00601956FA8
:100308009551D8B48AEF01F08CEF01F08EEF01F02F
:100318006AEF01F020EE1AF08E51D9268F51DA22B9
:10032800DEC490F6DDC491F690C6D9F491C6DAF42D
:10033800DF50946F9451D8A4A4EF01F0A6EF01F018
:10034800AAEF01F0040E956F6AEF01F020EE04F0B9
:100358008E51D9268F51DA2210EE1AF08E51E126ED
:100368008F51E22200EE0BF0E650E926E550EA2232
:10037800EF503F0BDF6E20EE1AF08E51D9268F51C9
:10038800DA2210EE0BF0DE50E126DD50E222E7B66D
:10039800D0EF01F0D2EF01F0F3EF01F020EE1AF008
:1003A8008E51D9268F51DA22DEC408F5DDC409F54D
:1003B8001C0E8E250A6E000E8F210B6E000E0D6E20
:1003C8000B0E0C6E26EC17F008500910D8A4EFEFAE
:1003D80001F0F1EF01F0F3EF01F06AEF01F08EC6E2
:1003E80074F68FC675F6000E0601776F000E766FED
:1003F800F3ECC9F00601956F9551D8B406EF02F0F9
:1004080008EF02F06EEF01F06AEF01F01200000E43
:10041800136E000E126E0DC5D9F40EC5DAF4DEC4E3
:100428000FF5DDC410F50FC5D9F410C5DAF4300E98
:10043800DE18D8A422EF02F024EF02F03FEF02F01A
:100448000DC5D9F40EC5DAF410EE01F0DE50E12640
:10045800DD50E222780EE618D8A435EF02F037EF27
:1004680002F03FEF02F0020E0DC5D9F40EC5DAF422
:10047800DE26000EDD220DC5D9F40EC5DAF4DEC481
:100488000FF5DDC410F50FC5D9F410C5DAF4DF5047
:10049800146E600E146453EF02F055EF02F05FEF34
:1004A80002F0670E14605BEF02F05DEF02F05FEFA1
:1004B80002F0200E145E2F0E146465EF02F067EF51
:1004C80002F06FEF02F0390E14646DEF02F06FEF77
:1004D80002F081EF02F0400E146475EF02F077EF3E
:1004E80002F08CEF02F0460E14647DEF02F07FEF0D
:1004F80002F081EF02F08CEF02F0124A132A0DC5C8
:10050800D9F40EC5DAF4DE2A000EDD223FEF02F040
:100518000DC5D9F40EC5DAF4DEC40FF5DDC410F547
:100528000FC5D9F410C5DAF4680EDE18D8B49FEFF9
:1005380002F0A1EF02F0B6EF02F00DC5D9F40EC536
:10054800DAF4DEC40FF5DDC410F50FC5D9F410C513
:10055800DAF4480EDE18D8A4B4EF02F0B6EF02F0D1
:10056800BDEF02F00DC5D9F40EC5DAF4DE2A000E8F
:10057800DD220DC508F50EC509F52AEC2AF012C5CD
:100588000DF513C50EF51200FBC7B8F6B4C6D9F4BD
:10059800B5C6DAF4DE50DE10D8B4D5EF02F0D7EFE6
:1005A80002F05CEF03F0B4C6D9F4B5C6DAF4DEC4E1
:1005B800B6F6DDC4B7F6B6C6D9F4B7C6DAF4DF5076
:1005C800D8B4E9EF02F0EBEF02F05CEF03F00701BB
:1005D8005451D8B4F2EF02F0F4EF02F00AEF03F04E
:1005E800E5C633F6E6C634F6E7C635F6E8C636F6A7
:1005F8007F0E0601376F070E386F000E3A6F010E37
:10060800396F1FECF8F0000E0701546FB4C6D9F427
:10061800B5C6DAF4DEC438F5DDC439F53EECECF0E5
:1006280038C5E5F639C5E6F63AC5E7F63BC5E8F656
:100638004D0E0501B46FF10EB56FE5C6B6F5E6C609
:10064800B7F5E7C6B8F5E8C6B9F5F8EC2BF0E5C696
:1006580033F6E6C634F6E7C635F6E8C636F67F0E54
:100668000601376F070E386F000E3A6F010E396FAB
:10067800ECECF8F0E5C633F6E6C634F6E7C635F630
:10068800E8C636F6B80E0601376F060E386F000E4C
:100698003A6F010E396F1FECF8F0010E0701546F25
:1006A800EBC622F5ECC623F51AEC29F07DEF03F032
:1006B80007015451D8B463EF03F065EF03F076EF08
:1006C80003F0060E0501B46FF30EB56FE5C6B6F577
:1006D800E6C6B7F5E7C6B8F5E8C6B9F5F8EC2BF005
:1006E8007DEF03F0790E0501B46FF20EB56FF8ECEB
:1006F8002BF0000E0601B36F000EB26F120008C592
:1007080012F509C513F50C500D10D8A48EEF03F09F
:1007180090EF03F092EF03F03DEF04F012C5D9F427
:1007280013C5DAF40AC5DFF40C5012240E6E0D500E
:1007380013200F6EFF0E0E24D96EFF0E0F20DA6EF7
:100748000AC5DFF40D5007E1030E0C5CD8B0AFEF1B
:1007580003F0B1EF03F0B3EF03F03DEF04F020EE48
:1007680001F01250D9261350DA220AC5DFF420EE20
:1007780002F01250D9261350DA220AC5DFF40C50C1
:1007880012240E6E0D5013200F6EFE0E0E24D96E1D
:10079800FF0E0F20DA6E0AC5DFF40C5012240E6E1D
:1007A8000D5013200F6EFD0E0E24D96EFF0E0F2074
:1007B800DA6E0AC5DFF40D5007E1070E0C5CD8B0FD
:1007C800E8EF03F0EAEF03F0ECEF03F03DEF04F09D
:1007D80020EE03F01250D9261350DA220AC5DFF4AE
:1007E8000C5012240E6E0D5013200F6EFC0E0E24AA
:1007F800D96EFF0E0F20DA6E0AC5DFF40D5007E13F
:10080800090E0C5CD8B00BEF04F00DEF04F00FEFFD
:1008180004F03DEF04F012C50EF513C50FF50E1EDA
:100828000F1E0E4A0F2A030E0E14106E116A105076
:1008380012261150132210500C5E11500D5AFC0E46
:100848000C16FF0E0D1634EF04F012C5D9F413C5BB
:10085800DAF40AC5DFF40C06D8A00D06124A132AEA
:100868000C500D10D8A43BEF04F03DEF04F029EF35
:1008780004F01200D4C5EBF5D5C5ECF50F0E050153
:10088800D625D86F000ED721D96FF00ED815D66FA0
:10089800FF0ED915D76F000EEE6F000EED6FECEF5F
:1008A80004F00F0EED15D86F000EEE15D96FD85164
:1008B800D911D8A462EF04F064EF04F07AEF04F0E1
:1008C8005F0EB46FFA0EB56FCEC5B6F5CFC5B7F5E6
:1008D800ED51D025B86FEE51D121B96F000ED2215C
:1008E800BA6F000ED321BB6FF8EC2BF04C0E05014C
:1008F800B46FFE0EB56FED51EB25D96EEE51EC21BC
:10090800DA6EDF50D86FD851B66FB76BF8EC2BF0B2
:100918000501ED51EB25D96EEE51EC21DA6E1F0E73
:10092800DF6499EF04F09BEF04F0BFEF04F0ED51A2
:10093800EB25D96EEE51EC21DA6E7F0EDF60A7EF62
:1009480004F0A9EF04F0BFEF04F0ED51EB25D96EE8
:10095800EE51EC21DA6E0F0EED15D86F000EEE1584
:10096800D96FDA0ED825E16E050ED921E26EDFC403
:10097800E7F4CDEF04F00F0EED15D86F000EEE156D
:10098800D96FDA0ED825D96E050ED921DA6E2E0E5A
:10099800DF6E0F0EED15D86F000EEE15D96F0F0E26
:1009A800D819D911D8A4DBEF04F0DDEF04F0E9EF92
:1009B80004F0000EEA6F3B0EB46FF80EB56FDA0E56
:1009C800B66F050EB76FF8EC2BF00501ED4BEE2B6B
:1009D800D651ED5DD751EE59D8A0F5EF04F0F7EFF9
:1009E80004F055EF04F0120002D807EF05F00500F7
:1009F800FA6E0701DA51FD6EDB51FE6EDC51FF6EB7
:100A0800FA50000E1200000E296E000E286EA5EF97
:100A180005F028C508F529C509F5000E0B6E060E68
:100A28000A6E1FEC2CF008501A24206E09501B2067
:100A3800216E020E2024D96E000E2120DA6EDEC44B
:100A480022F5DDC423F51E50246E1F50256E266A3C
:100A5800276A25C527F524C526F5256A246A225064
:100A680024240E6E235025200F6E000E2620106EB3
:100A7800000E2720116E02D84DEF05F00500FA6E22
:100A88000701CB51FD6ECC51FE6ECD51FF6EFA5071
:100A9800120028C508F529C509F5000E0B6E060ECB
:100AA8000A6E1FEC2CF008501A24206E09501B20E7
:100AB800216E020E2024D96E000E2120DA6EDEC4CB
:100AC8000EF5DDC40FF528C508F529C509F5000E92
:100AD8000B6E060E0A6E1FEC2CF008501A24D96E05
:100AE80009501B20DA6EDEC410F5DDC411F528C5E7
:100AF80008F529C509F5000E0B6E060E0A6E1FECE7
:100B08002CF008501A24226E09501B20236E040E64
:100B18002224D96E000E2320DA6EDEC412F5DDC45D
:100B280013F502D8A3EF05F00500FA6E0701E651A8
:100B3800FD6EE751FE6EE851FF6EFA501200284A2A
:100B4800292A1C50285C1D502958D8A0AEEF05F062
:100B5800B0EF05F00DEF05F0120002D8C0EF05F078
:100B68000500FA6E0701DA51FD6EDB51FE6EDC51AD
:100B7800FF6EFA50FF0E1200000E296E000E286E4E
:100B88005EEF06F028C508F529C509F5000E0B6EBD
:100B9800060E0A6E1FEC2CF008501A24206E09501D
:100BA8001B20216E020E2024D96E000E2120DA6E41
:100BB800DEC422F5DDC423F51E50246E1F50256EB9
:100BC800266A276A25C527F524C526F5256A246AD5
:100BD800225024240E6E235025200F6E000E26204E
:100BE800106E000E2720116E02D806EF06F00500E1
:100BF800FA6E0701CB51FD6ECC51FE6ECD51FF6EE2
:100C0800FA50120028C508F529C509F5000E0B6E23
:100C1800060E0A6E1FEC2CF008501A24206E09509C
:100C28001B20216E020E2024D96E000E2120DA6EC0
:100C3800DEC40EF5DDC40FF528C508F529C509F58C
:100C4800000E0B6E060E0A6E1FEC2CF008501A24CC
:100C5800D96E09501B20DA6EDEC410F5DDC411F51B
:100C680028C508F529C509F5000E0B6E060E0A6E93
:100C78001FEC2CF008501A24226E09501B20236EFA
:100C8800040E2224D96E000E2320DA6EDEC412F57B
:100C9800DDC413F502D85CEF06F00500FA6E070113
:100CA800E351FD6EE451FE6EE551FF6EFA501200FD
:100CB800284A292A1C50285C1D502958D8A067EFBB
:100CC80006F069EF06F0C6EF05F0120015C7B8F692
:100CD80016C7B9F617C7BAF618C7BBF6B4C6D9F41B
:100CE800B5C6DAF4DE50DE10D8B47DEF06F07FEF3B
:100CF80006F0A5EF06F0B4C6D9F4B5C6DAF4DEC43A
:100D0800B6F6DDC4B7F6B6C6D9F4B7C6DAF4DF501E
:100D1800D8B491EF06F093EF06F0A5EF06F0B4C64D
:100D2800D9F4B5C6DAF4DEC438F5DDC439F53EECDD
:100D3800ECF038C5B8F639C5B9F63AC5BAF63BC5C8
:100D4800BBF6060120EE02F0B451D926B551DA22DD
:100D5800DE50DE10D8B4B3EF06F0B5EF06F0CBEFF7
:100D680006F020EE02F0B451D926B551DA22DEC4DD
:100D7800B6F6DDC4B7F6B6C6D9F4B7C6DAF4DF50AE
:100D8800D8A4C9EF06F0CBEF06F0D9EF06F0400E75
:100D98000501B46FF40EB56FF8EC2BF0000E0601E8
:100DA800B36F000EB26F1FEF07F020EE02F0B451E0
:100DB800D926B551DA22DEC438F5DDC439F53EEC62
:100DC800ECF038500601BC6FB8C633F6B9C634F635
:100DD800BAC635F6BBC636F6BC0E0601376F060E28
:100DE800386F000E3A6F010E396F1FECF8F0010EE4
:100DF8000601B827000EB923BA23BB23000E086EDC
:100E0800000E096EBC0E0A6E060E0B6E19ECEEF0A3
:100E180008500910D8A413EF07F015EF07F0E8EF12
:100E280006F0B8C615F7B9C616F7BAC617F7BBC69F
:100E380018F7D2EF06F01200650E086EFF0E096E65
:100E48005FEC28F008C5BBF709C5BCF7800E0701A1
:100E5800BB25B36F070EBC21B46F800E0501B46FBC
:100E6800070EB56FC60EB66FFF0EB76F650EB86F7B
:100E7800FF0EB96F0FEC28F0800E0501CE6F070E3C
:100E8800CF6F000ED16F300ED06FBBC7D2F5BCC785
:100E9800D3F5BBC7D4F5BCC7D5F59CECC5F09C0E03
:100EA8000501B46FE70EB56FF8EC2BF0B3C7CEF5BC
:100EB800B4C7CFF5B90E0501D06F070ED16FBD0EBF
:100EC800D26F070ED36FDFECAEF0CEC5B5F7CFC546
:100ED800B6F70701B6BF75EF07F073EF07F083EFBA
:100EE80007F03F0E0501B46FE80EB56FF8EC2BF074
:100EF800000E0601C96F000EC86FD4EF07F0B9C71E
:100F080008F5BAC709F5000E0B6E0C0E0A6E1FEC39
:100F18002CF0030E0826000E0922CB0E0824F66ECC
:100F2800E30E0920F76EF86A000EF8220900F5C4EE
:100F3800B0F70900F5C4B1F70A00F5C4B2F7B5C7B0
:100F4800B2F6B6C7B3F6BD0E0601B46F070EB56F9D
:100F580002D8BAEF07F00500FA6E0701B051FD6E2E
:100F6800B151FE6EB251FF6EFA501200B2C6B7F719
:100F7800B3C6B8F70701B72906E1B829D8A4C7EF5F
:100F880007F0C9EF07F0D0EF07F01A0E0501B46FAC
:100F9800FB0EB56FF8EC2BF0B7C7C8F6B8C7C9F6A3
:100FA8001200D0C5E7F5D1C5E8F50F0E0501D22529
:100FB800D46F000ED321D56FF00ED415D26FFF0E6B
:100FC800D515D36F000EEA6F000EE96F7BEF08F0BE
:100FD8000F0EE915D46F000EEA15D56FD451D5114F
:100FE800D8A4F9EF07F0FBEF07F009EF08F00A0EB5
:100FF800B46FFB0EB56FCEC5B6F5CFC5B7F5E9C56D
:10100800B8F5EAC5B9F5F8EC2BF04C0E0501B46F4C
:10101800FE0EB56FE951E725D96EEA51E821DA6E7F
:10102800DF50D46FD451B66FB76BF8EC2BF00501D5
:10103800E951E725D96EEA51E821DA6E1F0EDF641F
:1010480028EF08F02AEF08F04EEF08F0E951E725FD
:10105800D96EEA51E821DA6E7F0EDF6036EF08F0CC
:1010680038EF08F04EEF08F0E951E725D96EEA515C
:10107800E821DA6E0F0EE915D46F000EEA15D56F68
:10108800D60ED425E16E050ED521E26EDFC4E7F455
:101098005CEF08F00F0EE915D46F000EEA15D56F56
:1010A800D60ED425D96E050ED521DA6E2E0EDF6E3A
:1010B8000F0EE915D46F000EEA15D56F0F0ED4196F
:1010C800D511D8A46AEF08F06CEF08F078EF08F0B3
:1010D800000EE66F3B0EB46FF80EB56FD60EB66F06
:1010E800050EB76FF8EC2BF00501E94BEA2BD2514E
:1010F800E95DD351EA59D8A084EF08F086EF08F0EB
:10110800ECEF07F0120055BE8CEF08F08EEF08F0F8
:101118008FEF08F0589255BE96EF08F094EF08F05C
:101128009CEF08F0000E2D6E010E2C6EA0EF08F05B
:1011380054C52CF555C52DF552C52EF553C52FF5BB
:10114800000E316E4F0E306E000E0901CF6FEBEFBF
:1011580008F03006D8A03106800E3024D96E090E6A
:101168003120DA6E28C508F529C509F52AC50AF51A
:101178002BC50BF50A0E0C6E000E0D6E000E0E6ED2
:10118800000E0F6E39EC1FF00850300FDF6E2C0682
:10119800D8A02D062E06D8A02F0628C508F529C5E3
:1011A80009F52AC50AF52BC50BF50A0E0C6E000EBB
:1011B8000D6E000E0E6E000E0F6E26EC1DF008C5AB
:1011C80028F509C529F50AC52AF50BC52BF53050B0
:1011D8003110D8B4F2EF08F0F4EF08F020EF09F07E
:1011E800285029102A102B10D8A4FDEF08F0FFEF83
:1011F80008F0ADEF08F02DBE0CEF09F02D5006E118
:101208002C04D8B00AEF09F00CEF09F0ADEF08F0A4
:101218002FBE17EF09F02F5008E12E04D8A017EFC2
:1012280009F019EF09F020EF09F058B21EEF09F0A4
:1012380020EF09F0ADEF08F026C51BF527C51CF512
:10124800800E30241D6E090E31201E6E2EC51FF52E
:101258002FC520F54EEC1AF01BC526F51CC527F541
:1012680012002BC619F62CC61AF683ECF6F0000904
:10127800D8B441EF09F043EF09F046EF09F0010E49
:10128800DCEF09F02BC614F52CC615F52DC616F59E
:101298002EC617F52FC618F530C619F55AEC18F0F2
:1012A80014C535F615C536F616C537F617C538F61A
:1012B800060120EE2CF02B51D9262C51DA2235C606
:1012C800DEF436C6DEF437C6DEF438C6DEF4300E99
:1012D8002B25086E000E2C21096E000E0B6E000ED9
:1012E8000A6E020E0D6E000E0C6E83EC03F0300ECB
:1012F80006012B25336F000E2C21346F000E3A6F38
:10130800010E396F000E3C6F000E3B6F91EF09F034
:10131800060139513B273A513C2320EE0AF02B5164
:10132800D9262C51DA22DE503B5DDE503C59D8B02C
:10133800A0EF09F0A2EF09F0C7EF09F033C60DF6E8
:1013480034C60EF63B5135250F6F3C513621106FD0
:10135800000E3721116F000E3821126F39C613F6AF
:101368003AC614F620EE01F02B51D9262C51DA2278
:10137800DF50E8ECFCF00009D8B4C5EF09F0C7EF7E
:1013880009F08CEF09F0060120EE0AF02B51D9265E
:101398002C51DA223B51DE1807E13C51DE18D8A463
:1013A800D8EF09F0DBEF09F0010EDCEF09F0000ED1
:1013B80012008EC6D9F48FC6DAF4DEC495F6DDC401
:1013C80096F68EC650F68FC651F6000E0601526F7D
:1013D800000E536F000E546F000E556F84ECD5F05D
:1013E8000601996F9951D8A4FCEF09F0FEEF09F0B6
:1013F80077EF0AF0000E986F000E976F95C62BF6E0
:1014080096C62CF620EE16F08E51D9268F51DA2288
:10141800DEC42DF6DEC42EF6DEC42FF6DEC430F6AA
:10142800C0EC18F00601996F9951D8B41EEF0AF074
:1014380020EF0AF022EF0AF077EF0AF020EE1AF018
:101448008E51D9268F51DA22DEC492F6DDC493F686
:1014580092C6D9F493C6DAF4E50EDE18D8B437EF9D
:101468000AF039EF0AF04FEF0AF020EE1AF08E5129
:10147800D9268F51DA22DEC492F6DDC493F692C6DD
:10148800D9F493C6DAF4DF50D8A44DEF0AF04FEF41
:101498000AF05FEF0AF0974B982B9051971907E1E4
:1014A80091519819D8A45BEF0AF05DEF0AF063EF49
:1014B8000AF077EF0AF0000E986F000E976F8EC64D
:1014C80074F68FC675F6000E776F010E766FF3EC23
:1014D800C9F00601996F9951D8B475EF0AF077EF02
:1014E8000AF002EF0AF0040E9919D8A47EEF0AF068
:1014F80080EF0AF082EF0AF0070E996F99511200F7
:10150800000184838481000E886F000E8B6F85999B
:10151800868386810501D205D8A495EF0AF097EF56
:101528000AF09BEF0AF0000184959DEF0AF0000194
:1015380084850501D351D8A4A4EF0AF0A6EF0AF0D8
:10154800ACEF0AF00001859F858D859BBBEF0AF003
:10155800770EB46FED0EB56FAD0EB66FF50EB76FB3
:10156800D3C5B8F5B96BF8EC2BF0B9EF0AF0000E5B
:101578008C6FF4EF0AF0020E00018C6F020E896F77
:101588001FEF0BF00F0E0001896F1FEF0BF0070E16
:101598000001896F1FEF0BF0050E0001896F1FEF27
:1015A8000BF0040E0001896F1FEF0BF0030E000112
:1015B800896F1FEF0BF0020E0001896F1FEF0BF010
:1015C800880EB46FEA0EB56FAD0EB66FF50EB76F35
:1015D800D0C5B8F5D1C5B9F5F8EC2BF01FEF0BF075
:1015E800D0C5D4F5D1C5D5F50501D551000AD8B473
:1015F80000EF0BF0E4EF0AF0D451000AD8B4BFEFC3
:101608000AF0010AD8B4C6EF0AF0030AD8B4CBEF3F
:101618000AF0010AD8B4D0EF0AF0070AD8B4D5EF17
:101628000AF0010AD8B4DAEF0AF0030AD8B4DFEFF7
:101638000AF0E4EF0AF0120021EE0FF2110EDE6A52
:10164800E806FDE2FE0E06010F6FE40E106F000EB5
:10165800126F000E116F000E146F1C0E136F0A0E1E
:10166800156F060E166F000E186F040E176F000E1A
:101678001A6F050E196F0605010E0759D8A047EF16
:101688000BF049EF0BF05CEF0BF0990E0501CE6FF4
:10169800F80ECF6F1E0ED06FF60ED16F000ED36FFF
:1016A8008F0ED26FB20ED46FF40ED56F11EC2BF0F3
:1016B80002C60AF603C60BF600C60CF601C60DF6FE
:1016C80006C60EF61C0E060102190311D8A46FEF08
:1016D8000BF071EF0BF096EF0BF004C61BF605C686
:1016E8001CF602C61DF603C61EF606C61FF607C67A
:1016F80020F60F0E0501E36F060EE46F000EE66F8D
:10170800030EE56F000EE76F000EE86F000EEA6F3C
:10171800000EE96F08C6EBF509C6ECF530ECEDF004
:10172800B9EF0BF004C61BF605C61CF600C61DF67D
:1017380001C61EF606C61FF607C620F60F0E0501DF
:10174800E36F060EE46F000EE66F020EE56F1B0EE8
:10175800E76F060EE86F000EEA6F010EE96F08C624
:10176800EBF509C6ECF530ECEDF0120008C50FF505
:1017780009C510F50AC511F50BC512F50C06D8A058
:101788000D060C2806E10D28D8A4CDEF0BF0CFEFFD
:101798000BF0DCEF0BF0000E096E000E086E4FEF39
:1017A8000CF00F4A102A114A122A0C06D8A00D066E
:1017B8000FC5F6F410C5F7F4000EF86E250EF764A1
:1017C80003D00800F55005D0F6C4E9F4F7C4EAF4EC
:1017D800EF500009D8B4F3EF0BF0F5EF0BF030EF52
:1017E8000CF011C5F6F412C5F7F4000EF86E0800F7
:1017F800F5500009D8B403EF0CF005EF0CF030EF0A
:101808000CF00C500D10D8B40CEF0CF00EEF0CF0DF
:1018180030EF0CF011C5F6F412C5F7F4000EF86EAF
:101828000800F5C40EF50FC5F6F410C5F7F4000E60
:10183800F86E250EF76403D00800F55005D0F6C4FD
:10184800E9F4F7C4EAF4EF500E18D8B42EEF0CF010
:1018580030EF0CF0D5EF0BF00FC5F6F410C5F7F428
:10186800000EF86E250EF76403D00800F55005D079
:10187800F6C4E9F4F7C4EAF4EF500E6E11C5F6F4B5
:1018880012C5F7F4000EF86E0800F5500E5C086EED
:10189800096AD8A009061200000E1A6E000E196E09
:1018A80012C5D9F413C5DAF4DEC414F5DDC415F590
:1018B80014C5D9F415C5DAF4270EDE18D8A467EFD5
:1018C8000CF069EF0CF0A1EF0CF012C5D9F413C5B8
:1018D800DAF4DE2A000EDD22DEC417F5DDC418F5C1
:1018E80012C508F513C509F5000E0A6E000E0B6E39
:1018F80019ECEEF008500910D8A485EF0CF087EF2A
:101908000CF074EF0CF012C5D9F413C5DAF4DEC488
:1019180014F5DDC415F51750145C196E18501558D8
:101928001A6E12C508F513C509F56BEC27F019C531
:1019380012F51AC513F5DFEF0CF012C5D9F413C56B
:10194800DAF4DEC414F5DDC415F514C5D9F415C5EB
:10195800DAF4DF501B6E200E1B18D8B4B6EF0CF06B
:10196800B8EF0CF095EF0CF02C0E1B18D8B4BFEFA5
:101978000CF0C1EF0CF095EF0CF03D0E1B18D8B42D
:10198800C8EF0CF0CAEF0CF095EF0CF01B50D8A480
:10199800D0EF0CF0D2EF0CF0D4EF0CF095EF0CF088
:1019A800194A1A2A12C5D9F413C5DAF4DE2A000E28
:1019B800DD22A1EF0CF012000601EB510701F3192B
:1019C80009E10601EC510701F419D8A4EEEF0CF077
:1019D800F0EF0CF046EF0DF02F513011D8B4F7EFBF
:1019E8000CF0F9EF0CF046EF0DF06A516B11D8A42A
:1019F80000EF0DF002EF0DF046EF0DF00601EB5190
:101A0800346EEC51356E366A376A35C537F534C5EC
:101A180036F5356A346A34C51AF535C51BF536C549
:101A28001CF537C51DF5BF0E1E6EE40E1F6E000EA9
:101A3800216E290E206E48EC21F00601EB51346E20
:101A4800EC51356E366A376A35C537F534C536F523
:101A5800356A346A290E34241A6E000E35201B6E3E
:101A6800000E36201C6E000E37201D6E580E1E6E9E
:101A7800070E1F6E000E216E160E206E48EC21F028
:101A88006FEF0DF0EBC62EF5ECC62FF584EC22F0C7
:101A98000601EB51346EEC51356E366A376A35C53E
:101AA80037F534C536F5356A346AA10E34241A6E12
:101AB800000E35201B6E000E36201C6E000E3720DF
:101AC8001D6E580E1E6E070E1F6E000E216E160E2E
:101AD800206E48EC21F012000501D451D511D8B47C
:101AE80078EF0DF07AEF0DF086EF0DF0D4C5D9F44C
:101AF800D5C5DAF4EF0EDE6EBE0EDE6EAD0EDE6E0E
:101B0800DE0EDD6ECF5107E1100ECE5DD8B08FEF3F
:101B18000DF091EF0DF0AEEF0DF0790ED66F080EC7
:101B2800D76F020ED627000ED723D890CE35D96EA0
:101B3800CF35DA6ED890D936DA36D651D926D7517C
:101B4800DA22DE50DE10D8A4ACEF0DF0AEEF0DF0C7
:101B5800BDEF0DF0C50EB46FF40EB56FCEC5B6F57A
:101B6800CFC5B7F5F8EC2BF00501CE69CF69FDEFCD
:101B78000DF0D451D511D8B4C4EF0DF0C6EF0DF067
:101B8800F9EF0DF0790ED66F080ED76FD890CE35D5
:101B9800D96ECF35DA6ED890D936DA36D651D926FD
:101BA800D751DA22DEC408F5DDC409F5D0C50AF537
:101BB800D1C50BF51FEC2CF00501D2510826D351E5
:101BC8000922FF0E0824D86FFF0E0920D96FDA6B9F
:101BD800DB6BD4C5D9F4D5C5DAF4D8C5DEF4D9C5DC
:101BE800DEF4DAC5DEF4DBC5DEF4000ECF6F000EDE
:101BF800CE6F12000501CE510601EB1909E105016E
:101C0800CF510601EC19D8A40CEF0EF00EEF0EF030
:101C180010EF0EF088EF0EF0070133510501CE5D8D
:101C2800CF51800AD06F07013451800A0501D0597D
:101C3800D8A021EF0EF023EF0EF03EEF0EF00701D3
:101C4800FC51D8B42AEF0EF02CEF0EF03EEF0EF058
:101C5800000EFC6F500E0501B46FEE0EB56FCEC5C9
:101C6800B6F5CFC5B7F5F8EC2BF0000E07014E6FAF
:101C7800010E4D6F07011D511E111F11D8B447EFFA
:101C88000EF049EF0EF05EEF0EF0EBC628F5ECC64D
:101C980029F5CEC52AF5CFC52BF502D85EEF0EF093
:101CA8000500FA6E1D51FD6E1E51FE6E1F51FF6E2E
:101CB800FA501200CEC5EBF6CFC5ECF60601EB5193
:101CC8000501D06F0601EC510501D16FD26BD36BC2
:101CD800D1C5D3F5D0C5D2F5D16BD06BD0C508F539
:101CE800D1C509F5D2C50AF5D3C50BF502D888EFD9
:101CF8000EF00500FA6E0701CE51FD6ECF51FE6E53
:101D0800D051FF6EFA5012001200000E116E0FBE75
:101D180092EF0EF090EF0EF09CEF0EF00F1E0E1EDD
:101D28000D1E0C6C000E0D220E220F22010E116EDC
:101D38000BBEA3EF0EF0A1EF0EF0ADEF0EF00B1EF1
:101D48000A1E091E086C000E09220A220B22010E27
:101D5800111A000E126E000E136E000E146E000E95
:101D6800156E0C500D100E100F10D8B4BEEF0EF0FB
:101D7800C0EF0EF0F6EF0EF0010E106ECAEF0EF087
:101D8800D8900C360D360E360F36102A0FAECFEF20
:101D98000EF0D1EF0EF0C4EF0EF0D89012361336D5
:101DA800143615360C50085C0D5009580E500A5858
:101DB8000F500B58D8A0E3EF0EF0E5EF0EF0EEEF62
:101DC8000EF00C50085E0D50095A0E500A5A0F506A
:101DD8000B5A1280D8900F320E320D320C32102E60
:101DE800D1EF0EF01150D8B4FCEF0EF0FEEF0EF06C
:101DF80006EF0FF0151E141E131E126C000E132290
:101E08001422152212C508F513C509F514C50AF5DB
:101E180015C50BF512000A340B34116E1150D8A4F5
:101E280018EF0FF01AEF0FF024EF0FF0000E086E06
:101E3800000E096E000E0A6E000E0B6E91EF0FF089
:101E480008C50CF509C50DF50AC50EF50BC50FF546
:101E5800200E34EF0FF0D8900F320E320D320C32C4
:101E6800E82E2FEF0FF00C50106E0A8EFF0E08169A
:101E7800FF0E0916FF0E0A16000E0B16960E115EBF
:101E880011BE4BEF0FF049EF0FF061EF0FF011505B
:101E9800800A970FD8B053EF0FF055EF0FF057EFB8
:101EA8000FF01AEF0FF0D8900B320A3209320832CD
:101EB800113E57EF0FF079EF0FF01F0E116467EF27
:101EC8000FF069EF0FF071EF0FF01AEF0FF0D890E5
:101ED800083609360A360B3611061150D8A477EFA2
:101EE8000FF079EF0FF06BEF0FF01050D8B47FEFD1
:101EF8000FF081EF0FF089EF0FF00B1E0A1E091E7D
:101F0800086C000E09220A220B2208C508F509C52B
:101F180009F50AC50AF50BC50BF51200000E2114C8
:101F2800296E000E22142A6E800E23142B6E7F0E4B
:101F380024142C6E29502A102B102C10D8A4A7EF8B
:101F48000FF0A9EF0FF0B1EF0FF0000E216E000EA9
:101F5800226E000E236E000E246E000E2514296ECC
:101F6800000E26142A6E800E27142B6E7F0E28145E
:101F78002C6E29502A102B102C10D8A4C6EF0FF065
:101F8800C8EF0FF0D0EF0FF0000E256E000E266E92
:101F9800000E276E000E286E24AED5EF0FF0D7EF97
:101FA8000FF0E0EF0FF0216C221ED8B0222A231E7A
:101FB800D8B0232A800E245628AEE5EF0FF0E7EFBD
:101FC8000FF0F0EF0FF0256C261ED8B0262A271E3A
:101FD800D8B0272A800E2856000E211A000E221A81
:101FE800000E231A800E241A000E251A000E261A37
:101FF800000E271A800E281A2550215C26502258D8
:102008002750235828502458D8B00DEF10F00FEF60
:1020180010F012EF10F0D89013EF10F0D8801200E3
:10202800E3C5D9F4E4C5DAF45A0EDE18DE10D8B4E4
:1020380020EF10F022EF10F094EF10F0E3C5D9F480
:10204800E4C5DAF4DE50DE10D8A42DEF10F02FEF3F
:1020580010F031EF10F094EF10F092EC2DF05A0ED2
:1020680008180910D8B43BEF10F03DEF10F050EF0E
:1020780010F0160E0501CE6FE60ECF6F900ED06FE2
:10208800F70ED16F030ED36F630ED26FE20ED46FCB
:10209800EF0ED56F11EC2BF087EC28F0000E07013E
:1020A800466F460E456F000E0501D66F000ED76FBE
:1020B800AA0EC1ECB4F0F4EC14F0000E0701466F60
:1020C800320E456FE3C5D9F4E4C5DAF40A0EDE181A
:1020D800DE10D8A472EF10F074EF10F08EEF10F04D
:1020E80002D883EF10F00500FA6E0801C251FD6EA8
:1020F800C351FE6EC451FF6EFA50000E1200000E5E
:102108000B6E010E0A6E0CEC2CF0000E0701466FE8
:102118000A0E456FE3C5D9F4E4C5DAF4DE6ADD6A70
:102128001200090E0501D86FCE51CF11D8B49FEF18
:1021380010F0A1EF10F0F6EF10F0CEC5D9F4CFC52E
:10214800DAF4DE50DE10D8B4ACEF10F0AEEF10F0D9
:10215800F6EF10F0CEC5D9F4CFC5DAF4DEC4D2F567
:10216800DDC4D3F5D2C5D9F4D3C5DAF4DF50D8B479
:10217800C0EF10F0C2EF10F0F6EF10F0CEC5D9F4B2
:10218800CFC5DAF410EE06F0DE50E126DD50E2228B
:1021980020EE02F0CE51D926CF51DA22E650DE18D1
:1021A80007E1E650DE18D8A4DCEF10F0DEEF10F0FF
:1021B800F6EF10F0CEC5D9F4CFC5DAF410EE01F081
:1021C800DE50E126DD50E222E750C7EC20F00501A1
:1021D800D26FD2B1F2EF10F0F4EF10F0F6EF10F08A
:1021E800000ED86FD851D8B4FCEF10F0FEEF10F005
:1021F80004EF11F0000ED66F000ED76F0CEF11F040
:10220800CEC5D9F4CFC5DAF4DEC4D6F5DDC4D7F52A
:10221800D0C5D9F4D1C5DAF4D6C5DEF4D7C5DDF416
:10222800D8511200000E096E000E086EA6EC2CF0B4
:1022380008C50CF509C50DF50CC508F50DC509F55A
:10224800A6EC2CF00CB02BEF11F02EEF11F0010ED4
:102258002FEF11F0000E0801626F0CB236EF11F08B
:1022680039EF11F0010E3AEF11F0000E636F0CB464
:1022780040EF11F043EF11F0010E44EF11F0000EA2
:10228800646F0CB64AEF11F04DEF11F0010E4EEFEE
:1022980011F0000E656F000E096E000E086EB3ECAB
:1022A8002CF008C50CF509C50DF50CC508F50DC5CC
:1022B80009F5B3EC2CF00CB064EF11F067EF11F0F6
:1022C800010E68EF11F0000E0801666F0CB26FEF97
:1022D80011F072EF11F0010E73EF11F0000E676F3D
:1022E8000CB479EF11F07CEF11F0010E7DEF11F0D5
:1022F800000E686F0CB683EF11F086EF11F0010E37
:1023080087EF11F0000E696F0401435108016A6FED
:102318000401445108016B6F0401455108016C6FB9
:102328006D6B120009C712F50AC713F50BC714F530
:102338000CC715F508C512F509C513F50AC514F536
:102348000BC515F512C50CF513C50DF514C50EF51D
:1023580015C50FF5180EB6EF11F0D8900F320E32E2
:102368000D320C32E82EB1EF11F00C50106E116ADC
:1023780010501110D8A4C3EF11F0C5EF11F0E5EF1C
:1023880011F0D89012340C6E13340D6E14340E6E96
:1023980015340F6E0C500D100E100F10D8A4D7EF77
:1023A80011F0D9EF11F0DFEF11F0000E096E020EF7
:1023B800086E14EF12F0000E096E030E086E14EF8B
:1023C80012F010281110D8A4ECEF11F0EEEF11F074
:1023D80010EF12F012C50CF513C50DF514C50EF566
:1023E80015C50FF5090ED8900C360D360E360F367A
:1023F800E82EF7EF11F00C500D100E100F10D8B496
:1024080008EF12F00BEF12F0010E0CEF12F0000EB5
:10241800086E096A14EF12F0000E096E040E086EB9
:10242800120007014D514E11D8A41DEF12F01FEFF5
:1024380012F021EF12F092EF12F002D82EEF12F004
:102448000500FA6EC851FD6EC951FE6ECA51FF6E85
:10245800FA501200D8A033EF12F035EF12F037EF30
:1024680012F092EF12F002D846EF12F00500FA6E61
:102478000701D451FD6ED551FE6ED651FF6EFA504C
:10248800000E12006A0EE82EFED700D002D858EFD0
:1024980012F00500FA6E0701C851FD6EC951FE6EB3
:1024A800CA51FF6EFA501200D8A05DEF12F05FEF2C
:1024B80012F070EF12F002D86EEF12F00500FA6E0B
:1024C8000701D451FD6ED551FE6ED651FF6EFA50FC
:1024D800010E120092EF12F0000E07014E6F000E6F
:1024E8004D6F000E0B6E010E0A6E0CEC2CF0A8EC72
:1024F8002DF0000E0B6E000E0A6E0CEC2CF002D8BC
:1025080092EF12F00500FA6E0701D451FD6ED55115
:10251800FE6ED651FF6EFA50010E12001200C8EC82
:1025280021F0000EC16E400EC96EC294CA94BE82DC
:10253800C692000E0201026FBE86C696000E046F98
:10254800BE88C698000E056FC18E000E206F04016C
:1025580013911393139542EC27F0000E086E000EAA
:10256800096E000E0A6E000E0B6E02D8C7EF12F04D
:102578000500FA6E0701CE51FD6ECF51FE6ED051A7
:10258800FF6EFA501200000E07014C6F000E4B6FE1
:102598004CBFD8EF12F04C5109E1140E4B5DD8A096
:1025A800D8EF12F0DAEF12F0E3EF12F0F50E0501B2
:1025B800B46FF60EB56FF8EC2BF0E1EF12F0000EE9
:1025C8000501D76F000ED66F000ED96F010ED86FB8
:1025D800000EDB6F640EDA6FBCECBEF00501D6515D
:1025E800D711D8A4FAEF12F0FCEF12F0FEEF12F0B8
:1025F8000FEF13F0110E0501D16F3C0ED06FCB0E0B
:10260800E82EFED7D02FFCD7D12FFAD707014B4B96
:102618004C2BCCEF12F01200C4C6C8F6C5C6C9F6DA
:10262800C80E086E060E096EB4ECF5F008C5CCF6B7
:1026380009C5CDF60601CDBF26EF13F024EF13F040
:1026480029EF13F00B0E8CEF13F0D890CC35D96E20
:10265800CD35DA6E510ED926070EDA22DEC4CAF657
:10266800DDC4CBF6CA51CB11D8B43DEF13F03FEF20
:1026780013F04FEF13F0D890CC35D96ECD35DA6E14
:10268800510ED926070EDA22DE6ADD6ACAC6D9F4E7
:10269800CBC6DAF4DF6AC251C311D8B456EF13F0CF
:1026A80058EF13F072EF13F020EE01F0C251D92663
:1026B800C351DA22CCC6DFF4C2C6D9F4C3C6DAF4F1
:1026C800DF6AD890CC35D96ECD35DA6E510ED92661
:1026D800070EDA22C2C6DEF4C3C6DDF4C651D8A49A
:1026E80078EF13F07AEF13F07DEF13F0000E8CEF14
:1026F80013F0C40E946F060E956FC20E966F060EF9
:10270800976F000E986F03EC96F00601C76FC751DC
:102718001200000E0D6E000E0C6E08016251D8A456
:1027280098EF13F09BEF13F0010E9CEF13F0000EDF
:102738000C126351D8A4A3EF13F0A5EF13F0A7EF81
:1027480013F0A8EF13F00C826451D8A4AEEF13F085
:10275800B0EF13F0B2EF13F0B3EF13F00C84655140
:10276800D8A4B9EF13F0BBEF13F0BDEF13F0BEEF31
:1027780013F00C860CC508F50DC509F5A6EC2CF070
:10278800000E0D6E000E0C6E08016651D8A4CFEF36
:1027980013F0D2EF13F0010ED3EF13F0000E0C126A
:1027A8006751D8A4DAEF13F0DCEF13F0DEEF13F083
:1027B800DFEF13F00C826851D8A4E5EF13F0E7EFD0
:1027C80013F0E9EF13F0EAEF13F00C846951D8A481
:1027D800F0EF13F0F2EF13F0F4EF13F0F5EF13F05E
:1027E8000C860CC508F50DC509F5B3EC2CF06AC8C4
:1027F80043F46BC844F46CC845F46AC843F46BC826
:1028080044F46CC845F41200900E0801DA6F430EC8
:10281800DB6F000EDC6F060ED76F530ED86F000EFD
:10282800D96F960ED46F5A0ED56F000ED66F380E2C
:10283800D16F5B0ED26F000ED36FD20E0701E66F19
:10284800360EE76F000EE86F5E0EE36F350EE46F2D
:10285800000EE56F2E0EE06FE30EE16F010EE26FE2
:10286800660E0801CE6F5B0ECF6F000ED06F000EA4
:10287800CB6F000ECC6F000ECD6F620EC86F5B0E73
:10288800C96F000ECA6F400E0701DD6F5B0EDE6F69
:10289800000EDF6F480EDA6F5B0EDB6F000EDC6F29
:1028A800E40ED76F590ED86F000ED96F000E0801CD
:1028B800C56F000EC66F000EC76FCC0E0601EF6F16
:1028C800590EF06F000EF16F6E0E0701D46F5A0E9D
:1028D800D56F000ED66F420E0801C26F5A0EC36F35
:1028E800000EC46F580E0701D16F5A0ED26F000E3A
:1028F800D36F1200000E116E0BBE87EF14F085EF38
:1029080014F091EF14F00B1E0A1E091E086C000E3D
:1029180009220A220B22010E116E0FBE98EF14F045
:1029280096EF14F0A0EF14F00F1E0E1E0D1E0C6C87
:10293800000E0D220E220F220C500D100E100F103B
:10294800D8B4A9EF14F0ABEF14F0DBEF14F0010EDC
:10295800106EB5EF14F0D8900C360D360E360F36D3
:10296800102A0FAEBAEF14F0BCEF14F0AFEF14F06A
:102978000C50085C0D5009580E500A580F500B584F
:10298800D8A0C9EF14F0CBEF14F0D3EF14F00C502B
:10299800085E0D50095A0E500A5A0F500B5AD8901B
:1029A8000F320E320D320C32102EBCEF14F01150D3
:1029B800D8B4E1EF14F0E3EF14F0EBEF14F00B1ED2
:1029C8000A1E091E086C000E09220A220B2208C5DD
:1029D80008F509C509F50AC50AF50BC50BF5120076
:1029E800F9EC24F0C6EC24F007016A516B11D8A465
:1029F80000EF15F002EF15F059EF15F0EBC622F5D0
:102A0800ECC623F51AEC29F007016C51D8B40FEF86
:102A180015F011EF15F036EF15F00601EB51286EA1
:102A2800EC51296E2A6A2B6A29C52BF528C52AF587
:102A3800296A286A0B0E28241A6E000E29201B6E9C
:102A4800000E2A201C6E000E2B201D6E240E1E6EFA
:102A5800E50E1F6E000E216E030E206E48EC21F06D
:102A680059EF15F00601EB51286EEC51296E2A6AD0
:102A78002B6A29C52BF528C52AF5296A286A0B0E61
:102A880028241A6E000E29201B6E000E2A201C6EA8
:102A9800000E2B201D6E270E1E6EE50E1F6E000EFB
:102AA800216E030E206E48EC21F0070149514A11AE
:102AB800D8B461EF15F063EF15F067EF15F0000E6D
:102AC8004E6F010E4D6F12009BC6CEF59CC6CFF51A
:102AD8009F0E0501D06F060ED16F95EC10F0060120
:102AE800A16FA151D8A47BEF15F07DEF15F0D9EFB8
:102AF80015F09D519E11D8A484EF15F086EF15F0BE
:102B080098EF15F09BC650F69CC651F6000E526F12
:102B1800000E536F000E546F000E556F84ECD5F005
:102B28000601A16FD9EF15F09BC68EF69CC68FF6ED
:102B3800000E916F000E906F6FECF2F00601A16F1E
:102B4800040EA119D8A4ABEF15F0ADEF15F0AFEF57
:102B580015F0000EA16FA151D8A4B5EF15F0B7EF8D
:102B680015F0D9EF15F09BC615F59CC616F59DC650
:102B780017F59EC618F548ECEAF09BC674F69CC695
:102B880075F6000E0601776F000E766FF3ECC9F04C
:102B98000601A16F040EA119D8A4D5EF15F0D7EF3F
:102BA80015F0D9EF15F0000EA16FA15112009AC6C9
:102BB800D9F49BC6DAF4DEC49CF6DDC49DF69AC649
:102BC8008EF69BC68FF6000E0601916F010E906F70
:102BD800DDEC09F006019E6F9E51D8A4F6EF15F0C2
:102BE800F8EF15F04AEF16F09CC62BF69DC62CF6AA
:102BF80020EE16F09A51D9269B51DA22DEC42DF622
:102C0800DEC42EF6DEC42FF6DEC430F6C0EC18F0B3
:102C180006019E6F9E51D8A414EF16F016EF16F019
:102C28004AEF16F020EE1AF09A51D9269B51DA2273
:102C3800DEC408F5DDC409F5000E0B6E000E0A6E41
:102C4800000E0D6E200E0C6E83EC03F0060120EED4
:102C58001AF09A51D9269B51DA22DEC408F5DDC450
:102C680009F51C0E9A250A6E000E9B210B6E000EAC
:102C78000D6E0B0E0C6E37EC28F0060120EE04F0FA
:102C88009C51D9269D51DA22010EDF6E9E51120009
:102C98000A6E590EF66EDD0EF76E000EF86E09001C
:102CA800F5500A5CD8A05BEF16F05DEF16F0B7EFB1
:102CB80016F05A0EF66EDD0EF76E000EF86E0A501C
:102CC8000900F55CD8A06BEF16F06DEF16F073EF06
:102CD80016F0000E096E010E086EBBEF16F05B0EC3
:102CE800F66EDD0EF76E000EF86E0900F5500A5C00
:102CF800D8A081EF16F083EF16F095EF16F05C0E72
:102D0800F66EDD0EF76E000EF86E0A500900F55CDF
:102D1800D8A091EF16F093EF16F095EF16F06DEF3F
:102D280016F05D0EF66EDD0EF76E000EF86E0900F9
:102D3800F5500A5CD8A0A3EF16F0A5EF16F0B7EF90
:102D480016F05E0EF66EDD0EF76E000EF86E0A5087
:102D58000900F55CD8A0B3EF16F0B5EF16F0B7EFA1
:102D680016F06DEF16F0000E096E000E086E1200D8
:102D780052505310D8A4C3EF16F0C5EF16F0CBEF9E
:102D880016F052C51AF553C51BF5D1EF16F0FF0E14
:102D980052241A6EFF0E53201B6E58A0D6EF16F061
:102DA800D8EF16F0E1EF16F016C50BF50C6A14C54E
:102DB8000DF515C50EF526EC19F01BBEE6EF16F05D
:102DC800E8EF16F0EAEF16F0EEEF16F0000E1B6EC5
:102DD800000E1A6E000E196E000E186E00EF17F036
:102DE800000E0C6E200E0B6E14C50DF515C50EF5F4
:102DF80026EC19F0184A192A1A50185C1950800A3A
:102E0800176E1B50800A1758D8A00DEF17F00FEF58
:102E180017F0F4EF16F058B014EF17F016EF17F09C
:102E28001FEF17F016C50BF50C6A14C50DF515C57F
:102E38000EF526EC19F0010E1824146E000E192058
:102E4800156E120008C510F509C511F50AC512F569
:102E58000BC513F537EF17F00C06D8A00D06104A6E
:102E6800112A124A132A0C500D10D8B43EEF17F04D
:102E780040EF17F05FEF17F010C5D9F411C5DAF479
:102E8800DF500E6E12C5F6F413C5F7F4000EF86E97
:102E9800250EF76403D00800F55005D0F6C4E9F410
:102EA800F7C4EAF4EF500E18D8B45DEF17F05FEFEF
:102EB80017F030EF17F00C500D10D8A466EF17F08C
:102EC80068EF17F06EEF17F0000E096E000E086E2F
:102ED8008CEF17F010C5D9F411C5DAF4DF500E6E77
:102EE80012C5F6F413C5F7F4000EF86E250EF76454
:102EF80003D00800F55005D0F6C4E9F4F7C4EAF4A5
:102F0800EF500F6E0F500E5C086E096AD8A00906C4
:102F18001200000E166E000E156E0EC5D9F40FC500
:102F2800DAF4DEC4F6F4DDC4F7F4000EF86E080037
:102F3800F5502A0AD8A4A3EF17F0A5EF17F0D9EF98
:102F480017F00EC5D9F40FC5DAF4DE2A000EDD221B
:102F580010C5D9F411C5DAF4DFC412F5020EDE2665
:102F6800DFC413F5000EDD2212C5D9F413C5DAF457
:102F7800DEC415F5DDC416F5EFEF17F015C508F535
:102F880016C509F5000E0B6E0A0E0A6E1FEC2CF022
:102F980014500824156E000E0920166E0EC5D9F4BB
:102FA8000FC5DAF4DE2A000EDD220EC5D9F40FC5EE
:102FB800DAF4DEC4F6F4DDC4F7F4000EF86E0800A7
:102FC800F550D00F146E090E1464EDEF17F0EFEF03
:102FD80017F0C2EF17F015C50EF516C50FF512005C
:102FE800A60EF66E510EF76E000EF86E02EE72F037
:102FF80010EE47F00900F5C4EEF4E550E150FAE1AF
:103008002C0EF66E5A0EF76E000EF86E01EEE9F30E
:1030180010EE16F00900F5C4EEF4E550E150FAE1BF
:1030280003EE00F014EEFCF0EE6AE550E150FCE12E
:10303800E250FAE102EE00F310EE00F1EE6AE5501C
:10304800E150FCE1E250FAE102EE00F210EE00F18C
:10305800EE6AE550E150FCE1E250FAE102EE00F1DF
:10306800D00EEE6AE806FDE102EE00F0720EEE6A9E
:10307800E806FDE101EE00F3800EEE6AE806FDE1E8
:1030880001EEE5F20A0EEE6AE806FDE101EE52F104
:10309800070EEE6AE806FDE10401080E5D6F000EFA
:1030A8005E6F000E5F6F00017AEFFEF0020E165E93
:1030B800000E175A185A195A20EE14F01450D9262F
:1030C8001550DA22FE0EDE241A6EFF0EDE201B6E6D
:1030D800FF0EDE201C6EFF0EDE201D6E1A50165CE1
:1030E8001B5017581C5018581D501958D8A07FEF5E
:1030F80018F081EF18F08BEF18F0000E146E000E28
:10310800156E000E166E000E176EBFEF18F020EE4B
:1031180028F01450D9261550DA22DEC41AF5DEC478
:103128001BF5DEC41CF5DEC41DF520EE0AF01450B4
:10313800D9261550DA22DEC41EF5DDC41FF51EC5DA
:1031480008F51FC509F50A6A0B6A16C50CF517C5F7
:103158000DF518C50EF519C50FF591EC24F01A50A8
:103168000824146E1B500920156E1C500A20166E78
:103178001D500B20176E1200000E0601356F20EE51
:103188002CF02B51D9262C51DA222D51DE180FE1C3
:103198002E51DE180CE12F51DE1809E13051DE18EE
:1031A800D8B4D9EF18F0DBEF18F024EF19F02BC6DC
:1031B80019F62CC61AF683ECF6F00601356F355170
:1031C800D8A4E9EF18F0EBEF18F024EF19F0300E5F
:1031D8002B250F6F000E2C21106F2DC611F62EC651
:1031E80012F62FC613F630C614F6000E166F010E2F
:1031F800156F20EE01F02B51D9262C51DA22DF5021
:10320800B1ECFDF00009D8B40CEF19F00EEF19F08D
:1032180015EF19F006012D692E692F693069010E25
:10322800356F060120EE2CF02B51D9262C51DA22CD
:103238002DC6DEF42EC6DEF42FC6DEF430C6DEF46C
:10324800355112000D500E10D8B42DEF19F02FEF94
:1032580019F038EF19F00D500E10D8A436EF19F008
:1032680038EF19F03DEF19F00B50CDEC2CF08AEF48
:1032780019F020EE0AF00D50D9260E50DA22DE5051
:10328800DE10D8B44AEF19F04CEF19F067EF19F0D7
:1032980020EE0AF00D50D9260E50DA2210EE03F077
:1032A8000D50E1260E50E222DE50E65CE650800A20
:1032B800136EDE50800A1358D8B065EF19F067EF27
:1032C80019F08AEF19F020EE03F00D50D9260E50B0
:1032D800DA22DEC40FF5DDC410F50DC5D9F40EC52C
:1032E800DAF4DEC411F5DDC412F50F501124D96EDD
:1032F80010501220DA6E0BC5DFF420EE03F00D50EB
:10330800D9260E50DA22DE2A000EDD2212000AC566
:1033180013F50BC514F50C501324116E0D50142021
:10332800126EDDEF19F0085009C50EF50F6E0E503C
:10333800086E0FC509F513C5D9F414C5DAF4DF50C2
:103348000E6E0E50081A134A142A08C50EF509C540
:103358000FF5040E106ED8900F320E32102EAFEF0C
:1033680019F00F0E0E16000E0F160E50081A0F50F9
:10337800091A08C50EF509C50FF50C0ED8900E36BA
:103388000F36E82EC2EF19F00E50081A0F50091A1E
:10339800FF0E08140E6E000E09140F6E050ED8905D
:1033A8000E360F36E82ED3EF19F00E50081A0F50CC
:1033B800091A1150135C12501458D8A0E6EF19F0EE
:1033C800E8EF19F097EF19F008C508F509C509F5F0
:1033D8001200010E0201616F83EC29F0000E020158
:1033E800626F1E0E636F050E656F0E0E676F010E1E
:1033F800056F020E046F030E206F000E0001D56FDB
:10340800000ED86F020ED96F040EDA6F7F0EDB6FD5
:10341800010EDC6F080EDD6F100EDE6F400EDF6FE1
:10342800800ED76F820ED66F010ED56F000ED86F43
:10343800020ED96F040EDA6F7F0EDB6F010EDC6FA0
:10344800080EDD6F200EDE6F400EDF6F800ED76F27
:10345800820ED66F020ED56F010ED86F060ED96F89
:103468007F0EDA6F7F0EDB6F010EDC6F080EDD6FEB
:10347800000EDE6F000EDF6F800ED76F8C0ED66FDA
:10348800000ED46FB59AA59A04012185CA84C2801A
:10349800C282120058A053EF1AF055EF1AF05FEFEE
:1034A8001AF01DC514F51EC515F51BC516F51CC566
:1034B80017F5C7EC29F020BE64EF1AF066EF1AF092
:1034C8006CEF1AF01FC524F520C525F570EF1AF02A
:1034D800000E256E000E246E000E236E000E226E66
:1034E80082EF1AF0000E0C6E200E0B6E1BC50DF548
:1034F8001CC50EF526EC19F0224A232A2450225C1A
:103508002350800A216E2550800A2158D8A08FEFB9
:103518001AF091EF1AF076EF1AF058B096EF1AF009
:1035280098EF1AF0A2EF1AF01DC514F51EC515F58F
:103538001BC516F51CC517F5C7EC29F01DC508F500
:103548001EC509F55FEC28F0245008241B6E255091
:1035580009201C6E12000EC518F50FC519F5195073
:103568003F0BC16E19ACBBEF1AF0BDEF1AF0C0EFFC
:103578001AF0C284C1EF1AF0C29418C5BFF4000E45
:10358800176E000E166E00EF1BF0BE981650102432
:10359800146E17501120156E14C5F6F415C5F7F4FE
:1035A800000EF86E250EF76404D0D0C4F5F40C00B4
:1035B80006D0F6C4E9F4F7C4EAF4D0C4EFF4BE8840
:1035C800182A18C5BFF41850D8A4EDEF1AF0EFEF79
:1035D8001AF0FEEF1AF0192A19503F0BC16E19ACF8
:1035E800F8EF1AF0FAEF1AF0FDEF1AF0C284FEEFC6
:1035F8001AF0C294164A172A1250165C135017581C
:10360800D8A009EF1BF00BEF1BF0C9EF1AF012005E
:103618000501D36F010E0501D46F25EF1BF0000ED5
:10362800D46F46EF1BF0E20EB46FEA0EB56FD3C548
:10363800B6F5B76BCEC5B8F5B96BF8EC2BF046EF1D
:103648001BF0CE51D16FD26BD251000AD8B42FEFF4
:103658001BF017EF1BF0D151000AD8B413EF1BF081
:10366800010AD8B417EF1BF0030AD8B417EF1BF000
:10367800010AD8B417EF1BF0070AD8B417EF1BF0EC
:1036880017EF1BF00601E951EA11D8B44EEF1BF011
:1036980050EF1BF066EF1BF0A60E0501B46FE80EA5
:1036A800B56FD3C5B6F5B76BCEC5B8F5B96BCFC591
:1036B800BAF5D0C5BBF5BC6BBD6BD4C5BEF5BF6B49
:1036C800F8EC2BF00501D45112000EC518F50FC502
:1036D80019F519503F0BC16E19AC75EF1BF077EF58
:1036E8001BF07AEF1BF0C2847BEF1BF0C29418C565
:1036F800BFF4000E176E000E166EB9EF1BF0BE96E3
:1037080016501024146E17501120156E14C5F6F4B7
:1037180015C5F7F4000EF86E250EF76403D00800FF
:10372800F55005D0F6C4E9F4F7C4EAF4EF50C06EDA
:10373800BE86182A18C5BFF41850D8A4A6EF1BF0E7
:10374800A8EF1BF0B7EF1BF0192A19503F0BC16EF9
:1037580019ACB1EF1BF0B3EF1BF0B6EF1BF0C2844E
:10376800B7EF1BF0C294164A172A1250165C135072
:103778001758D8A0C2EF1BF0C4EF1BF083EF1BF063
:10378800120020EE03F00850D9260950DA22DF5043
:103798000C6E0C50116E126A136A146A20EE02F055
:1037A8000850D9260950DA22DF500C6E0C5011C58A
:1037B8000EF512C50FF513C510F50D6A0D10116E33
:1037C8000E50126E0F50136E1050146E20EE01F052
:1037D8000850D9260950DA22DF500C6E0C5011C55A
:1037E8000EF512C50FF513C510F50D6A0D10116E03
:1037F8000E50126E0F50136E1050146E08C5D9F487
:1038080009C5DAF4DF500C6E0C5011C50EF512C55F
:103818000FF513C510F50D6A0D10116E0E50126ECE
:103828000F50136E1050146E11C508F512C509F526
:1038380013C50AF514C50BF51200256E00C72DF542
:1038480001C72EF525504009266E22C527F521C54A
:1038580028F520C529F51FC52AF5260E086E050E80
:10386800096E000E0B6E050E0A6E44EC20F001097D
:103878002B6E2DC50CF52EC50DF566EC2CF02DC55F
:1038880012F52EC513F5000E156E010E146EBCEC64
:1038980026F02DC508F52EC509F5260E0A6E050E6B
:1038A8000B6E000E0D6E060E0C6EAAEC1EF002C713
:1038B80019F503C71AF5FF0E60EC29F02C6E23C525
:1038C800D9F424C5DAF42CC5DFF42C28D8A46FEF7A
:1038D8001CF071EF1CF077EF1CF0000E206E010E4B
:1038E8001F6E7BEF1CF0000E206E000E1F6E120084
:1038F8000701F129F211D8B484EF1CF086EF1CF00F
:1039080088EF1CF0C6EC24F02650286E2750296E4C
:103918002A6A2B6A29C52BF528C52AF5296A286A37
:10392800660E28241A6E000E29201B6E000E2A200F
:103938001C6E000E2B201D6E760E1E6E070E1F6E5F
:10394800000E216E030E206E88EC21F02650286EA2
:103958002750296E2A6A2B6A29C52BF528C52AF50E
:10396800296A286A660E28241A6E000E29201B6E02
:10397800000E2A201C6E000E2B201D6E7F0E1E6E60
:10398800E40E1F6E000E216E030E206E48EC21F02F
:1039980026C5F1F727C5F2F71200000E0814106EBD
:1039A800000E0914116E800E0A14126E7F0E0B148D
:1039B800136E1050111012101310D8A4E6EF1CF05B
:1039C800E8EF1CF0F0EF1CF0000E086E000E096E18
:1039D800000E0A6E000E0B6E000E0C14106E000E18
:1039E8000D14116E800E0E14126E7F0E0F14136ECE
:1039F8001050111012101310D8A405EF1DF007EF86
:103A08001DF00FEF1DF0000E0C6E000E0D6E000E77
:103A18000E6E000E0F6E0C5008180FE10D500918AD
:103A28000CE10E500A1809E10F500B18D8B41FEF1B
:103A38001DF021EF1DF024EF1DF0D89025EF1DF0AB
:103A4800D8801200000E106E000E116E000E126E5D
:103A5800000E136E0C500D100E100F10D8B437EF67
:103A68001DF039EF1DF06FEF1DF0010E146E43EFDE
:103A78001DF0D8900C360D360E360F36142A0FAEC0
:103A880048EF1DF04AEF1DF03DEF1DF0D8901036BD
:103A98001136123613360C50085C0D5009580E506A
:103AA8000A580F500B58D8A05CEF1DF05EEF1DF0C0
:103AB80067EF1DF00C50085E0D50095A0E500A5A57
:103AC8000F500B5A1080D8900F320E320D320C3234
:103AD800142E4AEF1DF010C508F511C509F512C5D9
:103AE8000AF513C50BF512000701F329F411D8A440
:103AF80080EF1DF082EF1DF095EF1DF03C0E0501E3
:103B0800CE6FEC0ECF6F8B0ED06FF50ED16F000E0F
:103B1800D36FC00ED26F880ED46FF30ED56F11EC31
:103B28002BF0F3C72AF5F4C72BF5000E2D6EB70E50
:103B38002C6E49EC2AF00701F3510501D66F0701F5
:103B4800F4510501D76FD86BD96BD7C5D9F5D6C550
:103B5800D8F5D76BD66BD6C51AF5D7C51BF5D8C51A
:103B68001CF5D9C51DF5140E1E6EE30E1F6E000E52
:103B7800216EB70E206E48EC21F0000E0701306F61
:103B8800000E2F6F12000A6E550EF66EDD0EF76EE0
:103B9800000EF86E0900F5500A5CD8A0D6EF1DF0AB
:103BA800D8EF1DF010EF1EF0560EF66EDD0EF76E14
:103BB800000EF86E0A500900F55CD8A0E6EF1DF07B
:103BC800E8EF1DF0EEEF1DF0000E096E010E086E15
:103BD80014EF1EF0570EF66EDD0EF76E000EF86E3F
:103BE8000900F5500A5CD8A0FCEF1DF0FEEF1DF0AF
:103BF80010EF1EF0580EF66EDD0EF76E000EF86E22
:103C08000A500900F55CD8A00CEF1EF00EEF1EF06C
:103C180010EF1EF0E8EF1DF0000E096E000E086EA2
:103C2800120015C7B8F616C7B9F617C7BAF618C7F7
:103C3800BBF6B4C6D9F4B5C6DAF4DE50DE10D8B493
:103C480028EF1EF02AEF1EF050EF1EF0B4C6D9F48C
:103C5800B5C6DAF4DEC4B6F6DDC4B7F6B6C6D9F42E
:103C6800B7C6DAF4DF50D8B43CEF1EF03EEF1EF0D2
:103C780050EF1EF0B4C6D9F4B5C6DAF4DEC438F590
:103C8800DDC439F53EECECF038C5B8F639C5B9F6FF
:103C98003AC5BAF63BC5BBF6BAC6CEF5BBC6CFF534
:103CA800FEEC0DF0B8C666F7B9C667F7000E060158
:103CB800B36F010EB26F1200516E0701FE51D8B4F6
:103CC80068EF1EF06AEF1EF075EF1EF0AA0E51188D
:103CD800D8B471EF1EF073EF1EF075EF1EF0A9EF68
:103CE8001EF0AA0E5118D8A47CEF1EF07EEF1EF02D
:103CF80082EF1EF0000EFE6FA9EF1EF051AC87EFA9
:103D08001EF089EF1EF095EF1EF0FD0E0501B46F51
:103D1800F00EB56F000EB76FA00EB66FF8EC2BF073
:103D2800FF0051AE9AEF1EF09CEF1EF0A9EF1EF0B7
:103D3800670E0501B46FF10EB56F000EB76FA00ED8
:103D4800B66FF8EC2BF0A7EF1EF012000AC510F5BD
:103D58000BC511F50C500D10D8A4B5EF1EF0B7EF38
:103D68001EF0B9EF1EF0F3EF1EF00D500001836F47
:103D78000CC582F010C5D9F411C5DAF4DF50816F93
:103D8800104A112A000E0F6E010E0E6EDFEF1EF0A4
:103D980010C5D9F411C5DAF4DF50816F104A112A21
:103DA800B1A0D9EF1EF0DBEF1EF0D4EF1EF000013A
:103DB80080510E4A0F2A0C500E5C0D500F58D8A097
:103DC800E8EF1EF0EAEF1EF0CCEF1EF0B1A0EFEF27
:103DD8001EF0F1EF1EF0EAEF1EF000018051120014
:103DE800D69E070143514411D8B4FDEF1EF0FFEFF2
:103DF8001EF020EF1FF0B00E4125D96E0A0E4221A9
:103E0800DA6EDF500E6E010E4125086E000E42215B
:103E1800096E000E0B6E500E0A6EF6EC25F008C502
:103E280041F709C542F707014307D8A04407A7800F
:103E3800D68E0E5038EF1FF04D514E11D8B427EFE3
:103E48001FF029EF1FF02DEF1FF0D68E000E38EF70
:103E58001FF0D68E150E0D6EC60EE82EFED70D2E4F
:103E6800FCD700D0F4EF1EF012000C500D100E100D
:103E78000F10D8B442EF1FF044EF1FF074EF1FF09B
:103E8800010E106E4EEF1FF0D8900C360D360E3620
:103E98000F36102A0FAE53EF1FF055EF1FF048EF03
:103EA8001FF00C50085C0D5009580E500A580F505E
:103EB8000B58D8A062EF1FF064EF1FF06CEF1FF0F3
:103EC8000C50085E0D50095A0E500A5A0F500B5AE2
:103ED800D8900F320E320D320C32102E55EF1FF0E3
:103EE80008C508F509C509F50AC50AF50BC50BF596
:103EF800120008EC14F02E0E0801BF6F5B0EC06FA5
:103F0800000EC16F260EDA6F250EDB6F000EDC6F18
:103F1800280EBC6F4F0EBD6F000EBE6FDA0ED76F46
:103F2800330ED86F000ED96FFE0E0701CE6FFF0E4D
:103F3800CF6F010ED06FEC0ECB6F560ECC6F000E0C
:103F4800CD6FFC0EC86F590EC96F000ECA6F640E94
:103F58000801B96F580EBA6F000EBB6F6A0E0701E1
:103F6800C56F5B0EC66F000EC76F800ED16F590EFE
:103F7800D26F000ED36F1200EBC5CEF5ECC5CFF5AE
:103F8800EDC5D0F5EEC5D1F5EFC5D2F5F0C5D3F541
:103F9800D5EC07F0000E0501F56FEDC5F1F5EEC59E
:103FA800F2F5000EF46F000EF36FE5EF1FF0F1C5A8
:103FB800D9F4F2C5DAF4DF50F527F14BF22BF34BC5
:103FC800F42BEF51F35DF051F459D8A0EEEF1FF048
:103FD800F0EF1FF0DBEF1FF0490EB46FF20EB56F74
:103FE800EBC5B6F5ECC5B7F5FC0EB86FEE0EB96FBC
:103FF800F5C5BAF5BB6BF8EC2BF012000701F329F5
:10400800F411D8B40AEF20F00CEF20F00EEF20F0F6
:10401800F9EC24F02EC52AF52FC52BF5000E2D6ED0
:10402800A60E2C6E49EC2AF02E50306E2F50316EB1
:10403800326A336A31C533F530C532F5316A306AD0
:10404800660E30241A6E000E31201B6E000E3220D0
:104058001C6E000E33201D6E7F0E1E6EE40E1F6E4A
:10406800000E216E2A0E206E48EC21F02EC5F3F7C3
:104078002FC5F4F7000E0701306F010E2F6F1200E5
:10408800000E106E08C511F509C512F50A50112465
:104098000C6E0B5012200D6E79EF20F011C5D9F47B
:1040A80012C5DAF4DF50101A114A122A000E0F6EE8
:1040B800000E0E6E10AE63EF20F065EF20F067EF94
:1040C80020F0890E101AD89010360E4A0F2A0FBE0B
:1040D80077EF20F00F5009E1080E0E5CD8A077EFBB
:1040E80020F079EF20F05EEF20F00C50115C0D50BD
:1040F8001258D8A082EF20F084EF20F052EF20F081
:104108001050120007015451D8B48DEF20F08FEFF2
:1041180020F0C6EF20F02AC52CF5010E2D6E000EFA
:104128002E6E2C2A9BEF20F0D8902D362E362C2E72
:1041380098EF20F007012B512D162C512E162D50DB
:104148002E10D8A4AAEF20F0ACEF20F0C6EF20F094
:104158002AC522F52BC523F51AEC29F02AC52CF51A
:10416800010E2D6E000E2E6E2C2ABEEF20F0D89078
:104178002D362E362C2EBBEF20F02D5007012B1399
:104188002E502C131200516E5150D8B4CEEF20F09F
:10419800D0EF20F0E4EF20F00601E951EA11D8B49D
:1041A800D8EF20F0DAEF20F0E1EF20F0C10E0501A2
:1041B800B46FF20EB56FF8EC2BF0020E07EF21F09A
:1041C8000701E9290AE1EA2908E1EB2906E1EC29D6
:1041D800D8A4F1EF20F0F3EF20F006EF21F006016C
:1041E800E951EA11D8B4FBEF20F0FDEF20F0E1EF40
:1041F80020F0EB0E0501B46FF40EB56FF8EC2BF060
:10420800E1EF20F0000E12001A0E1124086E000EC5
:104218001220096EA1EC2AF008C517F509C518F592
:10422800196A1A6A0FC5D9F410C5DAF4030EDE1834
:10423800D8A421EF21F023EF21F03FEF21F0140E55
:104248001124086E000E1220096EA1EC2AF0085005
:10425800136E0950146E156A166A14C516F513C53F
:1042680015F5146A136A13501712145018121550C2
:10427800191216501A1217C50FF518C510F519C5D9
:1042880011F51AC512F512001AC50EF51BC50FF562
:104298001CC510F51DC511F502D85EEF21F005000B
:1042A800FA6E0701CB51FD6ECC51FE6ECD51FF6EFB
:1042B800FA50120002D86DEF21F00500FA6E0701DE
:1042C800DA51FD6EDB51FE6EDC51FF6EFA50000EC6
:1042D80012001AC50EF51BC50FF51EC510F51FC532
:1042E80011F520C512F521C513F502D887EF21F085
:1042F8000500FA6E0701E651FD6EE751FE6EE851C2
:10430800FF6EFA50120012001AC50EF51BC50FF504
:104318001CC510F51DC511F502D89EEF21F005004A
:10432800FA6E0701CB51FD6ECC51FE6ECD51FF6E7A
:10433800FA50120002D8ADEF21F00500FA6E07011D
:10434800DA51FD6EDB51FE6EDC51FF6EFA50FF0E46
:1043580012001AC50EF51BC50FF51EC510F51FC5B1
:1043680011F520C512F521C513F502D8C7EF21F0C4
:104378000500FA6E0701E351FD6EE451FE6EE5514A
:10438800FF6EFA5012001200080E0001B16F000E05
:104398000401006F000E086F000E106F000E186FFA
:1043A800209120932095000E086F000E106F000ECC
:1043B800186FC292CA92010E0201D56FA00ED46F77
:1043C800D189D18BC68E070E766FBE8CC69C260E01
:1043D800076FD28FC290CA90000EBF6E000EC76ED4
:1043E800000EC06E000EC86E3F0E036FC694540ECA
:1043F8000401436F550E446F050E456F000E476F5D
:104408004691468F120010C5F6F411C5F7F4000E58
:10441800F86E0800F5500C6E0D6ABDEC2AF00CC55C
:1044280017F50DC518F5104A112A12C5D9F413C588
:10443800DAF4DF50146E14500C6E0D6ABDEC2AF0DD
:104448000CC515F50DC516F5124A132A155017187F
:1044580007E116501818D8A434EF22F036EF22F0EE
:104468003FEF22F017501810D8A43DEF22F03FEF8D
:1044780022F007EF22F01550175C106E16501858EE
:10448800116E1200376E00C738F501C739F533C50C
:104498003CF534C53DF52FC51FF530C520F531C5B0
:1044A80021F532C522F53CC523F53DC524F5375025
:1044B80021EC1CF01FC53AF520C53BF53A503B10DE
:1044C800D8B469EF22F06BEF22F06FEF22F0CFEC57
:1044D8002BF083EF22F038C508F539C509F5010E30
:1044E8003C240A6E000E3D200B6EFF0E35240C6E28
:1044F800FF0E36200D6E49ECD7F0CFEC2BF01200F2
:104508000701F329F411D8B48CEF22F08EEF22F0D2
:1045180090EF22F0F9EC24F02EC52AF52FC52BF5E3
:10452800000E2D6EB70E2C6E49EC2AF02E50306E10
:104538002F50316E326A336A31C533F530C532F5E2
:10454800316A306A30C51AF531C51BF532C51CF51C
:1045580033C51DF5140E1E6EE30E1F6E000E216E80
:10456800B70E206E48EC21F02EC5F3F72FC5F4F7EF
:10457800000E0701306F000E2F6F12000701545113
:10458800D8B4C9EF22F0CBEF22F0F2EF22F0730E8D
:104598000501B46FF00EB56FE5C6B6F5E6C6B7F51A
:1045A800E7C6B8F5E8C6B9F5F8EC2BF0E5C633F67A
:1045B800E6C634F6E7C635F6E8C636F67F0E0601D7
:1045C800376F070E386F000E3A6F010E396F1FEC08
:1045D800F8F0000E0701546FF9EF22F0790E05018B
:1045E800B46FF20EB56FF8EC2BF0000E0601B36F46
:1045F800000EB26F120005EF23F0084A092A0A4A92
:104608000B2A08C5D9F409C5DAF4DF500C6E0AC5BF
:10461800F6F40BC5F7F4000EF86E0800F5500C1808
:10462800D8A419EF23F01BEF23F027EF23F008C5D8
:10463800D9F409C5DAF4DF50D8A425EF23F027EF21
:1046480023F001EF23F008C5D9F409C5DAF4DF50E7
:104658000C6E0AC5F6F40BC5F7F4000EF86E0800E8
:10466800F5500C5C086E096AD8A009061200B4C699
:10467800D9F4B5C6DAF4DE50DE10D8B446EF23F02C
:1046880048EF23F06CEF23F0B4C6D9F4B5C6DAF4DA
:10469800DEC4B6F6DDC4B7F6B6C6D9F4B7C6DAF4E2
:1046A800DF50D8B45AEF23F05CEF23F06CEF23F01F
:1046B800B4C6D9F4B5C6DAF4DEC438F5DDC439F5C4
:1046C8003EECECF038C549F739C54AF771EF23F0ED
:1046D800000E07014A6F010E496F000E0601B36F05
:1046E800000EB26F12000601EB510501DA6F0601E8
:1046F800EC510501DB6FDC6BDD6BDBC5DDF5DAC585
:10470800DCF5DB6BDA6B900EDA251A6E000EDB2116
:104718001B6E000EDC211C6E000EDD211D6E580E76
:104728001E6E070E1F6E000E216E160E206E88EC90
:1047380021F007016705D8B0A4EF23F0A6EF23F016
:10474800AEEF23F0020E6B6F000E6A6F78EC1DF06F
:10475800B2EF23F0000E6B6F000E6A6F1200245048
:104768000701315D25503259D8A0BDEF23F0BFEFC6
:1047780023F0C1EF23F0EBEF23F02250266E2350F5
:10478800276E286A296A27C529F526C528F5276AC4
:10479800266A315126241A6E325127201B6E000ECC
:1047A80028201C6E000E29201D6E000E31251E6E5D
:1047B8000B0E32211F6E3151245C206E3251255868
:1047C800216E88EC21F024C531F725C532F7120097
:1047D800AEC5B2F5AFC5B3F5000E0701266F000EE2
:1047E800256F0EEF24F0ACC593F5ADC594F5B20E68
:1047F8000501956F050E966FB0C597F5B1C598F58B
:1048080092EC89F005019351070125270501945180
:1048180007012623B2C5F6F4B3C5F7F4000EF86E07
:104828000800F5500009D8A41CEF24F01EEF24F06E
:10483800F7EF23F0000E0501AD6F000EAC6F12000C
:104848000601EB51226EEC51236E246A256A23C5BA
:1048580025F522C524F5236A226AA10E22241A6EA0
:10486800000E23201B6E000E24201C6E000E252037
:104878001D6E580E1E6E070E1F6E000E216E160E50
:10488800206E88EC21F007016705D8B04EEF24F0C0
:1048980050EF24F056EF24F0020E6B6F000E6A6F93
:1048A8005AEF24F0000E6B6F000E6A6F120008C5F5
:1048B800D9F409C5DAF40AC5DFF4084A092A0BC590
:1048C8000AF50CC50BF50DC50CF50D6A08C5D9F42C
:1048D80009C5DAF40AC5DFF4084A092A0BC50AF53E
:1048E8000CC50BF50DC50CF50D6A08C5D9F409C53D
:1048F800DAF40AC5DFF4084A092A0BC50AF50CC51B
:104908000BF50DC50CF50D6A08C5D9F409C5DAF41F
:104918000AC5DFF4084A092A1200000E106E000EBC
:10492800116E000E126E000E136E08A09EEF24F09A
:10493800A0EF24F0A8EF24F00C5010260D501122FF
:104948000E5012220F501322D8900C360D360E3608
:104958000F36D8900B320A32093208320850091043
:104968000A100B10D8A4BBEF24F0BDEF24F099EF88
:1049780024F010C508F511C509F512C50AF513C5C7
:104988000BF512000701F129F211D8A4CEEF24F09B
:10499800D0EF24F0D2EF24F0F8EF24F0F151226E9A
:1049A800F251236E246A256A23C525F522C524F50C
:1049B800236A226A660E22241A6E000E23201B6EBA
:1049C800000E24201C6E000E25201D6E760E1E6E15
:1049D800070E1F6E000E216E030E206E48EC21F0AC
:1049E800000E0701F26FF16912000701F329F411B3
:1049F800D8A401EF25F003EF25F005EF25F02BEF04
:104A080025F0F351226EF451236E246A256A23C5DA
:104A180025F522C524F5236A226A22C51AF523C57D
:104A28001BF524C51CF525C51DF5000E1E6E0B0EC5
:104A38001F6E31C720F532C721F548EC21F0000E72
:104A48000701F46FF369000E326F000E316F120028
:104A58000BBE3BEF25F00B500A10091006E10804C5
:104A6800D8B039EF25F03BEF25F056EF25F008C513
:104A78000CF509C50DF50AC50EF50BC50FF50C1E8D
:104A88000D1E0E1E0F1E0C2A000E0D220E220F22C6
:104A98000CC508F50DC509F50EC50AF50FC50BF5CA
:104AA8005EEF25F008C508F509C509F50AC50AF538
:104AB8000BC50BF51200066ED69E0701445107E19F
:104AC800500E435DD8B06BEF25F06DEF25F084EF05
:104AD80025F043514125016E44514221026E000EDA
:104AE800046E500E036E5AEC26F0B00E0124D96EF7
:104AF8000A0E0220DA6E06C5DFF40701434B442B89
:104B0800445109E1400E435DD8A08DEF25F08FEFA9
:104B180025F090EF25F0A790D68E12000D6ED69E48
:104B28000701405109E1500E3F5DD8A09EEF25F0E6
:104B3800A0EF25F0A9EF25F0B7A2A5EF25F0A7EF84
:104B480025F0A0EF25F0C4EC25F007013F513D25E5
:104B5800086E40513E21096E000E0B6E500E0A6E13
:104B6800F6EC25F0600E0824D96E0A0E0920DA6EDC
:104B78000DC5DFF407013F4B402BA782D68E1200EC
:104B8800E4EF25F0600E3D25D96E0A0E3E21DA6E5F
:104B9800DF500201C96F010E07013D25086E000EA6
:104BA8003E21096E000E0B6E500E0A6EF6EC25F0D3
:104BB80008C53DF709C53EF707013F07D8A04007DC
:104BC80007013F514011D8B4ECEF25F0EEEF25F086
:104BD800F5EF25F0B7B2F3EF25F0F5EF25F0C6EFC6
:104BE80025F012000A500B10D8B4FDEF25F0FFEFA6
:104BF80025F023EF26F0010E0C6E07EF26F0D89073
:104C08000A360B360C2A0BAE0CEF26F00EEF26F008
:104C180003EF26F00A50085C0B500958D8A017EF8C
:104C280026F019EF26F01DEF26F00A50085E0B500B
:104C3800095AD8900B320A320C2E0EEF26F008C50E
:104C480008F509C509F5120048EF26F0600E3D2564
:104C5800D96E0A0E3E21DA6EDF500201C96F010ECD
:104C680007013D25016E000E3E21026E000E046E06
:104C7800500E036E5AEC26F001C53DF702C53EF70B
:104C880007013F07D8A0400707013F514011D8B49A
:104C980050EF26F052EF26F059EF26F0B7B257EF53
:104CA80026F059EF26F02AEF26F0120003500410E0
:104CB800D8B461EF26F063EF26F087EF26F0010EF7
:104CC800056E6BEF26F0D89003360436052A04AE3D
:104CD80070EF26F072EF26F067EF26F00350015CC4
:104CE80004500258D8A07BEF26F07DEF26F081EF24
:104CF80026F00350015E0450025AD8900432033261
:104D0800052E72EF26F001C501F502C502F5120065
:104D1800010E146E200E0E10106E000E0F10116E84
:104D28009F0E1024126EFF0E1120136E135009E10E
:104D38001A0E125CD8A0A3EF26F0A5EF26F0B8EF64
:104D480026F0D00E0E24106EFF0E0F20116E11509B
:104D580009E10A0E105CD8A0B4EF26F0B6EF26F0F1
:104D6800B8EF26F0000E146E14C50EF50F6A120087
:104D7800186812C508F513C509F518EC27F0000ED8
:104D8800176E000E166ED9EF26F012C508F513C57A
:104D980009F5180E0A6E050E0B6E000E0D6E010E4B
:104DA8000C6EAAEC1EF0164A172A1450165C155001
:104DB8001758D8A0E2EF26F0E4EF26F0C9EF26F066
:104DC80012C508F513C509F5E9EC29F0120008C564
:104DD800F6F409C5F7F4000EF86E0800F5500A1845
:104DE800D8A4F9EF26F0FBEF26F001EF27F008C56D
:104DF80008F509C509F517EF27F008C5F6F409C540
:104E0800F7F4084A092A000EF86E0800F550000960
:104E1800D8A411EF27F013EF27F0EBEF26F0000EE0
:104E2800086E000E096E120008C50AF509C50BF5D3
:104E380020EE02F00A50D9260B50DA22DF50D8A40F
:104E480028EF27F02AEF27F03AEF27F0310E02017A
:104E5800126F320E116F20EE03F00A50D9260B5054
:104E6800DA22C8C4DFF4C890C892C88420EE02F0E1
:104E78000A50D9260B50DA22DF2A12009C0E0501AF
:104E8800B46FE70EB56FF8EC2BF0170E0501B46F91
:104E9800F20EB56FF8EC2BF0110E0501CF6F3C0E3A
:104EA800CE6FCB0EE82EFED7CE2FFCD7CF2FFAD75A
:104EB800FE0E0501B46FF10EB56FF8EC2BF09C0EE9
:104EC8000501B46FE70EB56FF8EC2BF012007EEF1A
:104ED80027F008C5D9F409C5DAF4DFC40AF5010ECC
:104EE800DE26DFC40BF5000EDD220AC5D9F40BC59A
:104EF800DAF4DF6A08C5D9F409C5DAF4DEC40AF5BC
:104F0800DDC40BF50AC5D9F40BC5DAF4200EDE189A
:104F1800D8B491EF27F093EF27F06DEF27F0120048
:104F280008500910D8B49BEF27F09DEF27F0B0EF99
:104F380027F0000E0201056F000E046FBE88BE86C2
:104F4800000EC76E400EC96ECA94000EC86EC69A8F
:104F5800BE82C692BCEF27F0C7687F0EC96ECA84AE
:104F6800C868C68AC682010E0201056F020E046F68
:104F78001200CC0E0601C26F180EC36F600EC46F0C
:104F8800FF0EC56F010EC66F10EC13F00009D8B400
:104F9800D0EF27F0D2EF27F0E0EF27F0E20E05017F
:104FA800B46FF00EB56FF8EC2BF0FF0E0601CF6F63
:104FB800FE0ECE6FE5EF27F0000E0601CF6F000E54
:104FC800CE6F1200B7A0EBEF27F0EDEF27F001EF5F
:104FD80028F0C7C207F50750D8B4F5EF27F0F7EF68
:104FE80027F0FCEF27F007505FEC25F001EF28F0E1
:104FF800000E07014E6F010E4D6F28EC26F00701D9
:105008003F514011D8A40BEF28F00DEF28F00EEF18
:1050180028F0A7921100B80E0501C86F050EC96FD8
:10502800B4C5BCF5B5C5BDF5000EC06F000EBF6FA9
:10503800000EC76F000EC66FBC0EAC6F050EAD6FCD
:10504800B6C5AEF5B7C5AFF5C80EB06F050EB16FF2
:10505800ECEC23F00501BF51B425D96EC051B52140
:10506800DA6EDF6A12000AC511F50BC512F508C51C
:105078000FF509C510F551EF28F011C5D9F412C57F
:10508800DAF4DF500E6E114A122A0FC5D9F410C592
:10509800DAF40EC5DFF40F4A102A0C06D8A00D0664
:1050A8000C2806E10D28D8A45CEF28F05EEF28F064
:1050B80041EF28F0120008C50AF509C50BF567EF9E
:1050C80028F0084A092A08C5F6F409C5F7F4000EBD
:1050D800F86E250EF76403D00800F55005D0F6C425
:1050E800E9F4F7C4EAF4EF500009D8A47EEF28F0F9
:1050F80080EF28F065EF28F00A50085C086E0B5026
:105108000958096E1200E0EC0CF00601EB51386EFC
:10511800EC51396E3A6A3B6A39C53BF538C53AF500
:10512800396A386A38C508F539C509F53AC50AF53E
:105138003BC50BF502D8ACEF28F00500FA6E070165
:10514800CE51FD6ECF51FE6ED051FF6EFA50120057
:1051580012001A0E0E24086E000E0F20096E10C5DC
:105168000AF511C50BF5E4EC2BF00CC5D9F40DC507
:10517800DAF4030EDE18D8A4C4EF28F0C6EF28F03E
:10518800D2EF28F0140E0E24086E000E0F20096EC0
:1051980012C50AF513C50BF5E4EC2BF01200286EC6
:1051A800756C6C29001A0000001A0000001A000033
:1051B800001A0000000000000000000000000000CD
:1051C8000000000000800000008000000080000057
:1051D8000080000000000000000000000000000047
:0551E80000644000001E
:1051EE00010E0C6E200E08180910D8B401EF29F02C
:1051FE0003EF29F016EF29F0F70E08240A6EFF0EC2
:10520E0009200B6E0B5009E1050E0A5CD8A012EFB7
:10521E0029F014EF29F016EF29F0000E0C6E0CC5D4
:10522E0008F5096A12002250246E2350256E266A54
:10523E00276A25C527F524C526F5256A246A080E92
:10524E0024241A6E000E25201B6E000E26201C6EC6
:10525E00000E27201D6E1C0E1E6EE30E1F6E000E1E
:10526E00216E060E206E48EC21F01200000E251A5B
:10527E00000E261A000E271A800E281A21C508F5D0
:10528E0022C509F523C50AF524C50BF525C50CF570
:10529E0026C50DF527C50EF528C50FF55CECBCF03F
:1052AE0008C521F509C522F50AC523F50BC524F558
:1052BE0012001B6E00C71CF501C71DF51CC516F5A7
:1052CE001DC517F555EC2CF01E6E1B501E18D8A4DC
:1052DE0073EF29F075EF29F081EF29F01906D8A0A8
:1052EE001A0619501A10D8A47FEF29F081EF29F071
:1052FE0065EF29F01E50120004011969C968096989
:10530E00C7681169C8680181C6800183C682018B96
:10531E00C68A198DC98CC18EC99E550E596FAA0E9B
:10532E00596F5991080E5D6F000E5E6F000E5F6F24
:10533E00550E596FAA0E596F598112000AC50CF5F8
:10534E000BC50DF508C50EF509C50FF50CC5F6F420
:10535E000DC5F7F40C4A0D2A000EF86E0EC5D9F4E1
:10536E000FC5DAF40E4A0F2A0800F5C4DFF4DF5039
:10537E00D8A4C4EF29F0C6EF29F0ADEF29F0120042
:10538E00000E1A6E000E196ED8EF29F018C50BF527
:10539E000C6A16C50DF517C50EF526EC19F0194A4F
:1053AE001A2A19501424D96E1A501520DA6EDF50AD
:1053BE00186E1850D8A4E6EF29F0E8EF29F0CDEFDB
:1053CE0029F0120008C50AF509C50BF520EE02F00A
:1053DE000A50D9260B50DA22DF06DF50D8A4FAEF96
:1053EE0029F0FCEF29F009EF2AF0000E0201126FEE
:1053FE00000E116F20EE03F00A50D9260B50DA2260
:10540E00DF50C86E120013BE17EF2AF0135006E1DC
:10541E001204D8B015EF2AF017EF2AF025EF2AF074
:10542E0012C514F513C515F5141E151E144A152AAA
:10543E0014C512F515C513F529EF2AF012C512F58C
:10544E0013C513F5120033EF2AF008C5D9F409C5B8
:10545E00DAF4DE2A000EDD2208C5D9F409C5DAF425
:10546E00DEC40AF5DDC40BF50AC5D9F40BC5DAF4B2
:10547E00200EDE18D8B446EF2AF048EF2AF02CEFB3
:10548E002AF012002A500701F31909E12B50F419E2
:10549E00D8B454EF2AF056EF2AF058EF2AF0F9EC70
:1054AE0024F02AC522F52BC523F52CC524F52DC5D0
:1054BE0025F5B3EC23F0000E0701306F010E2F6FB0
:1054CE0012000501CE510701335D3451800A516E31
:1054DE000501CF51800A5158D8B078EF2AF07AEFF3
:1054EE002AF084EF2AF0D60EB46FE70EB56FCEC554
:1054FE00B6F5CFC5B7F5F8EC2BF01200D9C5CEF541
:10550E00DAC5CFF5DB0E0501D06F050ED16F95EC28
:10551E0010F00501DD6FDD51D8A498EF2AF09AEF57
:10552E002AF0A0EF2AF0D9C5D9F4DAC5DAF4DE6A8A
:10553E00DD6A120020EE01F00850D9260950DA2259
:10554E00DF500A6E0A500D6E0E6A08C5D9F409C5F1
:10555E00DAF4DF500A6E0D500B6E0A500D6E0BC54D
:10556E000EF50DC508F50EC509F512009F0E0C249B
:10557E000E6EFF0E0D200F6E0F5007E11A0E0E5C11
:10558E00D8B0CCEF2AF0CEEF2AF0D4EF2AF05F0E8F
:10559E000C140C6E0D6AD8EF2AF00CC50CF50DC567
:1055AE000DF51200200E08100A6E000E09100B6E7B
:1055BE009F0E0A240C6EFF0E0B200D6E0D500AE18D
:1055CE001A0E0C5CD8A0EEEF2AF0F1EF2AF0010EC5
:1055DE00F2EF2AF0000E086E096A12000850091048
:1055EE000A100B10D8B4FEEF2AF000EF2BF008EFE4
:1055FE002BF0000E081A000E091A000E0A1A800E61
:10560E000B1A08C508F509C509F50AC50AF50BC533
:10561E000BF512002D0E0501B46FEE0EB56FCEC553
:10562E00B6F5CFC5B7F5D0C5B8F5D1C5B9F5D4C562
:10563E00BAF5D5C5BBF5D2C5BCF5D3C5BDF5F8ECED
:10564E002BF08CEC2DF0120008C50AF509C50BF5F0
:10565E0020EE02F00A50D9260B50DA22DF6A000E35
:10566E000001846F000E856F110E02016A6F120E1B
:10567E006B6FC6920001848F120032C515F533C5CB
:10568E0016F534C517F535C518F536C519F537C5F0
:10569E001AF5000E1B6E1AECC1F015C532F516C5C3
:1056AE0033F517C534F518C535F512006BEF2BF031
:1056BE00050E096E0F0E086EF10EE82EFED7082E9F
:1056CE00FCD7092EFAD700F007013F514011D8A49C
:1056DE0073EF2BF075EF2BF05FEF2BF012000EC572
:1056EE0008F50FC509F510C50AF511C50BF502D859
:1056FE008CEF2BF00500FA6E0701CE51FD6ECF51E7
:10570E00FE6ED051FF6EFA5012001200D00E082419
:10571E000A6EFF0E09200B6E0B500AE10A0E0A5C90
:10572E00D8A09CEF2BF09FEF2BF0010EA0EF2BF0EB
:10573E00000E086E096A12009F0E08240A6EFF0EF4
:10574E0009200B6E0B500AE11A0E0A5CD8A0B2EFBC
:10575E002BF0B5EF2BF0010EB6EF2BF0000E086E0E
:10576E00096A1200BF0E08240A6EFF0E09200B6E86
:10577E000B500AE11A0E0A5CD8A0C8EF2BF0CBEF43
:10578E002BF0010ECCEF2BF0000E086E096A120002
:10579E0000C719F501C71AF519C50CF51AC50DF58F
:1057AE0077EC2CF019C512F51AC513F5000E156E0F
:1057BE00010E146EBCEC26F0120008C5D9F409C512
:1057CE00DAF40AC5DFF4084A092A0B500A6E0B6A8E
:1057DE0008C5D9F409C5DAF40AC5DFF4084A092A5E
:1057EE001200B60E0501CC6F050ECD6F000EAC6F1C
:1057FE00000EAD6FB4C5AEF5B5C5AFF5CC0EB06F3E
:10580E00050EB16FECEC23F012000AC508F50BC5BE
:10581E0009F502D81EEF2CF00500FA6E0801BC51F6
:10582E00FD6EBD51FE6EBE51FF6EFA50120012009B
:10583E0008500A02F3C40CF5F4C40DF508500B021F
:10584E00F3500D2609500A02F3500D260CC508F52B
:10585E000DC509F51200B5BA37EF2CF039EF2CF063
:10586E0043EF2CF007014D514E11D8B441EF2CF0FF
:10587E0043EF2CF032EF2CF012007DEC1FF002D82B
:10588E0054EF2CF00500FA6E0801DA51FD6EDB5173
:10589E00FE6EDC51FF6EFA5012001200186816C52B
:1058AE0008F517C509F5180E0A6E050E0B6E000EDB
:1058BE000D6E010E0C6E49ECD7F0185012000CC58F
:1058CE0008F50DC509F518EC27F00CC508F50DC542
:1058DE0009F5000E0B6E010E0A6E0AEC2DF0120089
:1058EE000CC508F50DC509F5000E0B6E000E0A6EFF
:1058FE000AEC2DF00CC508F50DC509F5E9EC29F0FB
:10590E00120002D896EF2CF00500FA6E0801D7515E
:10591E00FD6ED851FE6ED951FF6EFA501200120074
:10592E009AEF2CF0530707015351800A7F0FD8B01E
:10593E00A3EF2CF0A5EF2CF099EF2CF01200E9C696
:10594E000AF5EAC60BF508C5E9F609C5EAF60AC571
:10595E0008F50BC509F5120056C50AF557C50BF526
:10596E0008C556F509C557F50AC508F50BC509F55D
:10597E001200086E0804D8A4C7EF2CF0C9EF2CF063
:10598E00CCEF2CF00001D785D79512000A6E5DEC96
:10599E002BF0B7A2D5EF2CF0D7EF2CF0D0EF2CF0E8
:1059AE000AC5C9F21200D80E0501B46FF20EB56F1A
:1059BE00B20EB66FF30EB76FF8EC2BF01200CEBA34
:1059CE00EBEF2CF0EDEF2CF0F0EF2CF0D890F1EF98
:1059DE002CF0D8801200CEB0F7EF2CF0F9EF2CF0AF
:1059EE00FCEF2CF0D890FDEF2CF0D8801200B5BA59
:1059FE0003EF2DF005EF2DF008EF2DF0D89009EF05
:105A0E002DF0D88012000A500B10D8B411EF2DF0E3
:105A1E0014EF2DF0BE8215EF2DF0BE921200FFFF97
:105A2E00FFFF0F0065FFFF00FF00FFFF6E08010084
:105A3E00CF0101FF086E08B027EF2DF02AEF2DF0F1
:105A4E00C2822BEF2DF0C2921200086E08B032EF18
:105A5E002DF035EF2DF0C18E36EF2DF0C19E1200D8
:105A6E00086E08B03DEF2DF040EF2DF0C28041EFF3
:105A7E002DF0C290120097EC2CF00AC508F50BC55C
:105A8E0009F5ABEC2DF01200000E086E800E096EBB
:105A9E00FF0E0A6EFF0E0B6E1200000E086E000E49
:105AAE00096E210E0A6E000E0B6E12000C0E07010F
:105ABE001D6F410E1E6F000E1F6F1200FF00000EB5
:105ACE000601B36F000EB26F1200EBC62EF5ECC6D8
